{
	"contracts/ERC20.sol": {
		"SellToken": {
			"abi": [
				{
					"inputs": [
						{
							"internalType": "contract IERC20",
							"name": "_token",
							"type": "address"
						}
					],
					"stateMutability": "nonpayable",
					"type": "constructor"
				},
				{
					"anonymous": false,
					"inputs": [
						{
							"indexed": true,
							"internalType": "address",
							"name": "buyer",
							"type": "address"
						},
						{
							"indexed": false,
							"internalType": "uint256",
							"name": "amount",
							"type": "uint256"
						}
					],
					"name": "Bought",
					"type": "event"
				},
				{
					"anonymous": false,
					"inputs": [
						{
							"indexed": true,
							"internalType": "address",
							"name": "seller",
							"type": "address"
						},
						{
							"indexed": false,
							"internalType": "uint256",
							"name": "amount",
							"type": "uint256"
						}
					],
					"name": "Sold",
					"type": "event"
				},
				{
					"inputs": [],
					"name": "balance",
					"outputs": [
						{
							"internalType": "uint256",
							"name": "",
							"type": "uint256"
						}
					],
					"stateMutability": "view",
					"type": "function"
				},
				{
					"inputs": [],
					"name": "buy",
					"outputs": [],
					"stateMutability": "payable",
					"type": "function"
				},
				{
					"inputs": [
						{
							"internalType": "uint256",
							"name": "amount",
							"type": "uint256"
						}
					],
					"name": "sell",
					"outputs": [],
					"stateMutability": "nonpayable",
					"type": "function"
				},
				{
					"inputs": [],
					"name": "token",
					"outputs": [
						{
							"internalType": "contract IERC20",
							"name": "",
							"type": "address"
						}
					],
					"stateMutability": "view",
					"type": "function"
				},
				{
					"inputs": [
						{
							"internalType": "uint256",
							"name": "amount",
							"type": "uint256"
						}
					],
					"name": "withdraw",
					"outputs": [],
					"stateMutability": "nonpayable",
					"type": "function"
				}
			],
			"devdoc": {
				"kind": "dev",
				"methods": {},
				"version": 1
			},
			"evm": {
				"assembly": "    /* \"contracts/ERC20.sol\":2392:3881  contract SellToken {... */\n  mstore(0x40, 0x80)\n    /* \"contracts/ERC20.sol\":2491:2495  this */\n  address\n    /* \"contracts/ERC20.sol\":2461:2496  address thisAddress = address(this) */\n  0x02\n  exp(0x0100, 0x00)\n  dup2\n  sload\n  dup2\n  0xffffffffffffffffffffffffffffffffffffffff\n  mul\n  not\n  and\n  swap1\n  dup4\n  0xffffffffffffffffffffffffffffffffffffffff\n  and\n  mul\n  or\n  swap1\n  sstore\n  pop\n    /* \"contracts/ERC20.sol\":2611:2696  constructor(IERC20 _token){... */\n  callvalue\n  dup1\n  iszero\n  tag_1\n  jumpi\n  0x00\n  dup1\n  revert\ntag_1:\n  pop\n  mload(0x40)\n  sub(codesize, bytecodeSize)\n  dup1\n  bytecodeSize\n  dup4\n  codecopy\n  dup2\n  dup2\n  add\n  0x40\n  mstore\n  dup2\n  add\n  swap1\n  tag_2\n  swap2\n  swap1\n  tag_3\n  jump\t// in\ntag_2:\n    /* \"contracts/ERC20.sol\":2655:2661  _token */\n  dup1\n    /* \"contracts/ERC20.sol\":2647:2652  token */\n  0x00\n  dup1\n    /* \"contracts/ERC20.sol\":2647:2661  token = _token */\n  0x0100\n  exp\n  dup2\n  sload\n  dup2\n  0xffffffffffffffffffffffffffffffffffffffff\n  mul\n  not\n  and\n  swap1\n  dup4\n  0xffffffffffffffffffffffffffffffffffffffff\n  and\n  mul\n  or\n  swap1\n  sstore\n  pop\n    /* \"contracts/ERC20.sol\":2679:2689  msg.sender */\n  caller\n    /* \"contracts/ERC20.sol\":2671:2676  owner */\n  0x01\n  0x00\n    /* \"contracts/ERC20.sol\":2671:2689  owner = msg.sender */\n  0x0100\n  exp\n  dup2\n  sload\n  dup2\n  0xffffffffffffffffffffffffffffffffffffffff\n  mul\n  not\n  and\n  swap1\n  dup4\n  0xffffffffffffffffffffffffffffffffffffffff\n  and\n  mul\n  or\n  swap1\n  sstore\n  pop\n    /* \"contracts/ERC20.sol\":2611:2696  constructor(IERC20 _token){... */\n  pop\n    /* \"contracts/ERC20.sol\":2392:3881  contract SellToken {... */\n  jump(tag_6)\n    /* \"#utility.yul\":88:205   */\ntag_8:\n    /* \"#utility.yul\":197:198   */\n  0x00\n    /* \"#utility.yul\":194:195   */\n  dup1\n    /* \"#utility.yul\":187:199   */\n  revert\n    /* \"#utility.yul\":334:460   */\ntag_10:\n    /* \"#utility.yul\":371:378   */\n  0x00\n    /* \"#utility.yul\":411:453   */\n  0xffffffffffffffffffffffffffffffffffffffff\n    /* \"#utility.yul\":404:409   */\n  dup3\n    /* \"#utility.yul\":400:454   */\n  and\n    /* \"#utility.yul\":389:454   */\n  swap1\n  pop\n    /* \"#utility.yul\":334:460   */\n  swap2\n  swap1\n  pop\n  jump\t// out\n    /* \"#utility.yul\":466:562   */\ntag_11:\n    /* \"#utility.yul\":503:510   */\n  0x00\n    /* \"#utility.yul\":532:556   */\n  tag_21\n    /* \"#utility.yul\":550:555   */\n  dup3\n    /* \"#utility.yul\":532:556   */\n  tag_10\n  jump\t// in\ntag_21:\n    /* \"#utility.yul\":521:556   */\n  swap1\n  pop\n    /* \"#utility.yul\":466:562   */\n  swap2\n  swap1\n  pop\n  jump\t// out\n    /* \"#utility.yul\":568:678   */\ntag_12:\n    /* \"#utility.yul\":619:626   */\n  0x00\n    /* \"#utility.yul\":648:672   */\n  tag_23\n    /* \"#utility.yul\":666:671   */\n  dup3\n    /* \"#utility.yul\":648:672   */\n  tag_11\n  jump\t// in\ntag_23:\n    /* \"#utility.yul\":637:672   */\n  swap1\n  pop\n    /* \"#utility.yul\":568:678   */\n  swap2\n  swap1\n  pop\n  jump\t// out\n    /* \"#utility.yul\":684:834   */\ntag_13:\n    /* \"#utility.yul\":771:809   */\n  tag_25\n    /* \"#utility.yul\":803:808   */\n  dup2\n    /* \"#utility.yul\":771:809   */\n  tag_12\n  jump\t// in\ntag_25:\n    /* \"#utility.yul\":764:769   */\n  dup2\n    /* \"#utility.yul\":761:810   */\n  eq\n    /* \"#utility.yul\":751:828   */\n  tag_26\n  jumpi\n    /* \"#utility.yul\":824:825   */\n  0x00\n    /* \"#utility.yul\":821:822   */\n  dup1\n    /* \"#utility.yul\":814:826   */\n  revert\n    /* \"#utility.yul\":751:828   */\ntag_26:\n    /* \"#utility.yul\":684:834   */\n  pop\n  jump\t// out\n    /* \"#utility.yul\":840:1011   */\ntag_14:\n    /* \"#utility.yul\":911:916   */\n  0x00\n    /* \"#utility.yul\":942:948   */\n  dup2\n    /* \"#utility.yul\":936:949   */\n  mload\n    /* \"#utility.yul\":927:949   */\n  swap1\n  pop\n    /* \"#utility.yul\":958:1005   */\n  tag_28\n    /* \"#utility.yul\":999:1004   */\n  dup2\n    /* \"#utility.yul\":958:1005   */\n  tag_13\n  jump\t// in\ntag_28:\n    /* \"#utility.yul\":840:1011   */\n  swap3\n  swap2\n  pop\n  pop\n  jump\t// out\n    /* \"#utility.yul\":1017:1396   */\ntag_3:\n    /* \"#utility.yul\":1101:1107   */\n  0x00\n    /* \"#utility.yul\":1150:1152   */\n  0x20\n    /* \"#utility.yul\":1138:1147   */\n  dup3\n    /* \"#utility.yul\":1129:1136   */\n  dup5\n    /* \"#utility.yul\":1125:1148   */\n  sub\n    /* \"#utility.yul\":1121:1153   */\n  slt\n    /* \"#utility.yul\":1118:1237   */\n  iszero\n  tag_30\n  jumpi\n    /* \"#utility.yul\":1156:1235   */\n  tag_31\n  tag_8\n  jump\t// in\ntag_31:\n    /* \"#utility.yul\":1118:1237   */\ntag_30:\n    /* \"#utility.yul\":1276:1277   */\n  0x00\n    /* \"#utility.yul\":1301:1379   */\n  tag_32\n    /* \"#utility.yul\":1371:1378   */\n  dup5\n    /* \"#utility.yul\":1362:1368   */\n  dup3\n    /* \"#utility.yul\":1351:1360   */\n  dup6\n    /* \"#utility.yul\":1347:1369   */\n  add\n    /* \"#utility.yul\":1301:1379   */\n  tag_14\n  jump\t// in\ntag_32:\n    /* \"#utility.yul\":1291:1379   */\n  swap2\n  pop\n    /* \"#utility.yul\":1247:1389   */\n  pop\n    /* \"#utility.yul\":1017:1396   */\n  swap3\n  swap2\n  pop\n  pop\n  jump\t// out\n    /* \"contracts/ERC20.sol\":2392:3881  contract SellToken {... */\ntag_6:\n  dataSize(sub_0)\n  dup1\n  dataOffset(sub_0)\n  0x00\n  codecopy\n  0x00\n  return\nstop\n\nsub_0: assembly {\n        /* \"contracts/ERC20.sol\":2392:3881  contract SellToken {... */\n      mstore(0x40, 0x80)\n      jumpi(tag_1, lt(calldatasize, 0x04))\n      shr(0xe0, calldataload(0x00))\n      dup1\n      0x2e1a7d4d\n      eq\n      tag_2\n      jumpi\n      dup1\n      0xa6f2ae3a\n      eq\n      tag_3\n      jumpi\n      dup1\n      0xb69ef8a8\n      eq\n      tag_4\n      jumpi\n      dup1\n      0xe4849b32\n      eq\n      tag_5\n      jumpi\n      dup1\n      0xfc0c546a\n      eq\n      tag_6\n      jumpi\n    tag_1:\n      0x00\n      dup1\n      revert\n        /* \"contracts/ERC20.sol\":3641:3799  function withdraw(uint amount) public onlyOwner {... */\n    tag_2:\n      callvalue\n      dup1\n      iszero\n      tag_7\n      jumpi\n      0x00\n      dup1\n      revert\n    tag_7:\n      pop\n      tag_8\n      0x04\n      dup1\n      calldatasize\n      sub\n      dup2\n      add\n      swap1\n      tag_9\n      swap2\n      swap1\n      tag_10\n      jump\t// in\n    tag_9:\n      tag_11\n      jump\t// in\n    tag_8:\n      stop\n        /* \"contracts/ERC20.sol\":2888:3254  function buy() public payable {... */\n    tag_3:\n      tag_12\n      tag_13\n      jump\t// in\n    tag_12:\n      stop\n        /* \"contracts/ERC20.sol\":2796:2883  function balance() public view returns(uint){... */\n    tag_4:\n      callvalue\n      dup1\n      iszero\n      tag_14\n      jumpi\n      0x00\n      dup1\n      revert\n    tag_14:\n      pop\n      tag_15\n      tag_16\n      jump\t// in\n    tag_15:\n      mload(0x40)\n      tag_17\n      swap2\n      swap1\n      tag_18\n      jump\t// in\n    tag_17:\n      mload(0x40)\n      dup1\n      swap2\n      sub\n      swap1\n      return\n        /* \"contracts/ERC20.sol\":3259:3636  function sell(uint amount) public {... */\n    tag_5:\n      callvalue\n      dup1\n      iszero\n      tag_19\n      jumpi\n      0x00\n      dup1\n      revert\n    tag_19:\n      pop\n      tag_20\n      0x04\n      dup1\n      calldatasize\n      sub\n      dup2\n      add\n      swap1\n      tag_21\n      swap2\n      swap1\n      tag_10\n      jump\t// in\n    tag_21:\n      tag_22\n      jump\t// in\n    tag_20:\n      stop\n        /* \"contracts/ERC20.sol\":2417:2436  IERC20 public token */\n    tag_6:\n      callvalue\n      dup1\n      iszero\n      tag_23\n      jumpi\n      0x00\n      dup1\n      revert\n    tag_23:\n      pop\n      tag_24\n      tag_25\n      jump\t// in\n    tag_24:\n      mload(0x40)\n      tag_26\n      swap2\n      swap1\n      tag_27\n      jump\t// in\n    tag_26:\n      mload(0x40)\n      dup1\n      swap2\n      sub\n      swap1\n      return\n        /* \"contracts/ERC20.sol\":3641:3799  function withdraw(uint amount) public onlyOwner {... */\n    tag_11:\n        /* \"contracts/ERC20.sol\":2753:2758  owner */\n      0x01\n      0x00\n      swap1\n      sload\n      swap1\n      0x0100\n      exp\n      swap1\n      div\n      0xffffffffffffffffffffffffffffffffffffffff\n      and\n        /* \"contracts/ERC20.sol\":2739:2758  msg.sender == owner */\n      0xffffffffffffffffffffffffffffffffffffffff\n      and\n        /* \"contracts/ERC20.sol\":2739:2749  msg.sender */\n      caller\n        /* \"contracts/ERC20.sol\":2739:2758  msg.sender == owner */\n      0xffffffffffffffffffffffffffffffffffffffff\n      and\n      eq\n        /* \"contracts/ERC20.sol\":2731:2773  require(msg.sender == owner,\"Only Owner!\") */\n      tag_29\n      jumpi\n      mload(0x40)\n      0x08c379a000000000000000000000000000000000000000000000000000000000\n      dup2\n      mstore\n      0x04\n      add\n      tag_30\n      swap1\n      tag_31\n      jump\t// in\n    tag_30:\n      mload(0x40)\n      dup1\n      swap2\n      sub\n      swap1\n      revert\n    tag_29:\n        /* \"contracts/ERC20.sol\":3715:3724  balance() */\n      tag_33\n        /* \"contracts/ERC20.sol\":3715:3722  balance */\n      tag_16\n        /* \"contracts/ERC20.sol\":3715:3724  balance() */\n      jump\t// in\n    tag_33:\n        /* \"contracts/ERC20.sol\":3707:3713  amount */\n      dup2\n        /* \"contracts/ERC20.sol\":3707:3724  amount<=balance() */\n      gt\n      iszero\n        /* \"contracts/ERC20.sol\":3699:3746  require(amount<=balance(), \"not enough funds!\") */\n      tag_34\n      jumpi\n      mload(0x40)\n      0x08c379a000000000000000000000000000000000000000000000000000000000\n      dup2\n      mstore\n      0x04\n      add\n      tag_35\n      swap1\n      tag_36\n      jump\t// in\n    tag_35:\n      mload(0x40)\n      dup1\n      swap2\n      sub\n      swap1\n      revert\n    tag_34:\n        /* \"contracts/ERC20.sol\":3764:3774  msg.sender */\n      caller\n        /* \"contracts/ERC20.sol\":3756:3784  payable(msg.sender).transfer */\n      0xffffffffffffffffffffffffffffffffffffffff\n      and\n        /* \"contracts/ERC20.sol\":3756:3792  payable(msg.sender).transfer(amount) */\n      0x08fc\n        /* \"contracts/ERC20.sol\":3785:3791  amount */\n      dup3\n        /* \"contracts/ERC20.sol\":3756:3792  payable(msg.sender).transfer(amount) */\n      swap1\n      dup2\n      iszero\n      mul\n      swap1\n      mload(0x40)\n      0x00\n      mload(0x40)\n      dup1\n      dup4\n      sub\n      dup2\n      dup6\n      dup9\n      dup9\n      call\n      swap4\n      pop\n      pop\n      pop\n      pop\n      iszero\n      dup1\n      iszero\n      tag_38\n      jumpi\n      returndatasize\n      0x00\n      dup1\n      returndatacopy\n      revert(0x00, returndatasize)\n    tag_38:\n      pop\n        /* \"contracts/ERC20.sol\":3641:3799  function withdraw(uint amount) public onlyOwner {... */\n      pop\n      jump\t// out\n        /* \"contracts/ERC20.sol\":2888:3254  function buy() public payable {... */\n    tag_13:\n        /* \"contracts/ERC20.sol\":2949:2956  _rate() */\n      tag_40\n        /* \"contracts/ERC20.sol\":2949:2954  _rate */\n      tag_41\n        /* \"contracts/ERC20.sol\":2949:2956  _rate() */\n      jump\t// in\n    tag_40:\n        /* \"contracts/ERC20.sol\":2936:2945  msg.value */\n      callvalue\n        /* \"contracts/ERC20.sol\":2936:2956  msg.value >= _rate() */\n      lt\n      iszero\n        /* \"contracts/ERC20.sol\":2928:2974  require(msg.value >= _rate(), \"Incorrect sum\") */\n      tag_42\n      jumpi\n      mload(0x40)\n      0x08c379a000000000000000000000000000000000000000000000000000000000\n      dup2\n      mstore\n      0x04\n      add\n      tag_43\n      swap1\n      tag_44\n      jump\t// in\n    tag_43:\n      mload(0x40)\n      dup1\n      swap2\n      sub\n      swap1\n      revert\n    tag_42:\n        /* \"contracts/ERC20.sol\":2984:3004  uint tokensAvailable */\n      0x00\n        /* \"contracts/ERC20.sol\":3007:3012  token */\n      dup1\n      0x00\n      swap1\n      sload\n      swap1\n      0x0100\n      exp\n      swap1\n      div\n      0xffffffffffffffffffffffffffffffffffffffff\n      and\n        /* \"contracts/ERC20.sol\":3007:3022  token.balanceOf */\n      0xffffffffffffffffffffffffffffffffffffffff\n      and\n      0x70a08231\n        /* \"contracts/ERC20.sol\":3023:3034  thisAddress */\n      0x02\n      0x00\n      swap1\n      sload\n      swap1\n      0x0100\n      exp\n      swap1\n      div\n      0xffffffffffffffffffffffffffffffffffffffff\n      and\n        /* \"contracts/ERC20.sol\":3007:3035  token.balanceOf(thisAddress) */\n      mload(0x40)\n      dup3\n      0xffffffff\n      and\n      0xe0\n      shl\n      dup2\n      mstore\n      0x04\n      add\n      tag_45\n      swap2\n      swap1\n      tag_46\n      jump\t// in\n    tag_45:\n      0x20\n      mload(0x40)\n      dup1\n      dup4\n      sub\n      dup2\n      dup7\n      gas\n      staticcall\n      iszero\n      dup1\n      iszero\n      tag_48\n      jumpi\n      returndatasize\n      0x00\n      dup1\n      returndatacopy\n      revert(0x00, returndatasize)\n    tag_48:\n      pop\n      pop\n      pop\n      pop\n      mload(0x40)\n      returndatasize\n      not(0x1f)\n      0x1f\n      dup3\n      add\n      and\n      dup3\n      add\n      dup1\n      0x40\n      mstore\n      pop\n      dup2\n      add\n      swap1\n      tag_49\n      swap2\n      swap1\n      tag_50\n      jump\t// in\n    tag_49:\n        /* \"contracts/ERC20.sol\":2984:3035  uint tokensAvailable = token.balanceOf(thisAddress) */\n      swap1\n      pop\n        /* \"contracts/ERC20.sol\":3045:3061  uint tokensToBuy */\n      0x00\n        /* \"contracts/ERC20.sol\":3076:3083  _rate() */\n      tag_51\n        /* \"contracts/ERC20.sol\":3076:3081  _rate */\n      tag_41\n        /* \"contracts/ERC20.sol\":3076:3083  _rate() */\n      jump\t// in\n    tag_51:\n        /* \"contracts/ERC20.sol\":3064:3073  msg.value */\n      callvalue\n        /* \"contracts/ERC20.sol\":3064:3083  msg.value / _rate() */\n      tag_52\n      swap2\n      swap1\n      tag_53\n      jump\t// in\n    tag_52:\n        /* \"contracts/ERC20.sol\":3045:3083  uint tokensToBuy = msg.value / _rate() */\n      swap1\n      pop\n        /* \"contracts/ERC20.sol\":3116:3131  tokensAvailable */\n      dup2\n        /* \"contracts/ERC20.sol\":3101:3112  tokensToBuy */\n      dup2\n        /* \"contracts/ERC20.sol\":3101:3131  tokensToBuy <= tokensAvailable */\n      gt\n      iszero\n        /* \"contracts/ERC20.sol\":3093:3154  require(tokensToBuy <= tokensAvailable, \"not enough tokens!\") */\n      tag_54\n      jumpi\n      mload(0x40)\n      0x08c379a000000000000000000000000000000000000000000000000000000000\n      dup2\n      mstore\n      0x04\n      add\n      tag_55\n      swap1\n      tag_56\n      jump\t// in\n    tag_55:\n      mload(0x40)\n      dup1\n      swap2\n      sub\n      swap1\n      revert\n    tag_54:\n        /* \"contracts/ERC20.sol\":3164:3169  token */\n      0x00\n      dup1\n      sload\n      swap1\n      0x0100\n      exp\n      swap1\n      div\n      0xffffffffffffffffffffffffffffffffffffffff\n      and\n        /* \"contracts/ERC20.sol\":3164:3178  token.transfer */\n      0xffffffffffffffffffffffffffffffffffffffff\n      and\n      0xa9059cbb\n        /* \"contracts/ERC20.sol\":3179:3189  msg.sender */\n      caller\n        /* \"contracts/ERC20.sol\":3190:3201  tokensToBuy */\n      dup4\n        /* \"contracts/ERC20.sol\":3164:3202  token.transfer(msg.sender,tokensToBuy) */\n      mload(0x40)\n      dup4\n      0xffffffff\n      and\n      0xe0\n      shl\n      dup2\n      mstore\n      0x04\n      add\n      tag_57\n      swap3\n      swap2\n      swap1\n      tag_58\n      jump\t// in\n    tag_57:\n      0x00\n      mload(0x40)\n      dup1\n      dup4\n      sub\n      dup2\n      0x00\n      dup8\n      dup1\n      extcodesize\n      iszero\n      dup1\n      iszero\n      tag_59\n      jumpi\n      0x00\n      dup1\n      revert\n    tag_59:\n      pop\n      gas\n      call\n      iszero\n      dup1\n      iszero\n      tag_61\n      jumpi\n      returndatasize\n      0x00\n      dup1\n      returndatacopy\n      revert(0x00, returndatasize)\n    tag_61:\n      pop\n      pop\n      pop\n      pop\n        /* \"contracts/ERC20.sol\":3224:3234  msg.sender */\n      caller\n        /* \"contracts/ERC20.sol\":3217:3247  Bought(msg.sender,tokensToBuy) */\n      0xffffffffffffffffffffffffffffffffffffffff\n      and\n      0xc55650ccda1011e1cdc769b1fbf546ebb8c97800b6072b49e06cd560305b1d67\n        /* \"contracts/ERC20.sol\":3235:3246  tokensToBuy */\n      dup3\n        /* \"contracts/ERC20.sol\":3217:3247  Bought(msg.sender,tokensToBuy) */\n      mload(0x40)\n      tag_62\n      swap2\n      swap1\n      tag_18\n      jump\t// in\n    tag_62:\n      mload(0x40)\n      dup1\n      swap2\n      sub\n      swap1\n      log2\n        /* \"contracts/ERC20.sol\":2918:3254  {... */\n      pop\n      pop\n        /* \"contracts/ERC20.sol\":2888:3254  function buy() public payable {... */\n      jump\t// out\n        /* \"contracts/ERC20.sol\":2796:2883  function balance() public view returns(uint){... */\n    tag_16:\n        /* \"contracts/ERC20.sol\":2835:2839  uint */\n      0x00\n        /* \"contracts/ERC20.sol\":2857:2868  thisAddress */\n      0x02\n      0x00\n      swap1\n      sload\n      swap1\n      0x0100\n      exp\n      swap1\n      div\n      0xffffffffffffffffffffffffffffffffffffffff\n      and\n        /* \"contracts/ERC20.sol\":2857:2876  thisAddress.balance */\n      0xffffffffffffffffffffffffffffffffffffffff\n      and\n      balance\n        /* \"contracts/ERC20.sol\":2850:2876  return thisAddress.balance */\n      swap1\n      pop\n        /* \"contracts/ERC20.sol\":2796:2883  function balance() public view returns(uint){... */\n      swap1\n      jump\t// out\n        /* \"contracts/ERC20.sol\":3259:3636  function sell(uint amount) public {... */\n    tag_22:\n        /* \"contracts/ERC20.sol\":3320:3321  0 */\n      0x00\n        /* \"contracts/ERC20.sol\":3311:3317  amount */\n      dup2\n        /* \"contracts/ERC20.sol\":3311:3321  amount > 0 */\n      gt\n        /* \"contracts/ERC20.sol\":3303:3352  require(amount > 0, \"must be greater than zero!\") */\n      tag_65\n      jumpi\n      mload(0x40)\n      0x08c379a000000000000000000000000000000000000000000000000000000000\n      dup2\n      mstore\n      0x04\n      add\n      tag_66\n      swap1\n      tag_67\n      jump\t// in\n    tag_66:\n      mload(0x40)\n      dup1\n      swap2\n      sub\n      swap1\n      revert\n    tag_65:\n        /* \"contracts/ERC20.sol\":3362:3376  uint allowance */\n      0x00\n        /* \"contracts/ERC20.sol\":3379:3384  token */\n      dup1\n      0x00\n      swap1\n      sload\n      swap1\n      0x0100\n      exp\n      swap1\n      div\n      0xffffffffffffffffffffffffffffffffffffffff\n      and\n        /* \"contracts/ERC20.sol\":3379:3394  token.allowance */\n      0xffffffffffffffffffffffffffffffffffffffff\n      and\n      0xdd62ed3e\n        /* \"contracts/ERC20.sol\":3395:3405  msg.sender */\n      caller\n        /* \"contracts/ERC20.sol\":3407:3418  thisAddress */\n      0x02\n      0x00\n      swap1\n      sload\n      swap1\n      0x0100\n      exp\n      swap1\n      div\n      0xffffffffffffffffffffffffffffffffffffffff\n      and\n        /* \"contracts/ERC20.sol\":3379:3419  token.allowance(msg.sender, thisAddress) */\n      mload(0x40)\n      dup4\n      0xffffffff\n      and\n      0xe0\n      shl\n      dup2\n      mstore\n      0x04\n      add\n      tag_68\n      swap3\n      swap2\n      swap1\n      tag_69\n      jump\t// in\n    tag_68:\n      0x20\n      mload(0x40)\n      dup1\n      dup4\n      sub\n      dup2\n      dup7\n      gas\n      staticcall\n      iszero\n      dup1\n      iszero\n      tag_71\n      jumpi\n      returndatasize\n      0x00\n      dup1\n      returndatacopy\n      revert(0x00, returndatasize)\n    tag_71:\n      pop\n      pop\n      pop\n      pop\n      mload(0x40)\n      returndatasize\n      not(0x1f)\n      0x1f\n      dup3\n      add\n      and\n      dup3\n      add\n      dup1\n      0x40\n      mstore\n      pop\n      dup2\n      add\n      swap1\n      tag_72\n      swap2\n      swap1\n      tag_50\n      jump\t// in\n    tag_72:\n        /* \"contracts/ERC20.sol\":3362:3419  uint allowance = token.allowance(msg.sender, thisAddress) */\n      swap1\n      pop\n        /* \"contracts/ERC20.sol\":3450:3456  amount */\n      dup2\n        /* \"contracts/ERC20.sol\":3437:3446  allowance */\n      dup2\n        /* \"contracts/ERC20.sol\":3437:3456  allowance >= amount */\n      lt\n      iszero\n        /* \"contracts/ERC20.sol\":3429:3476  require(allowance >= amount,\"Wrong allowance!\") */\n      tag_73\n      jumpi\n      mload(0x40)\n      0x08c379a000000000000000000000000000000000000000000000000000000000\n      dup2\n      mstore\n      0x04\n      add\n      tag_74\n      swap1\n      tag_75\n      jump\t// in\n    tag_74:\n      mload(0x40)\n      dup1\n      swap2\n      sub\n      swap1\n      revert\n    tag_73:\n        /* \"contracts/ERC20.sol\":3486:3491  token */\n      0x00\n      dup1\n      sload\n      swap1\n      0x0100\n      exp\n      swap1\n      div\n      0xffffffffffffffffffffffffffffffffffffffff\n      and\n        /* \"contracts/ERC20.sol\":3486:3504  token.transferFrom */\n      0xffffffffffffffffffffffffffffffffffffffff\n      and\n      0x23b872dd\n        /* \"contracts/ERC20.sol\":3505:3515  msg.sender */\n      caller\n        /* \"contracts/ERC20.sol\":3516:3527  thisAddress */\n      0x02\n      0x00\n      swap1\n      sload\n      swap1\n      0x0100\n      exp\n      swap1\n      div\n      0xffffffffffffffffffffffffffffffffffffffff\n      and\n        /* \"contracts/ERC20.sol\":3528:3534  amount */\n      dup6\n        /* \"contracts/ERC20.sol\":3486:3535  token.transferFrom(msg.sender,thisAddress,amount) */\n      mload(0x40)\n      dup5\n      0xffffffff\n      and\n      0xe0\n      shl\n      dup2\n      mstore\n      0x04\n      add\n      tag_76\n      swap4\n      swap3\n      swap2\n      swap1\n      tag_77\n      jump\t// in\n    tag_76:\n      0x00\n      mload(0x40)\n      dup1\n      dup4\n      sub\n      dup2\n      0x00\n      dup8\n      dup1\n      extcodesize\n      iszero\n      dup1\n      iszero\n      tag_78\n      jumpi\n      0x00\n      dup1\n      revert\n    tag_78:\n      pop\n      gas\n      call\n      iszero\n      dup1\n      iszero\n      tag_80\n      jumpi\n      returndatasize\n      0x00\n      dup1\n      returndatacopy\n      revert(0x00, returndatasize)\n    tag_80:\n      pop\n      pop\n      pop\n      pop\n        /* \"contracts/ERC20.sol\":3553:3563  msg.sender */\n      caller\n        /* \"contracts/ERC20.sol\":3545:3573  payable(msg.sender).transfer */\n      0xffffffffffffffffffffffffffffffffffffffff\n      and\n        /* \"contracts/ERC20.sol\":3545:3591  payable(msg.sender).transfer(amount * _rate()) */\n      0x08fc\n        /* \"contracts/ERC20.sol\":3583:3590  _rate() */\n      tag_81\n        /* \"contracts/ERC20.sol\":3583:3588  _rate */\n      tag_41\n        /* \"contracts/ERC20.sol\":3583:3590  _rate() */\n      jump\t// in\n    tag_81:\n        /* \"contracts/ERC20.sol\":3574:3580  amount */\n      dup5\n        /* \"contracts/ERC20.sol\":3574:3590  amount * _rate() */\n      tag_82\n      swap2\n      swap1\n      tag_83\n      jump\t// in\n    tag_82:\n        /* \"contracts/ERC20.sol\":3545:3591  payable(msg.sender).transfer(amount * _rate()) */\n      swap1\n      dup2\n      iszero\n      mul\n      swap1\n      mload(0x40)\n      0x00\n      mload(0x40)\n      dup1\n      dup4\n      sub\n      dup2\n      dup6\n      dup9\n      dup9\n      call\n      swap4\n      pop\n      pop\n      pop\n      pop\n      iszero\n      dup1\n      iszero\n      tag_85\n      jumpi\n      returndatasize\n      0x00\n      dup1\n      returndatacopy\n      revert(0x00, returndatasize)\n    tag_85:\n      pop\n        /* \"contracts/ERC20.sol\":3611:3621  msg.sender */\n      caller\n        /* \"contracts/ERC20.sol\":3606:3629  Sold(msg.sender,amount) */\n      0xffffffffffffffffffffffffffffffffffffffff\n      and\n      0xae92ab4b6f8f401ead768d3273e6bb937a13e39827d19c6376e8fd4512a05d9a\n        /* \"contracts/ERC20.sol\":3622:3628  amount */\n      dup4\n        /* \"contracts/ERC20.sol\":3606:3629  Sold(msg.sender,amount) */\n      mload(0x40)\n      tag_86\n      swap2\n      swap1\n      tag_18\n      jump\t// in\n    tag_86:\n      mload(0x40)\n      dup1\n      swap2\n      sub\n      swap1\n      log2\n        /* \"contracts/ERC20.sol\":3293:3636  {... */\n      pop\n        /* \"contracts/ERC20.sol\":3259:3636  function sell(uint amount) public {... */\n      pop\n      jump\t// out\n        /* \"contracts/ERC20.sol\":2417:2436  IERC20 public token */\n    tag_25:\n      0x00\n      dup1\n      sload\n      swap1\n      0x0100\n      exp\n      swap1\n      div\n      0xffffffffffffffffffffffffffffffffffffffff\n      and\n      dup2\n      jump\t// out\n        /* \"contracts/ERC20.sol\":3805:3879  function _rate() private pure returns(uint){... */\n    tag_41:\n        /* \"contracts/ERC20.sol\":3843:3847  uint */\n      0x00\n        /* \"contracts/ERC20.sol\":3865:3872  1 ether */\n      0x0de0b6b3a7640000\n        /* \"contracts/ERC20.sol\":3858:3872  return 1 ether */\n      swap1\n      pop\n        /* \"contracts/ERC20.sol\":3805:3879  function _rate() private pure returns(uint){... */\n      swap1\n      jump\t// out\n        /* \"#utility.yul\":88:205   */\n    tag_89:\n        /* \"#utility.yul\":197:198   */\n      0x00\n        /* \"#utility.yul\":194:195   */\n      dup1\n        /* \"#utility.yul\":187:199   */\n      revert\n        /* \"#utility.yul\":334:411   */\n    tag_91:\n        /* \"#utility.yul\":371:378   */\n      0x00\n        /* \"#utility.yul\":400:405   */\n      dup2\n        /* \"#utility.yul\":389:405   */\n      swap1\n      pop\n        /* \"#utility.yul\":334:411   */\n      swap2\n      swap1\n      pop\n      jump\t// out\n        /* \"#utility.yul\":417:539   */\n    tag_92:\n        /* \"#utility.yul\":490:514   */\n      tag_125\n        /* \"#utility.yul\":508:513   */\n      dup2\n        /* \"#utility.yul\":490:514   */\n      tag_91\n      jump\t// in\n    tag_125:\n        /* \"#utility.yul\":483:488   */\n      dup2\n        /* \"#utility.yul\":480:515   */\n      eq\n        /* \"#utility.yul\":470:533   */\n      tag_126\n      jumpi\n        /* \"#utility.yul\":529:530   */\n      0x00\n        /* \"#utility.yul\":526:527   */\n      dup1\n        /* \"#utility.yul\":519:531   */\n      revert\n        /* \"#utility.yul\":470:533   */\n    tag_126:\n        /* \"#utility.yul\":417:539   */\n      pop\n      jump\t// out\n        /* \"#utility.yul\":545:684   */\n    tag_93:\n        /* \"#utility.yul\":591:596   */\n      0x00\n        /* \"#utility.yul\":629:635   */\n      dup2\n        /* \"#utility.yul\":616:636   */\n      calldataload\n        /* \"#utility.yul\":607:636   */\n      swap1\n      pop\n        /* \"#utility.yul\":645:678   */\n      tag_128\n        /* \"#utility.yul\":672:677   */\n      dup2\n        /* \"#utility.yul\":645:678   */\n      tag_92\n      jump\t// in\n    tag_128:\n        /* \"#utility.yul\":545:684   */\n      swap3\n      swap2\n      pop\n      pop\n      jump\t// out\n        /* \"#utility.yul\":690:1019   */\n    tag_10:\n        /* \"#utility.yul\":749:755   */\n      0x00\n        /* \"#utility.yul\":798:800   */\n      0x20\n        /* \"#utility.yul\":786:795   */\n      dup3\n        /* \"#utility.yul\":777:784   */\n      dup5\n        /* \"#utility.yul\":773:796   */\n      sub\n        /* \"#utility.yul\":769:801   */\n      slt\n        /* \"#utility.yul\":766:885   */\n      iszero\n      tag_130\n      jumpi\n        /* \"#utility.yul\":804:883   */\n      tag_131\n      tag_89\n      jump\t// in\n    tag_131:\n        /* \"#utility.yul\":766:885   */\n    tag_130:\n        /* \"#utility.yul\":924:925   */\n      0x00\n        /* \"#utility.yul\":949:1002   */\n      tag_132\n        /* \"#utility.yul\":994:1001   */\n      dup5\n        /* \"#utility.yul\":985:991   */\n      dup3\n        /* \"#utility.yul\":974:983   */\n      dup6\n        /* \"#utility.yul\":970:992   */\n      add\n        /* \"#utility.yul\":949:1002   */\n      tag_93\n      jump\t// in\n    tag_132:\n        /* \"#utility.yul\":939:1002   */\n      swap2\n      pop\n        /* \"#utility.yul\":895:1012   */\n      pop\n        /* \"#utility.yul\":690:1019   */\n      swap3\n      swap2\n      pop\n      pop\n      jump\t// out\n        /* \"#utility.yul\":1025:1143   */\n    tag_94:\n        /* \"#utility.yul\":1112:1136   */\n      tag_134\n        /* \"#utility.yul\":1130:1135   */\n      dup2\n        /* \"#utility.yul\":1112:1136   */\n      tag_91\n      jump\t// in\n    tag_134:\n        /* \"#utility.yul\":1107:1110   */\n      dup3\n        /* \"#utility.yul\":1100:1137   */\n      mstore\n        /* \"#utility.yul\":1025:1143   */\n      pop\n      pop\n      jump\t// out\n        /* \"#utility.yul\":1149:1371   */\n    tag_18:\n        /* \"#utility.yul\":1242:1246   */\n      0x00\n        /* \"#utility.yul\":1280:1282   */\n      0x20\n        /* \"#utility.yul\":1269:1278   */\n      dup3\n        /* \"#utility.yul\":1265:1283   */\n      add\n        /* \"#utility.yul\":1257:1283   */\n      swap1\n      pop\n        /* \"#utility.yul\":1293:1364   */\n      tag_136\n        /* \"#utility.yul\":1361:1362   */\n      0x00\n        /* \"#utility.yul\":1350:1359   */\n      dup4\n        /* \"#utility.yul\":1346:1363   */\n      add\n        /* \"#utility.yul\":1337:1343   */\n      dup5\n        /* \"#utility.yul\":1293:1364   */\n      tag_94\n      jump\t// in\n    tag_136:\n        /* \"#utility.yul\":1149:1371   */\n      swap3\n      swap2\n      pop\n      pop\n      jump\t// out\n        /* \"#utility.yul\":1377:1503   */\n    tag_95:\n        /* \"#utility.yul\":1414:1421   */\n      0x00\n        /* \"#utility.yul\":1454:1496   */\n      0xffffffffffffffffffffffffffffffffffffffff\n        /* \"#utility.yul\":1447:1452   */\n      dup3\n        /* \"#utility.yul\":1443:1497   */\n      and\n        /* \"#utility.yul\":1432:1497   */\n      swap1\n      pop\n        /* \"#utility.yul\":1377:1503   */\n      swap2\n      swap1\n      pop\n      jump\t// out\n        /* \"#utility.yul\":1509:1569   */\n    tag_96:\n        /* \"#utility.yul\":1537:1540   */\n      0x00\n        /* \"#utility.yul\":1558:1563   */\n      dup2\n        /* \"#utility.yul\":1551:1563   */\n      swap1\n      pop\n        /* \"#utility.yul\":1509:1569   */\n      swap2\n      swap1\n      pop\n      jump\t// out\n        /* \"#utility.yul\":1575:1717   */\n    tag_97:\n        /* \"#utility.yul\":1625:1634   */\n      0x00\n        /* \"#utility.yul\":1658:1711   */\n      tag_140\n        /* \"#utility.yul\":1676:1710   */\n      tag_141\n        /* \"#utility.yul\":1685:1709   */\n      tag_142\n        /* \"#utility.yul\":1703:1708   */\n      dup5\n        /* \"#utility.yul\":1685:1709   */\n      tag_95\n      jump\t// in\n    tag_142:\n        /* \"#utility.yul\":1676:1710   */\n      tag_96\n      jump\t// in\n    tag_141:\n        /* \"#utility.yul\":1658:1711   */\n      tag_95\n      jump\t// in\n    tag_140:\n        /* \"#utility.yul\":1645:1711   */\n      swap1\n      pop\n        /* \"#utility.yul\":1575:1717   */\n      swap2\n      swap1\n      pop\n      jump\t// out\n        /* \"#utility.yul\":1723:1849   */\n    tag_98:\n        /* \"#utility.yul\":1773:1782   */\n      0x00\n        /* \"#utility.yul\":1806:1843   */\n      tag_144\n        /* \"#utility.yul\":1837:1842   */\n      dup3\n        /* \"#utility.yul\":1806:1843   */\n      tag_97\n      jump\t// in\n    tag_144:\n        /* \"#utility.yul\":1793:1843   */\n      swap1\n      pop\n        /* \"#utility.yul\":1723:1849   */\n      swap2\n      swap1\n      pop\n      jump\t// out\n        /* \"#utility.yul\":1855:1995   */\n    tag_99:\n        /* \"#utility.yul\":1919:1928   */\n      0x00\n        /* \"#utility.yul\":1952:1989   */\n      tag_146\n        /* \"#utility.yul\":1983:1988   */\n      dup3\n        /* \"#utility.yul\":1952:1989   */\n      tag_98\n      jump\t// in\n    tag_146:\n        /* \"#utility.yul\":1939:1989   */\n      swap1\n      pop\n        /* \"#utility.yul\":1855:1995   */\n      swap2\n      swap1\n      pop\n      jump\t// out\n        /* \"#utility.yul\":2001:2160   */\n    tag_100:\n        /* \"#utility.yul\":2102:2153   */\n      tag_148\n        /* \"#utility.yul\":2147:2152   */\n      dup2\n        /* \"#utility.yul\":2102:2153   */\n      tag_99\n      jump\t// in\n    tag_148:\n        /* \"#utility.yul\":2097:2100   */\n      dup3\n        /* \"#utility.yul\":2090:2154   */\n      mstore\n        /* \"#utility.yul\":2001:2160   */\n      pop\n      pop\n      jump\t// out\n        /* \"#utility.yul\":2166:2416   */\n    tag_27:\n        /* \"#utility.yul\":2273:2277   */\n      0x00\n        /* \"#utility.yul\":2311:2313   */\n      0x20\n        /* \"#utility.yul\":2300:2309   */\n      dup3\n        /* \"#utility.yul\":2296:2314   */\n      add\n        /* \"#utility.yul\":2288:2314   */\n      swap1\n      pop\n        /* \"#utility.yul\":2324:2409   */\n      tag_150\n        /* \"#utility.yul\":2406:2407   */\n      0x00\n        /* \"#utility.yul\":2395:2404   */\n      dup4\n        /* \"#utility.yul\":2391:2408   */\n      add\n        /* \"#utility.yul\":2382:2388   */\n      dup5\n        /* \"#utility.yul\":2324:2409   */\n      tag_100\n      jump\t// in\n    tag_150:\n        /* \"#utility.yul\":2166:2416   */\n      swap3\n      swap2\n      pop\n      pop\n      jump\t// out\n        /* \"#utility.yul\":2422:2591   */\n    tag_101:\n        /* \"#utility.yul\":2506:2517   */\n      0x00\n        /* \"#utility.yul\":2540:2546   */\n      dup3\n        /* \"#utility.yul\":2535:2538   */\n      dup3\n        /* \"#utility.yul\":2528:2547   */\n      mstore\n        /* \"#utility.yul\":2580:2584   */\n      0x20\n        /* \"#utility.yul\":2575:2578   */\n      dup3\n        /* \"#utility.yul\":2571:2585   */\n      add\n        /* \"#utility.yul\":2556:2585   */\n      swap1\n      pop\n        /* \"#utility.yul\":2422:2591   */\n      swap3\n      swap2\n      pop\n      pop\n      jump\t// out\n        /* \"#utility.yul\":2597:2758   */\n    tag_102:\n        /* \"#utility.yul\":2737:2750   */\n      0x4f6e6c79204f776e657221000000000000000000000000000000000000000000\n        /* \"#utility.yul\":2733:2734   */\n      0x00\n        /* \"#utility.yul\":2725:2731   */\n      dup3\n        /* \"#utility.yul\":2721:2735   */\n      add\n        /* \"#utility.yul\":2714:2751   */\n      mstore\n        /* \"#utility.yul\":2597:2758   */\n      pop\n      jump\t// out\n        /* \"#utility.yul\":2764:3130   */\n    tag_103:\n        /* \"#utility.yul\":2906:2909   */\n      0x00\n        /* \"#utility.yul\":2927:2994   */\n      tag_154\n        /* \"#utility.yul\":2991:2993   */\n      0x0b\n        /* \"#utility.yul\":2986:2989   */\n      dup4\n        /* \"#utility.yul\":2927:2994   */\n      tag_101\n      jump\t// in\n    tag_154:\n        /* \"#utility.yul\":2920:2994   */\n      swap2\n      pop\n        /* \"#utility.yul\":3003:3096   */\n      tag_155\n        /* \"#utility.yul\":3092:3095   */\n      dup3\n        /* \"#utility.yul\":3003:3096   */\n      tag_102\n      jump\t// in\n    tag_155:\n        /* \"#utility.yul\":3121:3123   */\n      0x20\n        /* \"#utility.yul\":3116:3119   */\n      dup3\n        /* \"#utility.yul\":3112:3124   */\n      add\n        /* \"#utility.yul\":3105:3124   */\n      swap1\n      pop\n        /* \"#utility.yul\":2764:3130   */\n      swap2\n      swap1\n      pop\n      jump\t// out\n        /* \"#utility.yul\":3136:3555   */\n    tag_31:\n        /* \"#utility.yul\":3302:3306   */\n      0x00\n        /* \"#utility.yul\":3340:3342   */\n      0x20\n        /* \"#utility.yul\":3329:3338   */\n      dup3\n        /* \"#utility.yul\":3325:3343   */\n      add\n        /* \"#utility.yul\":3317:3343   */\n      swap1\n      pop\n        /* \"#utility.yul\":3389:3398   */\n      dup2\n        /* \"#utility.yul\":3383:3387   */\n      dup2\n        /* \"#utility.yul\":3379:3399   */\n      sub\n        /* \"#utility.yul\":3375:3376   */\n      0x00\n        /* \"#utility.yul\":3364:3373   */\n      dup4\n        /* \"#utility.yul\":3360:3377   */\n      add\n        /* \"#utility.yul\":3353:3400   */\n      mstore\n        /* \"#utility.yul\":3417:3548   */\n      tag_157\n        /* \"#utility.yul\":3543:3547   */\n      dup2\n        /* \"#utility.yul\":3417:3548   */\n      tag_103\n      jump\t// in\n    tag_157:\n        /* \"#utility.yul\":3409:3548   */\n      swap1\n      pop\n        /* \"#utility.yul\":3136:3555   */\n      swap2\n      swap1\n      pop\n      jump\t// out\n        /* \"#utility.yul\":3561:3728   */\n    tag_104:\n        /* \"#utility.yul\":3701:3720   */\n      0x6e6f7420656e6f7567682066756e647321000000000000000000000000000000\n        /* \"#utility.yul\":3697:3698   */\n      0x00\n        /* \"#utility.yul\":3689:3695   */\n      dup3\n        /* \"#utility.yul\":3685:3699   */\n      add\n        /* \"#utility.yul\":3678:3721   */\n      mstore\n        /* \"#utility.yul\":3561:3728   */\n      pop\n      jump\t// out\n        /* \"#utility.yul\":3734:4100   */\n    tag_105:\n        /* \"#utility.yul\":3876:3879   */\n      0x00\n        /* \"#utility.yul\":3897:3964   */\n      tag_160\n        /* \"#utility.yul\":3961:3963   */\n      0x11\n        /* \"#utility.yul\":3956:3959   */\n      dup4\n        /* \"#utility.yul\":3897:3964   */\n      tag_101\n      jump\t// in\n    tag_160:\n        /* \"#utility.yul\":3890:3964   */\n      swap2\n      pop\n        /* \"#utility.yul\":3973:4066   */\n      tag_161\n        /* \"#utility.yul\":4062:4065   */\n      dup3\n        /* \"#utility.yul\":3973:4066   */\n      tag_104\n      jump\t// in\n    tag_161:\n        /* \"#utility.yul\":4091:4093   */\n      0x20\n        /* \"#utility.yul\":4086:4089   */\n      dup3\n        /* \"#utility.yul\":4082:4094   */\n      add\n        /* \"#utility.yul\":4075:4094   */\n      swap1\n      pop\n        /* \"#utility.yul\":3734:4100   */\n      swap2\n      swap1\n      pop\n      jump\t// out\n        /* \"#utility.yul\":4106:4525   */\n    tag_36:\n        /* \"#utility.yul\":4272:4276   */\n      0x00\n        /* \"#utility.yul\":4310:4312   */\n      0x20\n        /* \"#utility.yul\":4299:4308   */\n      dup3\n        /* \"#utility.yul\":4295:4313   */\n      add\n        /* \"#utility.yul\":4287:4313   */\n      swap1\n      pop\n        /* \"#utility.yul\":4359:4368   */\n      dup2\n        /* \"#utility.yul\":4353:4357   */\n      dup2\n        /* \"#utility.yul\":4349:4369   */\n      sub\n        /* \"#utility.yul\":4345:4346   */\n      0x00\n        /* \"#utility.yul\":4334:4343   */\n      dup4\n        /* \"#utility.yul\":4330:4347   */\n      add\n        /* \"#utility.yul\":4323:4370   */\n      mstore\n        /* \"#utility.yul\":4387:4518   */\n      tag_163\n        /* \"#utility.yul\":4513:4517   */\n      dup2\n        /* \"#utility.yul\":4387:4518   */\n      tag_105\n      jump\t// in\n    tag_163:\n        /* \"#utility.yul\":4379:4518   */\n      swap1\n      pop\n        /* \"#utility.yul\":4106:4525   */\n      swap2\n      swap1\n      pop\n      jump\t// out\n        /* \"#utility.yul\":4531:4694   */\n    tag_106:\n        /* \"#utility.yul\":4671:4686   */\n      0x496e636f72726563742073756d00000000000000000000000000000000000000\n        /* \"#utility.yul\":4667:4668   */\n      0x00\n        /* \"#utility.yul\":4659:4665   */\n      dup3\n        /* \"#utility.yul\":4655:4669   */\n      add\n        /* \"#utility.yul\":4648:4687   */\n      mstore\n        /* \"#utility.yul\":4531:4694   */\n      pop\n      jump\t// out\n        /* \"#utility.yul\":4700:5066   */\n    tag_107:\n        /* \"#utility.yul\":4842:4845   */\n      0x00\n        /* \"#utility.yul\":4863:4930   */\n      tag_166\n        /* \"#utility.yul\":4927:4929   */\n      0x0d\n        /* \"#utility.yul\":4922:4925   */\n      dup4\n        /* \"#utility.yul\":4863:4930   */\n      tag_101\n      jump\t// in\n    tag_166:\n        /* \"#utility.yul\":4856:4930   */\n      swap2\n      pop\n        /* \"#utility.yul\":4939:5032   */\n      tag_167\n        /* \"#utility.yul\":5028:5031   */\n      dup3\n        /* \"#utility.yul\":4939:5032   */\n      tag_106\n      jump\t// in\n    tag_167:\n        /* \"#utility.yul\":5057:5059   */\n      0x20\n        /* \"#utility.yul\":5052:5055   */\n      dup3\n        /* \"#utility.yul\":5048:5060   */\n      add\n        /* \"#utility.yul\":5041:5060   */\n      swap1\n      pop\n        /* \"#utility.yul\":4700:5066   */\n      swap2\n      swap1\n      pop\n      jump\t// out\n        /* \"#utility.yul\":5072:5491   */\n    tag_44:\n        /* \"#utility.yul\":5238:5242   */\n      0x00\n        /* \"#utility.yul\":5276:5278   */\n      0x20\n        /* \"#utility.yul\":5265:5274   */\n      dup3\n        /* \"#utility.yul\":5261:5279   */\n      add\n        /* \"#utility.yul\":5253:5279   */\n      swap1\n      pop\n        /* \"#utility.yul\":5325:5334   */\n      dup2\n        /* \"#utility.yul\":5319:5323   */\n      dup2\n        /* \"#utility.yul\":5315:5335   */\n      sub\n        /* \"#utility.yul\":5311:5312   */\n      0x00\n        /* \"#utility.yul\":5300:5309   */\n      dup4\n        /* \"#utility.yul\":5296:5313   */\n      add\n        /* \"#utility.yul\":5289:5336   */\n      mstore\n        /* \"#utility.yul\":5353:5484   */\n      tag_169\n        /* \"#utility.yul\":5479:5483   */\n      dup2\n        /* \"#utility.yul\":5353:5484   */\n      tag_107\n      jump\t// in\n    tag_169:\n        /* \"#utility.yul\":5345:5484   */\n      swap1\n      pop\n        /* \"#utility.yul\":5072:5491   */\n      swap2\n      swap1\n      pop\n      jump\t// out\n        /* \"#utility.yul\":5497:5593   */\n    tag_108:\n        /* \"#utility.yul\":5534:5541   */\n      0x00\n        /* \"#utility.yul\":5563:5587   */\n      tag_171\n        /* \"#utility.yul\":5581:5586   */\n      dup3\n        /* \"#utility.yul\":5563:5587   */\n      tag_95\n      jump\t// in\n    tag_171:\n        /* \"#utility.yul\":5552:5587   */\n      swap1\n      pop\n        /* \"#utility.yul\":5497:5593   */\n      swap2\n      swap1\n      pop\n      jump\t// out\n        /* \"#utility.yul\":5599:5717   */\n    tag_109:\n        /* \"#utility.yul\":5686:5710   */\n      tag_173\n        /* \"#utility.yul\":5704:5709   */\n      dup2\n        /* \"#utility.yul\":5686:5710   */\n      tag_108\n      jump\t// in\n    tag_173:\n        /* \"#utility.yul\":5681:5684   */\n      dup3\n        /* \"#utility.yul\":5674:5711   */\n      mstore\n        /* \"#utility.yul\":5599:5717   */\n      pop\n      pop\n      jump\t// out\n        /* \"#utility.yul\":5723:5945   */\n    tag_46:\n        /* \"#utility.yul\":5816:5820   */\n      0x00\n        /* \"#utility.yul\":5854:5856   */\n      0x20\n        /* \"#utility.yul\":5843:5852   */\n      dup3\n        /* \"#utility.yul\":5839:5857   */\n      add\n        /* \"#utility.yul\":5831:5857   */\n      swap1\n      pop\n        /* \"#utility.yul\":5867:5938   */\n      tag_175\n        /* \"#utility.yul\":5935:5936   */\n      0x00\n        /* \"#utility.yul\":5924:5933   */\n      dup4\n        /* \"#utility.yul\":5920:5937   */\n      add\n        /* \"#utility.yul\":5911:5917   */\n      dup5\n        /* \"#utility.yul\":5867:5938   */\n      tag_109\n      jump\t// in\n    tag_175:\n        /* \"#utility.yul\":5723:5945   */\n      swap3\n      swap2\n      pop\n      pop\n      jump\t// out\n        /* \"#utility.yul\":5951:6094   */\n    tag_110:\n        /* \"#utility.yul\":6008:6013   */\n      0x00\n        /* \"#utility.yul\":6039:6045   */\n      dup2\n        /* \"#utility.yul\":6033:6046   */\n      mload\n        /* \"#utility.yul\":6024:6046   */\n      swap1\n      pop\n        /* \"#utility.yul\":6055:6088   */\n      tag_177\n        /* \"#utility.yul\":6082:6087   */\n      dup2\n        /* \"#utility.yul\":6055:6088   */\n      tag_92\n      jump\t// in\n    tag_177:\n        /* \"#utility.yul\":5951:6094   */\n      swap3\n      swap2\n      pop\n      pop\n      jump\t// out\n        /* \"#utility.yul\":6100:6451   */\n    tag_50:\n        /* \"#utility.yul\":6170:6176   */\n      0x00\n        /* \"#utility.yul\":6219:6221   */\n      0x20\n        /* \"#utility.yul\":6207:6216   */\n      dup3\n        /* \"#utility.yul\":6198:6205   */\n      dup5\n        /* \"#utility.yul\":6194:6217   */\n      sub\n        /* \"#utility.yul\":6190:6222   */\n      slt\n        /* \"#utility.yul\":6187:6306   */\n      iszero\n      tag_179\n      jumpi\n        /* \"#utility.yul\":6225:6304   */\n      tag_180\n      tag_89\n      jump\t// in\n    tag_180:\n        /* \"#utility.yul\":6187:6306   */\n    tag_179:\n        /* \"#utility.yul\":6345:6346   */\n      0x00\n        /* \"#utility.yul\":6370:6434   */\n      tag_181\n        /* \"#utility.yul\":6426:6433   */\n      dup5\n        /* \"#utility.yul\":6417:6423   */\n      dup3\n        /* \"#utility.yul\":6406:6415   */\n      dup6\n        /* \"#utility.yul\":6402:6424   */\n      add\n        /* \"#utility.yul\":6370:6434   */\n      tag_110\n      jump\t// in\n    tag_181:\n        /* \"#utility.yul\":6360:6434   */\n      swap2\n      pop\n        /* \"#utility.yul\":6316:6444   */\n      pop\n        /* \"#utility.yul\":6100:6451   */\n      swap3\n      swap2\n      pop\n      pop\n      jump\t// out\n        /* \"#utility.yul\":6457:6637   */\n    tag_111:\n        /* \"#utility.yul\":6505:6582   */\n      0x4e487b7100000000000000000000000000000000000000000000000000000000\n        /* \"#utility.yul\":6502:6503   */\n      0x00\n        /* \"#utility.yul\":6495:6583   */\n      mstore\n        /* \"#utility.yul\":6602:6606   */\n      0x12\n        /* \"#utility.yul\":6599:6600   */\n      0x04\n        /* \"#utility.yul\":6592:6607   */\n      mstore\n        /* \"#utility.yul\":6626:6630   */\n      0x24\n        /* \"#utility.yul\":6623:6624   */\n      0x00\n        /* \"#utility.yul\":6616:6631   */\n      revert\n        /* \"#utility.yul\":6643:6823   */\n    tag_112:\n        /* \"#utility.yul\":6691:6768   */\n      0x4e487b7100000000000000000000000000000000000000000000000000000000\n        /* \"#utility.yul\":6688:6689   */\n      0x00\n        /* \"#utility.yul\":6681:6769   */\n      mstore\n        /* \"#utility.yul\":6788:6792   */\n      0x11\n        /* \"#utility.yul\":6785:6786   */\n      0x04\n        /* \"#utility.yul\":6778:6793   */\n      mstore\n        /* \"#utility.yul\":6812:6816   */\n      0x24\n        /* \"#utility.yul\":6809:6810   */\n      0x00\n        /* \"#utility.yul\":6802:6817   */\n      revert\n        /* \"#utility.yul\":6829:7014   */\n    tag_53:\n        /* \"#utility.yul\":6869:6870   */\n      0x00\n        /* \"#utility.yul\":6886:6906   */\n      tag_185\n        /* \"#utility.yul\":6904:6905   */\n      dup3\n        /* \"#utility.yul\":6886:6906   */\n      tag_91\n      jump\t// in\n    tag_185:\n        /* \"#utility.yul\":6881:6906   */\n      swap2\n      pop\n        /* \"#utility.yul\":6920:6940   */\n      tag_186\n        /* \"#utility.yul\":6938:6939   */\n      dup4\n        /* \"#utility.yul\":6920:6940   */\n      tag_91\n      jump\t// in\n    tag_186:\n        /* \"#utility.yul\":6915:6940   */\n      swap3\n      pop\n        /* \"#utility.yul\":6959:6960   */\n      dup3\n        /* \"#utility.yul\":6949:6984   */\n      tag_187\n      jumpi\n        /* \"#utility.yul\":6964:6982   */\n      tag_188\n      tag_111\n      jump\t// in\n    tag_188:\n        /* \"#utility.yul\":6949:6984   */\n    tag_187:\n        /* \"#utility.yul\":7006:7007   */\n      dup3\n        /* \"#utility.yul\":7003:7004   */\n      dup3\n        /* \"#utility.yul\":6999:7008   */\n      div\n        /* \"#utility.yul\":6994:7008   */\n      swap1\n      pop\n        /* \"#utility.yul\":6829:7014   */\n      swap3\n      swap2\n      pop\n      pop\n      jump\t// out\n        /* \"#utility.yul\":7020:7188   */\n    tag_113:\n        /* \"#utility.yul\":7160:7180   */\n      0x6e6f7420656e6f75676820746f6b656e73210000000000000000000000000000\n        /* \"#utility.yul\":7156:7157   */\n      0x00\n        /* \"#utility.yul\":7148:7154   */\n      dup3\n        /* \"#utility.yul\":7144:7158   */\n      add\n        /* \"#utility.yul\":7137:7181   */\n      mstore\n        /* \"#utility.yul\":7020:7188   */\n      pop\n      jump\t// out\n        /* \"#utility.yul\":7194:7560   */\n    tag_114:\n        /* \"#utility.yul\":7336:7339   */\n      0x00\n        /* \"#utility.yul\":7357:7424   */\n      tag_191\n        /* \"#utility.yul\":7421:7423   */\n      0x12\n        /* \"#utility.yul\":7416:7419   */\n      dup4\n        /* \"#utility.yul\":7357:7424   */\n      tag_101\n      jump\t// in\n    tag_191:\n        /* \"#utility.yul\":7350:7424   */\n      swap2\n      pop\n        /* \"#utility.yul\":7433:7526   */\n      tag_192\n        /* \"#utility.yul\":7522:7525   */\n      dup3\n        /* \"#utility.yul\":7433:7526   */\n      tag_113\n      jump\t// in\n    tag_192:\n        /* \"#utility.yul\":7551:7553   */\n      0x20\n        /* \"#utility.yul\":7546:7549   */\n      dup3\n        /* \"#utility.yul\":7542:7554   */\n      add\n        /* \"#utility.yul\":7535:7554   */\n      swap1\n      pop\n        /* \"#utility.yul\":7194:7560   */\n      swap2\n      swap1\n      pop\n      jump\t// out\n        /* \"#utility.yul\":7566:7985   */\n    tag_56:\n        /* \"#utility.yul\":7732:7736   */\n      0x00\n        /* \"#utility.yul\":7770:7772   */\n      0x20\n        /* \"#utility.yul\":7759:7768   */\n      dup3\n        /* \"#utility.yul\":7755:7773   */\n      add\n        /* \"#utility.yul\":7747:7773   */\n      swap1\n      pop\n        /* \"#utility.yul\":7819:7828   */\n      dup2\n        /* \"#utility.yul\":7813:7817   */\n      dup2\n        /* \"#utility.yul\":7809:7829   */\n      sub\n        /* \"#utility.yul\":7805:7806   */\n      0x00\n        /* \"#utility.yul\":7794:7803   */\n      dup4\n        /* \"#utility.yul\":7790:7807   */\n      add\n        /* \"#utility.yul\":7783:7830   */\n      mstore\n        /* \"#utility.yul\":7847:7978   */\n      tag_194\n        /* \"#utility.yul\":7973:7977   */\n      dup2\n        /* \"#utility.yul\":7847:7978   */\n      tag_114\n      jump\t// in\n    tag_194:\n        /* \"#utility.yul\":7839:7978   */\n      swap1\n      pop\n        /* \"#utility.yul\":7566:7985   */\n      swap2\n      swap1\n      pop\n      jump\t// out\n        /* \"#utility.yul\":7991:8323   */\n    tag_58:\n        /* \"#utility.yul\":8112:8116   */\n      0x00\n        /* \"#utility.yul\":8150:8152   */\n      0x40\n        /* \"#utility.yul\":8139:8148   */\n      dup3\n        /* \"#utility.yul\":8135:8153   */\n      add\n        /* \"#utility.yul\":8127:8153   */\n      swap1\n      pop\n        /* \"#utility.yul\":8163:8234   */\n      tag_196\n        /* \"#utility.yul\":8231:8232   */\n      0x00\n        /* \"#utility.yul\":8220:8229   */\n      dup4\n        /* \"#utility.yul\":8216:8233   */\n      add\n        /* \"#utility.yul\":8207:8213   */\n      dup6\n        /* \"#utility.yul\":8163:8234   */\n      tag_109\n      jump\t// in\n    tag_196:\n        /* \"#utility.yul\":8244:8316   */\n      tag_197\n        /* \"#utility.yul\":8312:8314   */\n      0x20\n        /* \"#utility.yul\":8301:8310   */\n      dup4\n        /* \"#utility.yul\":8297:8315   */\n      add\n        /* \"#utility.yul\":8288:8294   */\n      dup5\n        /* \"#utility.yul\":8244:8316   */\n      tag_94\n      jump\t// in\n    tag_197:\n        /* \"#utility.yul\":7991:8323   */\n      swap4\n      swap3\n      pop\n      pop\n      pop\n      jump\t// out\n        /* \"#utility.yul\":8329:8505   */\n    tag_115:\n        /* \"#utility.yul\":8469:8497   */\n      0x6d7573742062652067726561746572207468616e207a65726f21000000000000\n        /* \"#utility.yul\":8465:8466   */\n      0x00\n        /* \"#utility.yul\":8457:8463   */\n      dup3\n        /* \"#utility.yul\":8453:8467   */\n      add\n        /* \"#utility.yul\":8446:8498   */\n      mstore\n        /* \"#utility.yul\":8329:8505   */\n      pop\n      jump\t// out\n        /* \"#utility.yul\":8511:8877   */\n    tag_116:\n        /* \"#utility.yul\":8653:8656   */\n      0x00\n        /* \"#utility.yul\":8674:8741   */\n      tag_200\n        /* \"#utility.yul\":8738:8740   */\n      0x1a\n        /* \"#utility.yul\":8733:8736   */\n      dup4\n        /* \"#utility.yul\":8674:8741   */\n      tag_101\n      jump\t// in\n    tag_200:\n        /* \"#utility.yul\":8667:8741   */\n      swap2\n      pop\n        /* \"#utility.yul\":8750:8843   */\n      tag_201\n        /* \"#utility.yul\":8839:8842   */\n      dup3\n        /* \"#utility.yul\":8750:8843   */\n      tag_115\n      jump\t// in\n    tag_201:\n        /* \"#utility.yul\":8868:8870   */\n      0x20\n        /* \"#utility.yul\":8863:8866   */\n      dup3\n        /* \"#utility.yul\":8859:8871   */\n      add\n        /* \"#utility.yul\":8852:8871   */\n      swap1\n      pop\n        /* \"#utility.yul\":8511:8877   */\n      swap2\n      swap1\n      pop\n      jump\t// out\n        /* \"#utility.yul\":8883:9302   */\n    tag_67:\n        /* \"#utility.yul\":9049:9053   */\n      0x00\n        /* \"#utility.yul\":9087:9089   */\n      0x20\n        /* \"#utility.yul\":9076:9085   */\n      dup3\n        /* \"#utility.yul\":9072:9090   */\n      add\n        /* \"#utility.yul\":9064:9090   */\n      swap1\n      pop\n        /* \"#utility.yul\":9136:9145   */\n      dup2\n        /* \"#utility.yul\":9130:9134   */\n      dup2\n        /* \"#utility.yul\":9126:9146   */\n      sub\n        /* \"#utility.yul\":9122:9123   */\n      0x00\n        /* \"#utility.yul\":9111:9120   */\n      dup4\n        /* \"#utility.yul\":9107:9124   */\n      add\n        /* \"#utility.yul\":9100:9147   */\n      mstore\n        /* \"#utility.yul\":9164:9295   */\n      tag_203\n        /* \"#utility.yul\":9290:9294   */\n      dup2\n        /* \"#utility.yul\":9164:9295   */\n      tag_116\n      jump\t// in\n    tag_203:\n        /* \"#utility.yul\":9156:9295   */\n      swap1\n      pop\n        /* \"#utility.yul\":8883:9302   */\n      swap2\n      swap1\n      pop\n      jump\t// out\n        /* \"#utility.yul\":9308:9640   */\n    tag_69:\n        /* \"#utility.yul\":9429:9433   */\n      0x00\n        /* \"#utility.yul\":9467:9469   */\n      0x40\n        /* \"#utility.yul\":9456:9465   */\n      dup3\n        /* \"#utility.yul\":9452:9470   */\n      add\n        /* \"#utility.yul\":9444:9470   */\n      swap1\n      pop\n        /* \"#utility.yul\":9480:9551   */\n      tag_205\n        /* \"#utility.yul\":9548:9549   */\n      0x00\n        /* \"#utility.yul\":9537:9546   */\n      dup4\n        /* \"#utility.yul\":9533:9550   */\n      add\n        /* \"#utility.yul\":9524:9530   */\n      dup6\n        /* \"#utility.yul\":9480:9551   */\n      tag_109\n      jump\t// in\n    tag_205:\n        /* \"#utility.yul\":9561:9633   */\n      tag_206\n        /* \"#utility.yul\":9629:9631   */\n      0x20\n        /* \"#utility.yul\":9618:9627   */\n      dup4\n        /* \"#utility.yul\":9614:9632   */\n      add\n        /* \"#utility.yul\":9605:9611   */\n      dup5\n        /* \"#utility.yul\":9561:9633   */\n      tag_109\n      jump\t// in\n    tag_206:\n        /* \"#utility.yul\":9308:9640   */\n      swap4\n      swap3\n      pop\n      pop\n      pop\n      jump\t// out\n        /* \"#utility.yul\":9646:9812   */\n    tag_117:\n        /* \"#utility.yul\":9786:9804   */\n      0x57726f6e6720616c6c6f77616e63652100000000000000000000000000000000\n        /* \"#utility.yul\":9782:9783   */\n      0x00\n        /* \"#utility.yul\":9774:9780   */\n      dup3\n        /* \"#utility.yul\":9770:9784   */\n      add\n        /* \"#utility.yul\":9763:9805   */\n      mstore\n        /* \"#utility.yul\":9646:9812   */\n      pop\n      jump\t// out\n        /* \"#utility.yul\":9818:10184   */\n    tag_118:\n        /* \"#utility.yul\":9960:9963   */\n      0x00\n        /* \"#utility.yul\":9981:10048   */\n      tag_209\n        /* \"#utility.yul\":10045:10047   */\n      0x10\n        /* \"#utility.yul\":10040:10043   */\n      dup4\n        /* \"#utility.yul\":9981:10048   */\n      tag_101\n      jump\t// in\n    tag_209:\n        /* \"#utility.yul\":9974:10048   */\n      swap2\n      pop\n        /* \"#utility.yul\":10057:10150   */\n      tag_210\n        /* \"#utility.yul\":10146:10149   */\n      dup3\n        /* \"#utility.yul\":10057:10150   */\n      tag_117\n      jump\t// in\n    tag_210:\n        /* \"#utility.yul\":10175:10177   */\n      0x20\n        /* \"#utility.yul\":10170:10173   */\n      dup3\n        /* \"#utility.yul\":10166:10178   */\n      add\n        /* \"#utility.yul\":10159:10178   */\n      swap1\n      pop\n        /* \"#utility.yul\":9818:10184   */\n      swap2\n      swap1\n      pop\n      jump\t// out\n        /* \"#utility.yul\":10190:10609   */\n    tag_75:\n        /* \"#utility.yul\":10356:10360   */\n      0x00\n        /* \"#utility.yul\":10394:10396   */\n      0x20\n        /* \"#utility.yul\":10383:10392   */\n      dup3\n        /* \"#utility.yul\":10379:10397   */\n      add\n        /* \"#utility.yul\":10371:10397   */\n      swap1\n      pop\n        /* \"#utility.yul\":10443:10452   */\n      dup2\n        /* \"#utility.yul\":10437:10441   */\n      dup2\n        /* \"#utility.yul\":10433:10453   */\n      sub\n        /* \"#utility.yul\":10429:10430   */\n      0x00\n        /* \"#utility.yul\":10418:10427   */\n      dup4\n        /* \"#utility.yul\":10414:10431   */\n      add\n        /* \"#utility.yul\":10407:10454   */\n      mstore\n        /* \"#utility.yul\":10471:10602   */\n      tag_212\n        /* \"#utility.yul\":10597:10601   */\n      dup2\n        /* \"#utility.yul\":10471:10602   */\n      tag_118\n      jump\t// in\n    tag_212:\n        /* \"#utility.yul\":10463:10602   */\n      swap1\n      pop\n        /* \"#utility.yul\":10190:10609   */\n      swap2\n      swap1\n      pop\n      jump\t// out\n        /* \"#utility.yul\":10615:11057   */\n    tag_77:\n        /* \"#utility.yul\":10764:10768   */\n      0x00\n        /* \"#utility.yul\":10802:10804   */\n      0x60\n        /* \"#utility.yul\":10791:10800   */\n      dup3\n        /* \"#utility.yul\":10787:10805   */\n      add\n        /* \"#utility.yul\":10779:10805   */\n      swap1\n      pop\n        /* \"#utility.yul\":10815:10886   */\n      tag_214\n        /* \"#utility.yul\":10883:10884   */\n      0x00\n        /* \"#utility.yul\":10872:10881   */\n      dup4\n        /* \"#utility.yul\":10868:10885   */\n      add\n        /* \"#utility.yul\":10859:10865   */\n      dup7\n        /* \"#utility.yul\":10815:10886   */\n      tag_109\n      jump\t// in\n    tag_214:\n        /* \"#utility.yul\":10896:10968   */\n      tag_215\n        /* \"#utility.yul\":10964:10966   */\n      0x20\n        /* \"#utility.yul\":10953:10962   */\n      dup4\n        /* \"#utility.yul\":10949:10967   */\n      add\n        /* \"#utility.yul\":10940:10946   */\n      dup6\n        /* \"#utility.yul\":10896:10968   */\n      tag_109\n      jump\t// in\n    tag_215:\n        /* \"#utility.yul\":10978:11050   */\n      tag_216\n        /* \"#utility.yul\":11046:11048   */\n      0x40\n        /* \"#utility.yul\":11035:11044   */\n      dup4\n        /* \"#utility.yul\":11031:11049   */\n      add\n        /* \"#utility.yul\":11022:11028   */\n      dup5\n        /* \"#utility.yul\":10978:11050   */\n      tag_94\n      jump\t// in\n    tag_216:\n        /* \"#utility.yul\":10615:11057   */\n      swap5\n      swap4\n      pop\n      pop\n      pop\n      pop\n      jump\t// out\n        /* \"#utility.yul\":11063:11473   */\n    tag_83:\n        /* \"#utility.yul\":11103:11110   */\n      0x00\n        /* \"#utility.yul\":11126:11146   */\n      tag_218\n        /* \"#utility.yul\":11144:11145   */\n      dup3\n        /* \"#utility.yul\":11126:11146   */\n      tag_91\n      jump\t// in\n    tag_218:\n        /* \"#utility.yul\":11121:11146   */\n      swap2\n      pop\n        /* \"#utility.yul\":11160:11180   */\n      tag_219\n        /* \"#utility.yul\":11178:11179   */\n      dup4\n        /* \"#utility.yul\":11160:11180   */\n      tag_91\n      jump\t// in\n    tag_219:\n        /* \"#utility.yul\":11155:11180   */\n      swap3\n      pop\n        /* \"#utility.yul\":11215:11216   */\n      dup3\n        /* \"#utility.yul\":11212:11213   */\n      dup3\n        /* \"#utility.yul\":11208:11217   */\n      mul\n        /* \"#utility.yul\":11237:11267   */\n      tag_220\n        /* \"#utility.yul\":11255:11266   */\n      dup2\n        /* \"#utility.yul\":11237:11267   */\n      tag_91\n      jump\t// in\n    tag_220:\n        /* \"#utility.yul\":11226:11267   */\n      swap2\n      pop\n        /* \"#utility.yul\":11416:11417   */\n      dup3\n        /* \"#utility.yul\":11407:11414   */\n      dup3\n        /* \"#utility.yul\":11403:11418   */\n      div\n        /* \"#utility.yul\":11400:11401   */\n      dup5\n        /* \"#utility.yul\":11397:11419   */\n      eq\n        /* \"#utility.yul\":11377:11378   */\n      dup4\n        /* \"#utility.yul\":11370:11379   */\n      iszero\n        /* \"#utility.yul\":11350:11433   */\n      or\n        /* \"#utility.yul\":11327:11466   */\n      tag_221\n      jumpi\n        /* \"#utility.yul\":11446:11464   */\n      tag_222\n      tag_112\n      jump\t// in\n    tag_222:\n        /* \"#utility.yul\":11327:11466   */\n    tag_221:\n        /* \"#utility.yul\":11111:11473   */\n      pop\n        /* \"#utility.yul\":11063:11473   */\n      swap3\n      swap2\n      pop\n      pop\n      jump\t// out\n\n    auxdata: 0xa26469706673582212206a1d50b203eba6911866077759518d90a4cba3e51b78ae8817cc909f7191cf9e64736f6c63430008110033\n}\n",
				"bytecode": {
					"linkReferences": {},
					"object": "608060405230600260006101000a81548173ffffffffffffffffffffffffffffffffffffffff021916908373ffffffffffffffffffffffffffffffffffffffff16021790555034801561005157600080fd5b5060405162000f0438038062000f0483398181016040528101906100759190610171565b806000806101000a81548173ffffffffffffffffffffffffffffffffffffffff021916908373ffffffffffffffffffffffffffffffffffffffff16021790555033600160006101000a81548173ffffffffffffffffffffffffffffffffffffffff021916908373ffffffffffffffffffffffffffffffffffffffff1602179055505061019e565b600080fd5b600073ffffffffffffffffffffffffffffffffffffffff82169050919050565b600061012c82610101565b9050919050565b600061013e82610121565b9050919050565b61014e81610133565b811461015957600080fd5b50565b60008151905061016b81610145565b92915050565b600060208284031215610187576101866100fc565b5b60006101958482850161015c565b91505092915050565b610d5680620001ae6000396000f3fe60806040526004361061004a5760003560e01c80632e1a7d4d1461004f578063a6f2ae3a14610078578063b69ef8a814610082578063e4849b32146100ad578063fc0c546a146100d6575b600080fd5b34801561005b57600080fd5b50610076600480360381019061007191906107be565b610101565b005b610080610225565b005b34801561008e57600080fd5b50610097610469565b6040516100a491906107fa565b60405180910390f35b3480156100b957600080fd5b506100d460048036038101906100cf91906107be565b6104aa565b005b3480156100e257600080fd5b506100eb61074f565b6040516100f89190610894565b60405180910390f35b600160009054906101000a900473ffffffffffffffffffffffffffffffffffffffff1673ffffffffffffffffffffffffffffffffffffffff163373ffffffffffffffffffffffffffffffffffffffff1614610191576040517f08c379a00000000000000000000000000000000000000000000000000000000081526004016101889061090c565b60405180910390fd5b610199610469565b8111156101db576040517f08c379a00000000000000000000000000000000000000000000000000000000081526004016101d290610978565b60405180910390fd5b3373ffffffffffffffffffffffffffffffffffffffff166108fc829081150290604051600060405180830381858888f19350505050158015610221573d6000803e3d6000fd5b5050565b61022d610773565b34101561026f576040517f08c379a0000000000000000000000000000000000000000000000000000000008152600401610266906109e4565b60405180910390fd5b60008060009054906101000a900473ffffffffffffffffffffffffffffffffffffffff1673ffffffffffffffffffffffffffffffffffffffff166370a08231600260009054906101000a900473ffffffffffffffffffffffffffffffffffffffff166040518263ffffffff1660e01b81526004016102ed9190610a25565b602060405180830381865afa15801561030a573d6000803e3d6000fd5b505050506040513d601f19601f8201168201806040525081019061032e9190610a55565b9050600061033a610773565b346103459190610ae0565b90508181111561038a576040517f08c379a000000000000000000000000000000000000000000000000000000000815260040161038190610b5d565b60405180910390fd5b60008054906101000a900473ffffffffffffffffffffffffffffffffffffffff1673ffffffffffffffffffffffffffffffffffffffff1663a9059cbb33836040518363ffffffff1660e01b81526004016103e5929190610b7d565b600060405180830381600087803b1580156103ff57600080fd5b505af1158015610413573d6000803e3d6000fd5b505050503373ffffffffffffffffffffffffffffffffffffffff167fc55650ccda1011e1cdc769b1fbf546ebb8c97800b6072b49e06cd560305b1d678260405161045d91906107fa565b60405180910390a25050565b6000600260009054906101000a900473ffffffffffffffffffffffffffffffffffffffff1673ffffffffffffffffffffffffffffffffffffffff1631905090565b600081116104ed576040517f08c379a00000000000000000000000000000000000000000000000000000000081526004016104e490610bf2565b60405180910390fd5b60008060009054906101000a900473ffffffffffffffffffffffffffffffffffffffff1673ffffffffffffffffffffffffffffffffffffffff1663dd62ed3e33600260009054906101000a900473ffffffffffffffffffffffffffffffffffffffff166040518363ffffffff1660e01b815260040161056d929190610c12565b602060405180830381865afa15801561058a573d6000803e3d6000fd5b505050506040513d601f19601f820116820180604052508101906105ae9190610a55565b9050818110156105f3576040517f08c379a00000000000000000000000000000000000000000000000000000000081526004016105ea90610c87565b60405180910390fd5b60008054906101000a900473ffffffffffffffffffffffffffffffffffffffff1673ffffffffffffffffffffffffffffffffffffffff166323b872dd33600260009054906101000a900473ffffffffffffffffffffffffffffffffffffffff16856040518463ffffffff1660e01b815260040161067293929190610ca7565b600060405180830381600087803b15801561068c57600080fd5b505af11580156106a0573d6000803e3d6000fd5b505050503373ffffffffffffffffffffffffffffffffffffffff166108fc6106c6610773565b846106d19190610cde565b9081150290604051600060405180830381858888f193505050501580156106fc573d6000803e3d6000fd5b503373ffffffffffffffffffffffffffffffffffffffff167fae92ab4b6f8f401ead768d3273e6bb937a13e39827d19c6376e8fd4512a05d9a8360405161074391906107fa565b60405180910390a25050565b60008054906101000a900473ffffffffffffffffffffffffffffffffffffffff1681565b6000670de0b6b3a7640000905090565b600080fd5b6000819050919050565b61079b81610788565b81146107a657600080fd5b50565b6000813590506107b881610792565b92915050565b6000602082840312156107d4576107d3610783565b5b60006107e2848285016107a9565b91505092915050565b6107f481610788565b82525050565b600060208201905061080f60008301846107eb565b92915050565b600073ffffffffffffffffffffffffffffffffffffffff82169050919050565b6000819050919050565b600061085a61085561085084610815565b610835565b610815565b9050919050565b600061086c8261083f565b9050919050565b600061087e82610861565b9050919050565b61088e81610873565b82525050565b60006020820190506108a96000830184610885565b92915050565b600082825260208201905092915050565b7f4f6e6c79204f776e657221000000000000000000000000000000000000000000600082015250565b60006108f6600b836108af565b9150610901826108c0565b602082019050919050565b60006020820190508181036000830152610925816108e9565b9050919050565b7f6e6f7420656e6f7567682066756e647321000000000000000000000000000000600082015250565b60006109626011836108af565b915061096d8261092c565b602082019050919050565b6000602082019050818103600083015261099181610955565b9050919050565b7f496e636f72726563742073756d00000000000000000000000000000000000000600082015250565b60006109ce600d836108af565b91506109d982610998565b602082019050919050565b600060208201905081810360008301526109fd816109c1565b9050919050565b6000610a0f82610815565b9050919050565b610a1f81610a04565b82525050565b6000602082019050610a3a6000830184610a16565b92915050565b600081519050610a4f81610792565b92915050565b600060208284031215610a6b57610a6a610783565b5b6000610a7984828501610a40565b91505092915050565b7f4e487b7100000000000000000000000000000000000000000000000000000000600052601260045260246000fd5b7f4e487b7100000000000000000000000000000000000000000000000000000000600052601160045260246000fd5b6000610aeb82610788565b9150610af683610788565b925082610b0657610b05610a82565b5b828204905092915050565b7f6e6f7420656e6f75676820746f6b656e73210000000000000000000000000000600082015250565b6000610b476012836108af565b9150610b5282610b11565b602082019050919050565b60006020820190508181036000830152610b7681610b3a565b9050919050565b6000604082019050610b926000830185610a16565b610b9f60208301846107eb565b9392505050565b7f6d7573742062652067726561746572207468616e207a65726f21000000000000600082015250565b6000610bdc601a836108af565b9150610be782610ba6565b602082019050919050565b60006020820190508181036000830152610c0b81610bcf565b9050919050565b6000604082019050610c276000830185610a16565b610c346020830184610a16565b9392505050565b7f57726f6e6720616c6c6f77616e63652100000000000000000000000000000000600082015250565b6000610c716010836108af565b9150610c7c82610c3b565b602082019050919050565b60006020820190508181036000830152610ca081610c64565b9050919050565b6000606082019050610cbc6000830186610a16565b610cc96020830185610a16565b610cd660408301846107eb565b949350505050565b6000610ce982610788565b9150610cf483610788565b9250828202610d0281610788565b91508282048414831517610d1957610d18610ab1565b5b509291505056fea26469706673582212206a1d50b203eba6911866077759518d90a4cba3e51b78ae8817cc909f7191cf9e64736f6c63430008110033",
					"opcodes": "PUSH1 0x80 PUSH1 0x40 MSTORE ADDRESS PUSH1 0x2 PUSH1 0x0 PUSH2 0x100 EXP DUP2 SLOAD DUP2 PUSH20 0xFFFFFFFFFFFFFFFFFFFFFFFFFFFFFFFFFFFFFFFF MUL NOT AND SWAP1 DUP4 PUSH20 0xFFFFFFFFFFFFFFFFFFFFFFFFFFFFFFFFFFFFFFFF AND MUL OR SWAP1 SSTORE POP CALLVALUE DUP1 ISZERO PUSH2 0x51 JUMPI PUSH1 0x0 DUP1 REVERT JUMPDEST POP PUSH1 0x40 MLOAD PUSH3 0xF04 CODESIZE SUB DUP1 PUSH3 0xF04 DUP4 CODECOPY DUP2 DUP2 ADD PUSH1 0x40 MSTORE DUP2 ADD SWAP1 PUSH2 0x75 SWAP2 SWAP1 PUSH2 0x171 JUMP JUMPDEST DUP1 PUSH1 0x0 DUP1 PUSH2 0x100 EXP DUP2 SLOAD DUP2 PUSH20 0xFFFFFFFFFFFFFFFFFFFFFFFFFFFFFFFFFFFFFFFF MUL NOT AND SWAP1 DUP4 PUSH20 0xFFFFFFFFFFFFFFFFFFFFFFFFFFFFFFFFFFFFFFFF AND MUL OR SWAP1 SSTORE POP CALLER PUSH1 0x1 PUSH1 0x0 PUSH2 0x100 EXP DUP2 SLOAD DUP2 PUSH20 0xFFFFFFFFFFFFFFFFFFFFFFFFFFFFFFFFFFFFFFFF MUL NOT AND SWAP1 DUP4 PUSH20 0xFFFFFFFFFFFFFFFFFFFFFFFFFFFFFFFFFFFFFFFF AND MUL OR SWAP1 SSTORE POP POP PUSH2 0x19E JUMP JUMPDEST PUSH1 0x0 DUP1 REVERT JUMPDEST PUSH1 0x0 PUSH20 0xFFFFFFFFFFFFFFFFFFFFFFFFFFFFFFFFFFFFFFFF DUP3 AND SWAP1 POP SWAP2 SWAP1 POP JUMP JUMPDEST PUSH1 0x0 PUSH2 0x12C DUP3 PUSH2 0x101 JUMP JUMPDEST SWAP1 POP SWAP2 SWAP1 POP JUMP JUMPDEST PUSH1 0x0 PUSH2 0x13E DUP3 PUSH2 0x121 JUMP JUMPDEST SWAP1 POP SWAP2 SWAP1 POP JUMP JUMPDEST PUSH2 0x14E DUP2 PUSH2 0x133 JUMP JUMPDEST DUP2 EQ PUSH2 0x159 JUMPI PUSH1 0x0 DUP1 REVERT JUMPDEST POP JUMP JUMPDEST PUSH1 0x0 DUP2 MLOAD SWAP1 POP PUSH2 0x16B DUP2 PUSH2 0x145 JUMP JUMPDEST SWAP3 SWAP2 POP POP JUMP JUMPDEST PUSH1 0x0 PUSH1 0x20 DUP3 DUP5 SUB SLT ISZERO PUSH2 0x187 JUMPI PUSH2 0x186 PUSH2 0xFC JUMP JUMPDEST JUMPDEST PUSH1 0x0 PUSH2 0x195 DUP5 DUP3 DUP6 ADD PUSH2 0x15C JUMP JUMPDEST SWAP2 POP POP SWAP3 SWAP2 POP POP JUMP JUMPDEST PUSH2 0xD56 DUP1 PUSH3 0x1AE PUSH1 0x0 CODECOPY PUSH1 0x0 RETURN INVALID PUSH1 0x80 PUSH1 0x40 MSTORE PUSH1 0x4 CALLDATASIZE LT PUSH2 0x4A JUMPI PUSH1 0x0 CALLDATALOAD PUSH1 0xE0 SHR DUP1 PUSH4 0x2E1A7D4D EQ PUSH2 0x4F JUMPI DUP1 PUSH4 0xA6F2AE3A EQ PUSH2 0x78 JUMPI DUP1 PUSH4 0xB69EF8A8 EQ PUSH2 0x82 JUMPI DUP1 PUSH4 0xE4849B32 EQ PUSH2 0xAD JUMPI DUP1 PUSH4 0xFC0C546A EQ PUSH2 0xD6 JUMPI JUMPDEST PUSH1 0x0 DUP1 REVERT JUMPDEST CALLVALUE DUP1 ISZERO PUSH2 0x5B JUMPI PUSH1 0x0 DUP1 REVERT JUMPDEST POP PUSH2 0x76 PUSH1 0x4 DUP1 CALLDATASIZE SUB DUP2 ADD SWAP1 PUSH2 0x71 SWAP2 SWAP1 PUSH2 0x7BE JUMP JUMPDEST PUSH2 0x101 JUMP JUMPDEST STOP JUMPDEST PUSH2 0x80 PUSH2 0x225 JUMP JUMPDEST STOP JUMPDEST CALLVALUE DUP1 ISZERO PUSH2 0x8E JUMPI PUSH1 0x0 DUP1 REVERT JUMPDEST POP PUSH2 0x97 PUSH2 0x469 JUMP JUMPDEST PUSH1 0x40 MLOAD PUSH2 0xA4 SWAP2 SWAP1 PUSH2 0x7FA JUMP JUMPDEST PUSH1 0x40 MLOAD DUP1 SWAP2 SUB SWAP1 RETURN JUMPDEST CALLVALUE DUP1 ISZERO PUSH2 0xB9 JUMPI PUSH1 0x0 DUP1 REVERT JUMPDEST POP PUSH2 0xD4 PUSH1 0x4 DUP1 CALLDATASIZE SUB DUP2 ADD SWAP1 PUSH2 0xCF SWAP2 SWAP1 PUSH2 0x7BE JUMP JUMPDEST PUSH2 0x4AA JUMP JUMPDEST STOP JUMPDEST CALLVALUE DUP1 ISZERO PUSH2 0xE2 JUMPI PUSH1 0x0 DUP1 REVERT JUMPDEST POP PUSH2 0xEB PUSH2 0x74F JUMP JUMPDEST PUSH1 0x40 MLOAD PUSH2 0xF8 SWAP2 SWAP1 PUSH2 0x894 JUMP JUMPDEST PUSH1 0x40 MLOAD DUP1 SWAP2 SUB SWAP1 RETURN JUMPDEST PUSH1 0x1 PUSH1 0x0 SWAP1 SLOAD SWAP1 PUSH2 0x100 EXP SWAP1 DIV PUSH20 0xFFFFFFFFFFFFFFFFFFFFFFFFFFFFFFFFFFFFFFFF AND PUSH20 0xFFFFFFFFFFFFFFFFFFFFFFFFFFFFFFFFFFFFFFFF AND CALLER PUSH20 0xFFFFFFFFFFFFFFFFFFFFFFFFFFFFFFFFFFFFFFFF AND EQ PUSH2 0x191 JUMPI PUSH1 0x40 MLOAD PUSH32 0x8C379A000000000000000000000000000000000000000000000000000000000 DUP2 MSTORE PUSH1 0x4 ADD PUSH2 0x188 SWAP1 PUSH2 0x90C JUMP JUMPDEST PUSH1 0x40 MLOAD DUP1 SWAP2 SUB SWAP1 REVERT JUMPDEST PUSH2 0x199 PUSH2 0x469 JUMP JUMPDEST DUP2 GT ISZERO PUSH2 0x1DB JUMPI PUSH1 0x40 MLOAD PUSH32 0x8C379A000000000000000000000000000000000000000000000000000000000 DUP2 MSTORE PUSH1 0x4 ADD PUSH2 0x1D2 SWAP1 PUSH2 0x978 JUMP JUMPDEST PUSH1 0x40 MLOAD DUP1 SWAP2 SUB SWAP1 REVERT JUMPDEST CALLER PUSH20 0xFFFFFFFFFFFFFFFFFFFFFFFFFFFFFFFFFFFFFFFF AND PUSH2 0x8FC DUP3 SWAP1 DUP2 ISZERO MUL SWAP1 PUSH1 0x40 MLOAD PUSH1 0x0 PUSH1 0x40 MLOAD DUP1 DUP4 SUB DUP2 DUP6 DUP9 DUP9 CALL SWAP4 POP POP POP POP ISZERO DUP1 ISZERO PUSH2 0x221 JUMPI RETURNDATASIZE PUSH1 0x0 DUP1 RETURNDATACOPY RETURNDATASIZE PUSH1 0x0 REVERT JUMPDEST POP POP JUMP JUMPDEST PUSH2 0x22D PUSH2 0x773 JUMP JUMPDEST CALLVALUE LT ISZERO PUSH2 0x26F JUMPI PUSH1 0x40 MLOAD PUSH32 0x8C379A000000000000000000000000000000000000000000000000000000000 DUP2 MSTORE PUSH1 0x4 ADD PUSH2 0x266 SWAP1 PUSH2 0x9E4 JUMP JUMPDEST PUSH1 0x40 MLOAD DUP1 SWAP2 SUB SWAP1 REVERT JUMPDEST PUSH1 0x0 DUP1 PUSH1 0x0 SWAP1 SLOAD SWAP1 PUSH2 0x100 EXP SWAP1 DIV PUSH20 0xFFFFFFFFFFFFFFFFFFFFFFFFFFFFFFFFFFFFFFFF AND PUSH20 0xFFFFFFFFFFFFFFFFFFFFFFFFFFFFFFFFFFFFFFFF AND PUSH4 0x70A08231 PUSH1 0x2 PUSH1 0x0 SWAP1 SLOAD SWAP1 PUSH2 0x100 EXP SWAP1 DIV PUSH20 0xFFFFFFFFFFFFFFFFFFFFFFFFFFFFFFFFFFFFFFFF AND PUSH1 0x40 MLOAD DUP3 PUSH4 0xFFFFFFFF AND PUSH1 0xE0 SHL DUP2 MSTORE PUSH1 0x4 ADD PUSH2 0x2ED SWAP2 SWAP1 PUSH2 0xA25 JUMP JUMPDEST PUSH1 0x20 PUSH1 0x40 MLOAD DUP1 DUP4 SUB DUP2 DUP7 GAS STATICCALL ISZERO DUP1 ISZERO PUSH2 0x30A JUMPI RETURNDATASIZE PUSH1 0x0 DUP1 RETURNDATACOPY RETURNDATASIZE PUSH1 0x0 REVERT JUMPDEST POP POP POP POP PUSH1 0x40 MLOAD RETURNDATASIZE PUSH1 0x1F NOT PUSH1 0x1F DUP3 ADD AND DUP3 ADD DUP1 PUSH1 0x40 MSTORE POP DUP2 ADD SWAP1 PUSH2 0x32E SWAP2 SWAP1 PUSH2 0xA55 JUMP JUMPDEST SWAP1 POP PUSH1 0x0 PUSH2 0x33A PUSH2 0x773 JUMP JUMPDEST CALLVALUE PUSH2 0x345 SWAP2 SWAP1 PUSH2 0xAE0 JUMP JUMPDEST SWAP1 POP DUP2 DUP2 GT ISZERO PUSH2 0x38A JUMPI PUSH1 0x40 MLOAD PUSH32 0x8C379A000000000000000000000000000000000000000000000000000000000 DUP2 MSTORE PUSH1 0x4 ADD PUSH2 0x381 SWAP1 PUSH2 0xB5D JUMP JUMPDEST PUSH1 0x40 MLOAD DUP1 SWAP2 SUB SWAP1 REVERT JUMPDEST PUSH1 0x0 DUP1 SLOAD SWAP1 PUSH2 0x100 EXP SWAP1 DIV PUSH20 0xFFFFFFFFFFFFFFFFFFFFFFFFFFFFFFFFFFFFFFFF AND PUSH20 0xFFFFFFFFFFFFFFFFFFFFFFFFFFFFFFFFFFFFFFFF AND PUSH4 0xA9059CBB CALLER DUP4 PUSH1 0x40 MLOAD DUP4 PUSH4 0xFFFFFFFF AND PUSH1 0xE0 SHL DUP2 MSTORE PUSH1 0x4 ADD PUSH2 0x3E5 SWAP3 SWAP2 SWAP1 PUSH2 0xB7D JUMP JUMPDEST PUSH1 0x0 PUSH1 0x40 MLOAD DUP1 DUP4 SUB DUP2 PUSH1 0x0 DUP8 DUP1 EXTCODESIZE ISZERO DUP1 ISZERO PUSH2 0x3FF JUMPI PUSH1 0x0 DUP1 REVERT JUMPDEST POP GAS CALL ISZERO DUP1 ISZERO PUSH2 0x413 JUMPI RETURNDATASIZE PUSH1 0x0 DUP1 RETURNDATACOPY RETURNDATASIZE PUSH1 0x0 REVERT JUMPDEST POP POP POP POP CALLER PUSH20 0xFFFFFFFFFFFFFFFFFFFFFFFFFFFFFFFFFFFFFFFF AND PUSH32 0xC55650CCDA1011E1CDC769B1FBF546EBB8C97800B6072B49E06CD560305B1D67 DUP3 PUSH1 0x40 MLOAD PUSH2 0x45D SWAP2 SWAP1 PUSH2 0x7FA JUMP JUMPDEST PUSH1 0x40 MLOAD DUP1 SWAP2 SUB SWAP1 LOG2 POP POP JUMP JUMPDEST PUSH1 0x0 PUSH1 0x2 PUSH1 0x0 SWAP1 SLOAD SWAP1 PUSH2 0x100 EXP SWAP1 DIV PUSH20 0xFFFFFFFFFFFFFFFFFFFFFFFFFFFFFFFFFFFFFFFF AND PUSH20 0xFFFFFFFFFFFFFFFFFFFFFFFFFFFFFFFFFFFFFFFF AND BALANCE SWAP1 POP SWAP1 JUMP JUMPDEST PUSH1 0x0 DUP2 GT PUSH2 0x4ED JUMPI PUSH1 0x40 MLOAD PUSH32 0x8C379A000000000000000000000000000000000000000000000000000000000 DUP2 MSTORE PUSH1 0x4 ADD PUSH2 0x4E4 SWAP1 PUSH2 0xBF2 JUMP JUMPDEST PUSH1 0x40 MLOAD DUP1 SWAP2 SUB SWAP1 REVERT JUMPDEST PUSH1 0x0 DUP1 PUSH1 0x0 SWAP1 SLOAD SWAP1 PUSH2 0x100 EXP SWAP1 DIV PUSH20 0xFFFFFFFFFFFFFFFFFFFFFFFFFFFFFFFFFFFFFFFF AND PUSH20 0xFFFFFFFFFFFFFFFFFFFFFFFFFFFFFFFFFFFFFFFF AND PUSH4 0xDD62ED3E CALLER PUSH1 0x2 PUSH1 0x0 SWAP1 SLOAD SWAP1 PUSH2 0x100 EXP SWAP1 DIV PUSH20 0xFFFFFFFFFFFFFFFFFFFFFFFFFFFFFFFFFFFFFFFF AND PUSH1 0x40 MLOAD DUP4 PUSH4 0xFFFFFFFF AND PUSH1 0xE0 SHL DUP2 MSTORE PUSH1 0x4 ADD PUSH2 0x56D SWAP3 SWAP2 SWAP1 PUSH2 0xC12 JUMP JUMPDEST PUSH1 0x20 PUSH1 0x40 MLOAD DUP1 DUP4 SUB DUP2 DUP7 GAS STATICCALL ISZERO DUP1 ISZERO PUSH2 0x58A JUMPI RETURNDATASIZE PUSH1 0x0 DUP1 RETURNDATACOPY RETURNDATASIZE PUSH1 0x0 REVERT JUMPDEST POP POP POP POP PUSH1 0x40 MLOAD RETURNDATASIZE PUSH1 0x1F NOT PUSH1 0x1F DUP3 ADD AND DUP3 ADD DUP1 PUSH1 0x40 MSTORE POP DUP2 ADD SWAP1 PUSH2 0x5AE SWAP2 SWAP1 PUSH2 0xA55 JUMP JUMPDEST SWAP1 POP DUP2 DUP2 LT ISZERO PUSH2 0x5F3 JUMPI PUSH1 0x40 MLOAD PUSH32 0x8C379A000000000000000000000000000000000000000000000000000000000 DUP2 MSTORE PUSH1 0x4 ADD PUSH2 0x5EA SWAP1 PUSH2 0xC87 JUMP JUMPDEST PUSH1 0x40 MLOAD DUP1 SWAP2 SUB SWAP1 REVERT JUMPDEST PUSH1 0x0 DUP1 SLOAD SWAP1 PUSH2 0x100 EXP SWAP1 DIV PUSH20 0xFFFFFFFFFFFFFFFFFFFFFFFFFFFFFFFFFFFFFFFF AND PUSH20 0xFFFFFFFFFFFFFFFFFFFFFFFFFFFFFFFFFFFFFFFF AND PUSH4 0x23B872DD CALLER PUSH1 0x2 PUSH1 0x0 SWAP1 SLOAD SWAP1 PUSH2 0x100 EXP SWAP1 DIV PUSH20 0xFFFFFFFFFFFFFFFFFFFFFFFFFFFFFFFFFFFFFFFF AND DUP6 PUSH1 0x40 MLOAD DUP5 PUSH4 0xFFFFFFFF AND PUSH1 0xE0 SHL DUP2 MSTORE PUSH1 0x4 ADD PUSH2 0x672 SWAP4 SWAP3 SWAP2 SWAP1 PUSH2 0xCA7 JUMP JUMPDEST PUSH1 0x0 PUSH1 0x40 MLOAD DUP1 DUP4 SUB DUP2 PUSH1 0x0 DUP8 DUP1 EXTCODESIZE ISZERO DUP1 ISZERO PUSH2 0x68C JUMPI PUSH1 0x0 DUP1 REVERT JUMPDEST POP GAS CALL ISZERO DUP1 ISZERO PUSH2 0x6A0 JUMPI RETURNDATASIZE PUSH1 0x0 DUP1 RETURNDATACOPY RETURNDATASIZE PUSH1 0x0 REVERT JUMPDEST POP POP POP POP CALLER PUSH20 0xFFFFFFFFFFFFFFFFFFFFFFFFFFFFFFFFFFFFFFFF AND PUSH2 0x8FC PUSH2 0x6C6 PUSH2 0x773 JUMP JUMPDEST DUP5 PUSH2 0x6D1 SWAP2 SWAP1 PUSH2 0xCDE JUMP JUMPDEST SWAP1 DUP2 ISZERO MUL SWAP1 PUSH1 0x40 MLOAD PUSH1 0x0 PUSH1 0x40 MLOAD DUP1 DUP4 SUB DUP2 DUP6 DUP9 DUP9 CALL SWAP4 POP POP POP POP ISZERO DUP1 ISZERO PUSH2 0x6FC JUMPI RETURNDATASIZE PUSH1 0x0 DUP1 RETURNDATACOPY RETURNDATASIZE PUSH1 0x0 REVERT JUMPDEST POP CALLER PUSH20 0xFFFFFFFFFFFFFFFFFFFFFFFFFFFFFFFFFFFFFFFF AND PUSH32 0xAE92AB4B6F8F401EAD768D3273E6BB937A13E39827D19C6376E8FD4512A05D9A DUP4 PUSH1 0x40 MLOAD PUSH2 0x743 SWAP2 SWAP1 PUSH2 0x7FA JUMP JUMPDEST PUSH1 0x40 MLOAD DUP1 SWAP2 SUB SWAP1 LOG2 POP POP JUMP JUMPDEST PUSH1 0x0 DUP1 SLOAD SWAP1 PUSH2 0x100 EXP SWAP1 DIV PUSH20 0xFFFFFFFFFFFFFFFFFFFFFFFFFFFFFFFFFFFFFFFF AND DUP2 JUMP JUMPDEST PUSH1 0x0 PUSH8 0xDE0B6B3A7640000 SWAP1 POP SWAP1 JUMP JUMPDEST PUSH1 0x0 DUP1 REVERT JUMPDEST PUSH1 0x0 DUP2 SWAP1 POP SWAP2 SWAP1 POP JUMP JUMPDEST PUSH2 0x79B DUP2 PUSH2 0x788 JUMP JUMPDEST DUP2 EQ PUSH2 0x7A6 JUMPI PUSH1 0x0 DUP1 REVERT JUMPDEST POP JUMP JUMPDEST PUSH1 0x0 DUP2 CALLDATALOAD SWAP1 POP PUSH2 0x7B8 DUP2 PUSH2 0x792 JUMP JUMPDEST SWAP3 SWAP2 POP POP JUMP JUMPDEST PUSH1 0x0 PUSH1 0x20 DUP3 DUP5 SUB SLT ISZERO PUSH2 0x7D4 JUMPI PUSH2 0x7D3 PUSH2 0x783 JUMP JUMPDEST JUMPDEST PUSH1 0x0 PUSH2 0x7E2 DUP5 DUP3 DUP6 ADD PUSH2 0x7A9 JUMP JUMPDEST SWAP2 POP POP SWAP3 SWAP2 POP POP JUMP JUMPDEST PUSH2 0x7F4 DUP2 PUSH2 0x788 JUMP JUMPDEST DUP3 MSTORE POP POP JUMP JUMPDEST PUSH1 0x0 PUSH1 0x20 DUP3 ADD SWAP1 POP PUSH2 0x80F PUSH1 0x0 DUP4 ADD DUP5 PUSH2 0x7EB JUMP JUMPDEST SWAP3 SWAP2 POP POP JUMP JUMPDEST PUSH1 0x0 PUSH20 0xFFFFFFFFFFFFFFFFFFFFFFFFFFFFFFFFFFFFFFFF DUP3 AND SWAP1 POP SWAP2 SWAP1 POP JUMP JUMPDEST PUSH1 0x0 DUP2 SWAP1 POP SWAP2 SWAP1 POP JUMP JUMPDEST PUSH1 0x0 PUSH2 0x85A PUSH2 0x855 PUSH2 0x850 DUP5 PUSH2 0x815 JUMP JUMPDEST PUSH2 0x835 JUMP JUMPDEST PUSH2 0x815 JUMP JUMPDEST SWAP1 POP SWAP2 SWAP1 POP JUMP JUMPDEST PUSH1 0x0 PUSH2 0x86C DUP3 PUSH2 0x83F JUMP JUMPDEST SWAP1 POP SWAP2 SWAP1 POP JUMP JUMPDEST PUSH1 0x0 PUSH2 0x87E DUP3 PUSH2 0x861 JUMP JUMPDEST SWAP1 POP SWAP2 SWAP1 POP JUMP JUMPDEST PUSH2 0x88E DUP2 PUSH2 0x873 JUMP JUMPDEST DUP3 MSTORE POP POP JUMP JUMPDEST PUSH1 0x0 PUSH1 0x20 DUP3 ADD SWAP1 POP PUSH2 0x8A9 PUSH1 0x0 DUP4 ADD DUP5 PUSH2 0x885 JUMP JUMPDEST SWAP3 SWAP2 POP POP JUMP JUMPDEST PUSH1 0x0 DUP3 DUP3 MSTORE PUSH1 0x20 DUP3 ADD SWAP1 POP SWAP3 SWAP2 POP POP JUMP JUMPDEST PUSH32 0x4F6E6C79204F776E657221000000000000000000000000000000000000000000 PUSH1 0x0 DUP3 ADD MSTORE POP JUMP JUMPDEST PUSH1 0x0 PUSH2 0x8F6 PUSH1 0xB DUP4 PUSH2 0x8AF JUMP JUMPDEST SWAP2 POP PUSH2 0x901 DUP3 PUSH2 0x8C0 JUMP JUMPDEST PUSH1 0x20 DUP3 ADD SWAP1 POP SWAP2 SWAP1 POP JUMP JUMPDEST PUSH1 0x0 PUSH1 0x20 DUP3 ADD SWAP1 POP DUP2 DUP2 SUB PUSH1 0x0 DUP4 ADD MSTORE PUSH2 0x925 DUP2 PUSH2 0x8E9 JUMP JUMPDEST SWAP1 POP SWAP2 SWAP1 POP JUMP JUMPDEST PUSH32 0x6E6F7420656E6F7567682066756E647321000000000000000000000000000000 PUSH1 0x0 DUP3 ADD MSTORE POP JUMP JUMPDEST PUSH1 0x0 PUSH2 0x962 PUSH1 0x11 DUP4 PUSH2 0x8AF JUMP JUMPDEST SWAP2 POP PUSH2 0x96D DUP3 PUSH2 0x92C JUMP JUMPDEST PUSH1 0x20 DUP3 ADD SWAP1 POP SWAP2 SWAP1 POP JUMP JUMPDEST PUSH1 0x0 PUSH1 0x20 DUP3 ADD SWAP1 POP DUP2 DUP2 SUB PUSH1 0x0 DUP4 ADD MSTORE PUSH2 0x991 DUP2 PUSH2 0x955 JUMP JUMPDEST SWAP1 POP SWAP2 SWAP1 POP JUMP JUMPDEST PUSH32 0x496E636F72726563742073756D00000000000000000000000000000000000000 PUSH1 0x0 DUP3 ADD MSTORE POP JUMP JUMPDEST PUSH1 0x0 PUSH2 0x9CE PUSH1 0xD DUP4 PUSH2 0x8AF JUMP JUMPDEST SWAP2 POP PUSH2 0x9D9 DUP3 PUSH2 0x998 JUMP JUMPDEST PUSH1 0x20 DUP3 ADD SWAP1 POP SWAP2 SWAP1 POP JUMP JUMPDEST PUSH1 0x0 PUSH1 0x20 DUP3 ADD SWAP1 POP DUP2 DUP2 SUB PUSH1 0x0 DUP4 ADD MSTORE PUSH2 0x9FD DUP2 PUSH2 0x9C1 JUMP JUMPDEST SWAP1 POP SWAP2 SWAP1 POP JUMP JUMPDEST PUSH1 0x0 PUSH2 0xA0F DUP3 PUSH2 0x815 JUMP JUMPDEST SWAP1 POP SWAP2 SWAP1 POP JUMP JUMPDEST PUSH2 0xA1F DUP2 PUSH2 0xA04 JUMP JUMPDEST DUP3 MSTORE POP POP JUMP JUMPDEST PUSH1 0x0 PUSH1 0x20 DUP3 ADD SWAP1 POP PUSH2 0xA3A PUSH1 0x0 DUP4 ADD DUP5 PUSH2 0xA16 JUMP JUMPDEST SWAP3 SWAP2 POP POP JUMP JUMPDEST PUSH1 0x0 DUP2 MLOAD SWAP1 POP PUSH2 0xA4F DUP2 PUSH2 0x792 JUMP JUMPDEST SWAP3 SWAP2 POP POP JUMP JUMPDEST PUSH1 0x0 PUSH1 0x20 DUP3 DUP5 SUB SLT ISZERO PUSH2 0xA6B JUMPI PUSH2 0xA6A PUSH2 0x783 JUMP JUMPDEST JUMPDEST PUSH1 0x0 PUSH2 0xA79 DUP5 DUP3 DUP6 ADD PUSH2 0xA40 JUMP JUMPDEST SWAP2 POP POP SWAP3 SWAP2 POP POP JUMP JUMPDEST PUSH32 0x4E487B7100000000000000000000000000000000000000000000000000000000 PUSH1 0x0 MSTORE PUSH1 0x12 PUSH1 0x4 MSTORE PUSH1 0x24 PUSH1 0x0 REVERT JUMPDEST PUSH32 0x4E487B7100000000000000000000000000000000000000000000000000000000 PUSH1 0x0 MSTORE PUSH1 0x11 PUSH1 0x4 MSTORE PUSH1 0x24 PUSH1 0x0 REVERT JUMPDEST PUSH1 0x0 PUSH2 0xAEB DUP3 PUSH2 0x788 JUMP JUMPDEST SWAP2 POP PUSH2 0xAF6 DUP4 PUSH2 0x788 JUMP JUMPDEST SWAP3 POP DUP3 PUSH2 0xB06 JUMPI PUSH2 0xB05 PUSH2 0xA82 JUMP JUMPDEST JUMPDEST DUP3 DUP3 DIV SWAP1 POP SWAP3 SWAP2 POP POP JUMP JUMPDEST PUSH32 0x6E6F7420656E6F75676820746F6B656E73210000000000000000000000000000 PUSH1 0x0 DUP3 ADD MSTORE POP JUMP JUMPDEST PUSH1 0x0 PUSH2 0xB47 PUSH1 0x12 DUP4 PUSH2 0x8AF JUMP JUMPDEST SWAP2 POP PUSH2 0xB52 DUP3 PUSH2 0xB11 JUMP JUMPDEST PUSH1 0x20 DUP3 ADD SWAP1 POP SWAP2 SWAP1 POP JUMP JUMPDEST PUSH1 0x0 PUSH1 0x20 DUP3 ADD SWAP1 POP DUP2 DUP2 SUB PUSH1 0x0 DUP4 ADD MSTORE PUSH2 0xB76 DUP2 PUSH2 0xB3A JUMP JUMPDEST SWAP1 POP SWAP2 SWAP1 POP JUMP JUMPDEST PUSH1 0x0 PUSH1 0x40 DUP3 ADD SWAP1 POP PUSH2 0xB92 PUSH1 0x0 DUP4 ADD DUP6 PUSH2 0xA16 JUMP JUMPDEST PUSH2 0xB9F PUSH1 0x20 DUP4 ADD DUP5 PUSH2 0x7EB JUMP JUMPDEST SWAP4 SWAP3 POP POP POP JUMP JUMPDEST PUSH32 0x6D7573742062652067726561746572207468616E207A65726F21000000000000 PUSH1 0x0 DUP3 ADD MSTORE POP JUMP JUMPDEST PUSH1 0x0 PUSH2 0xBDC PUSH1 0x1A DUP4 PUSH2 0x8AF JUMP JUMPDEST SWAP2 POP PUSH2 0xBE7 DUP3 PUSH2 0xBA6 JUMP JUMPDEST PUSH1 0x20 DUP3 ADD SWAP1 POP SWAP2 SWAP1 POP JUMP JUMPDEST PUSH1 0x0 PUSH1 0x20 DUP3 ADD SWAP1 POP DUP2 DUP2 SUB PUSH1 0x0 DUP4 ADD MSTORE PUSH2 0xC0B DUP2 PUSH2 0xBCF JUMP JUMPDEST SWAP1 POP SWAP2 SWAP1 POP JUMP JUMPDEST PUSH1 0x0 PUSH1 0x40 DUP3 ADD SWAP1 POP PUSH2 0xC27 PUSH1 0x0 DUP4 ADD DUP6 PUSH2 0xA16 JUMP JUMPDEST PUSH2 0xC34 PUSH1 0x20 DUP4 ADD DUP5 PUSH2 0xA16 JUMP JUMPDEST SWAP4 SWAP3 POP POP POP JUMP JUMPDEST PUSH32 0x57726F6E6720616C6C6F77616E63652100000000000000000000000000000000 PUSH1 0x0 DUP3 ADD MSTORE POP JUMP JUMPDEST PUSH1 0x0 PUSH2 0xC71 PUSH1 0x10 DUP4 PUSH2 0x8AF JUMP JUMPDEST SWAP2 POP PUSH2 0xC7C DUP3 PUSH2 0xC3B JUMP JUMPDEST PUSH1 0x20 DUP3 ADD SWAP1 POP SWAP2 SWAP1 POP JUMP JUMPDEST PUSH1 0x0 PUSH1 0x20 DUP3 ADD SWAP1 POP DUP2 DUP2 SUB PUSH1 0x0 DUP4 ADD MSTORE PUSH2 0xCA0 DUP2 PUSH2 0xC64 JUMP JUMPDEST SWAP1 POP SWAP2 SWAP1 POP JUMP JUMPDEST PUSH1 0x0 PUSH1 0x60 DUP3 ADD SWAP1 POP PUSH2 0xCBC PUSH1 0x0 DUP4 ADD DUP7 PUSH2 0xA16 JUMP JUMPDEST PUSH2 0xCC9 PUSH1 0x20 DUP4 ADD DUP6 PUSH2 0xA16 JUMP JUMPDEST PUSH2 0xCD6 PUSH1 0x40 DUP4 ADD DUP5 PUSH2 0x7EB JUMP JUMPDEST SWAP5 SWAP4 POP POP POP POP JUMP JUMPDEST PUSH1 0x0 PUSH2 0xCE9 DUP3 PUSH2 0x788 JUMP JUMPDEST SWAP2 POP PUSH2 0xCF4 DUP4 PUSH2 0x788 JUMP JUMPDEST SWAP3 POP DUP3 DUP3 MUL PUSH2 0xD02 DUP2 PUSH2 0x788 JUMP JUMPDEST SWAP2 POP DUP3 DUP3 DIV DUP5 EQ DUP4 ISZERO OR PUSH2 0xD19 JUMPI PUSH2 0xD18 PUSH2 0xAB1 JUMP JUMPDEST JUMPDEST POP SWAP3 SWAP2 POP POP JUMP INVALID LOG2 PUSH5 0x6970667358 0x22 SLT KECCAK256 PUSH11 0x1D50B203EBA69118660777 MSIZE MLOAD DUP14 SWAP1 LOG4 0xCB LOG3 0xE5 SHL PUSH25 0xAE8817CC909F7191CF9E64736F6C6343000811003300000000 "
				},
				"gasEstimates": {
					"creation": {
						"codeDepositCost": "682800",
						"executionCost": "infinite",
						"totalCost": "infinite"
					},
					"external": {
						"balance()": "5101",
						"buy()": "infinite",
						"sell(uint256)": "infinite",
						"token()": "infinite",
						"withdraw(uint256)": "infinite"
					},
					"internal": {
						"_rate()": "23"
					}
				},
				"methodIdentifiers": {
					"balance()": "b69ef8a8",
					"buy()": "a6f2ae3a",
					"sell(uint256)": "e4849b32",
					"token()": "fc0c546a",
					"withdraw(uint256)": "2e1a7d4d"
				}
			},
			"storageLayout": {
				"storage": [
					{
						"astId": 302,
						"contract": "contracts/ERC20.sol:SellToken",
						"label": "token",
						"offset": 0,
						"slot": "0",
						"type": "t_contract(IERC20)637"
					},
					{
						"astId": 304,
						"contract": "contracts/ERC20.sol:SellToken",
						"label": "owner",
						"offset": 0,
						"slot": "1",
						"type": "t_address"
					},
					{
						"astId": 310,
						"contract": "contracts/ERC20.sol:SellToken",
						"label": "thisAddress",
						"offset": 0,
						"slot": "2",
						"type": "t_address"
					}
				],
				"types": {
					"t_address": {
						"encoding": "inplace",
						"label": "address",
						"numberOfBytes": "20"
					},
					"t_contract(IERC20)637": {
						"encoding": "inplace",
						"label": "contract IERC20",
						"numberOfBytes": "20"
					}
				}
			},
			"userdoc": {
				"kind": "user",
				"methods": {},
				"version": 1
			}
		}
	}
}