{
	"contracts/ERC20.sol": {
		"Weth": {
			"abi": [
				{
					"inputs": [],
					"stateMutability": "nonpayable",
					"type": "constructor"
				},
				{
					"anonymous": false,
					"inputs": [
						{
							"indexed": true,
							"internalType": "address",
							"name": "owner",
							"type": "address"
						},
						{
							"indexed": true,
							"internalType": "address",
							"name": "to",
							"type": "address"
						},
						{
							"indexed": false,
							"internalType": "uint256",
							"name": "amount",
							"type": "uint256"
						}
					],
					"name": "Approval",
					"type": "event"
				},
				{
					"anonymous": false,
					"inputs": [
						{
							"indexed": true,
							"internalType": "address",
							"name": "initiator",
							"type": "address"
						},
						{
							"indexed": false,
							"internalType": "uint256",
							"name": "amount",
							"type": "uint256"
						}
					],
					"name": "Deposit",
					"type": "event"
				},
				{
					"anonymous": false,
					"inputs": [
						{
							"indexed": true,
							"internalType": "address",
							"name": "from",
							"type": "address"
						},
						{
							"indexed": true,
							"internalType": "address",
							"name": "to",
							"type": "address"
						},
						{
							"indexed": false,
							"internalType": "uint256",
							"name": "amount",
							"type": "uint256"
						}
					],
					"name": "Transfer",
					"type": "event"
				},
				{
					"stateMutability": "payable",
					"type": "fallback"
				},
				{
					"inputs": [
						{
							"internalType": "address",
							"name": "owner",
							"type": "address"
						},
						{
							"internalType": "address",
							"name": "spender",
							"type": "address"
						}
					],
					"name": "allowance",
					"outputs": [
						{
							"internalType": "uint256",
							"name": "",
							"type": "uint256"
						}
					],
					"stateMutability": "view",
					"type": "function"
				},
				{
					"inputs": [
						{
							"internalType": "address",
							"name": "spender",
							"type": "address"
						},
						{
							"internalType": "uint256",
							"name": "amount",
							"type": "uint256"
						}
					],
					"name": "approve",
					"outputs": [],
					"stateMutability": "nonpayable",
					"type": "function"
				},
				{
					"inputs": [
						{
							"internalType": "address",
							"name": "account",
							"type": "address"
						}
					],
					"name": "balanceOf",
					"outputs": [
						{
							"internalType": "uint256",
							"name": "",
							"type": "uint256"
						}
					],
					"stateMutability": "view",
					"type": "function"
				},
				{
					"inputs": [
						{
							"internalType": "address",
							"name": "_to",
							"type": "address"
						},
						{
							"internalType": "uint256",
							"name": "amount",
							"type": "uint256"
						}
					],
					"name": "burn",
					"outputs": [],
					"stateMutability": "nonpayable",
					"type": "function"
				},
				{
					"inputs": [],
					"name": "decimals",
					"outputs": [
						{
							"internalType": "uint256",
							"name": "",
							"type": "uint256"
						}
					],
					"stateMutability": "pure",
					"type": "function"
				},
				{
					"inputs": [],
					"name": "deposit",
					"outputs": [],
					"stateMutability": "payable",
					"type": "function"
				},
				{
					"inputs": [
						{
							"internalType": "address",
							"name": "_to",
							"type": "address"
						},
						{
							"internalType": "uint256",
							"name": "amount",
							"type": "uint256"
						}
					],
					"name": "mint",
					"outputs": [],
					"stateMutability": "nonpayable",
					"type": "function"
				},
				{
					"inputs": [],
					"name": "name",
					"outputs": [
						{
							"internalType": "string",
							"name": "",
							"type": "string"
						}
					],
					"stateMutability": "view",
					"type": "function"
				},
				{
					"inputs": [],
					"name": "symbol",
					"outputs": [
						{
							"internalType": "string",
							"name": "",
							"type": "string"
						}
					],
					"stateMutability": "view",
					"type": "function"
				},
				{
					"inputs": [],
					"name": "totalSupply",
					"outputs": [
						{
							"internalType": "uint256",
							"name": "",
							"type": "uint256"
						}
					],
					"stateMutability": "view",
					"type": "function"
				},
				{
					"inputs": [
						{
							"internalType": "address",
							"name": "_to",
							"type": "address"
						},
						{
							"internalType": "uint256",
							"name": "_amount",
							"type": "uint256"
						}
					],
					"name": "transfer",
					"outputs": [],
					"stateMutability": "nonpayable",
					"type": "function"
				},
				{
					"inputs": [
						{
							"internalType": "address",
							"name": "sender",
							"type": "address"
						},
						{
							"internalType": "address",
							"name": "recipient",
							"type": "address"
						},
						{
							"internalType": "uint256",
							"name": "amount",
							"type": "uint256"
						}
					],
					"name": "transferFrom",
					"outputs": [],
					"stateMutability": "nonpayable",
					"type": "function"
				},
				{
					"inputs": [
						{
							"internalType": "uint256",
							"name": "_amount",
							"type": "uint256"
						}
					],
					"name": "withdraw",
					"outputs": [],
					"stateMutability": "nonpayable",
					"type": "function"
				},
				{
					"stateMutability": "payable",
					"type": "receive"
				}
			],
			"devdoc": {
				"kind": "dev",
				"methods": {},
				"version": 1
			},
			"evm": {
				"assembly": "    /* \"contracts/ERC20.sol\":3883:4387  contract Weth is ERC20 {... */\n  mstore(0x40, 0x80)\n    /* \"contracts/ERC20.sol\":258:285  string public name = \"Chai\" */\n  mload(0x40)\n  dup1\n  0x40\n  add\n  0x40\n  mstore\n  dup1\n  0x04\n  dup2\n  mstore\n  0x20\n  add\n  0x4368616900000000000000000000000000000000000000000000000000000000\n  dup2\n  mstore\n  pop\n  0x04\n  swap1\n  dup2\n  tag_1\n  swap2\n  swap1\n  tag_2\n  jump\t// in\ntag_1:\n  pop\n    /* \"contracts/ERC20.sol\":291:319  string public symbol = \"CHA\" */\n  mload(0x40)\n  dup1\n  0x40\n  add\n  0x40\n  mstore\n  dup1\n  0x03\n  dup2\n  mstore\n  0x20\n  add\n  0x4348410000000000000000000000000000000000000000000000000000000000\n  dup2\n  mstore\n  pop\n  0x05\n  swap1\n  dup2\n  tag_3\n  swap2\n  swap1\n  tag_2\n  jump\t// in\ntag_3:\n  pop\n    /* \"contracts/ERC20.sol\":3912:3950  constructor() ERC20(\"Chai\",\"Cha\",0) {} */\n  callvalue\n  dup1\n  iszero\n  tag_4\n  jumpi\n  0x00\n  dup1\n  revert\ntag_4:\n  pop\n    /* \"contracts/ERC20.sol\":326:521  constructor(string memory _name, string memory _symbol,uint initSupply) {... */\n  mload(0x40)\n  dup1\n  0x40\n  add\n  0x40\n  mstore\n  dup1\n  0x04\n  dup2\n  mstore\n  0x20\n  add\n  0x4368616900000000000000000000000000000000000000000000000000000000\n  dup2\n  mstore\n  pop\n  mload(0x40)\n  dup1\n  0x40\n  add\n  0x40\n  mstore\n  dup1\n  0x03\n  dup2\n  mstore\n  0x20\n  add\n  0x4368610000000000000000000000000000000000000000000000000000000000\n  dup2\n  mstore\n  pop\n    /* \"contracts/ERC20.sol\":3945:3946  0 */\n  0x00\n    /* \"contracts/ERC20.sol\":415:420  _name */\n  dup3\n    /* \"contracts/ERC20.sol\":408:412  name */\n  0x04\n    /* \"contracts/ERC20.sol\":408:420  name = _name */\n  swap1\n  dup2\n  tag_8\n  swap2\n  swap1\n  tag_2\n  jump\t// in\ntag_8:\n  pop\n    /* \"contracts/ERC20.sol\":439:446  _symbol */\n  dup2\n    /* \"contracts/ERC20.sol\":430:436  symbol */\n  0x05\n    /* \"contracts/ERC20.sol\":430:446  symbol = _symbol */\n  swap1\n  dup2\n  tag_9\n  swap2\n  swap1\n  tag_2\n  jump\t// in\ntag_9:\n  pop\n    /* \"contracts/ERC20.sol\":468:478  msg.sender */\n  caller\n    /* \"contracts/ERC20.sol\":456:465  mainOwner */\n  0x00\n  dup1\n    /* \"contracts/ERC20.sol\":456:478  mainOwner = msg.sender */\n  0x0100\n  exp\n  dup2\n  sload\n  dup2\n  0xffffffffffffffffffffffffffffffffffffffff\n  mul\n  not\n  and\n  swap1\n  dup4\n  0xffffffffffffffffffffffffffffffffffffffff\n  and\n  mul\n  or\n  swap1\n  sstore\n  pop\n    /* \"contracts/ERC20.sol\":488:514  mint(mainOwner,initSupply) */\n  tag_10\n    /* \"contracts/ERC20.sol\":493:502  mainOwner */\n  0x00\n  dup1\n  sload\n  swap1\n  0x0100\n  exp\n  swap1\n  div\n  0xffffffffffffffffffffffffffffffffffffffff\n  and\n    /* \"contracts/ERC20.sol\":503:513  initSupply */\n  dup3\n    /* \"contracts/ERC20.sol\":488:492  mint */\n  shl(0x20, tag_11)\n    /* \"contracts/ERC20.sol\":488:514  mint(mainOwner,initSupply) */\n  0x20\n  shr\n  jump\t// in\ntag_10:\n    /* \"contracts/ERC20.sol\":326:521  constructor(string memory _name, string memory _symbol,uint initSupply) {... */\n  pop\n  pop\n  pop\n    /* \"contracts/ERC20.sol\":3883:4387  contract Weth is ERC20 {... */\n  jump(tag_13)\n    /* \"contracts/ERC20.sol\":1921:2091  function mint(address _to,uint amount) public {... */\ntag_11:\n    /* \"contracts/ERC20.sol\":1994:2000  amount */\n  dup1\n    /* \"contracts/ERC20.sol\":1977:1985  balances */\n  0x02\n    /* \"contracts/ERC20.sol\":1977:1990  balances[_to] */\n  0x00\n    /* \"contracts/ERC20.sol\":1986:1989  _to */\n  dup5\n    /* \"contracts/ERC20.sol\":1977:1990  balances[_to] */\n  0xffffffffffffffffffffffffffffffffffffffff\n  and\n  0xffffffffffffffffffffffffffffffffffffffff\n  and\n  dup2\n  mstore\n  0x20\n  add\n  swap1\n  dup2\n  mstore\n  0x20\n  add\n  0x00\n  keccak256\n  0x00\n    /* \"contracts/ERC20.sol\":1977:2000  balances[_to] += amount */\n  dup3\n  dup3\n  sload\n  tag_15\n  swap2\n  swap1\n  tag_16\n  jump\t// in\ntag_15:\n  swap3\n  pop\n  pop\n  dup2\n  swap1\n  sstore\n  pop\n    /* \"contracts/ERC20.sol\":2025:2031  amount */\n  dup1\n    /* \"contracts/ERC20.sol\":2010:2021  totalTokens */\n  0x01\n  0x00\n    /* \"contracts/ERC20.sol\":2010:2031  totalTokens += amount */\n  dup3\n  dup3\n  sload\n  tag_17\n  swap2\n  swap1\n  tag_16\n  jump\t// in\ntag_17:\n  swap3\n  pop\n  pop\n  dup2\n  swap1\n  sstore\n  pop\n    /* \"contracts/ERC20.sol\":2066:2076  msg.sender */\n  caller\n    /* \"contracts/ERC20.sol\":2046:2084  Transfer(address(0),msg.sender,amount) */\n  0xffffffffffffffffffffffffffffffffffffffff\n  and\n    /* \"contracts/ERC20.sol\":2063:2064  0 */\n  0x00\n    /* \"contracts/ERC20.sol\":2046:2084  Transfer(address(0),msg.sender,amount) */\n  0xffffffffffffffffffffffffffffffffffffffff\n  and\n  0xddf252ad1be2c89b69c2b068fc378daa952ba7f163c4a11628f55a4df523b3ef\n    /* \"contracts/ERC20.sol\":2077:2083  amount */\n  dup4\n    /* \"contracts/ERC20.sol\":2046:2084  Transfer(address(0),msg.sender,amount) */\n  mload(0x40)\n  tag_18\n  swap2\n  swap1\n  tag_19\n  jump\t// in\ntag_18:\n  mload(0x40)\n  dup1\n  swap2\n  sub\n  swap1\n  log3\n    /* \"contracts/ERC20.sol\":1921:2091  function mint(address _to,uint amount) public {... */\n  pop\n  pop\n  jump\t// out\n    /* \"#utility.yul\":7:106   */\ntag_20:\n    /* \"#utility.yul\":59:65   */\n  0x00\n    /* \"#utility.yul\":93:98   */\n  dup2\n    /* \"#utility.yul\":87:99   */\n  mload\n    /* \"#utility.yul\":77:99   */\n  swap1\n  pop\n    /* \"#utility.yul\":7:106   */\n  swap2\n  swap1\n  pop\n  jump\t// out\n    /* \"#utility.yul\":112:292   */\ntag_21:\n    /* \"#utility.yul\":160:237   */\n  0x4e487b7100000000000000000000000000000000000000000000000000000000\n    /* \"#utility.yul\":157:158   */\n  0x00\n    /* \"#utility.yul\":150:238   */\n  mstore\n    /* \"#utility.yul\":257:261   */\n  0x41\n    /* \"#utility.yul\":254:255   */\n  0x04\n    /* \"#utility.yul\":247:262   */\n  mstore\n    /* \"#utility.yul\":281:285   */\n  0x24\n    /* \"#utility.yul\":278:279   */\n  0x00\n    /* \"#utility.yul\":271:286   */\n  revert\n    /* \"#utility.yul\":298:478   */\ntag_22:\n    /* \"#utility.yul\":346:423   */\n  0x4e487b7100000000000000000000000000000000000000000000000000000000\n    /* \"#utility.yul\":343:344   */\n  0x00\n    /* \"#utility.yul\":336:424   */\n  mstore\n    /* \"#utility.yul\":443:447   */\n  0x22\n    /* \"#utility.yul\":440:441   */\n  0x04\n    /* \"#utility.yul\":433:448   */\n  mstore\n    /* \"#utility.yul\":467:471   */\n  0x24\n    /* \"#utility.yul\":464:465   */\n  0x00\n    /* \"#utility.yul\":457:472   */\n  revert\n    /* \"#utility.yul\":484:804   */\ntag_23:\n    /* \"#utility.yul\":528:534   */\n  0x00\n    /* \"#utility.yul\":565:566   */\n  0x02\n    /* \"#utility.yul\":559:563   */\n  dup3\n    /* \"#utility.yul\":555:567   */\n  div\n    /* \"#utility.yul\":545:567   */\n  swap1\n  pop\n    /* \"#utility.yul\":612:613   */\n  0x01\n    /* \"#utility.yul\":606:610   */\n  dup3\n    /* \"#utility.yul\":602:614   */\n  and\n    /* \"#utility.yul\":633:651   */\n  dup1\n    /* \"#utility.yul\":623:704   */\n  tag_47\n  jumpi\n    /* \"#utility.yul\":689:693   */\n  0x7f\n    /* \"#utility.yul\":681:687   */\n  dup3\n    /* \"#utility.yul\":677:694   */\n  and\n    /* \"#utility.yul\":667:694   */\n  swap2\n  pop\n    /* \"#utility.yul\":623:704   */\ntag_47:\n    /* \"#utility.yul\":751:753   */\n  0x20\n    /* \"#utility.yul\":743:749   */\n  dup3\n    /* \"#utility.yul\":740:754   */\n  lt\n    /* \"#utility.yul\":720:738   */\n  dup2\n    /* \"#utility.yul\":717:755   */\n  sub\n    /* \"#utility.yul\":714:798   */\n  tag_48\n  jumpi\n    /* \"#utility.yul\":770:788   */\n  tag_49\n  tag_22\n  jump\t// in\ntag_49:\n    /* \"#utility.yul\":714:798   */\ntag_48:\n    /* \"#utility.yul\":535:804   */\n  pop\n    /* \"#utility.yul\":484:804   */\n  swap2\n  swap1\n  pop\n  jump\t// out\n    /* \"#utility.yul\":810:951   */\ntag_24:\n    /* \"#utility.yul\":859:863   */\n  0x00\n    /* \"#utility.yul\":882:885   */\n  dup2\n    /* \"#utility.yul\":874:885   */\n  swap1\n  pop\n    /* \"#utility.yul\":905:908   */\n  dup2\n    /* \"#utility.yul\":902:903   */\n  0x00\n    /* \"#utility.yul\":895:909   */\n  mstore\n    /* \"#utility.yul\":939:943   */\n  0x20\n    /* \"#utility.yul\":936:937   */\n  0x00\n    /* \"#utility.yul\":926:944   */\n  keccak256\n    /* \"#utility.yul\":918:944   */\n  swap1\n  pop\n    /* \"#utility.yul\":810:951   */\n  swap2\n  swap1\n  pop\n  jump\t// out\n    /* \"#utility.yul\":957:1050   */\ntag_25:\n    /* \"#utility.yul\":994:1000   */\n  0x00\n    /* \"#utility.yul\":1041:1043   */\n  0x20\n    /* \"#utility.yul\":1036:1038   */\n  0x1f\n    /* \"#utility.yul\":1029:1034   */\n  dup4\n    /* \"#utility.yul\":1025:1039   */\n  add\n    /* \"#utility.yul\":1021:1044   */\n  div\n    /* \"#utility.yul\":1011:1044   */\n  swap1\n  pop\n    /* \"#utility.yul\":957:1050   */\n  swap2\n  swap1\n  pop\n  jump\t// out\n    /* \"#utility.yul\":1056:1163   */\ntag_26:\n    /* \"#utility.yul\":1100:1108   */\n  0x00\n    /* \"#utility.yul\":1150:1155   */\n  dup3\n    /* \"#utility.yul\":1144:1148   */\n  dup3\n    /* \"#utility.yul\":1140:1156   */\n  shl\n    /* \"#utility.yul\":1119:1156   */\n  swap1\n  pop\n    /* \"#utility.yul\":1056:1163   */\n  swap3\n  swap2\n  pop\n  pop\n  jump\t// out\n    /* \"#utility.yul\":1169:1562   */\ntag_27:\n    /* \"#utility.yul\":1238:1244   */\n  0x00\n    /* \"#utility.yul\":1288:1289   */\n  0x08\n    /* \"#utility.yul\":1276:1286   */\n  dup4\n    /* \"#utility.yul\":1272:1290   */\n  mul\n    /* \"#utility.yul\":1311:1408   */\n  tag_54\n    /* \"#utility.yul\":1341:1407   */\n  0xffffffffffffffffffffffffffffffffffffffffffffffffffffffffffffffff\n    /* \"#utility.yul\":1330:1339   */\n  dup3\n    /* \"#utility.yul\":1311:1408   */\n  tag_26\n  jump\t// in\ntag_54:\n    /* \"#utility.yul\":1429:1468   */\n  tag_55\n    /* \"#utility.yul\":1459:1467   */\n  dup7\n    /* \"#utility.yul\":1448:1457   */\n  dup4\n    /* \"#utility.yul\":1429:1468   */\n  tag_26\n  jump\t// in\ntag_55:\n    /* \"#utility.yul\":1417:1468   */\n  swap6\n  pop\n    /* \"#utility.yul\":1501:1505   */\n  dup1\n    /* \"#utility.yul\":1497:1506   */\n  not\n    /* \"#utility.yul\":1490:1495   */\n  dup5\n    /* \"#utility.yul\":1486:1507   */\n  and\n    /* \"#utility.yul\":1477:1507   */\n  swap4\n  pop\n    /* \"#utility.yul\":1550:1554   */\n  dup1\n    /* \"#utility.yul\":1540:1548   */\n  dup7\n    /* \"#utility.yul\":1536:1555   */\n  and\n    /* \"#utility.yul\":1529:1534   */\n  dup5\n    /* \"#utility.yul\":1526:1556   */\n  or\n    /* \"#utility.yul\":1516:1556   */\n  swap3\n  pop\n    /* \"#utility.yul\":1245:1562   */\n  pop\n  pop\n    /* \"#utility.yul\":1169:1562   */\n  swap4\n  swap3\n  pop\n  pop\n  pop\n  jump\t// out\n    /* \"#utility.yul\":1568:1645   */\ntag_28:\n    /* \"#utility.yul\":1605:1612   */\n  0x00\n    /* \"#utility.yul\":1634:1639   */\n  dup2\n    /* \"#utility.yul\":1623:1639   */\n  swap1\n  pop\n    /* \"#utility.yul\":1568:1645   */\n  swap2\n  swap1\n  pop\n  jump\t// out\n    /* \"#utility.yul\":1651:1711   */\ntag_29:\n    /* \"#utility.yul\":1679:1682   */\n  0x00\n    /* \"#utility.yul\":1700:1705   */\n  dup2\n    /* \"#utility.yul\":1693:1705   */\n  swap1\n  pop\n    /* \"#utility.yul\":1651:1711   */\n  swap2\n  swap1\n  pop\n  jump\t// out\n    /* \"#utility.yul\":1717:1859   */\ntag_30:\n    /* \"#utility.yul\":1767:1776   */\n  0x00\n    /* \"#utility.yul\":1800:1853   */\n  tag_59\n    /* \"#utility.yul\":1818:1852   */\n  tag_60\n    /* \"#utility.yul\":1827:1851   */\n  tag_61\n    /* \"#utility.yul\":1845:1850   */\n  dup5\n    /* \"#utility.yul\":1827:1851   */\n  tag_28\n  jump\t// in\ntag_61:\n    /* \"#utility.yul\":1818:1852   */\n  tag_29\n  jump\t// in\ntag_60:\n    /* \"#utility.yul\":1800:1853   */\n  tag_28\n  jump\t// in\ntag_59:\n    /* \"#utility.yul\":1787:1853   */\n  swap1\n  pop\n    /* \"#utility.yul\":1717:1859   */\n  swap2\n  swap1\n  pop\n  jump\t// out\n    /* \"#utility.yul\":1865:1940   */\ntag_31:\n    /* \"#utility.yul\":1908:1911   */\n  0x00\n    /* \"#utility.yul\":1929:1934   */\n  dup2\n    /* \"#utility.yul\":1922:1934   */\n  swap1\n  pop\n    /* \"#utility.yul\":1865:1940   */\n  swap2\n  swap1\n  pop\n  jump\t// out\n    /* \"#utility.yul\":1946:2215   */\ntag_32:\n    /* \"#utility.yul\":2056:2095   */\n  tag_64\n    /* \"#utility.yul\":2087:2094   */\n  dup4\n    /* \"#utility.yul\":2056:2095   */\n  tag_30\n  jump\t// in\ntag_64:\n    /* \"#utility.yul\":2117:2208   */\n  tag_65\n    /* \"#utility.yul\":2166:2207   */\n  tag_66\n    /* \"#utility.yul\":2190:2206   */\n  dup3\n    /* \"#utility.yul\":2166:2207   */\n  tag_31\n  jump\t// in\ntag_66:\n    /* \"#utility.yul\":2158:2164   */\n  dup5\n    /* \"#utility.yul\":2151:2155   */\n  dup5\n    /* \"#utility.yul\":2145:2156   */\n  sload\n    /* \"#utility.yul\":2117:2208   */\n  tag_27\n  jump\t// in\ntag_65:\n    /* \"#utility.yul\":2111:2115   */\n  dup3\n    /* \"#utility.yul\":2104:2209   */\n  sstore\n    /* \"#utility.yul\":2022:2215   */\n  pop\n    /* \"#utility.yul\":1946:2215   */\n  pop\n  pop\n  pop\n  jump\t// out\n    /* \"#utility.yul\":2221:2294   */\ntag_33:\n    /* \"#utility.yul\":2266:2269   */\n  0x00\n    /* \"#utility.yul\":2221:2294   */\n  swap1\n  jump\t// out\n    /* \"#utility.yul\":2300:2489   */\ntag_34:\n    /* \"#utility.yul\":2377:2409   */\n  tag_69\n  tag_33\n  jump\t// in\ntag_69:\n    /* \"#utility.yul\":2418:2483   */\n  tag_70\n    /* \"#utility.yul\":2476:2482   */\n  dup2\n    /* \"#utility.yul\":2468:2474   */\n  dup5\n    /* \"#utility.yul\":2462:2466   */\n  dup5\n    /* \"#utility.yul\":2418:2483   */\n  tag_32\n  jump\t// in\ntag_70:\n    /* \"#utility.yul\":2353:2489   */\n  pop\n    /* \"#utility.yul\":2300:2489   */\n  pop\n  pop\n  jump\t// out\n    /* \"#utility.yul\":2495:2681   */\ntag_35:\n    /* \"#utility.yul\":2555:2675   */\ntag_72:\n    /* \"#utility.yul\":2572:2575   */\n  dup2\n    /* \"#utility.yul\":2565:2570   */\n  dup2\n    /* \"#utility.yul\":2562:2576   */\n  lt\n    /* \"#utility.yul\":2555:2675   */\n  iszero\n  tag_74\n  jumpi\n    /* \"#utility.yul\":2626:2665   */\n  tag_75\n    /* \"#utility.yul\":2663:2664   */\n  0x00\n    /* \"#utility.yul\":2656:2661   */\n  dup3\n    /* \"#utility.yul\":2626:2665   */\n  tag_34\n  jump\t// in\ntag_75:\n    /* \"#utility.yul\":2599:2600   */\n  0x01\n    /* \"#utility.yul\":2592:2597   */\n  dup2\n    /* \"#utility.yul\":2588:2601   */\n  add\n    /* \"#utility.yul\":2579:2601   */\n  swap1\n  pop\n    /* \"#utility.yul\":2555:2675   */\n  jump(tag_72)\ntag_74:\n    /* \"#utility.yul\":2495:2681   */\n  pop\n  pop\n  jump\t// out\n    /* \"#utility.yul\":2687:3230   */\ntag_36:\n    /* \"#utility.yul\":2788:2790   */\n  0x1f\n    /* \"#utility.yul\":2783:2786   */\n  dup3\n    /* \"#utility.yul\":2780:2791   */\n  gt\n    /* \"#utility.yul\":2777:3223   */\n  iszero\n  tag_77\n  jumpi\n    /* \"#utility.yul\":2822:2860   */\n  tag_78\n    /* \"#utility.yul\":2854:2859   */\n  dup2\n    /* \"#utility.yul\":2822:2860   */\n  tag_24\n  jump\t// in\ntag_78:\n    /* \"#utility.yul\":2906:2935   */\n  tag_79\n    /* \"#utility.yul\":2924:2934   */\n  dup5\n    /* \"#utility.yul\":2906:2935   */\n  tag_25\n  jump\t// in\ntag_79:\n    /* \"#utility.yul\":2896:2904   */\n  dup2\n    /* \"#utility.yul\":2892:2936   */\n  add\n    /* \"#utility.yul\":3089:3091   */\n  0x20\n    /* \"#utility.yul\":3077:3087   */\n  dup6\n    /* \"#utility.yul\":3074:3092   */\n  lt\n    /* \"#utility.yul\":3071:3120   */\n  iszero\n  tag_80\n  jumpi\n    /* \"#utility.yul\":3110:3118   */\n  dup2\n    /* \"#utility.yul\":3095:3118   */\n  swap1\n  pop\n    /* \"#utility.yul\":3071:3120   */\ntag_80:\n    /* \"#utility.yul\":3133:3213   */\n  tag_81\n    /* \"#utility.yul\":3189:3211   */\n  tag_82\n    /* \"#utility.yul\":3207:3210   */\n  dup6\n    /* \"#utility.yul\":3189:3211   */\n  tag_25\n  jump\t// in\ntag_82:\n    /* \"#utility.yul\":3179:3187   */\n  dup4\n    /* \"#utility.yul\":3175:3212   */\n  add\n    /* \"#utility.yul\":3162:3173   */\n  dup3\n    /* \"#utility.yul\":3133:3213   */\n  tag_35\n  jump\t// in\ntag_81:\n    /* \"#utility.yul\":2792:3223   */\n  pop\n  pop\n    /* \"#utility.yul\":2777:3223   */\ntag_77:\n    /* \"#utility.yul\":2687:3230   */\n  pop\n  pop\n  pop\n  jump\t// out\n    /* \"#utility.yul\":3236:3353   */\ntag_37:\n    /* \"#utility.yul\":3290:3298   */\n  0x00\n    /* \"#utility.yul\":3340:3345   */\n  dup3\n    /* \"#utility.yul\":3334:3338   */\n  dup3\n    /* \"#utility.yul\":3330:3346   */\n  shr\n    /* \"#utility.yul\":3309:3346   */\n  swap1\n  pop\n    /* \"#utility.yul\":3236:3353   */\n  swap3\n  swap2\n  pop\n  pop\n  jump\t// out\n    /* \"#utility.yul\":3359:3528   */\ntag_38:\n    /* \"#utility.yul\":3403:3409   */\n  0x00\n    /* \"#utility.yul\":3436:3487   */\n  tag_85\n    /* \"#utility.yul\":3484:3485   */\n  0x00\n    /* \"#utility.yul\":3480:3486   */\n  not\n    /* \"#utility.yul\":3472:3477   */\n  dup5\n    /* \"#utility.yul\":3469:3470   */\n  0x08\n    /* \"#utility.yul\":3465:3478   */\n  mul\n    /* \"#utility.yul\":3436:3487   */\n  tag_37\n  jump\t// in\ntag_85:\n    /* \"#utility.yul\":3432:3488   */\n  not\n    /* \"#utility.yul\":3517:3521   */\n  dup1\n    /* \"#utility.yul\":3511:3515   */\n  dup4\n    /* \"#utility.yul\":3507:3522   */\n  and\n    /* \"#utility.yul\":3497:3522   */\n  swap2\n  pop\n    /* \"#utility.yul\":3410:3528   */\n  pop\n    /* \"#utility.yul\":3359:3528   */\n  swap3\n  swap2\n  pop\n  pop\n  jump\t// out\n    /* \"#utility.yul\":3533:3828   */\ntag_39:\n    /* \"#utility.yul\":3609:3613   */\n  0x00\n    /* \"#utility.yul\":3755:3784   */\n  tag_87\n    /* \"#utility.yul\":3780:3783   */\n  dup4\n    /* \"#utility.yul\":3774:3778   */\n  dup4\n    /* \"#utility.yul\":3755:3784   */\n  tag_38\n  jump\t// in\ntag_87:\n    /* \"#utility.yul\":3747:3784   */\n  swap2\n  pop\n    /* \"#utility.yul\":3817:3820   */\n  dup3\n    /* \"#utility.yul\":3814:3815   */\n  0x02\n    /* \"#utility.yul\":3810:3821   */\n  mul\n    /* \"#utility.yul\":3804:3808   */\n  dup3\n    /* \"#utility.yul\":3801:3822   */\n  or\n    /* \"#utility.yul\":3793:3822   */\n  swap1\n  pop\n    /* \"#utility.yul\":3533:3828   */\n  swap3\n  swap2\n  pop\n  pop\n  jump\t// out\n    /* \"#utility.yul\":3833:5228   */\ntag_2:\n    /* \"#utility.yul\":3950:3987   */\n  tag_89\n    /* \"#utility.yul\":3983:3986   */\n  dup3\n    /* \"#utility.yul\":3950:3987   */\n  tag_20\n  jump\t// in\ntag_89:\n    /* \"#utility.yul\":4052:4070   */\n  0xffffffffffffffff\n    /* \"#utility.yul\":4044:4050   */\n  dup2\n    /* \"#utility.yul\":4041:4071   */\n  gt\n    /* \"#utility.yul\":4038:4094   */\n  iszero\n  tag_90\n  jumpi\n    /* \"#utility.yul\":4074:4092   */\n  tag_91\n  tag_21\n  jump\t// in\ntag_91:\n    /* \"#utility.yul\":4038:4094   */\ntag_90:\n    /* \"#utility.yul\":4118:4156   */\n  tag_92\n    /* \"#utility.yul\":4150:4154   */\n  dup3\n    /* \"#utility.yul\":4144:4155   */\n  sload\n    /* \"#utility.yul\":4118:4156   */\n  tag_23\n  jump\t// in\ntag_92:\n    /* \"#utility.yul\":4203:4270   */\n  tag_93\n    /* \"#utility.yul\":4263:4269   */\n  dup3\n    /* \"#utility.yul\":4255:4261   */\n  dup3\n    /* \"#utility.yul\":4249:4253   */\n  dup6\n    /* \"#utility.yul\":4203:4270   */\n  tag_36\n  jump\t// in\ntag_93:\n    /* \"#utility.yul\":4297:4298   */\n  0x00\n    /* \"#utility.yul\":4321:4325   */\n  0x20\n    /* \"#utility.yul\":4308:4325   */\n  swap1\n  pop\n    /* \"#utility.yul\":4353:4355   */\n  0x1f\n    /* \"#utility.yul\":4345:4351   */\n  dup4\n    /* \"#utility.yul\":4342:4356   */\n  gt\n    /* \"#utility.yul\":4370:4371   */\n  0x01\n    /* \"#utility.yul\":4365:4983   */\n  dup2\n  eq\n  tag_95\n  jumpi\n    /* \"#utility.yul\":5027:5028   */\n  0x00\n    /* \"#utility.yul\":5044:5050   */\n  dup5\n    /* \"#utility.yul\":5041:5118   */\n  iszero\n  tag_96\n  jumpi\n    /* \"#utility.yul\":5093:5102   */\n  dup3\n    /* \"#utility.yul\":5088:5091   */\n  dup8\n    /* \"#utility.yul\":5084:5103   */\n  add\n    /* \"#utility.yul\":5078:5104   */\n  mload\n    /* \"#utility.yul\":5069:5104   */\n  swap1\n  pop\n    /* \"#utility.yul\":5041:5118   */\ntag_96:\n    /* \"#utility.yul\":5144:5211   */\n  tag_97\n    /* \"#utility.yul\":5204:5210   */\n  dup6\n    /* \"#utility.yul\":5197:5202   */\n  dup3\n    /* \"#utility.yul\":5144:5211   */\n  tag_39\n  jump\t// in\ntag_97:\n    /* \"#utility.yul\":5138:5142   */\n  dup7\n    /* \"#utility.yul\":5131:5212   */\n  sstore\n    /* \"#utility.yul\":5000:5222   */\n  pop\n    /* \"#utility.yul\":4335:5222   */\n  jump(tag_94)\n    /* \"#utility.yul\":4365:4983   */\ntag_95:\n    /* \"#utility.yul\":4417:4421   */\n  0x1f\n    /* \"#utility.yul\":4413:4422   */\n  not\n    /* \"#utility.yul\":4405:4411   */\n  dup5\n    /* \"#utility.yul\":4401:4423   */\n  and\n    /* \"#utility.yul\":4451:4488   */\n  tag_98\n    /* \"#utility.yul\":4483:4487   */\n  dup7\n    /* \"#utility.yul\":4451:4488   */\n  tag_24\n  jump\t// in\ntag_98:\n    /* \"#utility.yul\":4510:4511   */\n  0x00\n    /* \"#utility.yul\":4524:4732   */\ntag_99:\n    /* \"#utility.yul\":4538:4545   */\n  dup3\n    /* \"#utility.yul\":4535:4536   */\n  dup2\n    /* \"#utility.yul\":4532:4546   */\n  lt\n    /* \"#utility.yul\":4524:4732   */\n  iszero\n  tag_101\n  jumpi\n    /* \"#utility.yul\":4617:4626   */\n  dup5\n    /* \"#utility.yul\":4612:4615   */\n  dup10\n    /* \"#utility.yul\":4608:4627   */\n  add\n    /* \"#utility.yul\":4602:4628   */\n  mload\n    /* \"#utility.yul\":4594:4600   */\n  dup3\n    /* \"#utility.yul\":4587:4629   */\n  sstore\n    /* \"#utility.yul\":4668:4669   */\n  0x01\n    /* \"#utility.yul\":4660:4666   */\n  dup3\n    /* \"#utility.yul\":4656:4670   */\n  add\n    /* \"#utility.yul\":4646:4670   */\n  swap2\n  pop\n    /* \"#utility.yul\":4715:4717   */\n  0x20\n    /* \"#utility.yul\":4704:4713   */\n  dup6\n    /* \"#utility.yul\":4700:4718   */\n  add\n    /* \"#utility.yul\":4687:4718   */\n  swap5\n  pop\n    /* \"#utility.yul\":4561:4565   */\n  0x20\n    /* \"#utility.yul\":4558:4559   */\n  dup2\n    /* \"#utility.yul\":4554:4566   */\n  add\n    /* \"#utility.yul\":4549:4566   */\n  swap1\n  pop\n    /* \"#utility.yul\":4524:4732   */\n  jump(tag_99)\ntag_101:\n    /* \"#utility.yul\":4760:4766   */\n  dup7\n    /* \"#utility.yul\":4751:4758   */\n  dup4\n    /* \"#utility.yul\":4748:4767   */\n  lt\n    /* \"#utility.yul\":4745:4924   */\n  iszero\n  tag_102\n  jumpi\n    /* \"#utility.yul\":4818:4827   */\n  dup5\n    /* \"#utility.yul\":4813:4816   */\n  dup10\n    /* \"#utility.yul\":4809:4828   */\n  add\n    /* \"#utility.yul\":4803:4829   */\n  mload\n    /* \"#utility.yul\":4861:4909   */\n  tag_103\n    /* \"#utility.yul\":4903:4907   */\n  0x1f\n    /* \"#utility.yul\":4895:4901   */\n  dup10\n    /* \"#utility.yul\":4891:4908   */\n  and\n    /* \"#utility.yul\":4880:4889   */\n  dup3\n    /* \"#utility.yul\":4861:4909   */\n  tag_38\n  jump\t// in\ntag_103:\n    /* \"#utility.yul\":4853:4859   */\n  dup4\n    /* \"#utility.yul\":4846:4910   */\n  sstore\n    /* \"#utility.yul\":4768:4924   */\n  pop\n    /* \"#utility.yul\":4745:4924   */\ntag_102:\n    /* \"#utility.yul\":4970:4971   */\n  0x01\n    /* \"#utility.yul\":4966:4967   */\n  0x02\n    /* \"#utility.yul\":4958:4964   */\n  dup9\n    /* \"#utility.yul\":4954:4968   */\n  mul\n    /* \"#utility.yul\":4950:4972   */\n  add\n    /* \"#utility.yul\":4944:4948   */\n  dup9\n    /* \"#utility.yul\":4937:4973   */\n  sstore\n    /* \"#utility.yul\":4372:4983   */\n  pop\n  pop\n  pop\n    /* \"#utility.yul\":4335:5222   */\ntag_94:\n  pop\n    /* \"#utility.yul\":3925:5228   */\n  pop\n  pop\n  pop\n    /* \"#utility.yul\":3833:5228   */\n  pop\n  pop\n  jump\t// out\n    /* \"#utility.yul\":5234:5414   */\ntag_40:\n    /* \"#utility.yul\":5282:5359   */\n  0x4e487b7100000000000000000000000000000000000000000000000000000000\n    /* \"#utility.yul\":5279:5280   */\n  0x00\n    /* \"#utility.yul\":5272:5360   */\n  mstore\n    /* \"#utility.yul\":5379:5383   */\n  0x11\n    /* \"#utility.yul\":5376:5377   */\n  0x04\n    /* \"#utility.yul\":5369:5384   */\n  mstore\n    /* \"#utility.yul\":5403:5407   */\n  0x24\n    /* \"#utility.yul\":5400:5401   */\n  0x00\n    /* \"#utility.yul\":5393:5408   */\n  revert\n    /* \"#utility.yul\":5420:5611   */\ntag_16:\n    /* \"#utility.yul\":5460:5463   */\n  0x00\n    /* \"#utility.yul\":5479:5499   */\n  tag_106\n    /* \"#utility.yul\":5497:5498   */\n  dup3\n    /* \"#utility.yul\":5479:5499   */\n  tag_28\n  jump\t// in\ntag_106:\n    /* \"#utility.yul\":5474:5499   */\n  swap2\n  pop\n    /* \"#utility.yul\":5513:5533   */\n  tag_107\n    /* \"#utility.yul\":5531:5532   */\n  dup4\n    /* \"#utility.yul\":5513:5533   */\n  tag_28\n  jump\t// in\ntag_107:\n    /* \"#utility.yul\":5508:5533   */\n  swap3\n  pop\n    /* \"#utility.yul\":5556:5557   */\n  dup3\n    /* \"#utility.yul\":5553:5554   */\n  dup3\n    /* \"#utility.yul\":5549:5558   */\n  add\n    /* \"#utility.yul\":5542:5558   */\n  swap1\n  pop\n    /* \"#utility.yul\":5577:5580   */\n  dup1\n    /* \"#utility.yul\":5574:5575   */\n  dup3\n    /* \"#utility.yul\":5571:5581   */\n  gt\n    /* \"#utility.yul\":5568:5604   */\n  iszero\n  tag_108\n  jumpi\n    /* \"#utility.yul\":5584:5602   */\n  tag_109\n  tag_40\n  jump\t// in\ntag_109:\n    /* \"#utility.yul\":5568:5604   */\ntag_108:\n    /* \"#utility.yul\":5420:5611   */\n  swap3\n  swap2\n  pop\n  pop\n  jump\t// out\n    /* \"#utility.yul\":5617:5735   */\ntag_41:\n    /* \"#utility.yul\":5704:5728   */\n  tag_111\n    /* \"#utility.yul\":5722:5727   */\n  dup2\n    /* \"#utility.yul\":5704:5728   */\n  tag_28\n  jump\t// in\ntag_111:\n    /* \"#utility.yul\":5699:5702   */\n  dup3\n    /* \"#utility.yul\":5692:5729   */\n  mstore\n    /* \"#utility.yul\":5617:5735   */\n  pop\n  pop\n  jump\t// out\n    /* \"#utility.yul\":5741:5963   */\ntag_19:\n    /* \"#utility.yul\":5834:5838   */\n  0x00\n    /* \"#utility.yul\":5872:5874   */\n  0x20\n    /* \"#utility.yul\":5861:5870   */\n  dup3\n    /* \"#utility.yul\":5857:5875   */\n  add\n    /* \"#utility.yul\":5849:5875   */\n  swap1\n  pop\n    /* \"#utility.yul\":5885:5956   */\n  tag_113\n    /* \"#utility.yul\":5953:5954   */\n  0x00\n    /* \"#utility.yul\":5942:5951   */\n  dup4\n    /* \"#utility.yul\":5938:5955   */\n  add\n    /* \"#utility.yul\":5929:5935   */\n  dup5\n    /* \"#utility.yul\":5885:5956   */\n  tag_41\n  jump\t// in\ntag_113:\n    /* \"#utility.yul\":5741:5963   */\n  swap3\n  swap2\n  pop\n  pop\n  jump\t// out\n    /* \"contracts/ERC20.sol\":3883:4387  contract Weth is ERC20 {... */\ntag_13:\n  dataSize(sub_0)\n  dup1\n  dataOffset(sub_0)\n  0x00\n  codecopy\n  0x00\n  return\nstop\n\nsub_0: assembly {\n        /* \"contracts/ERC20.sol\":3883:4387  contract Weth is ERC20 {... */\n      mstore(0x40, 0x80)\n      jumpi(tag_1, lt(calldatasize, 0x04))\n      shr(0xe0, calldataload(0x00))\n      dup1\n      0x40c10f19\n      gt\n      tag_16\n      jumpi\n      dup1\n      0x9dc29fac\n      gt\n      tag_17\n      jumpi\n      dup1\n      0x9dc29fac\n      eq\n      tag_12\n      jumpi\n      dup1\n      0xa9059cbb\n      eq\n      tag_13\n      jumpi\n      dup1\n      0xd0e30db0\n      eq\n      tag_14\n      jumpi\n      dup1\n      0xdd62ed3e\n      eq\n      tag_15\n      jumpi\n      jump(tag_2)\n    tag_17:\n      dup1\n      0x40c10f19\n      eq\n      tag_9\n      jumpi\n      dup1\n      0x70a08231\n      eq\n      tag_10\n      jumpi\n      dup1\n      0x95d89b41\n      eq\n      tag_11\n      jumpi\n      jump(tag_2)\n    tag_16:\n      dup1\n      0x06fdde03\n      eq\n      tag_3\n      jumpi\n      dup1\n      0x095ea7b3\n      eq\n      tag_4\n      jumpi\n      dup1\n      0x18160ddd\n      eq\n      tag_5\n      jumpi\n      dup1\n      0x23b872dd\n      eq\n      tag_6\n      jumpi\n      dup1\n      0x2e1a7d4d\n      eq\n      tag_7\n      jumpi\n      dup1\n      0x313ce567\n      eq\n      tag_8\n      jumpi\n      jump(tag_2)\n    tag_1:\n      jumpi(tag_2, calldatasize)\n        /* \"contracts/ERC20.sol\":4187:4196  deposit() */\n      tag_20\n        /* \"contracts/ERC20.sol\":4187:4194  deposit */\n      tag_21\n        /* \"contracts/ERC20.sol\":4187:4196  deposit() */\n      jump\t// in\n    tag_20:\n        /* \"contracts/ERC20.sol\":3883:4387  contract Weth is ERC20 {... */\n      stop\n    tag_2:\n      stop\n        /* \"contracts/ERC20.sol\":258:285  string public name = \"Chai\" */\n    tag_3:\n      callvalue\n      dup1\n      iszero\n      tag_24\n      jumpi\n      0x00\n      dup1\n      revert\n    tag_24:\n      pop\n      tag_25\n      tag_26\n      jump\t// in\n    tag_25:\n      mload(0x40)\n      tag_27\n      swap2\n      swap1\n      tag_28\n      jump\t// in\n    tag_27:\n      mload(0x40)\n      dup1\n      swap2\n      sub\n      swap1\n      return\n        /* \"contracts/ERC20.sol\":1447:1619  function approve(address spender, uint amount) override external {... */\n    tag_4:\n      callvalue\n      dup1\n      iszero\n      tag_29\n      jumpi\n      0x00\n      dup1\n      revert\n    tag_29:\n      pop\n      tag_30\n      0x04\n      dup1\n      calldatasize\n      sub\n      dup2\n      add\n      swap1\n      tag_31\n      swap2\n      swap1\n      tag_32\n      jump\t// in\n    tag_31:\n      tag_33\n      jump\t// in\n    tag_30:\n      stop\n        /* \"contracts/ERC20.sol\":857:950  function totalSupply() override public view returns (uint){... */\n    tag_5:\n      callvalue\n      dup1\n      iszero\n      tag_34\n      jumpi\n      0x00\n      dup1\n      revert\n    tag_34:\n      pop\n      tag_35\n      tag_36\n      jump\t// in\n    tag_35:\n      mload(0x40)\n      tag_37\n      swap2\n      swap1\n      tag_38\n      jump\t// in\n    tag_37:\n      mload(0x40)\n      dup1\n      swap2\n      sub\n      swap1\n      return\n        /* \"contracts/ERC20.sol\":1624:1916  function transferFrom(address sender, address recipient, uint amount) override public enoughTokens(sender,amount){... */\n    tag_6:\n      callvalue\n      dup1\n      iszero\n      tag_39\n      jumpi\n      0x00\n      dup1\n      revert\n    tag_39:\n      pop\n      tag_40\n      0x04\n      dup1\n      calldatasize\n      sub\n      dup2\n      add\n      swap1\n      tag_41\n      swap2\n      swap1\n      tag_42\n      jump\t// in\n    tag_41:\n      tag_43\n      jump\t// in\n    tag_40:\n      stop\n        /* \"contracts/ERC20.sol\":4208:4385  function withdraw(uint _amount) public{... */\n    tag_7:\n      callvalue\n      dup1\n      iszero\n      tag_44\n      jumpi\n      0x00\n      dup1\n      revert\n    tag_44:\n      pop\n      tag_45\n      0x04\n      dup1\n      calldatasize\n      sub\n      dup2\n      add\n      swap1\n      tag_46\n      swap2\n      swap1\n      tag_47\n      jump\t// in\n    tag_46:\n      tag_48\n      jump\t// in\n    tag_45:\n      stop\n        /* \"contracts/ERC20.sol\":769:852  function decimals() override external pure returns(uint) {... */\n    tag_8:\n      callvalue\n      dup1\n      iszero\n      tag_49\n      jumpi\n      0x00\n      dup1\n      revert\n    tag_49:\n      pop\n      tag_50\n      tag_51\n      jump\t// in\n    tag_50:\n      mload(0x40)\n      tag_52\n      swap2\n      swap1\n      tag_38\n      jump\t// in\n    tag_52:\n      mload(0x40)\n      dup1\n      swap2\n      sub\n      swap1\n      return\n        /* \"contracts/ERC20.sol\":1921:2091  function mint(address _to,uint amount) public {... */\n    tag_9:\n      callvalue\n      dup1\n      iszero\n      tag_53\n      jumpi\n      0x00\n      dup1\n      revert\n    tag_53:\n      pop\n      tag_54\n      0x04\n      dup1\n      calldatasize\n      sub\n      dup2\n      add\n      swap1\n      tag_55\n      swap2\n      swap1\n      tag_32\n      jump\t// in\n    tag_55:\n      tag_56\n      jump\t// in\n    tag_54:\n      stop\n        /* \"contracts/ERC20.sol\":955:1066  function balanceOf(address account) override public view returns(uint){... */\n    tag_10:\n      callvalue\n      dup1\n      iszero\n      tag_57\n      jumpi\n      0x00\n      dup1\n      revert\n    tag_57:\n      pop\n      tag_58\n      0x04\n      dup1\n      calldatasize\n      sub\n      dup2\n      add\n      swap1\n      tag_59\n      swap2\n      swap1\n      tag_60\n      jump\t// in\n    tag_59:\n      tag_61\n      jump\t// in\n    tag_58:\n      mload(0x40)\n      tag_62\n      swap2\n      swap1\n      tag_38\n      jump\t// in\n    tag_62:\n      mload(0x40)\n      dup1\n      swap2\n      sub\n      swap1\n      return\n        /* \"contracts/ERC20.sol\":291:319  string public symbol = \"CHA\" */\n    tag_11:\n      callvalue\n      dup1\n      iszero\n      tag_63\n      jumpi\n      0x00\n      dup1\n      revert\n    tag_63:\n      pop\n      tag_64\n      tag_65\n      jump\t// in\n    tag_64:\n      mload(0x40)\n      tag_66\n      swap2\n      swap1\n      tag_28\n      jump\t// in\n    tag_66:\n      mload(0x40)\n      dup1\n      swap2\n      sub\n      swap1\n      return\n        /* \"contracts/ERC20.sol\":2096:2300  function burn(address _to,uint amount) public enoughTokens(msg.sender,amount)   {... */\n    tag_12:\n      callvalue\n      dup1\n      iszero\n      tag_67\n      jumpi\n      0x00\n      dup1\n      revert\n    tag_67:\n      pop\n      tag_68\n      0x04\n      dup1\n      calldatasize\n      sub\n      dup2\n      add\n      swap1\n      tag_69\n      swap2\n      swap1\n      tag_32\n      jump\t// in\n    tag_69:\n      tag_70\n      jump\t// in\n    tag_68:\n      stop\n        /* \"contracts/ERC20.sol\":1071:1299  function transfer(address _to, uint _amount) override external enoughTokens(msg.sender, _amount) {... */\n    tag_13:\n      callvalue\n      dup1\n      iszero\n      tag_71\n      jumpi\n      0x00\n      dup1\n      revert\n    tag_71:\n      pop\n      tag_72\n      0x04\n      dup1\n      calldatasize\n      sub\n      dup2\n      add\n      swap1\n      tag_73\n      swap2\n      swap1\n      tag_32\n      jump\t// in\n    tag_73:\n      tag_74\n      jump\t// in\n    tag_72:\n      stop\n        /* \"contracts/ERC20.sol\":4015:4137  function deposit() public payable {... */\n    tag_14:\n      tag_75\n      tag_21\n      jump\t// in\n    tag_75:\n      stop\n        /* \"contracts/ERC20.sol\":1304:1442  function allowance(address owner, address spender) override external view returns(uint) {... */\n    tag_15:\n      callvalue\n      dup1\n      iszero\n      tag_76\n      jumpi\n      0x00\n      dup1\n      revert\n    tag_76:\n      pop\n      tag_77\n      0x04\n      dup1\n      calldatasize\n      sub\n      dup2\n      add\n      swap1\n      tag_78\n      swap2\n      swap1\n      tag_79\n      jump\t// in\n    tag_78:\n      tag_80\n      jump\t// in\n    tag_77:\n      mload(0x40)\n      tag_81\n      swap2\n      swap1\n      tag_38\n      jump\t// in\n    tag_81:\n      mload(0x40)\n      dup1\n      swap2\n      sub\n      swap1\n      return\n        /* \"contracts/ERC20.sol\":4015:4137  function deposit() public payable {... */\n    tag_21:\n        /* \"contracts/ERC20.sol\":4059:4086  mint(msg.sender, msg.value) */\n      tag_83\n        /* \"contracts/ERC20.sol\":4064:4074  msg.sender */\n      caller\n        /* \"contracts/ERC20.sol\":4076:4085  msg.value */\n      callvalue\n        /* \"contracts/ERC20.sol\":4059:4063  mint */\n      tag_56\n        /* \"contracts/ERC20.sol\":4059:4086  mint(msg.sender, msg.value) */\n      jump\t// in\n    tag_83:\n        /* \"contracts/ERC20.sol\":4109:4119  msg.sender */\n      caller\n        /* \"contracts/ERC20.sol\":4101:4130  Deposit(msg.sender,msg.value) */\n      0xffffffffffffffffffffffffffffffffffffffff\n      and\n      0xe1fffcc4923d04b559f4d29a8bfc6cda04eb5b0d3c460751c2402c5c5cc9109c\n        /* \"contracts/ERC20.sol\":4120:4129  msg.value */\n      callvalue\n        /* \"contracts/ERC20.sol\":4101:4130  Deposit(msg.sender,msg.value) */\n      mload(0x40)\n      tag_84\n      swap2\n      swap1\n      tag_38\n      jump\t// in\n    tag_84:\n      mload(0x40)\n      dup1\n      swap2\n      sub\n      swap1\n      log2\n        /* \"contracts/ERC20.sol\":4015:4137  function deposit() public payable {... */\n      jump\t// out\n        /* \"contracts/ERC20.sol\":258:285  string public name = \"Chai\" */\n    tag_26:\n      0x04\n      dup1\n      sload\n      tag_85\n      swap1\n      tag_86\n      jump\t// in\n    tag_85:\n      dup1\n      0x1f\n      add\n      0x20\n      dup1\n      swap2\n      div\n      mul\n      0x20\n      add\n      mload(0x40)\n      swap1\n      dup2\n      add\n      0x40\n      mstore\n      dup1\n      swap3\n      swap2\n      swap1\n      dup2\n      dup2\n      mstore\n      0x20\n      add\n      dup3\n      dup1\n      sload\n      tag_87\n      swap1\n      tag_86\n      jump\t// in\n    tag_87:\n      dup1\n      iszero\n      tag_88\n      jumpi\n      dup1\n      0x1f\n      lt\n      tag_89\n      jumpi\n      0x0100\n      dup1\n      dup4\n      sload\n      div\n      mul\n      dup4\n      mstore\n      swap2\n      0x20\n      add\n      swap2\n      jump(tag_88)\n    tag_89:\n      dup3\n      add\n      swap2\n      swap1\n      0x00\n      mstore\n      keccak256(0x00, 0x20)\n      swap1\n    tag_90:\n      dup2\n      sload\n      dup2\n      mstore\n      swap1\n      0x01\n      add\n      swap1\n      0x20\n      add\n      dup1\n      dup4\n      gt\n      tag_90\n      jumpi\n      dup3\n      swap1\n      sub\n      0x1f\n      and\n      dup3\n      add\n      swap2\n    tag_88:\n      pop\n      pop\n      pop\n      pop\n      pop\n      dup2\n      jump\t// out\n        /* \"contracts/ERC20.sol\":1447:1619  function approve(address spender, uint amount) override external {... */\n    tag_33:\n        /* \"contracts/ERC20.sol\":1556:1562  amount */\n      dup1\n        /* \"contracts/ERC20.sol\":1522:1532  allowances */\n      0x03\n        /* \"contracts/ERC20.sol\":1522:1544  allowances[msg.sender] */\n      0x00\n        /* \"contracts/ERC20.sol\":1533:1543  msg.sender */\n      caller\n        /* \"contracts/ERC20.sol\":1522:1544  allowances[msg.sender] */\n      0xffffffffffffffffffffffffffffffffffffffff\n      and\n      0xffffffffffffffffffffffffffffffffffffffff\n      and\n      dup2\n      mstore\n      0x20\n      add\n      swap1\n      dup2\n      mstore\n      0x20\n      add\n      0x00\n      keccak256\n        /* \"contracts/ERC20.sol\":1522:1553  allowances[msg.sender][spender] */\n      0x00\n        /* \"contracts/ERC20.sol\":1545:1552  spender */\n      dup5\n        /* \"contracts/ERC20.sol\":1522:1553  allowances[msg.sender][spender] */\n      0xffffffffffffffffffffffffffffffffffffffff\n      and\n      0xffffffffffffffffffffffffffffffffffffffff\n      and\n      dup2\n      mstore\n      0x20\n      add\n      swap1\n      dup2\n      mstore\n      0x20\n      add\n      0x00\n      keccak256\n        /* \"contracts/ERC20.sol\":1522:1562  allowances[msg.sender][spender] = amount */\n      dup2\n      swap1\n      sstore\n      pop\n        /* \"contracts/ERC20.sol\":1597:1604  spender */\n      dup2\n        /* \"contracts/ERC20.sol\":1577:1612  Approval(msg.sender,spender,amount) */\n      0xffffffffffffffffffffffffffffffffffffffff\n      and\n        /* \"contracts/ERC20.sol\":1586:1596  msg.sender */\n      caller\n        /* \"contracts/ERC20.sol\":1577:1612  Approval(msg.sender,spender,amount) */\n      0xffffffffffffffffffffffffffffffffffffffff\n      and\n      0x8c5be1e5ebec7d5bd14f71427d1e84f3dd0314c0f7b2291e5b200ac8c7c3b925\n        /* \"contracts/ERC20.sol\":1605:1611  amount */\n      dup4\n        /* \"contracts/ERC20.sol\":1577:1612  Approval(msg.sender,spender,amount) */\n      mload(0x40)\n      tag_92\n      swap2\n      swap1\n      tag_38\n      jump\t// in\n    tag_92:\n      mload(0x40)\n      dup1\n      swap2\n      sub\n      swap1\n      log3\n        /* \"contracts/ERC20.sol\":1447:1619  function approve(address spender, uint amount) override external {... */\n      pop\n      pop\n      jump\t// out\n        /* \"contracts/ERC20.sol\":857:950  function totalSupply() override public view returns (uint){... */\n    tag_36:\n        /* \"contracts/ERC20.sol\":910:914  uint */\n      0x00\n        /* \"contracts/ERC20.sol\":932:943  totalTokens */\n      sload(0x01)\n        /* \"contracts/ERC20.sol\":925:943  return totalTokens */\n      swap1\n      pop\n        /* \"contracts/ERC20.sol\":857:950  function totalSupply() override public view returns (uint){... */\n      swap1\n      jump\t// out\n        /* \"contracts/ERC20.sol\":1624:1916  function transferFrom(address sender, address recipient, uint amount) override public enoughTokens(sender,amount){... */\n    tag_43:\n        /* \"contracts/ERC20.sol\":1723:1729  sender */\n      dup3\n        /* \"contracts/ERC20.sol\":1730:1736  amount */\n      dup2\n        /* \"contracts/ERC20.sol\":615:622  _amount */\n      dup1\n        /* \"contracts/ERC20.sol\":595:611  balanceOf(_from) */\n      tag_95\n        /* \"contracts/ERC20.sol\":605:610  _from */\n      dup4\n        /* \"contracts/ERC20.sol\":595:604  balanceOf */\n      tag_61\n        /* \"contracts/ERC20.sol\":595:611  balanceOf(_from) */\n      jump\t// in\n    tag_95:\n        /* \"contracts/ERC20.sol\":595:622  balanceOf(_from) >= _amount */\n      lt\n      iszero\n        /* \"contracts/ERC20.sol\":587:644  require(balanceOf(_from) >= _amount, \"not enough tokens\") */\n      tag_96\n      jumpi\n      mload(0x40)\n      0x08c379a000000000000000000000000000000000000000000000000000000000\n      dup2\n      mstore\n      0x04\n      add\n      tag_97\n      swap1\n      tag_98\n      jump\t// in\n    tag_97:\n      mload(0x40)\n      dup1\n      swap2\n      sub\n      swap1\n      revert\n    tag_96:\n        /* \"contracts/ERC20.sol\":1780:1786  amount */\n      dup3\n        /* \"contracts/ERC20.sol\":1747:1757  allowances */\n      0x03\n        /* \"contracts/ERC20.sol\":1747:1765  allowances[sender] */\n      0x00\n        /* \"contracts/ERC20.sol\":1758:1764  sender */\n      dup8\n        /* \"contracts/ERC20.sol\":1747:1765  allowances[sender] */\n      0xffffffffffffffffffffffffffffffffffffffff\n      and\n      0xffffffffffffffffffffffffffffffffffffffff\n      and\n      dup2\n      mstore\n      0x20\n      add\n      swap1\n      dup2\n      mstore\n      0x20\n      add\n      0x00\n      keccak256\n        /* \"contracts/ERC20.sol\":1747:1776  allowances[sender][recipient] */\n      0x00\n        /* \"contracts/ERC20.sol\":1766:1775  recipient */\n      dup7\n        /* \"contracts/ERC20.sol\":1747:1776  allowances[sender][recipient] */\n      0xffffffffffffffffffffffffffffffffffffffff\n      and\n      0xffffffffffffffffffffffffffffffffffffffff\n      and\n      dup2\n      mstore\n      0x20\n      add\n      swap1\n      dup2\n      mstore\n      0x20\n      add\n      0x00\n      keccak256\n      0x00\n        /* \"contracts/ERC20.sol\":1747:1786  allowances[sender][recipient] -= amount */\n      dup3\n      dup3\n      sload\n      tag_100\n      swap2\n      swap1\n      tag_101\n      jump\t// in\n    tag_100:\n      swap3\n      pop\n      pop\n      dup2\n      swap1\n      sstore\n      pop\n        /* \"contracts/ERC20.sol\":1816:1822  amount */\n      dup3\n        /* \"contracts/ERC20.sol\":1796:1804  balances */\n      0x02\n        /* \"contracts/ERC20.sol\":1796:1812  balances[sender] */\n      0x00\n        /* \"contracts/ERC20.sol\":1805:1811  sender */\n      dup8\n        /* \"contracts/ERC20.sol\":1796:1812  balances[sender] */\n      0xffffffffffffffffffffffffffffffffffffffff\n      and\n      0xffffffffffffffffffffffffffffffffffffffff\n      and\n      dup2\n      mstore\n      0x20\n      add\n      swap1\n      dup2\n      mstore\n      0x20\n      add\n      0x00\n      keccak256\n      0x00\n        /* \"contracts/ERC20.sol\":1796:1822  balances[sender] -= amount */\n      dup3\n      dup3\n      sload\n      tag_102\n      swap2\n      swap1\n      tag_101\n      jump\t// in\n    tag_102:\n      swap3\n      pop\n      pop\n      dup2\n      swap1\n      sstore\n      pop\n        /* \"contracts/ERC20.sol\":1855:1861  amount */\n      dup3\n        /* \"contracts/ERC20.sol\":1832:1840  balances */\n      0x02\n        /* \"contracts/ERC20.sol\":1832:1851  balances[recipient] */\n      0x00\n        /* \"contracts/ERC20.sol\":1841:1850  recipient */\n      dup7\n        /* \"contracts/ERC20.sol\":1832:1851  balances[recipient] */\n      0xffffffffffffffffffffffffffffffffffffffff\n      and\n      0xffffffffffffffffffffffffffffffffffffffff\n      and\n      dup2\n      mstore\n      0x20\n      add\n      swap1\n      dup2\n      mstore\n      0x20\n      add\n      0x00\n      keccak256\n      0x00\n        /* \"contracts/ERC20.sol\":1832:1861  balances[recipient] += amount */\n      dup3\n      dup3\n      sload\n      tag_103\n      swap2\n      swap1\n      tag_104\n      jump\t// in\n    tag_103:\n      swap3\n      pop\n      pop\n      dup2\n      swap1\n      sstore\n      pop\n        /* \"contracts/ERC20.sol\":1892:1901  recipient */\n      dup4\n        /* \"contracts/ERC20.sol\":1876:1909  Transfer(sender,recipient,amount) */\n      0xffffffffffffffffffffffffffffffffffffffff\n      and\n        /* \"contracts/ERC20.sol\":1885:1891  sender */\n      dup6\n        /* \"contracts/ERC20.sol\":1876:1909  Transfer(sender,recipient,amount) */\n      0xffffffffffffffffffffffffffffffffffffffff\n      and\n      0xddf252ad1be2c89b69c2b068fc378daa952ba7f163c4a11628f55a4df523b3ef\n        /* \"contracts/ERC20.sol\":1902:1908  amount */\n      dup6\n        /* \"contracts/ERC20.sol\":1876:1909  Transfer(sender,recipient,amount) */\n      mload(0x40)\n      tag_105\n      swap2\n      swap1\n      tag_38\n      jump\t// in\n    tag_105:\n      mload(0x40)\n      dup1\n      swap2\n      sub\n      swap1\n      log3\n        /* \"contracts/ERC20.sol\":1624:1916  function transferFrom(address sender, address recipient, uint amount) override public enoughTokens(sender,amount){... */\n      pop\n      pop\n      pop\n      pop\n      pop\n      jump\t// out\n        /* \"contracts/ERC20.sol\":4208:4385  function withdraw(uint _amount) public{... */\n    tag_48:\n        /* \"contracts/ERC20.sol\":4256:4280  burn(msg.sender,_amount) */\n      tag_107\n        /* \"contracts/ERC20.sol\":4261:4271  msg.sender */\n      caller\n        /* \"contracts/ERC20.sol\":4272:4279  _amount */\n      dup3\n        /* \"contracts/ERC20.sol\":4256:4260  burn */\n      tag_70\n        /* \"contracts/ERC20.sol\":4256:4280  burn(msg.sender,_amount) */\n      jump\t// in\n    tag_107:\n        /* \"contracts/ERC20.sol\":4291:4303  bool success */\n      0x00\n        /* \"contracts/ERC20.sol\":4308:4318  msg.sender */\n      caller\n        /* \"contracts/ERC20.sol\":4308:4323  msg.sender.call */\n      0xffffffffffffffffffffffffffffffffffffffff\n      and\n        /* \"contracts/ERC20.sol\":4330:4337  _amount */\n      dup3\n        /* \"contracts/ERC20.sol\":4308:4342  msg.sender.call{value:_amount}(\"\") */\n      mload(0x40)\n      tag_108\n      swap1\n      tag_109\n      jump\t// in\n    tag_108:\n      0x00\n      mload(0x40)\n      dup1\n      dup4\n      sub\n      dup2\n      dup6\n      dup8\n      gas\n      call\n      swap3\n      pop\n      pop\n      pop\n      returndatasize\n      dup1\n      0x00\n      dup2\n      eq\n      tag_112\n      jumpi\n      mload(0x40)\n      swap2\n      pop\n      and(add(returndatasize, 0x3f), not(0x1f))\n      dup3\n      add\n      0x40\n      mstore\n      returndatasize\n      dup3\n      mstore\n      returndatasize\n      0x00\n      0x20\n      dup5\n      add\n      returndatacopy\n      jump(tag_111)\n    tag_112:\n      0x60\n      swap2\n      pop\n    tag_111:\n      pop\n        /* \"contracts/ERC20.sol\":4290:4342  (bool success,) = msg.sender.call{value:_amount}(\"\") */\n      pop\n      swap1\n      pop\n        /* \"contracts/ERC20.sol\":4360:4367  success */\n      dup1\n        /* \"contracts/ERC20.sol\":4352:4378  require(success,\"failed!\") */\n      tag_113\n      jumpi\n      mload(0x40)\n      0x08c379a000000000000000000000000000000000000000000000000000000000\n      dup2\n      mstore\n      0x04\n      add\n      tag_114\n      swap1\n      tag_115\n      jump\t// in\n    tag_114:\n      mload(0x40)\n      dup1\n      swap2\n      sub\n      swap1\n      revert\n    tag_113:\n        /* \"contracts/ERC20.sol\":4246:4385  {... */\n      pop\n        /* \"contracts/ERC20.sol\":4208:4385  function withdraw(uint _amount) public{... */\n      pop\n      jump\t// out\n        /* \"contracts/ERC20.sol\":769:852  function decimals() override external pure returns(uint) {... */\n    tag_51:\n        /* \"contracts/ERC20.sol\":820:824  uint */\n      0x00\n        /* \"contracts/ERC20.sol\":843:845  18 */\n      0x12\n        /* \"contracts/ERC20.sol\":836:845  return 18 */\n      swap1\n      pop\n        /* \"contracts/ERC20.sol\":769:852  function decimals() override external pure returns(uint) {... */\n      swap1\n      jump\t// out\n        /* \"contracts/ERC20.sol\":1921:2091  function mint(address _to,uint amount) public {... */\n    tag_56:\n        /* \"contracts/ERC20.sol\":1994:2000  amount */\n      dup1\n        /* \"contracts/ERC20.sol\":1977:1985  balances */\n      0x02\n        /* \"contracts/ERC20.sol\":1977:1990  balances[_to] */\n      0x00\n        /* \"contracts/ERC20.sol\":1986:1989  _to */\n      dup5\n        /* \"contracts/ERC20.sol\":1977:1990  balances[_to] */\n      0xffffffffffffffffffffffffffffffffffffffff\n      and\n      0xffffffffffffffffffffffffffffffffffffffff\n      and\n      dup2\n      mstore\n      0x20\n      add\n      swap1\n      dup2\n      mstore\n      0x20\n      add\n      0x00\n      keccak256\n      0x00\n        /* \"contracts/ERC20.sol\":1977:2000  balances[_to] += amount */\n      dup3\n      dup3\n      sload\n      tag_118\n      swap2\n      swap1\n      tag_104\n      jump\t// in\n    tag_118:\n      swap3\n      pop\n      pop\n      dup2\n      swap1\n      sstore\n      pop\n        /* \"contracts/ERC20.sol\":2025:2031  amount */\n      dup1\n        /* \"contracts/ERC20.sol\":2010:2021  totalTokens */\n      0x01\n      0x00\n        /* \"contracts/ERC20.sol\":2010:2031  totalTokens += amount */\n      dup3\n      dup3\n      sload\n      tag_119\n      swap2\n      swap1\n      tag_104\n      jump\t// in\n    tag_119:\n      swap3\n      pop\n      pop\n      dup2\n      swap1\n      sstore\n      pop\n        /* \"contracts/ERC20.sol\":2066:2076  msg.sender */\n      caller\n        /* \"contracts/ERC20.sol\":2046:2084  Transfer(address(0),msg.sender,amount) */\n      0xffffffffffffffffffffffffffffffffffffffff\n      and\n        /* \"contracts/ERC20.sol\":2063:2064  0 */\n      0x00\n        /* \"contracts/ERC20.sol\":2046:2084  Transfer(address(0),msg.sender,amount) */\n      0xffffffffffffffffffffffffffffffffffffffff\n      and\n      0xddf252ad1be2c89b69c2b068fc378daa952ba7f163c4a11628f55a4df523b3ef\n        /* \"contracts/ERC20.sol\":2077:2083  amount */\n      dup4\n        /* \"contracts/ERC20.sol\":2046:2084  Transfer(address(0),msg.sender,amount) */\n      mload(0x40)\n      tag_120\n      swap2\n      swap1\n      tag_38\n      jump\t// in\n    tag_120:\n      mload(0x40)\n      dup1\n      swap2\n      sub\n      swap1\n      log3\n        /* \"contracts/ERC20.sol\":1921:2091  function mint(address _to,uint amount) public {... */\n      pop\n      pop\n      jump\t// out\n        /* \"contracts/ERC20.sol\":955:1066  function balanceOf(address account) override public view returns(uint){... */\n    tag_61:\n        /* \"contracts/ERC20.sol\":1020:1024  uint */\n      0x00\n        /* \"contracts/ERC20.sol\":1042:1050  balances */\n      0x02\n        /* \"contracts/ERC20.sol\":1042:1059  balances[account] */\n      0x00\n        /* \"contracts/ERC20.sol\":1051:1058  account */\n      dup4\n        /* \"contracts/ERC20.sol\":1042:1059  balances[account] */\n      0xffffffffffffffffffffffffffffffffffffffff\n      and\n      0xffffffffffffffffffffffffffffffffffffffff\n      and\n      dup2\n      mstore\n      0x20\n      add\n      swap1\n      dup2\n      mstore\n      0x20\n      add\n      0x00\n      keccak256\n      sload\n        /* \"contracts/ERC20.sol\":1035:1059  return balances[account] */\n      swap1\n      pop\n        /* \"contracts/ERC20.sol\":955:1066  function balanceOf(address account) override public view returns(uint){... */\n      swap2\n      swap1\n      pop\n      jump\t// out\n        /* \"contracts/ERC20.sol\":291:319  string public symbol = \"CHA\" */\n    tag_65:\n      0x05\n      dup1\n      sload\n      tag_122\n      swap1\n      tag_86\n      jump\t// in\n    tag_122:\n      dup1\n      0x1f\n      add\n      0x20\n      dup1\n      swap2\n      div\n      mul\n      0x20\n      add\n      mload(0x40)\n      swap1\n      dup2\n      add\n      0x40\n      mstore\n      dup1\n      swap3\n      swap2\n      swap1\n      dup2\n      dup2\n      mstore\n      0x20\n      add\n      dup3\n      dup1\n      sload\n      tag_123\n      swap1\n      tag_86\n      jump\t// in\n    tag_123:\n      dup1\n      iszero\n      tag_124\n      jumpi\n      dup1\n      0x1f\n      lt\n      tag_125\n      jumpi\n      0x0100\n      dup1\n      dup4\n      sload\n      div\n      mul\n      dup4\n      mstore\n      swap2\n      0x20\n      add\n      swap2\n      jump(tag_124)\n    tag_125:\n      dup3\n      add\n      swap2\n      swap1\n      0x00\n      mstore\n      keccak256(0x00, 0x20)\n      swap1\n    tag_126:\n      dup2\n      sload\n      dup2\n      mstore\n      swap1\n      0x01\n      add\n      swap1\n      0x20\n      add\n      dup1\n      dup4\n      gt\n      tag_126\n      jumpi\n      dup3\n      swap1\n      sub\n      0x1f\n      and\n      dup3\n      add\n      swap2\n    tag_124:\n      pop\n      pop\n      pop\n      pop\n      pop\n      dup2\n      jump\t// out\n        /* \"contracts/ERC20.sol\":2096:2300  function burn(address _to,uint amount) public enoughTokens(msg.sender,amount)   {... */\n    tag_70:\n        /* \"contracts/ERC20.sol\":2155:2165  msg.sender */\n      caller\n        /* \"contracts/ERC20.sol\":2166:2172  amount */\n      dup2\n        /* \"contracts/ERC20.sol\":615:622  _amount */\n      dup1\n        /* \"contracts/ERC20.sol\":595:611  balanceOf(_from) */\n      tag_128\n        /* \"contracts/ERC20.sol\":605:610  _from */\n      dup4\n        /* \"contracts/ERC20.sol\":595:604  balanceOf */\n      tag_61\n        /* \"contracts/ERC20.sol\":595:611  balanceOf(_from) */\n      jump\t// in\n    tag_128:\n        /* \"contracts/ERC20.sol\":595:622  balanceOf(_from) >= _amount */\n      lt\n      iszero\n        /* \"contracts/ERC20.sol\":587:644  require(balanceOf(_from) >= _amount, \"not enough tokens\") */\n      tag_129\n      jumpi\n      mload(0x40)\n      0x08c379a000000000000000000000000000000000000000000000000000000000\n      dup2\n      mstore\n      0x04\n      add\n      tag_130\n      swap1\n      tag_98\n      jump\t// in\n    tag_130:\n      mload(0x40)\n      dup1\n      swap2\n      sub\n      swap1\n      revert\n    tag_129:\n        /* \"contracts/ERC20.sol\":2203:2209  amount */\n      dup3\n        /* \"contracts/ERC20.sol\":2186:2194  balances */\n      0x02\n        /* \"contracts/ERC20.sol\":2186:2199  balances[_to] */\n      0x00\n        /* \"contracts/ERC20.sol\":2195:2198  _to */\n      dup7\n        /* \"contracts/ERC20.sol\":2186:2199  balances[_to] */\n      0xffffffffffffffffffffffffffffffffffffffff\n      and\n      0xffffffffffffffffffffffffffffffffffffffff\n      and\n      dup2\n      mstore\n      0x20\n      add\n      swap1\n      dup2\n      mstore\n      0x20\n      add\n      0x00\n      keccak256\n      0x00\n        /* \"contracts/ERC20.sol\":2186:2209  balances[_to] -= amount */\n      dup3\n      dup3\n      sload\n      tag_132\n      swap2\n      swap1\n      tag_101\n      jump\t// in\n    tag_132:\n      swap3\n      pop\n      pop\n      dup2\n      swap1\n      sstore\n      pop\n        /* \"contracts/ERC20.sol\":2234:2240  amount */\n      dup3\n        /* \"contracts/ERC20.sol\":2219:2230  totalTokens */\n      0x01\n      0x00\n        /* \"contracts/ERC20.sol\":2219:2240  totalTokens -= amount */\n      dup3\n      dup3\n      sload\n      tag_133\n      swap2\n      swap1\n      tag_101\n      jump\t// in\n    tag_133:\n      swap3\n      pop\n      pop\n      dup2\n      swap1\n      sstore\n      pop\n        /* \"contracts/ERC20.sol\":2283:2284  0 */\n      0x00\n        /* \"contracts/ERC20.sol\":2255:2293  Transfer(msg.sender,address(0),amount) */\n      0xffffffffffffffffffffffffffffffffffffffff\n      and\n        /* \"contracts/ERC20.sol\":2264:2274  msg.sender */\n      caller\n        /* \"contracts/ERC20.sol\":2255:2293  Transfer(msg.sender,address(0),amount) */\n      0xffffffffffffffffffffffffffffffffffffffff\n      and\n      0xddf252ad1be2c89b69c2b068fc378daa952ba7f163c4a11628f55a4df523b3ef\n        /* \"contracts/ERC20.sol\":2286:2292  amount */\n      dup6\n        /* \"contracts/ERC20.sol\":2255:2293  Transfer(msg.sender,address(0),amount) */\n      mload(0x40)\n      tag_134\n      swap2\n      swap1\n      tag_38\n      jump\t// in\n    tag_134:\n      mload(0x40)\n      dup1\n      swap2\n      sub\n      swap1\n      log3\n        /* \"contracts/ERC20.sol\":2096:2300  function burn(address _to,uint amount) public enoughTokens(msg.sender,amount)   {... */\n      pop\n      pop\n      pop\n      pop\n      jump\t// out\n        /* \"contracts/ERC20.sol\":1071:1299  function transfer(address _to, uint _amount) override external enoughTokens(msg.sender, _amount) {... */\n    tag_74:\n        /* \"contracts/ERC20.sol\":1147:1157  msg.sender */\n      caller\n        /* \"contracts/ERC20.sol\":1159:1166  _amount */\n      dup2\n        /* \"contracts/ERC20.sol\":615:622  _amount */\n      dup1\n        /* \"contracts/ERC20.sol\":595:611  balanceOf(_from) */\n      tag_136\n        /* \"contracts/ERC20.sol\":605:610  _from */\n      dup4\n        /* \"contracts/ERC20.sol\":595:604  balanceOf */\n      tag_61\n        /* \"contracts/ERC20.sol\":595:611  balanceOf(_from) */\n      jump\t// in\n    tag_136:\n        /* \"contracts/ERC20.sol\":595:622  balanceOf(_from) >= _amount */\n      lt\n      iszero\n        /* \"contracts/ERC20.sol\":587:644  require(balanceOf(_from) >= _amount, \"not enough tokens\") */\n      tag_137\n      jumpi\n      mload(0x40)\n      0x08c379a000000000000000000000000000000000000000000000000000000000\n      dup2\n      mstore\n      0x04\n      add\n      tag_138\n      swap1\n      tag_98\n      jump\t// in\n    tag_138:\n      mload(0x40)\n      dup1\n      swap2\n      sub\n      swap1\n      revert\n    tag_137:\n        /* \"contracts/ERC20.sol\":1202:1209  _amount */\n      dup3\n        /* \"contracts/ERC20.sol\":1178:1186  balances */\n      0x02\n        /* \"contracts/ERC20.sol\":1178:1198  balances[msg.sender] */\n      0x00\n        /* \"contracts/ERC20.sol\":1187:1197  msg.sender */\n      caller\n        /* \"contracts/ERC20.sol\":1178:1198  balances[msg.sender] */\n      0xffffffffffffffffffffffffffffffffffffffff\n      and\n      0xffffffffffffffffffffffffffffffffffffffff\n      and\n      dup2\n      mstore\n      0x20\n      add\n      swap1\n      dup2\n      mstore\n      0x20\n      add\n      0x00\n      keccak256\n      0x00\n        /* \"contracts/ERC20.sol\":1178:1209  balances[msg.sender] -= _amount */\n      dup3\n      dup3\n      sload\n      tag_140\n      swap2\n      swap1\n      tag_101\n      jump\t// in\n    tag_140:\n      swap3\n      pop\n      pop\n      dup2\n      swap1\n      sstore\n      pop\n        /* \"contracts/ERC20.sol\":1236:1243  _amount */\n      dup3\n        /* \"contracts/ERC20.sol\":1219:1227  balances */\n      0x02\n        /* \"contracts/ERC20.sol\":1219:1232  balances[_to] */\n      0x00\n        /* \"contracts/ERC20.sol\":1228:1231  _to */\n      dup7\n        /* \"contracts/ERC20.sol\":1219:1232  balances[_to] */\n      0xffffffffffffffffffffffffffffffffffffffff\n      and\n      0xffffffffffffffffffffffffffffffffffffffff\n      and\n      dup2\n      mstore\n      0x20\n      add\n      swap1\n      dup2\n      mstore\n      0x20\n      add\n      0x00\n      keccak256\n      0x00\n        /* \"contracts/ERC20.sol\":1219:1243  balances[_to] += _amount */\n      dup3\n      dup3\n      sload\n      tag_141\n      swap2\n      swap1\n      tag_104\n      jump\t// in\n    tag_141:\n      swap3\n      pop\n      pop\n      dup2\n      swap1\n      sstore\n      pop\n        /* \"contracts/ERC20.sol\":1279:1282  _to */\n      dup4\n        /* \"contracts/ERC20.sol\":1258:1292  Transfer(msg.sender, _to, _amount) */\n      0xffffffffffffffffffffffffffffffffffffffff\n      and\n        /* \"contracts/ERC20.sol\":1267:1277  msg.sender */\n      caller\n        /* \"contracts/ERC20.sol\":1258:1292  Transfer(msg.sender, _to, _amount) */\n      0xffffffffffffffffffffffffffffffffffffffff\n      and\n      0xddf252ad1be2c89b69c2b068fc378daa952ba7f163c4a11628f55a4df523b3ef\n        /* \"contracts/ERC20.sol\":1284:1291  _amount */\n      dup6\n        /* \"contracts/ERC20.sol\":1258:1292  Transfer(msg.sender, _to, _amount) */\n      mload(0x40)\n      tag_142\n      swap2\n      swap1\n      tag_38\n      jump\t// in\n    tag_142:\n      mload(0x40)\n      dup1\n      swap2\n      sub\n      swap1\n      log3\n        /* \"contracts/ERC20.sol\":1071:1299  function transfer(address _to, uint _amount) override external enoughTokens(msg.sender, _amount) {... */\n      pop\n      pop\n      pop\n      pop\n      jump\t// out\n        /* \"contracts/ERC20.sol\":1304:1442  function allowance(address owner, address spender) override external view returns(uint) {... */\n    tag_80:\n        /* \"contracts/ERC20.sol\":1386:1390  uint */\n      0x00\n        /* \"contracts/ERC20.sol\":1409:1419  allowances */\n      0x03\n        /* \"contracts/ERC20.sol\":1409:1426  allowances[owner] */\n      0x00\n        /* \"contracts/ERC20.sol\":1420:1425  owner */\n      dup5\n        /* \"contracts/ERC20.sol\":1409:1426  allowances[owner] */\n      0xffffffffffffffffffffffffffffffffffffffff\n      and\n      0xffffffffffffffffffffffffffffffffffffffff\n      and\n      dup2\n      mstore\n      0x20\n      add\n      swap1\n      dup2\n      mstore\n      0x20\n      add\n      0x00\n      keccak256\n        /* \"contracts/ERC20.sol\":1409:1435  allowances[owner][spender] */\n      0x00\n        /* \"contracts/ERC20.sol\":1427:1434  spender */\n      dup4\n        /* \"contracts/ERC20.sol\":1409:1435  allowances[owner][spender] */\n      0xffffffffffffffffffffffffffffffffffffffff\n      and\n      0xffffffffffffffffffffffffffffffffffffffff\n      and\n      dup2\n      mstore\n      0x20\n      add\n      swap1\n      dup2\n      mstore\n      0x20\n      add\n      0x00\n      keccak256\n      sload\n        /* \"contracts/ERC20.sol\":1402:1435  return allowances[owner][spender] */\n      swap1\n      pop\n        /* \"contracts/ERC20.sol\":1304:1442  function allowance(address owner, address spender) override external view returns(uint) {... */\n      swap3\n      swap2\n      pop\n      pop\n      jump\t// out\n        /* \"#utility.yul\":7:106   */\n    tag_144:\n        /* \"#utility.yul\":59:65   */\n      0x00\n        /* \"#utility.yul\":93:98   */\n      dup2\n        /* \"#utility.yul\":87:99   */\n      mload\n        /* \"#utility.yul\":77:99   */\n      swap1\n      pop\n        /* \"#utility.yul\":7:106   */\n      swap2\n      swap1\n      pop\n      jump\t// out\n        /* \"#utility.yul\":112:281   */\n    tag_145:\n        /* \"#utility.yul\":196:207   */\n      0x00\n        /* \"#utility.yul\":230:236   */\n      dup3\n        /* \"#utility.yul\":225:228   */\n      dup3\n        /* \"#utility.yul\":218:237   */\n      mstore\n        /* \"#utility.yul\":270:274   */\n      0x20\n        /* \"#utility.yul\":265:268   */\n      dup3\n        /* \"#utility.yul\":261:275   */\n      add\n        /* \"#utility.yul\":246:275   */\n      swap1\n      pop\n        /* \"#utility.yul\":112:281   */\n      swap3\n      swap2\n      pop\n      pop\n      jump\t// out\n        /* \"#utility.yul\":287:533   */\n    tag_146:\n        /* \"#utility.yul\":368:369   */\n      0x00\n        /* \"#utility.yul\":378:491   */\n    tag_173:\n        /* \"#utility.yul\":392:398   */\n      dup4\n        /* \"#utility.yul\":389:390   */\n      dup2\n        /* \"#utility.yul\":386:399   */\n      lt\n        /* \"#utility.yul\":378:491   */\n      iszero\n      tag_175\n      jumpi\n        /* \"#utility.yul\":477:478   */\n      dup1\n        /* \"#utility.yul\":472:475   */\n      dup3\n        /* \"#utility.yul\":468:479   */\n      add\n        /* \"#utility.yul\":462:480   */\n      mload\n        /* \"#utility.yul\":458:459   */\n      dup2\n        /* \"#utility.yul\":453:456   */\n      dup5\n        /* \"#utility.yul\":449:460   */\n      add\n        /* \"#utility.yul\":442:481   */\n      mstore\n        /* \"#utility.yul\":414:416   */\n      0x20\n        /* \"#utility.yul\":411:412   */\n      dup2\n        /* \"#utility.yul\":407:417   */\n      add\n        /* \"#utility.yul\":402:417   */\n      swap1\n      pop\n        /* \"#utility.yul\":378:491   */\n      jump(tag_173)\n    tag_175:\n        /* \"#utility.yul\":525:526   */\n      0x00\n        /* \"#utility.yul\":516:522   */\n      dup5\n        /* \"#utility.yul\":511:514   */\n      dup5\n        /* \"#utility.yul\":507:523   */\n      add\n        /* \"#utility.yul\":500:527   */\n      mstore\n        /* \"#utility.yul\":349:533   */\n      pop\n        /* \"#utility.yul\":287:533   */\n      pop\n      pop\n      pop\n      jump\t// out\n        /* \"#utility.yul\":539:641   */\n    tag_147:\n        /* \"#utility.yul\":580:586   */\n      0x00\n        /* \"#utility.yul\":631:633   */\n      0x1f\n        /* \"#utility.yul\":627:634   */\n      not\n        /* \"#utility.yul\":622:624   */\n      0x1f\n        /* \"#utility.yul\":615:620   */\n      dup4\n        /* \"#utility.yul\":611:625   */\n      add\n        /* \"#utility.yul\":607:635   */\n      and\n        /* \"#utility.yul\":597:635   */\n      swap1\n      pop\n        /* \"#utility.yul\":539:641   */\n      swap2\n      swap1\n      pop\n      jump\t// out\n        /* \"#utility.yul\":647:1024   */\n    tag_148:\n        /* \"#utility.yul\":735:738   */\n      0x00\n        /* \"#utility.yul\":763:802   */\n      tag_178\n        /* \"#utility.yul\":796:801   */\n      dup3\n        /* \"#utility.yul\":763:802   */\n      tag_144\n      jump\t// in\n    tag_178:\n        /* \"#utility.yul\":818:889   */\n      tag_179\n        /* \"#utility.yul\":882:888   */\n      dup2\n        /* \"#utility.yul\":877:880   */\n      dup6\n        /* \"#utility.yul\":818:889   */\n      tag_145\n      jump\t// in\n    tag_179:\n        /* \"#utility.yul\":811:889   */\n      swap4\n      pop\n        /* \"#utility.yul\":898:963   */\n      tag_180\n        /* \"#utility.yul\":956:962   */\n      dup2\n        /* \"#utility.yul\":951:954   */\n      dup6\n        /* \"#utility.yul\":944:948   */\n      0x20\n        /* \"#utility.yul\":937:942   */\n      dup7\n        /* \"#utility.yul\":933:949   */\n      add\n        /* \"#utility.yul\":898:963   */\n      tag_146\n      jump\t// in\n    tag_180:\n        /* \"#utility.yul\":988:1017   */\n      tag_181\n        /* \"#utility.yul\":1010:1016   */\n      dup2\n        /* \"#utility.yul\":988:1017   */\n      tag_147\n      jump\t// in\n    tag_181:\n        /* \"#utility.yul\":983:986   */\n      dup5\n        /* \"#utility.yul\":979:1018   */\n      add\n        /* \"#utility.yul\":972:1018   */\n      swap2\n      pop\n        /* \"#utility.yul\":739:1024   */\n      pop\n        /* \"#utility.yul\":647:1024   */\n      swap3\n      swap2\n      pop\n      pop\n      jump\t// out\n        /* \"#utility.yul\":1030:1343   */\n    tag_28:\n        /* \"#utility.yul\":1143:1147   */\n      0x00\n        /* \"#utility.yul\":1181:1183   */\n      0x20\n        /* \"#utility.yul\":1170:1179   */\n      dup3\n        /* \"#utility.yul\":1166:1184   */\n      add\n        /* \"#utility.yul\":1158:1184   */\n      swap1\n      pop\n        /* \"#utility.yul\":1230:1239   */\n      dup2\n        /* \"#utility.yul\":1224:1228   */\n      dup2\n        /* \"#utility.yul\":1220:1240   */\n      sub\n        /* \"#utility.yul\":1216:1217   */\n      0x00\n        /* \"#utility.yul\":1205:1214   */\n      dup4\n        /* \"#utility.yul\":1201:1218   */\n      add\n        /* \"#utility.yul\":1194:1241   */\n      mstore\n        /* \"#utility.yul\":1258:1336   */\n      tag_183\n        /* \"#utility.yul\":1331:1335   */\n      dup2\n        /* \"#utility.yul\":1322:1328   */\n      dup5\n        /* \"#utility.yul\":1258:1336   */\n      tag_148\n      jump\t// in\n    tag_183:\n        /* \"#utility.yul\":1250:1336   */\n      swap1\n      pop\n        /* \"#utility.yul\":1030:1343   */\n      swap3\n      swap2\n      pop\n      pop\n      jump\t// out\n        /* \"#utility.yul\":1430:1547   */\n    tag_150:\n        /* \"#utility.yul\":1539:1540   */\n      0x00\n        /* \"#utility.yul\":1536:1537   */\n      dup1\n        /* \"#utility.yul\":1529:1541   */\n      revert\n        /* \"#utility.yul\":1676:1802   */\n    tag_152:\n        /* \"#utility.yul\":1713:1720   */\n      0x00\n        /* \"#utility.yul\":1753:1795   */\n      0xffffffffffffffffffffffffffffffffffffffff\n        /* \"#utility.yul\":1746:1751   */\n      dup3\n        /* \"#utility.yul\":1742:1796   */\n      and\n        /* \"#utility.yul\":1731:1796   */\n      swap1\n      pop\n        /* \"#utility.yul\":1676:1802   */\n      swap2\n      swap1\n      pop\n      jump\t// out\n        /* \"#utility.yul\":1808:1904   */\n    tag_153:\n        /* \"#utility.yul\":1845:1852   */\n      0x00\n        /* \"#utility.yul\":1874:1898   */\n      tag_189\n        /* \"#utility.yul\":1892:1897   */\n      dup3\n        /* \"#utility.yul\":1874:1898   */\n      tag_152\n      jump\t// in\n    tag_189:\n        /* \"#utility.yul\":1863:1898   */\n      swap1\n      pop\n        /* \"#utility.yul\":1808:1904   */\n      swap2\n      swap1\n      pop\n      jump\t// out\n        /* \"#utility.yul\":1910:2032   */\n    tag_154:\n        /* \"#utility.yul\":1983:2007   */\n      tag_191\n        /* \"#utility.yul\":2001:2006   */\n      dup2\n        /* \"#utility.yul\":1983:2007   */\n      tag_153\n      jump\t// in\n    tag_191:\n        /* \"#utility.yul\":1976:1981   */\n      dup2\n        /* \"#utility.yul\":1973:2008   */\n      eq\n        /* \"#utility.yul\":1963:2026   */\n      tag_192\n      jumpi\n        /* \"#utility.yul\":2022:2023   */\n      0x00\n        /* \"#utility.yul\":2019:2020   */\n      dup1\n        /* \"#utility.yul\":2012:2024   */\n      revert\n        /* \"#utility.yul\":1963:2026   */\n    tag_192:\n        /* \"#utility.yul\":1910:2032   */\n      pop\n      jump\t// out\n        /* \"#utility.yul\":2038:2177   */\n    tag_155:\n        /* \"#utility.yul\":2084:2089   */\n      0x00\n        /* \"#utility.yul\":2122:2128   */\n      dup2\n        /* \"#utility.yul\":2109:2129   */\n      calldataload\n        /* \"#utility.yul\":2100:2129   */\n      swap1\n      pop\n        /* \"#utility.yul\":2138:2171   */\n      tag_194\n        /* \"#utility.yul\":2165:2170   */\n      dup2\n        /* \"#utility.yul\":2138:2171   */\n      tag_154\n      jump\t// in\n    tag_194:\n        /* \"#utility.yul\":2038:2177   */\n      swap3\n      swap2\n      pop\n      pop\n      jump\t// out\n        /* \"#utility.yul\":2183:2260   */\n    tag_156:\n        /* \"#utility.yul\":2220:2227   */\n      0x00\n        /* \"#utility.yul\":2249:2254   */\n      dup2\n        /* \"#utility.yul\":2238:2254   */\n      swap1\n      pop\n        /* \"#utility.yul\":2183:2260   */\n      swap2\n      swap1\n      pop\n      jump\t// out\n        /* \"#utility.yul\":2266:2388   */\n    tag_157:\n        /* \"#utility.yul\":2339:2363   */\n      tag_197\n        /* \"#utility.yul\":2357:2362   */\n      dup2\n        /* \"#utility.yul\":2339:2363   */\n      tag_156\n      jump\t// in\n    tag_197:\n        /* \"#utility.yul\":2332:2337   */\n      dup2\n        /* \"#utility.yul\":2329:2364   */\n      eq\n        /* \"#utility.yul\":2319:2382   */\n      tag_198\n      jumpi\n        /* \"#utility.yul\":2378:2379   */\n      0x00\n        /* \"#utility.yul\":2375:2376   */\n      dup1\n        /* \"#utility.yul\":2368:2380   */\n      revert\n        /* \"#utility.yul\":2319:2382   */\n    tag_198:\n        /* \"#utility.yul\":2266:2388   */\n      pop\n      jump\t// out\n        /* \"#utility.yul\":2394:2533   */\n    tag_158:\n        /* \"#utility.yul\":2440:2445   */\n      0x00\n        /* \"#utility.yul\":2478:2484   */\n      dup2\n        /* \"#utility.yul\":2465:2485   */\n      calldataload\n        /* \"#utility.yul\":2456:2485   */\n      swap1\n      pop\n        /* \"#utility.yul\":2494:2527   */\n      tag_200\n        /* \"#utility.yul\":2521:2526   */\n      dup2\n        /* \"#utility.yul\":2494:2527   */\n      tag_157\n      jump\t// in\n    tag_200:\n        /* \"#utility.yul\":2394:2533   */\n      swap3\n      swap2\n      pop\n      pop\n      jump\t// out\n        /* \"#utility.yul\":2539:3013   */\n    tag_32:\n        /* \"#utility.yul\":2607:2613   */\n      0x00\n        /* \"#utility.yul\":2615:2621   */\n      dup1\n        /* \"#utility.yul\":2664:2666   */\n      0x40\n        /* \"#utility.yul\":2652:2661   */\n      dup4\n        /* \"#utility.yul\":2643:2650   */\n      dup6\n        /* \"#utility.yul\":2639:2662   */\n      sub\n        /* \"#utility.yul\":2635:2667   */\n      slt\n        /* \"#utility.yul\":2632:2751   */\n      iszero\n      tag_202\n      jumpi\n        /* \"#utility.yul\":2670:2749   */\n      tag_203\n      tag_150\n      jump\t// in\n    tag_203:\n        /* \"#utility.yul\":2632:2751   */\n    tag_202:\n        /* \"#utility.yul\":2790:2791   */\n      0x00\n        /* \"#utility.yul\":2815:2868   */\n      tag_204\n        /* \"#utility.yul\":2860:2867   */\n      dup6\n        /* \"#utility.yul\":2851:2857   */\n      dup3\n        /* \"#utility.yul\":2840:2849   */\n      dup7\n        /* \"#utility.yul\":2836:2858   */\n      add\n        /* \"#utility.yul\":2815:2868   */\n      tag_155\n      jump\t// in\n    tag_204:\n        /* \"#utility.yul\":2805:2868   */\n      swap3\n      pop\n        /* \"#utility.yul\":2761:2878   */\n      pop\n        /* \"#utility.yul\":2917:2919   */\n      0x20\n        /* \"#utility.yul\":2943:2996   */\n      tag_205\n        /* \"#utility.yul\":2988:2995   */\n      dup6\n        /* \"#utility.yul\":2979:2985   */\n      dup3\n        /* \"#utility.yul\":2968:2977   */\n      dup7\n        /* \"#utility.yul\":2964:2986   */\n      add\n        /* \"#utility.yul\":2943:2996   */\n      tag_158\n      jump\t// in\n    tag_205:\n        /* \"#utility.yul\":2933:2996   */\n      swap2\n      pop\n        /* \"#utility.yul\":2888:3006   */\n      pop\n        /* \"#utility.yul\":2539:3013   */\n      swap3\n      pop\n      swap3\n      swap1\n      pop\n      jump\t// out\n        /* \"#utility.yul\":3019:3137   */\n    tag_159:\n        /* \"#utility.yul\":3106:3130   */\n      tag_207\n        /* \"#utility.yul\":3124:3129   */\n      dup2\n        /* \"#utility.yul\":3106:3130   */\n      tag_156\n      jump\t// in\n    tag_207:\n        /* \"#utility.yul\":3101:3104   */\n      dup3\n        /* \"#utility.yul\":3094:3131   */\n      mstore\n        /* \"#utility.yul\":3019:3137   */\n      pop\n      pop\n      jump\t// out\n        /* \"#utility.yul\":3143:3365   */\n    tag_38:\n        /* \"#utility.yul\":3236:3240   */\n      0x00\n        /* \"#utility.yul\":3274:3276   */\n      0x20\n        /* \"#utility.yul\":3263:3272   */\n      dup3\n        /* \"#utility.yul\":3259:3277   */\n      add\n        /* \"#utility.yul\":3251:3277   */\n      swap1\n      pop\n        /* \"#utility.yul\":3287:3358   */\n      tag_209\n        /* \"#utility.yul\":3355:3356   */\n      0x00\n        /* \"#utility.yul\":3344:3353   */\n      dup4\n        /* \"#utility.yul\":3340:3357   */\n      add\n        /* \"#utility.yul\":3331:3337   */\n      dup5\n        /* \"#utility.yul\":3287:3358   */\n      tag_159\n      jump\t// in\n    tag_209:\n        /* \"#utility.yul\":3143:3365   */\n      swap3\n      swap2\n      pop\n      pop\n      jump\t// out\n        /* \"#utility.yul\":3371:3990   */\n    tag_42:\n        /* \"#utility.yul\":3448:3454   */\n      0x00\n        /* \"#utility.yul\":3456:3462   */\n      dup1\n        /* \"#utility.yul\":3464:3470   */\n      0x00\n        /* \"#utility.yul\":3513:3515   */\n      0x60\n        /* \"#utility.yul\":3501:3510   */\n      dup5\n        /* \"#utility.yul\":3492:3499   */\n      dup7\n        /* \"#utility.yul\":3488:3511   */\n      sub\n        /* \"#utility.yul\":3484:3516   */\n      slt\n        /* \"#utility.yul\":3481:3600   */\n      iszero\n      tag_211\n      jumpi\n        /* \"#utility.yul\":3519:3598   */\n      tag_212\n      tag_150\n      jump\t// in\n    tag_212:\n        /* \"#utility.yul\":3481:3600   */\n    tag_211:\n        /* \"#utility.yul\":3639:3640   */\n      0x00\n        /* \"#utility.yul\":3664:3717   */\n      tag_213\n        /* \"#utility.yul\":3709:3716   */\n      dup7\n        /* \"#utility.yul\":3700:3706   */\n      dup3\n        /* \"#utility.yul\":3689:3698   */\n      dup8\n        /* \"#utility.yul\":3685:3707   */\n      add\n        /* \"#utility.yul\":3664:3717   */\n      tag_155\n      jump\t// in\n    tag_213:\n        /* \"#utility.yul\":3654:3717   */\n      swap4\n      pop\n        /* \"#utility.yul\":3610:3727   */\n      pop\n        /* \"#utility.yul\":3766:3768   */\n      0x20\n        /* \"#utility.yul\":3792:3845   */\n      tag_214\n        /* \"#utility.yul\":3837:3844   */\n      dup7\n        /* \"#utility.yul\":3828:3834   */\n      dup3\n        /* \"#utility.yul\":3817:3826   */\n      dup8\n        /* \"#utility.yul\":3813:3835   */\n      add\n        /* \"#utility.yul\":3792:3845   */\n      tag_155\n      jump\t// in\n    tag_214:\n        /* \"#utility.yul\":3782:3845   */\n      swap3\n      pop\n        /* \"#utility.yul\":3737:3855   */\n      pop\n        /* \"#utility.yul\":3894:3896   */\n      0x40\n        /* \"#utility.yul\":3920:3973   */\n      tag_215\n        /* \"#utility.yul\":3965:3972   */\n      dup7\n        /* \"#utility.yul\":3956:3962   */\n      dup3\n        /* \"#utility.yul\":3945:3954   */\n      dup8\n        /* \"#utility.yul\":3941:3963   */\n      add\n        /* \"#utility.yul\":3920:3973   */\n      tag_158\n      jump\t// in\n    tag_215:\n        /* \"#utility.yul\":3910:3973   */\n      swap2\n      pop\n        /* \"#utility.yul\":3865:3983   */\n      pop\n        /* \"#utility.yul\":3371:3990   */\n      swap3\n      pop\n      swap3\n      pop\n      swap3\n      jump\t// out\n        /* \"#utility.yul\":3996:4325   */\n    tag_47:\n        /* \"#utility.yul\":4055:4061   */\n      0x00\n        /* \"#utility.yul\":4104:4106   */\n      0x20\n        /* \"#utility.yul\":4092:4101   */\n      dup3\n        /* \"#utility.yul\":4083:4090   */\n      dup5\n        /* \"#utility.yul\":4079:4102   */\n      sub\n        /* \"#utility.yul\":4075:4107   */\n      slt\n        /* \"#utility.yul\":4072:4191   */\n      iszero\n      tag_217\n      jumpi\n        /* \"#utility.yul\":4110:4189   */\n      tag_218\n      tag_150\n      jump\t// in\n    tag_218:\n        /* \"#utility.yul\":4072:4191   */\n    tag_217:\n        /* \"#utility.yul\":4230:4231   */\n      0x00\n        /* \"#utility.yul\":4255:4308   */\n      tag_219\n        /* \"#utility.yul\":4300:4307   */\n      dup5\n        /* \"#utility.yul\":4291:4297   */\n      dup3\n        /* \"#utility.yul\":4280:4289   */\n      dup6\n        /* \"#utility.yul\":4276:4298   */\n      add\n        /* \"#utility.yul\":4255:4308   */\n      tag_158\n      jump\t// in\n    tag_219:\n        /* \"#utility.yul\":4245:4308   */\n      swap2\n      pop\n        /* \"#utility.yul\":4201:4318   */\n      pop\n        /* \"#utility.yul\":3996:4325   */\n      swap3\n      swap2\n      pop\n      pop\n      jump\t// out\n        /* \"#utility.yul\":4331:4660   */\n    tag_60:\n        /* \"#utility.yul\":4390:4396   */\n      0x00\n        /* \"#utility.yul\":4439:4441   */\n      0x20\n        /* \"#utility.yul\":4427:4436   */\n      dup3\n        /* \"#utility.yul\":4418:4425   */\n      dup5\n        /* \"#utility.yul\":4414:4437   */\n      sub\n        /* \"#utility.yul\":4410:4442   */\n      slt\n        /* \"#utility.yul\":4407:4526   */\n      iszero\n      tag_221\n      jumpi\n        /* \"#utility.yul\":4445:4524   */\n      tag_222\n      tag_150\n      jump\t// in\n    tag_222:\n        /* \"#utility.yul\":4407:4526   */\n    tag_221:\n        /* \"#utility.yul\":4565:4566   */\n      0x00\n        /* \"#utility.yul\":4590:4643   */\n      tag_223\n        /* \"#utility.yul\":4635:4642   */\n      dup5\n        /* \"#utility.yul\":4626:4632   */\n      dup3\n        /* \"#utility.yul\":4615:4624   */\n      dup6\n        /* \"#utility.yul\":4611:4633   */\n      add\n        /* \"#utility.yul\":4590:4643   */\n      tag_155\n      jump\t// in\n    tag_223:\n        /* \"#utility.yul\":4580:4643   */\n      swap2\n      pop\n        /* \"#utility.yul\":4536:4653   */\n      pop\n        /* \"#utility.yul\":4331:4660   */\n      swap3\n      swap2\n      pop\n      pop\n      jump\t// out\n        /* \"#utility.yul\":4666:5140   */\n    tag_79:\n        /* \"#utility.yul\":4734:4740   */\n      0x00\n        /* \"#utility.yul\":4742:4748   */\n      dup1\n        /* \"#utility.yul\":4791:4793   */\n      0x40\n        /* \"#utility.yul\":4779:4788   */\n      dup4\n        /* \"#utility.yul\":4770:4777   */\n      dup6\n        /* \"#utility.yul\":4766:4789   */\n      sub\n        /* \"#utility.yul\":4762:4794   */\n      slt\n        /* \"#utility.yul\":4759:4878   */\n      iszero\n      tag_225\n      jumpi\n        /* \"#utility.yul\":4797:4876   */\n      tag_226\n      tag_150\n      jump\t// in\n    tag_226:\n        /* \"#utility.yul\":4759:4878   */\n    tag_225:\n        /* \"#utility.yul\":4917:4918   */\n      0x00\n        /* \"#utility.yul\":4942:4995   */\n      tag_227\n        /* \"#utility.yul\":4987:4994   */\n      dup6\n        /* \"#utility.yul\":4978:4984   */\n      dup3\n        /* \"#utility.yul\":4967:4976   */\n      dup7\n        /* \"#utility.yul\":4963:4985   */\n      add\n        /* \"#utility.yul\":4942:4995   */\n      tag_155\n      jump\t// in\n    tag_227:\n        /* \"#utility.yul\":4932:4995   */\n      swap3\n      pop\n        /* \"#utility.yul\":4888:5005   */\n      pop\n        /* \"#utility.yul\":5044:5046   */\n      0x20\n        /* \"#utility.yul\":5070:5123   */\n      tag_228\n        /* \"#utility.yul\":5115:5122   */\n      dup6\n        /* \"#utility.yul\":5106:5112   */\n      dup3\n        /* \"#utility.yul\":5095:5104   */\n      dup7\n        /* \"#utility.yul\":5091:5113   */\n      add\n        /* \"#utility.yul\":5070:5123   */\n      tag_155\n      jump\t// in\n    tag_228:\n        /* \"#utility.yul\":5060:5123   */\n      swap2\n      pop\n        /* \"#utility.yul\":5015:5133   */\n      pop\n        /* \"#utility.yul\":4666:5140   */\n      swap3\n      pop\n      swap3\n      swap1\n      pop\n      jump\t// out\n        /* \"#utility.yul\":5146:5326   */\n    tag_160:\n        /* \"#utility.yul\":5194:5271   */\n      0x4e487b7100000000000000000000000000000000000000000000000000000000\n        /* \"#utility.yul\":5191:5192   */\n      0x00\n        /* \"#utility.yul\":5184:5272   */\n      mstore\n        /* \"#utility.yul\":5291:5295   */\n      0x22\n        /* \"#utility.yul\":5288:5289   */\n      0x04\n        /* \"#utility.yul\":5281:5296   */\n      mstore\n        /* \"#utility.yul\":5315:5319   */\n      0x24\n        /* \"#utility.yul\":5312:5313   */\n      0x00\n        /* \"#utility.yul\":5305:5320   */\n      revert\n        /* \"#utility.yul\":5332:5652   */\n    tag_86:\n        /* \"#utility.yul\":5376:5382   */\n      0x00\n        /* \"#utility.yul\":5413:5414   */\n      0x02\n        /* \"#utility.yul\":5407:5411   */\n      dup3\n        /* \"#utility.yul\":5403:5415   */\n      div\n        /* \"#utility.yul\":5393:5415   */\n      swap1\n      pop\n        /* \"#utility.yul\":5460:5461   */\n      0x01\n        /* \"#utility.yul\":5454:5458   */\n      dup3\n        /* \"#utility.yul\":5450:5462   */\n      and\n        /* \"#utility.yul\":5481:5499   */\n      dup1\n        /* \"#utility.yul\":5471:5552   */\n      tag_231\n      jumpi\n        /* \"#utility.yul\":5537:5541   */\n      0x7f\n        /* \"#utility.yul\":5529:5535   */\n      dup3\n        /* \"#utility.yul\":5525:5542   */\n      and\n        /* \"#utility.yul\":5515:5542   */\n      swap2\n      pop\n        /* \"#utility.yul\":5471:5552   */\n    tag_231:\n        /* \"#utility.yul\":5599:5601   */\n      0x20\n        /* \"#utility.yul\":5591:5597   */\n      dup3\n        /* \"#utility.yul\":5588:5602   */\n      lt\n        /* \"#utility.yul\":5568:5586   */\n      dup2\n        /* \"#utility.yul\":5565:5603   */\n      sub\n        /* \"#utility.yul\":5562:5646   */\n      tag_232\n      jumpi\n        /* \"#utility.yul\":5618:5636   */\n      tag_233\n      tag_160\n      jump\t// in\n    tag_233:\n        /* \"#utility.yul\":5562:5646   */\n    tag_232:\n        /* \"#utility.yul\":5383:5652   */\n      pop\n        /* \"#utility.yul\":5332:5652   */\n      swap2\n      swap1\n      pop\n      jump\t// out\n        /* \"#utility.yul\":5658:5825   */\n    tag_161:\n        /* \"#utility.yul\":5798:5817   */\n      0x6e6f7420656e6f75676820746f6b656e73000000000000000000000000000000\n        /* \"#utility.yul\":5794:5795   */\n      0x00\n        /* \"#utility.yul\":5786:5792   */\n      dup3\n        /* \"#utility.yul\":5782:5796   */\n      add\n        /* \"#utility.yul\":5775:5818   */\n      mstore\n        /* \"#utility.yul\":5658:5825   */\n      pop\n      jump\t// out\n        /* \"#utility.yul\":5831:6197   */\n    tag_162:\n        /* \"#utility.yul\":5973:5976   */\n      0x00\n        /* \"#utility.yul\":5994:6061   */\n      tag_236\n        /* \"#utility.yul\":6058:6060   */\n      0x11\n        /* \"#utility.yul\":6053:6056   */\n      dup4\n        /* \"#utility.yul\":5994:6061   */\n      tag_145\n      jump\t// in\n    tag_236:\n        /* \"#utility.yul\":5987:6061   */\n      swap2\n      pop\n        /* \"#utility.yul\":6070:6163   */\n      tag_237\n        /* \"#utility.yul\":6159:6162   */\n      dup3\n        /* \"#utility.yul\":6070:6163   */\n      tag_161\n      jump\t// in\n    tag_237:\n        /* \"#utility.yul\":6188:6190   */\n      0x20\n        /* \"#utility.yul\":6183:6186   */\n      dup3\n        /* \"#utility.yul\":6179:6191   */\n      add\n        /* \"#utility.yul\":6172:6191   */\n      swap1\n      pop\n        /* \"#utility.yul\":5831:6197   */\n      swap2\n      swap1\n      pop\n      jump\t// out\n        /* \"#utility.yul\":6203:6622   */\n    tag_98:\n        /* \"#utility.yul\":6369:6373   */\n      0x00\n        /* \"#utility.yul\":6407:6409   */\n      0x20\n        /* \"#utility.yul\":6396:6405   */\n      dup3\n        /* \"#utility.yul\":6392:6410   */\n      add\n        /* \"#utility.yul\":6384:6410   */\n      swap1\n      pop\n        /* \"#utility.yul\":6456:6465   */\n      dup2\n        /* \"#utility.yul\":6450:6454   */\n      dup2\n        /* \"#utility.yul\":6446:6466   */\n      sub\n        /* \"#utility.yul\":6442:6443   */\n      0x00\n        /* \"#utility.yul\":6431:6440   */\n      dup4\n        /* \"#utility.yul\":6427:6444   */\n      add\n        /* \"#utility.yul\":6420:6467   */\n      mstore\n        /* \"#utility.yul\":6484:6615   */\n      tag_239\n        /* \"#utility.yul\":6610:6614   */\n      dup2\n        /* \"#utility.yul\":6484:6615   */\n      tag_162\n      jump\t// in\n    tag_239:\n        /* \"#utility.yul\":6476:6615   */\n      swap1\n      pop\n        /* \"#utility.yul\":6203:6622   */\n      swap2\n      swap1\n      pop\n      jump\t// out\n        /* \"#utility.yul\":6628:6808   */\n    tag_163:\n        /* \"#utility.yul\":6676:6753   */\n      0x4e487b7100000000000000000000000000000000000000000000000000000000\n        /* \"#utility.yul\":6673:6674   */\n      0x00\n        /* \"#utility.yul\":6666:6754   */\n      mstore\n        /* \"#utility.yul\":6773:6777   */\n      0x11\n        /* \"#utility.yul\":6770:6771   */\n      0x04\n        /* \"#utility.yul\":6763:6778   */\n      mstore\n        /* \"#utility.yul\":6797:6801   */\n      0x24\n        /* \"#utility.yul\":6794:6795   */\n      0x00\n        /* \"#utility.yul\":6787:6802   */\n      revert\n        /* \"#utility.yul\":6814:7008   */\n    tag_101:\n        /* \"#utility.yul\":6854:6858   */\n      0x00\n        /* \"#utility.yul\":6874:6894   */\n      tag_242\n        /* \"#utility.yul\":6892:6893   */\n      dup3\n        /* \"#utility.yul\":6874:6894   */\n      tag_156\n      jump\t// in\n    tag_242:\n        /* \"#utility.yul\":6869:6894   */\n      swap2\n      pop\n        /* \"#utility.yul\":6908:6928   */\n      tag_243\n        /* \"#utility.yul\":6926:6927   */\n      dup4\n        /* \"#utility.yul\":6908:6928   */\n      tag_156\n      jump\t// in\n    tag_243:\n        /* \"#utility.yul\":6903:6928   */\n      swap3\n      pop\n        /* \"#utility.yul\":6952:6953   */\n      dup3\n        /* \"#utility.yul\":6949:6950   */\n      dup3\n        /* \"#utility.yul\":6945:6954   */\n      sub\n        /* \"#utility.yul\":6937:6954   */\n      swap1\n      pop\n        /* \"#utility.yul\":6976:6977   */\n      dup2\n        /* \"#utility.yul\":6970:6974   */\n      dup2\n        /* \"#utility.yul\":6967:6978   */\n      gt\n        /* \"#utility.yul\":6964:7001   */\n      iszero\n      tag_244\n      jumpi\n        /* \"#utility.yul\":6981:6999   */\n      tag_245\n      tag_163\n      jump\t// in\n    tag_245:\n        /* \"#utility.yul\":6964:7001   */\n    tag_244:\n        /* \"#utility.yul\":6814:7008   */\n      swap3\n      swap2\n      pop\n      pop\n      jump\t// out\n        /* \"#utility.yul\":7014:7205   */\n    tag_104:\n        /* \"#utility.yul\":7054:7057   */\n      0x00\n        /* \"#utility.yul\":7073:7093   */\n      tag_247\n        /* \"#utility.yul\":7091:7092   */\n      dup3\n        /* \"#utility.yul\":7073:7093   */\n      tag_156\n      jump\t// in\n    tag_247:\n        /* \"#utility.yul\":7068:7093   */\n      swap2\n      pop\n        /* \"#utility.yul\":7107:7127   */\n      tag_248\n        /* \"#utility.yul\":7125:7126   */\n      dup4\n        /* \"#utility.yul\":7107:7127   */\n      tag_156\n      jump\t// in\n    tag_248:\n        /* \"#utility.yul\":7102:7127   */\n      swap3\n      pop\n        /* \"#utility.yul\":7150:7151   */\n      dup3\n        /* \"#utility.yul\":7147:7148   */\n      dup3\n        /* \"#utility.yul\":7143:7152   */\n      add\n        /* \"#utility.yul\":7136:7152   */\n      swap1\n      pop\n        /* \"#utility.yul\":7171:7174   */\n      dup1\n        /* \"#utility.yul\":7168:7169   */\n      dup3\n        /* \"#utility.yul\":7165:7175   */\n      gt\n        /* \"#utility.yul\":7162:7198   */\n      iszero\n      tag_249\n      jumpi\n        /* \"#utility.yul\":7178:7196   */\n      tag_250\n      tag_163\n      jump\t// in\n    tag_250:\n        /* \"#utility.yul\":7162:7198   */\n    tag_249:\n        /* \"#utility.yul\":7014:7205   */\n      swap3\n      swap2\n      pop\n      pop\n      jump\t// out\n        /* \"#utility.yul\":7211:7358   */\n    tag_164:\n        /* \"#utility.yul\":7312:7323   */\n      0x00\n        /* \"#utility.yul\":7349:7352   */\n      dup2\n        /* \"#utility.yul\":7334:7352   */\n      swap1\n      pop\n        /* \"#utility.yul\":7211:7358   */\n      swap3\n      swap2\n      pop\n      pop\n      jump\t// out\n        /* \"#utility.yul\":7364:7478   */\n    tag_165:\n      pop\n      jump\t// out\n        /* \"#utility.yul\":7484:7882   */\n    tag_166:\n        /* \"#utility.yul\":7643:7646   */\n      0x00\n        /* \"#utility.yul\":7664:7747   */\n      tag_254\n        /* \"#utility.yul\":7745:7746   */\n      0x00\n        /* \"#utility.yul\":7740:7743   */\n      dup4\n        /* \"#utility.yul\":7664:7747   */\n      tag_164\n      jump\t// in\n    tag_254:\n        /* \"#utility.yul\":7657:7747   */\n      swap2\n      pop\n        /* \"#utility.yul\":7756:7849   */\n      tag_255\n        /* \"#utility.yul\":7845:7848   */\n      dup3\n        /* \"#utility.yul\":7756:7849   */\n      tag_165\n      jump\t// in\n    tag_255:\n        /* \"#utility.yul\":7874:7875   */\n      0x00\n        /* \"#utility.yul\":7869:7872   */\n      dup3\n        /* \"#utility.yul\":7865:7876   */\n      add\n        /* \"#utility.yul\":7858:7876   */\n      swap1\n      pop\n        /* \"#utility.yul\":7484:7882   */\n      swap2\n      swap1\n      pop\n      jump\t// out\n        /* \"#utility.yul\":7888:8267   */\n    tag_109:\n        /* \"#utility.yul\":8072:8075   */\n      0x00\n        /* \"#utility.yul\":8094:8241   */\n      tag_257\n        /* \"#utility.yul\":8237:8240   */\n      dup3\n        /* \"#utility.yul\":8094:8241   */\n      tag_166\n      jump\t// in\n    tag_257:\n        /* \"#utility.yul\":8087:8241   */\n      swap2\n      pop\n        /* \"#utility.yul\":8258:8261   */\n      dup2\n        /* \"#utility.yul\":8251:8261   */\n      swap1\n      pop\n        /* \"#utility.yul\":7888:8267   */\n      swap2\n      swap1\n      pop\n      jump\t// out\n        /* \"#utility.yul\":8273:8430   */\n    tag_167:\n        /* \"#utility.yul\":8413:8422   */\n      0x6661696c65642100000000000000000000000000000000000000000000000000\n        /* \"#utility.yul\":8409:8410   */\n      0x00\n        /* \"#utility.yul\":8401:8407   */\n      dup3\n        /* \"#utility.yul\":8397:8411   */\n      add\n        /* \"#utility.yul\":8390:8423   */\n      mstore\n        /* \"#utility.yul\":8273:8430   */\n      pop\n      jump\t// out\n        /* \"#utility.yul\":8436:8801   */\n    tag_168:\n        /* \"#utility.yul\":8578:8581   */\n      0x00\n        /* \"#utility.yul\":8599:8665   */\n      tag_260\n        /* \"#utility.yul\":8663:8664   */\n      0x07\n        /* \"#utility.yul\":8658:8661   */\n      dup4\n        /* \"#utility.yul\":8599:8665   */\n      tag_145\n      jump\t// in\n    tag_260:\n        /* \"#utility.yul\":8592:8665   */\n      swap2\n      pop\n        /* \"#utility.yul\":8674:8767   */\n      tag_261\n        /* \"#utility.yul\":8763:8766   */\n      dup3\n        /* \"#utility.yul\":8674:8767   */\n      tag_167\n      jump\t// in\n    tag_261:\n        /* \"#utility.yul\":8792:8794   */\n      0x20\n        /* \"#utility.yul\":8787:8790   */\n      dup3\n        /* \"#utility.yul\":8783:8795   */\n      add\n        /* \"#utility.yul\":8776:8795   */\n      swap1\n      pop\n        /* \"#utility.yul\":8436:8801   */\n      swap2\n      swap1\n      pop\n      jump\t// out\n        /* \"#utility.yul\":8807:9226   */\n    tag_115:\n        /* \"#utility.yul\":8973:8977   */\n      0x00\n        /* \"#utility.yul\":9011:9013   */\n      0x20\n        /* \"#utility.yul\":9000:9009   */\n      dup3\n        /* \"#utility.yul\":8996:9014   */\n      add\n        /* \"#utility.yul\":8988:9014   */\n      swap1\n      pop\n        /* \"#utility.yul\":9060:9069   */\n      dup2\n        /* \"#utility.yul\":9054:9058   */\n      dup2\n        /* \"#utility.yul\":9050:9070   */\n      sub\n        /* \"#utility.yul\":9046:9047   */\n      0x00\n        /* \"#utility.yul\":9035:9044   */\n      dup4\n        /* \"#utility.yul\":9031:9048   */\n      add\n        /* \"#utility.yul\":9024:9071   */\n      mstore\n        /* \"#utility.yul\":9088:9219   */\n      tag_263\n        /* \"#utility.yul\":9214:9218   */\n      dup2\n        /* \"#utility.yul\":9088:9219   */\n      tag_168\n      jump\t// in\n    tag_263:\n        /* \"#utility.yul\":9080:9219   */\n      swap1\n      pop\n        /* \"#utility.yul\":8807:9226   */\n      swap2\n      swap1\n      pop\n      jump\t// out\n\n    auxdata: 0xa2646970667358221220cd81374565e28c8570aa1484bec851c7a03802947a36698e66a51db98a83e24664736f6c63430008110033\n}\n",
				"bytecode": {
					"linkReferences": {},
					"object": "60806040526040518060400160405280600481526020017f4368616900000000000000000000000000000000000000000000000000000000815250600490816200004a919062000506565b506040518060400160405280600381526020017f43484100000000000000000000000000000000000000000000000000000000008152506005908162000091919062000506565b503480156200009f57600080fd5b506040518060400160405280600481526020017f43686169000000000000000000000000000000000000000000000000000000008152506040518060400160405280600381526020017f4368610000000000000000000000000000000000000000000000000000000000815250600082600490816200011f919062000506565b50816005908162000131919062000506565b50336000806101000a81548173ffffffffffffffffffffffffffffffffffffffff021916908373ffffffffffffffffffffffffffffffffffffffff160217905550620001a460008054906101000a900473ffffffffffffffffffffffffffffffffffffffff1682620001ad60201b60201c565b50505062000685565b80600260008473ffffffffffffffffffffffffffffffffffffffff1673ffffffffffffffffffffffffffffffffffffffff1681526020019081526020016000206000828254620001fe91906200061c565b9250508190555080600160008282546200021991906200061c565b925050819055503373ffffffffffffffffffffffffffffffffffffffff16600073ffffffffffffffffffffffffffffffffffffffff167fddf252ad1be2c89b69c2b068fc378daa952ba7f163c4a11628f55a4df523b3ef8360405162000280919062000668565b60405180910390a35050565b600081519050919050565b7f4e487b7100000000000000000000000000000000000000000000000000000000600052604160045260246000fd5b7f4e487b7100000000000000000000000000000000000000000000000000000000600052602260045260246000fd5b600060028204905060018216806200030e57607f821691505b602082108103620003245762000323620002c6565b5b50919050565b60008190508160005260206000209050919050565b60006020601f8301049050919050565b600082821b905092915050565b6000600883026200038e7fffffffffffffffffffffffffffffffffffffffffffffffffffffffffffffffff826200034f565b6200039a86836200034f565b95508019841693508086168417925050509392505050565b6000819050919050565b6000819050919050565b6000620003e7620003e1620003db84620003b2565b620003bc565b620003b2565b9050919050565b6000819050919050565b6200040383620003c6565b6200041b6200041282620003ee565b8484546200035c565b825550505050565b600090565b6200043262000423565b6200043f818484620003f8565b505050565b5b8181101562000467576200045b60008262000428565b60018101905062000445565b5050565b601f821115620004b65762000480816200032a565b6200048b846200033f565b810160208510156200049b578190505b620004b3620004aa856200033f565b83018262000444565b50505b505050565b600082821c905092915050565b6000620004db60001984600802620004bb565b1980831691505092915050565b6000620004f68383620004c8565b9150826002028217905092915050565b62000511826200028c565b67ffffffffffffffff8111156200052d576200052c62000297565b5b620005398254620002f5565b620005468282856200046b565b600060209050601f8311600181146200057e576000841562000569578287015190505b620005758582620004e8565b865550620005e5565b601f1984166200058e866200032a565b60005b82811015620005b85784890151825560018201915060208501945060208101905062000591565b86831015620005d85784890151620005d4601f891682620004c8565b8355505b6001600288020188555050505b505050505050565b7f4e487b7100000000000000000000000000000000000000000000000000000000600052601160045260246000fd5b60006200062982620003b2565b91506200063683620003b2565b9250828201905080821115620006515762000650620005ed565b5b92915050565b6200066281620003b2565b82525050565b60006020820190506200067f600083018462000657565b92915050565b61114480620006956000396000f3fe6080604052600436106100c65760003560e01c806340c10f191161007f5780639dc29fac116100595780639dc29fac14610264578063a9059cbb1461028d578063d0e30db0146102b6578063dd62ed3e146102c0576100d5565b806340c10f19146101d357806370a08231146101fc57806395d89b4114610239576100d5565b806306fdde03146100d7578063095ea7b31461010257806318160ddd1461012b57806323b872dd146101565780632e1a7d4d1461017f578063313ce567146101a8576100d5565b366100d5576100d36102fd565b005b005b3480156100e357600080fd5b506100ec610357565b6040516100f99190610ce7565b60405180910390f35b34801561010e57600080fd5b5061012960048036038101906101249190610da2565b6103e5565b005b34801561013757600080fd5b506101406104cf565b60405161014d9190610df1565b60405180910390f35b34801561016257600080fd5b5061017d60048036038101906101789190610e0c565b6104d9565b005b34801561018b57600080fd5b506101a660048036038101906101a19190610e5f565b6106d1565b005b3480156101b457600080fd5b506101bd61078b565b6040516101ca9190610df1565b60405180910390f35b3480156101df57600080fd5b506101fa60048036038101906101f59190610da2565b610794565b005b34801561020857600080fd5b50610223600480360381019061021e9190610e8c565b61086d565b6040516102309190610df1565b60405180910390f35b34801561024557600080fd5b5061024e6108b6565b60405161025b9190610ce7565b60405180910390f35b34801561027057600080fd5b5061028b60048036038101906102869190610da2565b610944565b005b34801561029957600080fd5b506102b460048036038101906102af9190610da2565b610a6c565b005b6102be6102fd565b005b3480156102cc57600080fd5b506102e760048036038101906102e29190610eb9565b610bd0565b6040516102f49190610df1565b60405180910390f35b6103073334610794565b3373ffffffffffffffffffffffffffffffffffffffff167fe1fffcc4923d04b559f4d29a8bfc6cda04eb5b0d3c460751c2402c5c5cc9109c3460405161034d9190610df1565b60405180910390a2565b6004805461036490610f28565b80601f016020809104026020016040519081016040528092919081815260200182805461039090610f28565b80156103dd5780601f106103b2576101008083540402835291602001916103dd565b820191906000526020600020905b8154815290600101906020018083116103c057829003601f168201915b505050505081565b80600360003373ffffffffffffffffffffffffffffffffffffffff1673ffffffffffffffffffffffffffffffffffffffff16815260200190815260200160002060008473ffffffffffffffffffffffffffffffffffffffff1673ffffffffffffffffffffffffffffffffffffffff168152602001908152602001600020819055508173ffffffffffffffffffffffffffffffffffffffff163373ffffffffffffffffffffffffffffffffffffffff167f8c5be1e5ebec7d5bd14f71427d1e84f3dd0314c0f7b2291e5b200ac8c7c3b925836040516104c39190610df1565b60405180910390a35050565b6000600154905090565b8281806104e58361086d565b1015610526576040517f08c379a000000000000000000000000000000000000000000000000000000000815260040161051d90610fa5565b60405180910390fd5b82600360008773ffffffffffffffffffffffffffffffffffffffff1673ffffffffffffffffffffffffffffffffffffffff16815260200190815260200160002060008673ffffffffffffffffffffffffffffffffffffffff1673ffffffffffffffffffffffffffffffffffffffff16815260200190815260200160002060008282546105b29190610ff4565b9250508190555082600260008773ffffffffffffffffffffffffffffffffffffffff1673ffffffffffffffffffffffffffffffffffffffff16815260200190815260200160002060008282546106089190610ff4565b9250508190555082600260008673ffffffffffffffffffffffffffffffffffffffff1673ffffffffffffffffffffffffffffffffffffffff168152602001908152602001600020600082825461065e9190611028565b925050819055508373ffffffffffffffffffffffffffffffffffffffff168573ffffffffffffffffffffffffffffffffffffffff167fddf252ad1be2c89b69c2b068fc378daa952ba7f163c4a11628f55a4df523b3ef856040516106c29190610df1565b60405180910390a35050505050565b6106db3382610944565b60003373ffffffffffffffffffffffffffffffffffffffff16826040516107019061108d565b60006040518083038185875af1925050503d806000811461073e576040519150601f19603f3d011682016040523d82523d6000602084013e610743565b606091505b5050905080610787576040517f08c379a000000000000000000000000000000000000000000000000000000000815260040161077e906110ee565b60405180910390fd5b5050565b60006012905090565b80600260008473ffffffffffffffffffffffffffffffffffffffff1673ffffffffffffffffffffffffffffffffffffffff16815260200190815260200160002060008282546107e39190611028565b9250508190555080600160008282546107fc9190611028565b925050819055503373ffffffffffffffffffffffffffffffffffffffff16600073ffffffffffffffffffffffffffffffffffffffff167fddf252ad1be2c89b69c2b068fc378daa952ba7f163c4a11628f55a4df523b3ef836040516108619190610df1565b60405180910390a35050565b6000600260008373ffffffffffffffffffffffffffffffffffffffff1673ffffffffffffffffffffffffffffffffffffffff168152602001908152602001600020549050919050565b600580546108c390610f28565b80601f01602080910402602001604051908101604052809291908181526020018280546108ef90610f28565b801561093c5780601f106109115761010080835404028352916020019161093c565b820191906000526020600020905b81548152906001019060200180831161091f57829003601f168201915b505050505081565b3381806109508361086d565b1015610991576040517f08c379a000000000000000000000000000000000000000000000000000000000815260040161098890610fa5565b60405180910390fd5b82600260008673ffffffffffffffffffffffffffffffffffffffff1673ffffffffffffffffffffffffffffffffffffffff16815260200190815260200160002060008282546109e09190610ff4565b9250508190555082600160008282546109f99190610ff4565b92505081905550600073ffffffffffffffffffffffffffffffffffffffff163373ffffffffffffffffffffffffffffffffffffffff167fddf252ad1be2c89b69c2b068fc378daa952ba7f163c4a11628f55a4df523b3ef85604051610a5e9190610df1565b60405180910390a350505050565b338180610a788361086d565b1015610ab9576040517f08c379a0000000000000000000000000000000000000000000000000000000008152600401610ab090610fa5565b60405180910390fd5b82600260003373ffffffffffffffffffffffffffffffffffffffff1673ffffffffffffffffffffffffffffffffffffffff1681526020019081526020016000206000828254610b089190610ff4565b9250508190555082600260008673ffffffffffffffffffffffffffffffffffffffff1673ffffffffffffffffffffffffffffffffffffffff1681526020019081526020016000206000828254610b5e9190611028565b925050819055508373ffffffffffffffffffffffffffffffffffffffff163373ffffffffffffffffffffffffffffffffffffffff167fddf252ad1be2c89b69c2b068fc378daa952ba7f163c4a11628f55a4df523b3ef85604051610bc29190610df1565b60405180910390a350505050565b6000600360008473ffffffffffffffffffffffffffffffffffffffff1673ffffffffffffffffffffffffffffffffffffffff16815260200190815260200160002060008373ffffffffffffffffffffffffffffffffffffffff1673ffffffffffffffffffffffffffffffffffffffff16815260200190815260200160002054905092915050565b600081519050919050565b600082825260208201905092915050565b60005b83811015610c91578082015181840152602081019050610c76565b60008484015250505050565b6000601f19601f8301169050919050565b6000610cb982610c57565b610cc38185610c62565b9350610cd3818560208601610c73565b610cdc81610c9d565b840191505092915050565b60006020820190508181036000830152610d018184610cae565b905092915050565b600080fd5b600073ffffffffffffffffffffffffffffffffffffffff82169050919050565b6000610d3982610d0e565b9050919050565b610d4981610d2e565b8114610d5457600080fd5b50565b600081359050610d6681610d40565b92915050565b6000819050919050565b610d7f81610d6c565b8114610d8a57600080fd5b50565b600081359050610d9c81610d76565b92915050565b60008060408385031215610db957610db8610d09565b5b6000610dc785828601610d57565b9250506020610dd885828601610d8d565b9150509250929050565b610deb81610d6c565b82525050565b6000602082019050610e066000830184610de2565b92915050565b600080600060608486031215610e2557610e24610d09565b5b6000610e3386828701610d57565b9350506020610e4486828701610d57565b9250506040610e5586828701610d8d565b9150509250925092565b600060208284031215610e7557610e74610d09565b5b6000610e8384828501610d8d565b91505092915050565b600060208284031215610ea257610ea1610d09565b5b6000610eb084828501610d57565b91505092915050565b60008060408385031215610ed057610ecf610d09565b5b6000610ede85828601610d57565b9250506020610eef85828601610d57565b9150509250929050565b7f4e487b7100000000000000000000000000000000000000000000000000000000600052602260045260246000fd5b60006002820490506001821680610f4057607f821691505b602082108103610f5357610f52610ef9565b5b50919050565b7f6e6f7420656e6f75676820746f6b656e73000000000000000000000000000000600082015250565b6000610f8f601183610c62565b9150610f9a82610f59565b602082019050919050565b60006020820190508181036000830152610fbe81610f82565b9050919050565b7f4e487b7100000000000000000000000000000000000000000000000000000000600052601160045260246000fd5b6000610fff82610d6c565b915061100a83610d6c565b925082820390508181111561102257611021610fc5565b5b92915050565b600061103382610d6c565b915061103e83610d6c565b925082820190508082111561105657611055610fc5565b5b92915050565b600081905092915050565b50565b600061107760008361105c565b915061108282611067565b600082019050919050565b60006110988261106a565b9150819050919050565b7f6661696c65642100000000000000000000000000000000000000000000000000600082015250565b60006110d8600783610c62565b91506110e3826110a2565b602082019050919050565b60006020820190508181036000830152611107816110cb565b905091905056fea2646970667358221220cd81374565e28c8570aa1484bec851c7a03802947a36698e66a51db98a83e24664736f6c63430008110033",
					"opcodes": "PUSH1 0x80 PUSH1 0x40 MSTORE PUSH1 0x40 MLOAD DUP1 PUSH1 0x40 ADD PUSH1 0x40 MSTORE DUP1 PUSH1 0x4 DUP2 MSTORE PUSH1 0x20 ADD PUSH32 0x4368616900000000000000000000000000000000000000000000000000000000 DUP2 MSTORE POP PUSH1 0x4 SWAP1 DUP2 PUSH3 0x4A SWAP2 SWAP1 PUSH3 0x506 JUMP JUMPDEST POP PUSH1 0x40 MLOAD DUP1 PUSH1 0x40 ADD PUSH1 0x40 MSTORE DUP1 PUSH1 0x3 DUP2 MSTORE PUSH1 0x20 ADD PUSH32 0x4348410000000000000000000000000000000000000000000000000000000000 DUP2 MSTORE POP PUSH1 0x5 SWAP1 DUP2 PUSH3 0x91 SWAP2 SWAP1 PUSH3 0x506 JUMP JUMPDEST POP CALLVALUE DUP1 ISZERO PUSH3 0x9F JUMPI PUSH1 0x0 DUP1 REVERT JUMPDEST POP PUSH1 0x40 MLOAD DUP1 PUSH1 0x40 ADD PUSH1 0x40 MSTORE DUP1 PUSH1 0x4 DUP2 MSTORE PUSH1 0x20 ADD PUSH32 0x4368616900000000000000000000000000000000000000000000000000000000 DUP2 MSTORE POP PUSH1 0x40 MLOAD DUP1 PUSH1 0x40 ADD PUSH1 0x40 MSTORE DUP1 PUSH1 0x3 DUP2 MSTORE PUSH1 0x20 ADD PUSH32 0x4368610000000000000000000000000000000000000000000000000000000000 DUP2 MSTORE POP PUSH1 0x0 DUP3 PUSH1 0x4 SWAP1 DUP2 PUSH3 0x11F SWAP2 SWAP1 PUSH3 0x506 JUMP JUMPDEST POP DUP2 PUSH1 0x5 SWAP1 DUP2 PUSH3 0x131 SWAP2 SWAP1 PUSH3 0x506 JUMP JUMPDEST POP CALLER PUSH1 0x0 DUP1 PUSH2 0x100 EXP DUP2 SLOAD DUP2 PUSH20 0xFFFFFFFFFFFFFFFFFFFFFFFFFFFFFFFFFFFFFFFF MUL NOT AND SWAP1 DUP4 PUSH20 0xFFFFFFFFFFFFFFFFFFFFFFFFFFFFFFFFFFFFFFFF AND MUL OR SWAP1 SSTORE POP PUSH3 0x1A4 PUSH1 0x0 DUP1 SLOAD SWAP1 PUSH2 0x100 EXP SWAP1 DIV PUSH20 0xFFFFFFFFFFFFFFFFFFFFFFFFFFFFFFFFFFFFFFFF AND DUP3 PUSH3 0x1AD PUSH1 0x20 SHL PUSH1 0x20 SHR JUMP JUMPDEST POP POP POP PUSH3 0x685 JUMP JUMPDEST DUP1 PUSH1 0x2 PUSH1 0x0 DUP5 PUSH20 0xFFFFFFFFFFFFFFFFFFFFFFFFFFFFFFFFFFFFFFFF AND PUSH20 0xFFFFFFFFFFFFFFFFFFFFFFFFFFFFFFFFFFFFFFFF AND DUP2 MSTORE PUSH1 0x20 ADD SWAP1 DUP2 MSTORE PUSH1 0x20 ADD PUSH1 0x0 KECCAK256 PUSH1 0x0 DUP3 DUP3 SLOAD PUSH3 0x1FE SWAP2 SWAP1 PUSH3 0x61C JUMP JUMPDEST SWAP3 POP POP DUP2 SWAP1 SSTORE POP DUP1 PUSH1 0x1 PUSH1 0x0 DUP3 DUP3 SLOAD PUSH3 0x219 SWAP2 SWAP1 PUSH3 0x61C JUMP JUMPDEST SWAP3 POP POP DUP2 SWAP1 SSTORE POP CALLER PUSH20 0xFFFFFFFFFFFFFFFFFFFFFFFFFFFFFFFFFFFFFFFF AND PUSH1 0x0 PUSH20 0xFFFFFFFFFFFFFFFFFFFFFFFFFFFFFFFFFFFFFFFF AND PUSH32 0xDDF252AD1BE2C89B69C2B068FC378DAA952BA7F163C4A11628F55A4DF523B3EF DUP4 PUSH1 0x40 MLOAD PUSH3 0x280 SWAP2 SWAP1 PUSH3 0x668 JUMP JUMPDEST PUSH1 0x40 MLOAD DUP1 SWAP2 SUB SWAP1 LOG3 POP POP JUMP JUMPDEST PUSH1 0x0 DUP2 MLOAD SWAP1 POP SWAP2 SWAP1 POP JUMP JUMPDEST PUSH32 0x4E487B7100000000000000000000000000000000000000000000000000000000 PUSH1 0x0 MSTORE PUSH1 0x41 PUSH1 0x4 MSTORE PUSH1 0x24 PUSH1 0x0 REVERT JUMPDEST PUSH32 0x4E487B7100000000000000000000000000000000000000000000000000000000 PUSH1 0x0 MSTORE PUSH1 0x22 PUSH1 0x4 MSTORE PUSH1 0x24 PUSH1 0x0 REVERT JUMPDEST PUSH1 0x0 PUSH1 0x2 DUP3 DIV SWAP1 POP PUSH1 0x1 DUP3 AND DUP1 PUSH3 0x30E JUMPI PUSH1 0x7F DUP3 AND SWAP2 POP JUMPDEST PUSH1 0x20 DUP3 LT DUP2 SUB PUSH3 0x324 JUMPI PUSH3 0x323 PUSH3 0x2C6 JUMP JUMPDEST JUMPDEST POP SWAP2 SWAP1 POP JUMP JUMPDEST PUSH1 0x0 DUP2 SWAP1 POP DUP2 PUSH1 0x0 MSTORE PUSH1 0x20 PUSH1 0x0 KECCAK256 SWAP1 POP SWAP2 SWAP1 POP JUMP JUMPDEST PUSH1 0x0 PUSH1 0x20 PUSH1 0x1F DUP4 ADD DIV SWAP1 POP SWAP2 SWAP1 POP JUMP JUMPDEST PUSH1 0x0 DUP3 DUP3 SHL SWAP1 POP SWAP3 SWAP2 POP POP JUMP JUMPDEST PUSH1 0x0 PUSH1 0x8 DUP4 MUL PUSH3 0x38E PUSH32 0xFFFFFFFFFFFFFFFFFFFFFFFFFFFFFFFFFFFFFFFFFFFFFFFFFFFFFFFFFFFFFFFF DUP3 PUSH3 0x34F JUMP JUMPDEST PUSH3 0x39A DUP7 DUP4 PUSH3 0x34F JUMP JUMPDEST SWAP6 POP DUP1 NOT DUP5 AND SWAP4 POP DUP1 DUP7 AND DUP5 OR SWAP3 POP POP POP SWAP4 SWAP3 POP POP POP JUMP JUMPDEST PUSH1 0x0 DUP2 SWAP1 POP SWAP2 SWAP1 POP JUMP JUMPDEST PUSH1 0x0 DUP2 SWAP1 POP SWAP2 SWAP1 POP JUMP JUMPDEST PUSH1 0x0 PUSH3 0x3E7 PUSH3 0x3E1 PUSH3 0x3DB DUP5 PUSH3 0x3B2 JUMP JUMPDEST PUSH3 0x3BC JUMP JUMPDEST PUSH3 0x3B2 JUMP JUMPDEST SWAP1 POP SWAP2 SWAP1 POP JUMP JUMPDEST PUSH1 0x0 DUP2 SWAP1 POP SWAP2 SWAP1 POP JUMP JUMPDEST PUSH3 0x403 DUP4 PUSH3 0x3C6 JUMP JUMPDEST PUSH3 0x41B PUSH3 0x412 DUP3 PUSH3 0x3EE JUMP JUMPDEST DUP5 DUP5 SLOAD PUSH3 0x35C JUMP JUMPDEST DUP3 SSTORE POP POP POP POP JUMP JUMPDEST PUSH1 0x0 SWAP1 JUMP JUMPDEST PUSH3 0x432 PUSH3 0x423 JUMP JUMPDEST PUSH3 0x43F DUP2 DUP5 DUP5 PUSH3 0x3F8 JUMP JUMPDEST POP POP POP JUMP JUMPDEST JUMPDEST DUP2 DUP2 LT ISZERO PUSH3 0x467 JUMPI PUSH3 0x45B PUSH1 0x0 DUP3 PUSH3 0x428 JUMP JUMPDEST PUSH1 0x1 DUP2 ADD SWAP1 POP PUSH3 0x445 JUMP JUMPDEST POP POP JUMP JUMPDEST PUSH1 0x1F DUP3 GT ISZERO PUSH3 0x4B6 JUMPI PUSH3 0x480 DUP2 PUSH3 0x32A JUMP JUMPDEST PUSH3 0x48B DUP5 PUSH3 0x33F JUMP JUMPDEST DUP2 ADD PUSH1 0x20 DUP6 LT ISZERO PUSH3 0x49B JUMPI DUP2 SWAP1 POP JUMPDEST PUSH3 0x4B3 PUSH3 0x4AA DUP6 PUSH3 0x33F JUMP JUMPDEST DUP4 ADD DUP3 PUSH3 0x444 JUMP JUMPDEST POP POP JUMPDEST POP POP POP JUMP JUMPDEST PUSH1 0x0 DUP3 DUP3 SHR SWAP1 POP SWAP3 SWAP2 POP POP JUMP JUMPDEST PUSH1 0x0 PUSH3 0x4DB PUSH1 0x0 NOT DUP5 PUSH1 0x8 MUL PUSH3 0x4BB JUMP JUMPDEST NOT DUP1 DUP4 AND SWAP2 POP POP SWAP3 SWAP2 POP POP JUMP JUMPDEST PUSH1 0x0 PUSH3 0x4F6 DUP4 DUP4 PUSH3 0x4C8 JUMP JUMPDEST SWAP2 POP DUP3 PUSH1 0x2 MUL DUP3 OR SWAP1 POP SWAP3 SWAP2 POP POP JUMP JUMPDEST PUSH3 0x511 DUP3 PUSH3 0x28C JUMP JUMPDEST PUSH8 0xFFFFFFFFFFFFFFFF DUP2 GT ISZERO PUSH3 0x52D JUMPI PUSH3 0x52C PUSH3 0x297 JUMP JUMPDEST JUMPDEST PUSH3 0x539 DUP3 SLOAD PUSH3 0x2F5 JUMP JUMPDEST PUSH3 0x546 DUP3 DUP3 DUP6 PUSH3 0x46B JUMP JUMPDEST PUSH1 0x0 PUSH1 0x20 SWAP1 POP PUSH1 0x1F DUP4 GT PUSH1 0x1 DUP2 EQ PUSH3 0x57E JUMPI PUSH1 0x0 DUP5 ISZERO PUSH3 0x569 JUMPI DUP3 DUP8 ADD MLOAD SWAP1 POP JUMPDEST PUSH3 0x575 DUP6 DUP3 PUSH3 0x4E8 JUMP JUMPDEST DUP7 SSTORE POP PUSH3 0x5E5 JUMP JUMPDEST PUSH1 0x1F NOT DUP5 AND PUSH3 0x58E DUP7 PUSH3 0x32A JUMP JUMPDEST PUSH1 0x0 JUMPDEST DUP3 DUP2 LT ISZERO PUSH3 0x5B8 JUMPI DUP5 DUP10 ADD MLOAD DUP3 SSTORE PUSH1 0x1 DUP3 ADD SWAP2 POP PUSH1 0x20 DUP6 ADD SWAP5 POP PUSH1 0x20 DUP2 ADD SWAP1 POP PUSH3 0x591 JUMP JUMPDEST DUP7 DUP4 LT ISZERO PUSH3 0x5D8 JUMPI DUP5 DUP10 ADD MLOAD PUSH3 0x5D4 PUSH1 0x1F DUP10 AND DUP3 PUSH3 0x4C8 JUMP JUMPDEST DUP4 SSTORE POP JUMPDEST PUSH1 0x1 PUSH1 0x2 DUP9 MUL ADD DUP9 SSTORE POP POP POP JUMPDEST POP POP POP POP POP POP JUMP JUMPDEST PUSH32 0x4E487B7100000000000000000000000000000000000000000000000000000000 PUSH1 0x0 MSTORE PUSH1 0x11 PUSH1 0x4 MSTORE PUSH1 0x24 PUSH1 0x0 REVERT JUMPDEST PUSH1 0x0 PUSH3 0x629 DUP3 PUSH3 0x3B2 JUMP JUMPDEST SWAP2 POP PUSH3 0x636 DUP4 PUSH3 0x3B2 JUMP JUMPDEST SWAP3 POP DUP3 DUP3 ADD SWAP1 POP DUP1 DUP3 GT ISZERO PUSH3 0x651 JUMPI PUSH3 0x650 PUSH3 0x5ED JUMP JUMPDEST JUMPDEST SWAP3 SWAP2 POP POP JUMP JUMPDEST PUSH3 0x662 DUP2 PUSH3 0x3B2 JUMP JUMPDEST DUP3 MSTORE POP POP JUMP JUMPDEST PUSH1 0x0 PUSH1 0x20 DUP3 ADD SWAP1 POP PUSH3 0x67F PUSH1 0x0 DUP4 ADD DUP5 PUSH3 0x657 JUMP JUMPDEST SWAP3 SWAP2 POP POP JUMP JUMPDEST PUSH2 0x1144 DUP1 PUSH3 0x695 PUSH1 0x0 CODECOPY PUSH1 0x0 RETURN INVALID PUSH1 0x80 PUSH1 0x40 MSTORE PUSH1 0x4 CALLDATASIZE LT PUSH2 0xC6 JUMPI PUSH1 0x0 CALLDATALOAD PUSH1 0xE0 SHR DUP1 PUSH4 0x40C10F19 GT PUSH2 0x7F JUMPI DUP1 PUSH4 0x9DC29FAC GT PUSH2 0x59 JUMPI DUP1 PUSH4 0x9DC29FAC EQ PUSH2 0x264 JUMPI DUP1 PUSH4 0xA9059CBB EQ PUSH2 0x28D JUMPI DUP1 PUSH4 0xD0E30DB0 EQ PUSH2 0x2B6 JUMPI DUP1 PUSH4 0xDD62ED3E EQ PUSH2 0x2C0 JUMPI PUSH2 0xD5 JUMP JUMPDEST DUP1 PUSH4 0x40C10F19 EQ PUSH2 0x1D3 JUMPI DUP1 PUSH4 0x70A08231 EQ PUSH2 0x1FC JUMPI DUP1 PUSH4 0x95D89B41 EQ PUSH2 0x239 JUMPI PUSH2 0xD5 JUMP JUMPDEST DUP1 PUSH4 0x6FDDE03 EQ PUSH2 0xD7 JUMPI DUP1 PUSH4 0x95EA7B3 EQ PUSH2 0x102 JUMPI DUP1 PUSH4 0x18160DDD EQ PUSH2 0x12B JUMPI DUP1 PUSH4 0x23B872DD EQ PUSH2 0x156 JUMPI DUP1 PUSH4 0x2E1A7D4D EQ PUSH2 0x17F JUMPI DUP1 PUSH4 0x313CE567 EQ PUSH2 0x1A8 JUMPI PUSH2 0xD5 JUMP JUMPDEST CALLDATASIZE PUSH2 0xD5 JUMPI PUSH2 0xD3 PUSH2 0x2FD JUMP JUMPDEST STOP JUMPDEST STOP JUMPDEST CALLVALUE DUP1 ISZERO PUSH2 0xE3 JUMPI PUSH1 0x0 DUP1 REVERT JUMPDEST POP PUSH2 0xEC PUSH2 0x357 JUMP JUMPDEST PUSH1 0x40 MLOAD PUSH2 0xF9 SWAP2 SWAP1 PUSH2 0xCE7 JUMP JUMPDEST PUSH1 0x40 MLOAD DUP1 SWAP2 SUB SWAP1 RETURN JUMPDEST CALLVALUE DUP1 ISZERO PUSH2 0x10E JUMPI PUSH1 0x0 DUP1 REVERT JUMPDEST POP PUSH2 0x129 PUSH1 0x4 DUP1 CALLDATASIZE SUB DUP2 ADD SWAP1 PUSH2 0x124 SWAP2 SWAP1 PUSH2 0xDA2 JUMP JUMPDEST PUSH2 0x3E5 JUMP JUMPDEST STOP JUMPDEST CALLVALUE DUP1 ISZERO PUSH2 0x137 JUMPI PUSH1 0x0 DUP1 REVERT JUMPDEST POP PUSH2 0x140 PUSH2 0x4CF JUMP JUMPDEST PUSH1 0x40 MLOAD PUSH2 0x14D SWAP2 SWAP1 PUSH2 0xDF1 JUMP JUMPDEST PUSH1 0x40 MLOAD DUP1 SWAP2 SUB SWAP1 RETURN JUMPDEST CALLVALUE DUP1 ISZERO PUSH2 0x162 JUMPI PUSH1 0x0 DUP1 REVERT JUMPDEST POP PUSH2 0x17D PUSH1 0x4 DUP1 CALLDATASIZE SUB DUP2 ADD SWAP1 PUSH2 0x178 SWAP2 SWAP1 PUSH2 0xE0C JUMP JUMPDEST PUSH2 0x4D9 JUMP JUMPDEST STOP JUMPDEST CALLVALUE DUP1 ISZERO PUSH2 0x18B JUMPI PUSH1 0x0 DUP1 REVERT JUMPDEST POP PUSH2 0x1A6 PUSH1 0x4 DUP1 CALLDATASIZE SUB DUP2 ADD SWAP1 PUSH2 0x1A1 SWAP2 SWAP1 PUSH2 0xE5F JUMP JUMPDEST PUSH2 0x6D1 JUMP JUMPDEST STOP JUMPDEST CALLVALUE DUP1 ISZERO PUSH2 0x1B4 JUMPI PUSH1 0x0 DUP1 REVERT JUMPDEST POP PUSH2 0x1BD PUSH2 0x78B JUMP JUMPDEST PUSH1 0x40 MLOAD PUSH2 0x1CA SWAP2 SWAP1 PUSH2 0xDF1 JUMP JUMPDEST PUSH1 0x40 MLOAD DUP1 SWAP2 SUB SWAP1 RETURN JUMPDEST CALLVALUE DUP1 ISZERO PUSH2 0x1DF JUMPI PUSH1 0x0 DUP1 REVERT JUMPDEST POP PUSH2 0x1FA PUSH1 0x4 DUP1 CALLDATASIZE SUB DUP2 ADD SWAP1 PUSH2 0x1F5 SWAP2 SWAP1 PUSH2 0xDA2 JUMP JUMPDEST PUSH2 0x794 JUMP JUMPDEST STOP JUMPDEST CALLVALUE DUP1 ISZERO PUSH2 0x208 JUMPI PUSH1 0x0 DUP1 REVERT JUMPDEST POP PUSH2 0x223 PUSH1 0x4 DUP1 CALLDATASIZE SUB DUP2 ADD SWAP1 PUSH2 0x21E SWAP2 SWAP1 PUSH2 0xE8C JUMP JUMPDEST PUSH2 0x86D JUMP JUMPDEST PUSH1 0x40 MLOAD PUSH2 0x230 SWAP2 SWAP1 PUSH2 0xDF1 JUMP JUMPDEST PUSH1 0x40 MLOAD DUP1 SWAP2 SUB SWAP1 RETURN JUMPDEST CALLVALUE DUP1 ISZERO PUSH2 0x245 JUMPI PUSH1 0x0 DUP1 REVERT JUMPDEST POP PUSH2 0x24E PUSH2 0x8B6 JUMP JUMPDEST PUSH1 0x40 MLOAD PUSH2 0x25B SWAP2 SWAP1 PUSH2 0xCE7 JUMP JUMPDEST PUSH1 0x40 MLOAD DUP1 SWAP2 SUB SWAP1 RETURN JUMPDEST CALLVALUE DUP1 ISZERO PUSH2 0x270 JUMPI PUSH1 0x0 DUP1 REVERT JUMPDEST POP PUSH2 0x28B PUSH1 0x4 DUP1 CALLDATASIZE SUB DUP2 ADD SWAP1 PUSH2 0x286 SWAP2 SWAP1 PUSH2 0xDA2 JUMP JUMPDEST PUSH2 0x944 JUMP JUMPDEST STOP JUMPDEST CALLVALUE DUP1 ISZERO PUSH2 0x299 JUMPI PUSH1 0x0 DUP1 REVERT JUMPDEST POP PUSH2 0x2B4 PUSH1 0x4 DUP1 CALLDATASIZE SUB DUP2 ADD SWAP1 PUSH2 0x2AF SWAP2 SWAP1 PUSH2 0xDA2 JUMP JUMPDEST PUSH2 0xA6C JUMP JUMPDEST STOP JUMPDEST PUSH2 0x2BE PUSH2 0x2FD JUMP JUMPDEST STOP JUMPDEST CALLVALUE DUP1 ISZERO PUSH2 0x2CC JUMPI PUSH1 0x0 DUP1 REVERT JUMPDEST POP PUSH2 0x2E7 PUSH1 0x4 DUP1 CALLDATASIZE SUB DUP2 ADD SWAP1 PUSH2 0x2E2 SWAP2 SWAP1 PUSH2 0xEB9 JUMP JUMPDEST PUSH2 0xBD0 JUMP JUMPDEST PUSH1 0x40 MLOAD PUSH2 0x2F4 SWAP2 SWAP1 PUSH2 0xDF1 JUMP JUMPDEST PUSH1 0x40 MLOAD DUP1 SWAP2 SUB SWAP1 RETURN JUMPDEST PUSH2 0x307 CALLER CALLVALUE PUSH2 0x794 JUMP JUMPDEST CALLER PUSH20 0xFFFFFFFFFFFFFFFFFFFFFFFFFFFFFFFFFFFFFFFF AND PUSH32 0xE1FFFCC4923D04B559F4D29A8BFC6CDA04EB5B0D3C460751C2402C5C5CC9109C CALLVALUE PUSH1 0x40 MLOAD PUSH2 0x34D SWAP2 SWAP1 PUSH2 0xDF1 JUMP JUMPDEST PUSH1 0x40 MLOAD DUP1 SWAP2 SUB SWAP1 LOG2 JUMP JUMPDEST PUSH1 0x4 DUP1 SLOAD PUSH2 0x364 SWAP1 PUSH2 0xF28 JUMP JUMPDEST DUP1 PUSH1 0x1F ADD PUSH1 0x20 DUP1 SWAP2 DIV MUL PUSH1 0x20 ADD PUSH1 0x40 MLOAD SWAP1 DUP2 ADD PUSH1 0x40 MSTORE DUP1 SWAP3 SWAP2 SWAP1 DUP2 DUP2 MSTORE PUSH1 0x20 ADD DUP3 DUP1 SLOAD PUSH2 0x390 SWAP1 PUSH2 0xF28 JUMP JUMPDEST DUP1 ISZERO PUSH2 0x3DD JUMPI DUP1 PUSH1 0x1F LT PUSH2 0x3B2 JUMPI PUSH2 0x100 DUP1 DUP4 SLOAD DIV MUL DUP4 MSTORE SWAP2 PUSH1 0x20 ADD SWAP2 PUSH2 0x3DD JUMP JUMPDEST DUP3 ADD SWAP2 SWAP1 PUSH1 0x0 MSTORE PUSH1 0x20 PUSH1 0x0 KECCAK256 SWAP1 JUMPDEST DUP2 SLOAD DUP2 MSTORE SWAP1 PUSH1 0x1 ADD SWAP1 PUSH1 0x20 ADD DUP1 DUP4 GT PUSH2 0x3C0 JUMPI DUP3 SWAP1 SUB PUSH1 0x1F AND DUP3 ADD SWAP2 JUMPDEST POP POP POP POP POP DUP2 JUMP JUMPDEST DUP1 PUSH1 0x3 PUSH1 0x0 CALLER PUSH20 0xFFFFFFFFFFFFFFFFFFFFFFFFFFFFFFFFFFFFFFFF AND PUSH20 0xFFFFFFFFFFFFFFFFFFFFFFFFFFFFFFFFFFFFFFFF AND DUP2 MSTORE PUSH1 0x20 ADD SWAP1 DUP2 MSTORE PUSH1 0x20 ADD PUSH1 0x0 KECCAK256 PUSH1 0x0 DUP5 PUSH20 0xFFFFFFFFFFFFFFFFFFFFFFFFFFFFFFFFFFFFFFFF AND PUSH20 0xFFFFFFFFFFFFFFFFFFFFFFFFFFFFFFFFFFFFFFFF AND DUP2 MSTORE PUSH1 0x20 ADD SWAP1 DUP2 MSTORE PUSH1 0x20 ADD PUSH1 0x0 KECCAK256 DUP2 SWAP1 SSTORE POP DUP2 PUSH20 0xFFFFFFFFFFFFFFFFFFFFFFFFFFFFFFFFFFFFFFFF AND CALLER PUSH20 0xFFFFFFFFFFFFFFFFFFFFFFFFFFFFFFFFFFFFFFFF AND PUSH32 0x8C5BE1E5EBEC7D5BD14F71427D1E84F3DD0314C0F7B2291E5B200AC8C7C3B925 DUP4 PUSH1 0x40 MLOAD PUSH2 0x4C3 SWAP2 SWAP1 PUSH2 0xDF1 JUMP JUMPDEST PUSH1 0x40 MLOAD DUP1 SWAP2 SUB SWAP1 LOG3 POP POP JUMP JUMPDEST PUSH1 0x0 PUSH1 0x1 SLOAD SWAP1 POP SWAP1 JUMP JUMPDEST DUP3 DUP2 DUP1 PUSH2 0x4E5 DUP4 PUSH2 0x86D JUMP JUMPDEST LT ISZERO PUSH2 0x526 JUMPI PUSH1 0x40 MLOAD PUSH32 0x8C379A000000000000000000000000000000000000000000000000000000000 DUP2 MSTORE PUSH1 0x4 ADD PUSH2 0x51D SWAP1 PUSH2 0xFA5 JUMP JUMPDEST PUSH1 0x40 MLOAD DUP1 SWAP2 SUB SWAP1 REVERT JUMPDEST DUP3 PUSH1 0x3 PUSH1 0x0 DUP8 PUSH20 0xFFFFFFFFFFFFFFFFFFFFFFFFFFFFFFFFFFFFFFFF AND PUSH20 0xFFFFFFFFFFFFFFFFFFFFFFFFFFFFFFFFFFFFFFFF AND DUP2 MSTORE PUSH1 0x20 ADD SWAP1 DUP2 MSTORE PUSH1 0x20 ADD PUSH1 0x0 KECCAK256 PUSH1 0x0 DUP7 PUSH20 0xFFFFFFFFFFFFFFFFFFFFFFFFFFFFFFFFFFFFFFFF AND PUSH20 0xFFFFFFFFFFFFFFFFFFFFFFFFFFFFFFFFFFFFFFFF AND DUP2 MSTORE PUSH1 0x20 ADD SWAP1 DUP2 MSTORE PUSH1 0x20 ADD PUSH1 0x0 KECCAK256 PUSH1 0x0 DUP3 DUP3 SLOAD PUSH2 0x5B2 SWAP2 SWAP1 PUSH2 0xFF4 JUMP JUMPDEST SWAP3 POP POP DUP2 SWAP1 SSTORE POP DUP3 PUSH1 0x2 PUSH1 0x0 DUP8 PUSH20 0xFFFFFFFFFFFFFFFFFFFFFFFFFFFFFFFFFFFFFFFF AND PUSH20 0xFFFFFFFFFFFFFFFFFFFFFFFFFFFFFFFFFFFFFFFF AND DUP2 MSTORE PUSH1 0x20 ADD SWAP1 DUP2 MSTORE PUSH1 0x20 ADD PUSH1 0x0 KECCAK256 PUSH1 0x0 DUP3 DUP3 SLOAD PUSH2 0x608 SWAP2 SWAP1 PUSH2 0xFF4 JUMP JUMPDEST SWAP3 POP POP DUP2 SWAP1 SSTORE POP DUP3 PUSH1 0x2 PUSH1 0x0 DUP7 PUSH20 0xFFFFFFFFFFFFFFFFFFFFFFFFFFFFFFFFFFFFFFFF AND PUSH20 0xFFFFFFFFFFFFFFFFFFFFFFFFFFFFFFFFFFFFFFFF AND DUP2 MSTORE PUSH1 0x20 ADD SWAP1 DUP2 MSTORE PUSH1 0x20 ADD PUSH1 0x0 KECCAK256 PUSH1 0x0 DUP3 DUP3 SLOAD PUSH2 0x65E SWAP2 SWAP1 PUSH2 0x1028 JUMP JUMPDEST SWAP3 POP POP DUP2 SWAP1 SSTORE POP DUP4 PUSH20 0xFFFFFFFFFFFFFFFFFFFFFFFFFFFFFFFFFFFFFFFF AND DUP6 PUSH20 0xFFFFFFFFFFFFFFFFFFFFFFFFFFFFFFFFFFFFFFFF AND PUSH32 0xDDF252AD1BE2C89B69C2B068FC378DAA952BA7F163C4A11628F55A4DF523B3EF DUP6 PUSH1 0x40 MLOAD PUSH2 0x6C2 SWAP2 SWAP1 PUSH2 0xDF1 JUMP JUMPDEST PUSH1 0x40 MLOAD DUP1 SWAP2 SUB SWAP1 LOG3 POP POP POP POP POP JUMP JUMPDEST PUSH2 0x6DB CALLER DUP3 PUSH2 0x944 JUMP JUMPDEST PUSH1 0x0 CALLER PUSH20 0xFFFFFFFFFFFFFFFFFFFFFFFFFFFFFFFFFFFFFFFF AND DUP3 PUSH1 0x40 MLOAD PUSH2 0x701 SWAP1 PUSH2 0x108D JUMP JUMPDEST PUSH1 0x0 PUSH1 0x40 MLOAD DUP1 DUP4 SUB DUP2 DUP6 DUP8 GAS CALL SWAP3 POP POP POP RETURNDATASIZE DUP1 PUSH1 0x0 DUP2 EQ PUSH2 0x73E JUMPI PUSH1 0x40 MLOAD SWAP2 POP PUSH1 0x1F NOT PUSH1 0x3F RETURNDATASIZE ADD AND DUP3 ADD PUSH1 0x40 MSTORE RETURNDATASIZE DUP3 MSTORE RETURNDATASIZE PUSH1 0x0 PUSH1 0x20 DUP5 ADD RETURNDATACOPY PUSH2 0x743 JUMP JUMPDEST PUSH1 0x60 SWAP2 POP JUMPDEST POP POP SWAP1 POP DUP1 PUSH2 0x787 JUMPI PUSH1 0x40 MLOAD PUSH32 0x8C379A000000000000000000000000000000000000000000000000000000000 DUP2 MSTORE PUSH1 0x4 ADD PUSH2 0x77E SWAP1 PUSH2 0x10EE JUMP JUMPDEST PUSH1 0x40 MLOAD DUP1 SWAP2 SUB SWAP1 REVERT JUMPDEST POP POP JUMP JUMPDEST PUSH1 0x0 PUSH1 0x12 SWAP1 POP SWAP1 JUMP JUMPDEST DUP1 PUSH1 0x2 PUSH1 0x0 DUP5 PUSH20 0xFFFFFFFFFFFFFFFFFFFFFFFFFFFFFFFFFFFFFFFF AND PUSH20 0xFFFFFFFFFFFFFFFFFFFFFFFFFFFFFFFFFFFFFFFF AND DUP2 MSTORE PUSH1 0x20 ADD SWAP1 DUP2 MSTORE PUSH1 0x20 ADD PUSH1 0x0 KECCAK256 PUSH1 0x0 DUP3 DUP3 SLOAD PUSH2 0x7E3 SWAP2 SWAP1 PUSH2 0x1028 JUMP JUMPDEST SWAP3 POP POP DUP2 SWAP1 SSTORE POP DUP1 PUSH1 0x1 PUSH1 0x0 DUP3 DUP3 SLOAD PUSH2 0x7FC SWAP2 SWAP1 PUSH2 0x1028 JUMP JUMPDEST SWAP3 POP POP DUP2 SWAP1 SSTORE POP CALLER PUSH20 0xFFFFFFFFFFFFFFFFFFFFFFFFFFFFFFFFFFFFFFFF AND PUSH1 0x0 PUSH20 0xFFFFFFFFFFFFFFFFFFFFFFFFFFFFFFFFFFFFFFFF AND PUSH32 0xDDF252AD1BE2C89B69C2B068FC378DAA952BA7F163C4A11628F55A4DF523B3EF DUP4 PUSH1 0x40 MLOAD PUSH2 0x861 SWAP2 SWAP1 PUSH2 0xDF1 JUMP JUMPDEST PUSH1 0x40 MLOAD DUP1 SWAP2 SUB SWAP1 LOG3 POP POP JUMP JUMPDEST PUSH1 0x0 PUSH1 0x2 PUSH1 0x0 DUP4 PUSH20 0xFFFFFFFFFFFFFFFFFFFFFFFFFFFFFFFFFFFFFFFF AND PUSH20 0xFFFFFFFFFFFFFFFFFFFFFFFFFFFFFFFFFFFFFFFF AND DUP2 MSTORE PUSH1 0x20 ADD SWAP1 DUP2 MSTORE PUSH1 0x20 ADD PUSH1 0x0 KECCAK256 SLOAD SWAP1 POP SWAP2 SWAP1 POP JUMP JUMPDEST PUSH1 0x5 DUP1 SLOAD PUSH2 0x8C3 SWAP1 PUSH2 0xF28 JUMP JUMPDEST DUP1 PUSH1 0x1F ADD PUSH1 0x20 DUP1 SWAP2 DIV MUL PUSH1 0x20 ADD PUSH1 0x40 MLOAD SWAP1 DUP2 ADD PUSH1 0x40 MSTORE DUP1 SWAP3 SWAP2 SWAP1 DUP2 DUP2 MSTORE PUSH1 0x20 ADD DUP3 DUP1 SLOAD PUSH2 0x8EF SWAP1 PUSH2 0xF28 JUMP JUMPDEST DUP1 ISZERO PUSH2 0x93C JUMPI DUP1 PUSH1 0x1F LT PUSH2 0x911 JUMPI PUSH2 0x100 DUP1 DUP4 SLOAD DIV MUL DUP4 MSTORE SWAP2 PUSH1 0x20 ADD SWAP2 PUSH2 0x93C JUMP JUMPDEST DUP3 ADD SWAP2 SWAP1 PUSH1 0x0 MSTORE PUSH1 0x20 PUSH1 0x0 KECCAK256 SWAP1 JUMPDEST DUP2 SLOAD DUP2 MSTORE SWAP1 PUSH1 0x1 ADD SWAP1 PUSH1 0x20 ADD DUP1 DUP4 GT PUSH2 0x91F JUMPI DUP3 SWAP1 SUB PUSH1 0x1F AND DUP3 ADD SWAP2 JUMPDEST POP POP POP POP POP DUP2 JUMP JUMPDEST CALLER DUP2 DUP1 PUSH2 0x950 DUP4 PUSH2 0x86D JUMP JUMPDEST LT ISZERO PUSH2 0x991 JUMPI PUSH1 0x40 MLOAD PUSH32 0x8C379A000000000000000000000000000000000000000000000000000000000 DUP2 MSTORE PUSH1 0x4 ADD PUSH2 0x988 SWAP1 PUSH2 0xFA5 JUMP JUMPDEST PUSH1 0x40 MLOAD DUP1 SWAP2 SUB SWAP1 REVERT JUMPDEST DUP3 PUSH1 0x2 PUSH1 0x0 DUP7 PUSH20 0xFFFFFFFFFFFFFFFFFFFFFFFFFFFFFFFFFFFFFFFF AND PUSH20 0xFFFFFFFFFFFFFFFFFFFFFFFFFFFFFFFFFFFFFFFF AND DUP2 MSTORE PUSH1 0x20 ADD SWAP1 DUP2 MSTORE PUSH1 0x20 ADD PUSH1 0x0 KECCAK256 PUSH1 0x0 DUP3 DUP3 SLOAD PUSH2 0x9E0 SWAP2 SWAP1 PUSH2 0xFF4 JUMP JUMPDEST SWAP3 POP POP DUP2 SWAP1 SSTORE POP DUP3 PUSH1 0x1 PUSH1 0x0 DUP3 DUP3 SLOAD PUSH2 0x9F9 SWAP2 SWAP1 PUSH2 0xFF4 JUMP JUMPDEST SWAP3 POP POP DUP2 SWAP1 SSTORE POP PUSH1 0x0 PUSH20 0xFFFFFFFFFFFFFFFFFFFFFFFFFFFFFFFFFFFFFFFF AND CALLER PUSH20 0xFFFFFFFFFFFFFFFFFFFFFFFFFFFFFFFFFFFFFFFF AND PUSH32 0xDDF252AD1BE2C89B69C2B068FC378DAA952BA7F163C4A11628F55A4DF523B3EF DUP6 PUSH1 0x40 MLOAD PUSH2 0xA5E SWAP2 SWAP1 PUSH2 0xDF1 JUMP JUMPDEST PUSH1 0x40 MLOAD DUP1 SWAP2 SUB SWAP1 LOG3 POP POP POP POP JUMP JUMPDEST CALLER DUP2 DUP1 PUSH2 0xA78 DUP4 PUSH2 0x86D JUMP JUMPDEST LT ISZERO PUSH2 0xAB9 JUMPI PUSH1 0x40 MLOAD PUSH32 0x8C379A000000000000000000000000000000000000000000000000000000000 DUP2 MSTORE PUSH1 0x4 ADD PUSH2 0xAB0 SWAP1 PUSH2 0xFA5 JUMP JUMPDEST PUSH1 0x40 MLOAD DUP1 SWAP2 SUB SWAP1 REVERT JUMPDEST DUP3 PUSH1 0x2 PUSH1 0x0 CALLER PUSH20 0xFFFFFFFFFFFFFFFFFFFFFFFFFFFFFFFFFFFFFFFF AND PUSH20 0xFFFFFFFFFFFFFFFFFFFFFFFFFFFFFFFFFFFFFFFF AND DUP2 MSTORE PUSH1 0x20 ADD SWAP1 DUP2 MSTORE PUSH1 0x20 ADD PUSH1 0x0 KECCAK256 PUSH1 0x0 DUP3 DUP3 SLOAD PUSH2 0xB08 SWAP2 SWAP1 PUSH2 0xFF4 JUMP JUMPDEST SWAP3 POP POP DUP2 SWAP1 SSTORE POP DUP3 PUSH1 0x2 PUSH1 0x0 DUP7 PUSH20 0xFFFFFFFFFFFFFFFFFFFFFFFFFFFFFFFFFFFFFFFF AND PUSH20 0xFFFFFFFFFFFFFFFFFFFFFFFFFFFFFFFFFFFFFFFF AND DUP2 MSTORE PUSH1 0x20 ADD SWAP1 DUP2 MSTORE PUSH1 0x20 ADD PUSH1 0x0 KECCAK256 PUSH1 0x0 DUP3 DUP3 SLOAD PUSH2 0xB5E SWAP2 SWAP1 PUSH2 0x1028 JUMP JUMPDEST SWAP3 POP POP DUP2 SWAP1 SSTORE POP DUP4 PUSH20 0xFFFFFFFFFFFFFFFFFFFFFFFFFFFFFFFFFFFFFFFF AND CALLER PUSH20 0xFFFFFFFFFFFFFFFFFFFFFFFFFFFFFFFFFFFFFFFF AND PUSH32 0xDDF252AD1BE2C89B69C2B068FC378DAA952BA7F163C4A11628F55A4DF523B3EF DUP6 PUSH1 0x40 MLOAD PUSH2 0xBC2 SWAP2 SWAP1 PUSH2 0xDF1 JUMP JUMPDEST PUSH1 0x40 MLOAD DUP1 SWAP2 SUB SWAP1 LOG3 POP POP POP POP JUMP JUMPDEST PUSH1 0x0 PUSH1 0x3 PUSH1 0x0 DUP5 PUSH20 0xFFFFFFFFFFFFFFFFFFFFFFFFFFFFFFFFFFFFFFFF AND PUSH20 0xFFFFFFFFFFFFFFFFFFFFFFFFFFFFFFFFFFFFFFFF AND DUP2 MSTORE PUSH1 0x20 ADD SWAP1 DUP2 MSTORE PUSH1 0x20 ADD PUSH1 0x0 KECCAK256 PUSH1 0x0 DUP4 PUSH20 0xFFFFFFFFFFFFFFFFFFFFFFFFFFFFFFFFFFFFFFFF AND PUSH20 0xFFFFFFFFFFFFFFFFFFFFFFFFFFFFFFFFFFFFFFFF AND DUP2 MSTORE PUSH1 0x20 ADD SWAP1 DUP2 MSTORE PUSH1 0x20 ADD PUSH1 0x0 KECCAK256 SLOAD SWAP1 POP SWAP3 SWAP2 POP POP JUMP JUMPDEST PUSH1 0x0 DUP2 MLOAD SWAP1 POP SWAP2 SWAP1 POP JUMP JUMPDEST PUSH1 0x0 DUP3 DUP3 MSTORE PUSH1 0x20 DUP3 ADD SWAP1 POP SWAP3 SWAP2 POP POP JUMP JUMPDEST PUSH1 0x0 JUMPDEST DUP4 DUP2 LT ISZERO PUSH2 0xC91 JUMPI DUP1 DUP3 ADD MLOAD DUP2 DUP5 ADD MSTORE PUSH1 0x20 DUP2 ADD SWAP1 POP PUSH2 0xC76 JUMP JUMPDEST PUSH1 0x0 DUP5 DUP5 ADD MSTORE POP POP POP POP JUMP JUMPDEST PUSH1 0x0 PUSH1 0x1F NOT PUSH1 0x1F DUP4 ADD AND SWAP1 POP SWAP2 SWAP1 POP JUMP JUMPDEST PUSH1 0x0 PUSH2 0xCB9 DUP3 PUSH2 0xC57 JUMP JUMPDEST PUSH2 0xCC3 DUP2 DUP6 PUSH2 0xC62 JUMP JUMPDEST SWAP4 POP PUSH2 0xCD3 DUP2 DUP6 PUSH1 0x20 DUP7 ADD PUSH2 0xC73 JUMP JUMPDEST PUSH2 0xCDC DUP2 PUSH2 0xC9D JUMP JUMPDEST DUP5 ADD SWAP2 POP POP SWAP3 SWAP2 POP POP JUMP JUMPDEST PUSH1 0x0 PUSH1 0x20 DUP3 ADD SWAP1 POP DUP2 DUP2 SUB PUSH1 0x0 DUP4 ADD MSTORE PUSH2 0xD01 DUP2 DUP5 PUSH2 0xCAE JUMP JUMPDEST SWAP1 POP SWAP3 SWAP2 POP POP JUMP JUMPDEST PUSH1 0x0 DUP1 REVERT JUMPDEST PUSH1 0x0 PUSH20 0xFFFFFFFFFFFFFFFFFFFFFFFFFFFFFFFFFFFFFFFF DUP3 AND SWAP1 POP SWAP2 SWAP1 POP JUMP JUMPDEST PUSH1 0x0 PUSH2 0xD39 DUP3 PUSH2 0xD0E JUMP JUMPDEST SWAP1 POP SWAP2 SWAP1 POP JUMP JUMPDEST PUSH2 0xD49 DUP2 PUSH2 0xD2E JUMP JUMPDEST DUP2 EQ PUSH2 0xD54 JUMPI PUSH1 0x0 DUP1 REVERT JUMPDEST POP JUMP JUMPDEST PUSH1 0x0 DUP2 CALLDATALOAD SWAP1 POP PUSH2 0xD66 DUP2 PUSH2 0xD40 JUMP JUMPDEST SWAP3 SWAP2 POP POP JUMP JUMPDEST PUSH1 0x0 DUP2 SWAP1 POP SWAP2 SWAP1 POP JUMP JUMPDEST PUSH2 0xD7F DUP2 PUSH2 0xD6C JUMP JUMPDEST DUP2 EQ PUSH2 0xD8A JUMPI PUSH1 0x0 DUP1 REVERT JUMPDEST POP JUMP JUMPDEST PUSH1 0x0 DUP2 CALLDATALOAD SWAP1 POP PUSH2 0xD9C DUP2 PUSH2 0xD76 JUMP JUMPDEST SWAP3 SWAP2 POP POP JUMP JUMPDEST PUSH1 0x0 DUP1 PUSH1 0x40 DUP4 DUP6 SUB SLT ISZERO PUSH2 0xDB9 JUMPI PUSH2 0xDB8 PUSH2 0xD09 JUMP JUMPDEST JUMPDEST PUSH1 0x0 PUSH2 0xDC7 DUP6 DUP3 DUP7 ADD PUSH2 0xD57 JUMP JUMPDEST SWAP3 POP POP PUSH1 0x20 PUSH2 0xDD8 DUP6 DUP3 DUP7 ADD PUSH2 0xD8D JUMP JUMPDEST SWAP2 POP POP SWAP3 POP SWAP3 SWAP1 POP JUMP JUMPDEST PUSH2 0xDEB DUP2 PUSH2 0xD6C JUMP JUMPDEST DUP3 MSTORE POP POP JUMP JUMPDEST PUSH1 0x0 PUSH1 0x20 DUP3 ADD SWAP1 POP PUSH2 0xE06 PUSH1 0x0 DUP4 ADD DUP5 PUSH2 0xDE2 JUMP JUMPDEST SWAP3 SWAP2 POP POP JUMP JUMPDEST PUSH1 0x0 DUP1 PUSH1 0x0 PUSH1 0x60 DUP5 DUP7 SUB SLT ISZERO PUSH2 0xE25 JUMPI PUSH2 0xE24 PUSH2 0xD09 JUMP JUMPDEST JUMPDEST PUSH1 0x0 PUSH2 0xE33 DUP7 DUP3 DUP8 ADD PUSH2 0xD57 JUMP JUMPDEST SWAP4 POP POP PUSH1 0x20 PUSH2 0xE44 DUP7 DUP3 DUP8 ADD PUSH2 0xD57 JUMP JUMPDEST SWAP3 POP POP PUSH1 0x40 PUSH2 0xE55 DUP7 DUP3 DUP8 ADD PUSH2 0xD8D JUMP JUMPDEST SWAP2 POP POP SWAP3 POP SWAP3 POP SWAP3 JUMP JUMPDEST PUSH1 0x0 PUSH1 0x20 DUP3 DUP5 SUB SLT ISZERO PUSH2 0xE75 JUMPI PUSH2 0xE74 PUSH2 0xD09 JUMP JUMPDEST JUMPDEST PUSH1 0x0 PUSH2 0xE83 DUP5 DUP3 DUP6 ADD PUSH2 0xD8D JUMP JUMPDEST SWAP2 POP POP SWAP3 SWAP2 POP POP JUMP JUMPDEST PUSH1 0x0 PUSH1 0x20 DUP3 DUP5 SUB SLT ISZERO PUSH2 0xEA2 JUMPI PUSH2 0xEA1 PUSH2 0xD09 JUMP JUMPDEST JUMPDEST PUSH1 0x0 PUSH2 0xEB0 DUP5 DUP3 DUP6 ADD PUSH2 0xD57 JUMP JUMPDEST SWAP2 POP POP SWAP3 SWAP2 POP POP JUMP JUMPDEST PUSH1 0x0 DUP1 PUSH1 0x40 DUP4 DUP6 SUB SLT ISZERO PUSH2 0xED0 JUMPI PUSH2 0xECF PUSH2 0xD09 JUMP JUMPDEST JUMPDEST PUSH1 0x0 PUSH2 0xEDE DUP6 DUP3 DUP7 ADD PUSH2 0xD57 JUMP JUMPDEST SWAP3 POP POP PUSH1 0x20 PUSH2 0xEEF DUP6 DUP3 DUP7 ADD PUSH2 0xD57 JUMP JUMPDEST SWAP2 POP POP SWAP3 POP SWAP3 SWAP1 POP JUMP JUMPDEST PUSH32 0x4E487B7100000000000000000000000000000000000000000000000000000000 PUSH1 0x0 MSTORE PUSH1 0x22 PUSH1 0x4 MSTORE PUSH1 0x24 PUSH1 0x0 REVERT JUMPDEST PUSH1 0x0 PUSH1 0x2 DUP3 DIV SWAP1 POP PUSH1 0x1 DUP3 AND DUP1 PUSH2 0xF40 JUMPI PUSH1 0x7F DUP3 AND SWAP2 POP JUMPDEST PUSH1 0x20 DUP3 LT DUP2 SUB PUSH2 0xF53 JUMPI PUSH2 0xF52 PUSH2 0xEF9 JUMP JUMPDEST JUMPDEST POP SWAP2 SWAP1 POP JUMP JUMPDEST PUSH32 0x6E6F7420656E6F75676820746F6B656E73000000000000000000000000000000 PUSH1 0x0 DUP3 ADD MSTORE POP JUMP JUMPDEST PUSH1 0x0 PUSH2 0xF8F PUSH1 0x11 DUP4 PUSH2 0xC62 JUMP JUMPDEST SWAP2 POP PUSH2 0xF9A DUP3 PUSH2 0xF59 JUMP JUMPDEST PUSH1 0x20 DUP3 ADD SWAP1 POP SWAP2 SWAP1 POP JUMP JUMPDEST PUSH1 0x0 PUSH1 0x20 DUP3 ADD SWAP1 POP DUP2 DUP2 SUB PUSH1 0x0 DUP4 ADD MSTORE PUSH2 0xFBE DUP2 PUSH2 0xF82 JUMP JUMPDEST SWAP1 POP SWAP2 SWAP1 POP JUMP JUMPDEST PUSH32 0x4E487B7100000000000000000000000000000000000000000000000000000000 PUSH1 0x0 MSTORE PUSH1 0x11 PUSH1 0x4 MSTORE PUSH1 0x24 PUSH1 0x0 REVERT JUMPDEST PUSH1 0x0 PUSH2 0xFFF DUP3 PUSH2 0xD6C JUMP JUMPDEST SWAP2 POP PUSH2 0x100A DUP4 PUSH2 0xD6C JUMP JUMPDEST SWAP3 POP DUP3 DUP3 SUB SWAP1 POP DUP2 DUP2 GT ISZERO PUSH2 0x1022 JUMPI PUSH2 0x1021 PUSH2 0xFC5 JUMP JUMPDEST JUMPDEST SWAP3 SWAP2 POP POP JUMP JUMPDEST PUSH1 0x0 PUSH2 0x1033 DUP3 PUSH2 0xD6C JUMP JUMPDEST SWAP2 POP PUSH2 0x103E DUP4 PUSH2 0xD6C JUMP JUMPDEST SWAP3 POP DUP3 DUP3 ADD SWAP1 POP DUP1 DUP3 GT ISZERO PUSH2 0x1056 JUMPI PUSH2 0x1055 PUSH2 0xFC5 JUMP JUMPDEST JUMPDEST SWAP3 SWAP2 POP POP JUMP JUMPDEST PUSH1 0x0 DUP2 SWAP1 POP SWAP3 SWAP2 POP POP JUMP JUMPDEST POP JUMP JUMPDEST PUSH1 0x0 PUSH2 0x1077 PUSH1 0x0 DUP4 PUSH2 0x105C JUMP JUMPDEST SWAP2 POP PUSH2 0x1082 DUP3 PUSH2 0x1067 JUMP JUMPDEST PUSH1 0x0 DUP3 ADD SWAP1 POP SWAP2 SWAP1 POP JUMP JUMPDEST PUSH1 0x0 PUSH2 0x1098 DUP3 PUSH2 0x106A JUMP JUMPDEST SWAP2 POP DUP2 SWAP1 POP SWAP2 SWAP1 POP JUMP JUMPDEST PUSH32 0x6661696C65642100000000000000000000000000000000000000000000000000 PUSH1 0x0 DUP3 ADD MSTORE POP JUMP JUMPDEST PUSH1 0x0 PUSH2 0x10D8 PUSH1 0x7 DUP4 PUSH2 0xC62 JUMP JUMPDEST SWAP2 POP PUSH2 0x10E3 DUP3 PUSH2 0x10A2 JUMP JUMPDEST PUSH1 0x20 DUP3 ADD SWAP1 POP SWAP2 SWAP1 POP JUMP JUMPDEST PUSH1 0x0 PUSH1 0x20 DUP3 ADD SWAP1 POP DUP2 DUP2 SUB PUSH1 0x0 DUP4 ADD MSTORE PUSH2 0x1107 DUP2 PUSH2 0x10CB JUMP JUMPDEST SWAP1 POP SWAP2 SWAP1 POP JUMP INVALID LOG2 PUSH5 0x6970667358 0x22 SLT KECCAK256 0xCD DUP2 CALLDATACOPY GASLIMIT PUSH6 0xE28C8570AA14 DUP5 0xBE 0xC8 MLOAD 0xC7 LOG0 CODESIZE MUL SWAP5 PUSH27 0x36698E66A51DB98A83E24664736F6C634300081100330000000000 "
				},
				"gasEstimates": {
					"creation": {
						"codeDepositCost": "884000",
						"executionCost": "infinite",
						"totalCost": "infinite"
					},
					"external": {
						"": "218",
						"allowance(address,address)": "infinite",
						"approve(address,uint256)": "infinite",
						"balanceOf(address)": "2886",
						"burn(address,uint256)": "infinite",
						"decimals()": "448",
						"deposit()": "infinite",
						"mint(address,uint256)": "infinite",
						"name()": "infinite",
						"symbol()": "infinite",
						"totalSupply()": "2482",
						"transfer(address,uint256)": "infinite",
						"transferFrom(address,address,uint256)": "infinite",
						"withdraw(uint256)": "infinite"
					}
				},
				"methodIdentifiers": {
					"allowance(address,address)": "dd62ed3e",
					"approve(address,uint256)": "095ea7b3",
					"balanceOf(address)": "70a08231",
					"burn(address,uint256)": "9dc29fac",
					"decimals()": "313ce567",
					"deposit()": "d0e30db0",
					"mint(address,uint256)": "40c10f19",
					"name()": "06fdde03",
					"symbol()": "95d89b41",
					"totalSupply()": "18160ddd",
					"transfer(address,uint256)": "a9059cbb",
					"transferFrom(address,address,uint256)": "23b872dd",
					"withdraw(uint256)": "2e1a7d4d"
				}
			},
			"storageLayout": {
				"storage": [
					{
						"astId": 6,
						"contract": "contracts/ERC20.sol:Weth",
						"label": "mainOwner",
						"offset": 0,
						"slot": "0",
						"type": "t_address"
					},
					{
						"astId": 8,
						"contract": "contracts/ERC20.sol:Weth",
						"label": "totalTokens",
						"offset": 0,
						"slot": "1",
						"type": "t_uint256"
					},
					{
						"astId": 12,
						"contract": "contracts/ERC20.sol:Weth",
						"label": "balances",
						"offset": 0,
						"slot": "2",
						"type": "t_mapping(t_address,t_uint256)"
					},
					{
						"astId": 18,
						"contract": "contracts/ERC20.sol:Weth",
						"label": "allowances",
						"offset": 0,
						"slot": "3",
						"type": "t_mapping(t_address,t_mapping(t_address,t_uint256))"
					},
					{
						"astId": 21,
						"contract": "contracts/ERC20.sol:Weth",
						"label": "name",
						"offset": 0,
						"slot": "4",
						"type": "t_string_storage"
					},
					{
						"astId": 24,
						"contract": "contracts/ERC20.sol:Weth",
						"label": "symbol",
						"offset": 0,
						"slot": "5",
						"type": "t_string_storage"
					}
				],
				"types": {
					"t_address": {
						"encoding": "inplace",
						"label": "address",
						"numberOfBytes": "20"
					},
					"t_mapping(t_address,t_mapping(t_address,t_uint256))": {
						"encoding": "mapping",
						"key": "t_address",
						"label": "mapping(address => mapping(address => uint256))",
						"numberOfBytes": "32",
						"value": "t_mapping(t_address,t_uint256)"
					},
					"t_mapping(t_address,t_uint256)": {
						"encoding": "mapping",
						"key": "t_address",
						"label": "mapping(address => uint256)",
						"numberOfBytes": "32",
						"value": "t_uint256"
					},
					"t_string_storage": {
						"encoding": "bytes",
						"label": "string",
						"numberOfBytes": "32"
					},
					"t_uint256": {
						"encoding": "inplace",
						"label": "uint256",
						"numberOfBytes": "32"
					}
				}
			},
			"userdoc": {
				"kind": "user",
				"methods": {},
				"version": 1
			}
		}
	}
}