{
	"staking/StakingAlg.sol": {
		"stakingAlg": {
			"abi": [
				{
					"inputs": [
						{
							"internalType": "address",
							"name": "_stakingToken",
							"type": "address"
						},
						{
							"internalType": "address",
							"name": "_rewardsToken",
							"type": "address"
						}
					],
					"stateMutability": "nonpayable",
					"type": "constructor"
				},
				{
					"inputs": [
						{
							"internalType": "address",
							"name": "_account",
							"type": "address"
						}
					],
					"name": "earned",
					"outputs": [
						{
							"internalType": "uint256",
							"name": "",
							"type": "uint256"
						}
					],
					"stateMutability": "view",
					"type": "function"
				},
				{
					"inputs": [],
					"name": "getReward",
					"outputs": [],
					"stateMutability": "nonpayable",
					"type": "function"
				},
				{
					"inputs": [],
					"name": "lastUpdateTime",
					"outputs": [
						{
							"internalType": "uint256",
							"name": "",
							"type": "uint256"
						}
					],
					"stateMutability": "view",
					"type": "function"
				},
				{
					"inputs": [],
					"name": "rewardPerToken",
					"outputs": [
						{
							"internalType": "uint256",
							"name": "",
							"type": "uint256"
						}
					],
					"stateMutability": "view",
					"type": "function"
				},
				{
					"inputs": [],
					"name": "rewardPerTokenStored",
					"outputs": [
						{
							"internalType": "uint256",
							"name": "",
							"type": "uint256"
						}
					],
					"stateMutability": "view",
					"type": "function"
				},
				{
					"inputs": [],
					"name": "rewardRate",
					"outputs": [
						{
							"internalType": "uint256",
							"name": "",
							"type": "uint256"
						}
					],
					"stateMutability": "view",
					"type": "function"
				},
				{
					"inputs": [
						{
							"internalType": "address",
							"name": "",
							"type": "address"
						}
					],
					"name": "rewards",
					"outputs": [
						{
							"internalType": "uint256",
							"name": "",
							"type": "uint256"
						}
					],
					"stateMutability": "view",
					"type": "function"
				},
				{
					"inputs": [],
					"name": "rewardsToken",
					"outputs": [
						{
							"internalType": "contract IERC20",
							"name": "",
							"type": "address"
						}
					],
					"stateMutability": "view",
					"type": "function"
				},
				{
					"inputs": [
						{
							"internalType": "uint256",
							"name": "_amount",
							"type": "uint256"
						}
					],
					"name": "stake",
					"outputs": [],
					"stateMutability": "nonpayable",
					"type": "function"
				},
				{
					"inputs": [],
					"name": "stakingToken",
					"outputs": [
						{
							"internalType": "contract IERC20",
							"name": "",
							"type": "address"
						}
					],
					"stateMutability": "view",
					"type": "function"
				},
				{
					"inputs": [
						{
							"internalType": "address",
							"name": "",
							"type": "address"
						}
					],
					"name": "userRewardPerTokenPaid",
					"outputs": [
						{
							"internalType": "uint256",
							"name": "",
							"type": "uint256"
						}
					],
					"stateMutability": "view",
					"type": "function"
				},
				{
					"inputs": [
						{
							"internalType": "uint256",
							"name": "_amount",
							"type": "uint256"
						}
					],
					"name": "withdraw",
					"outputs": [],
					"stateMutability": "nonpayable",
					"type": "function"
				}
			],
			"devdoc": {
				"kind": "dev",
				"methods": {},
				"version": 1
			},
			"evm": {
				"assembly": "    /* \"staking/StakingAlg.sol\":92:2060  contract stakingAlg {... */\n  mstore(0x40, 0x80)\n    /* \"staking/StakingAlg.sol\":208:210  10 */\n  0x0a\n    /* \"staking/StakingAlg.sol\":183:210  uint public rewardRate = 10 */\n  0x02\n  sstore\n    /* \"staking/StakingAlg.sol\":472:628  constructor(address _stakingToken, address _rewardsToken){... */\n  callvalue\n  dup1\n  iszero\n  tag_1\n  jumpi\n  0x00\n  dup1\n  revert\ntag_1:\n  pop\n  mload(0x40)\n  sub(codesize, bytecodeSize)\n  dup1\n  bytecodeSize\n  dup4\n  codecopy\n  dup2\n  dup2\n  add\n  0x40\n  mstore\n  dup2\n  add\n  swap1\n  tag_2\n  swap2\n  swap1\n  tag_3\n  jump\t// in\ntag_2:\n    /* \"staking/StakingAlg.sol\":561:574  _stakingToken */\n  dup2\n    /* \"staking/StakingAlg.sol\":539:551  stakingToken */\n  0x01\n  0x00\n    /* \"staking/StakingAlg.sol\":539:575  stakingToken = IERC20(_stakingToken) */\n  0x0100\n  exp\n  dup2\n  sload\n  dup2\n  0xffffffffffffffffffffffffffffffffffffffff\n  mul\n  not\n  and\n  swap1\n  dup4\n  0xffffffffffffffffffffffffffffffffffffffff\n  and\n  mul\n  or\n  swap1\n  sstore\n  pop\n    /* \"staking/StakingAlg.sol\":607:620  _rewardsToken */\n  dup1\n    /* \"staking/StakingAlg.sol\":585:597  rewardsToken */\n  0x00\n  dup1\n    /* \"staking/StakingAlg.sol\":585:621  rewardsToken = IERC20(_rewardsToken) */\n  0x0100\n  exp\n  dup2\n  sload\n  dup2\n  0xffffffffffffffffffffffffffffffffffffffff\n  mul\n  not\n  and\n  swap1\n  dup4\n  0xffffffffffffffffffffffffffffffffffffffff\n  and\n  mul\n  or\n  swap1\n  sstore\n  pop\n    /* \"staking/StakingAlg.sol\":472:628  constructor(address _stakingToken, address _rewardsToken){... */\n  pop\n  pop\n    /* \"staking/StakingAlg.sol\":92:2060  contract stakingAlg {... */\n  jump(tag_6)\n    /* \"#utility.yul\":88:205   */\ntag_8:\n    /* \"#utility.yul\":197:198   */\n  0x00\n    /* \"#utility.yul\":194:195   */\n  dup1\n    /* \"#utility.yul\":187:199   */\n  revert\n    /* \"#utility.yul\":334:460   */\ntag_10:\n    /* \"#utility.yul\":371:378   */\n  0x00\n    /* \"#utility.yul\":411:453   */\n  0xffffffffffffffffffffffffffffffffffffffff\n    /* \"#utility.yul\":404:409   */\n  dup3\n    /* \"#utility.yul\":400:454   */\n  and\n    /* \"#utility.yul\":389:454   */\n  swap1\n  pop\n    /* \"#utility.yul\":334:460   */\n  swap2\n  swap1\n  pop\n  jump\t// out\n    /* \"#utility.yul\":466:562   */\ntag_11:\n    /* \"#utility.yul\":503:510   */\n  0x00\n    /* \"#utility.yul\":532:556   */\n  tag_20\n    /* \"#utility.yul\":550:555   */\n  dup3\n    /* \"#utility.yul\":532:556   */\n  tag_10\n  jump\t// in\ntag_20:\n    /* \"#utility.yul\":521:556   */\n  swap1\n  pop\n    /* \"#utility.yul\":466:562   */\n  swap2\n  swap1\n  pop\n  jump\t// out\n    /* \"#utility.yul\":568:690   */\ntag_12:\n    /* \"#utility.yul\":641:665   */\n  tag_22\n    /* \"#utility.yul\":659:664   */\n  dup2\n    /* \"#utility.yul\":641:665   */\n  tag_11\n  jump\t// in\ntag_22:\n    /* \"#utility.yul\":634:639   */\n  dup2\n    /* \"#utility.yul\":631:666   */\n  eq\n    /* \"#utility.yul\":621:684   */\n  tag_23\n  jumpi\n    /* \"#utility.yul\":680:681   */\n  0x00\n    /* \"#utility.yul\":677:678   */\n  dup1\n    /* \"#utility.yul\":670:682   */\n  revert\n    /* \"#utility.yul\":621:684   */\ntag_23:\n    /* \"#utility.yul\":568:690   */\n  pop\n  jump\t// out\n    /* \"#utility.yul\":696:839   */\ntag_13:\n    /* \"#utility.yul\":753:758   */\n  0x00\n    /* \"#utility.yul\":784:790   */\n  dup2\n    /* \"#utility.yul\":778:791   */\n  mload\n    /* \"#utility.yul\":769:791   */\n  swap1\n  pop\n    /* \"#utility.yul\":800:833   */\n  tag_25\n    /* \"#utility.yul\":827:832   */\n  dup2\n    /* \"#utility.yul\":800:833   */\n  tag_12\n  jump\t// in\ntag_25:\n    /* \"#utility.yul\":696:839   */\n  swap3\n  swap2\n  pop\n  pop\n  jump\t// out\n    /* \"#utility.yul\":845:1352   */\ntag_3:\n    /* \"#utility.yul\":924:930   */\n  0x00\n    /* \"#utility.yul\":932:938   */\n  dup1\n    /* \"#utility.yul\":981:983   */\n  0x40\n    /* \"#utility.yul\":969:978   */\n  dup4\n    /* \"#utility.yul\":960:967   */\n  dup6\n    /* \"#utility.yul\":956:979   */\n  sub\n    /* \"#utility.yul\":952:984   */\n  slt\n    /* \"#utility.yul\":949:1068   */\n  iszero\n  tag_27\n  jumpi\n    /* \"#utility.yul\":987:1066   */\n  tag_28\n  tag_8\n  jump\t// in\ntag_28:\n    /* \"#utility.yul\":949:1068   */\ntag_27:\n    /* \"#utility.yul\":1107:1108   */\n  0x00\n    /* \"#utility.yul\":1132:1196   */\n  tag_29\n    /* \"#utility.yul\":1188:1195   */\n  dup6\n    /* \"#utility.yul\":1179:1185   */\n  dup3\n    /* \"#utility.yul\":1168:1177   */\n  dup7\n    /* \"#utility.yul\":1164:1186   */\n  add\n    /* \"#utility.yul\":1132:1196   */\n  tag_13\n  jump\t// in\ntag_29:\n    /* \"#utility.yul\":1122:1196   */\n  swap3\n  pop\n    /* \"#utility.yul\":1078:1206   */\n  pop\n    /* \"#utility.yul\":1245:1247   */\n  0x20\n    /* \"#utility.yul\":1271:1335   */\n  tag_30\n    /* \"#utility.yul\":1327:1334   */\n  dup6\n    /* \"#utility.yul\":1318:1324   */\n  dup3\n    /* \"#utility.yul\":1307:1316   */\n  dup7\n    /* \"#utility.yul\":1303:1325   */\n  add\n    /* \"#utility.yul\":1271:1335   */\n  tag_13\n  jump\t// in\ntag_30:\n    /* \"#utility.yul\":1261:1335   */\n  swap2\n  pop\n    /* \"#utility.yul\":1216:1345   */\n  pop\n    /* \"#utility.yul\":845:1352   */\n  swap3\n  pop\n  swap3\n  swap1\n  pop\n  jump\t// out\n    /* \"staking/StakingAlg.sol\":92:2060  contract stakingAlg {... */\ntag_6:\n  dataSize(sub_0)\n  dup1\n  dataOffset(sub_0)\n  0x00\n  codecopy\n  0x00\n  return\nstop\n\nsub_0: assembly {\n        /* \"staking/StakingAlg.sol\":92:2060  contract stakingAlg {... */\n      mstore(0x40, 0x80)\n      callvalue\n      dup1\n      iszero\n      tag_1\n      jumpi\n      0x00\n      dup1\n      revert\n    tag_1:\n      pop\n      jumpi(tag_2, lt(calldatasize, 0x04))\n      shr(0xe0, calldataload(0x00))\n      dup1\n      0x8b876347\n      gt\n      tag_15\n      jumpi\n      dup1\n      0x8b876347\n      eq\n      tag_9\n      jumpi\n      dup1\n      0xa694fc3a\n      eq\n      tag_10\n      jumpi\n      dup1\n      0xc8f33c91\n      eq\n      tag_11\n      jumpi\n      dup1\n      0xcd3daf9d\n      eq\n      tag_12\n      jumpi\n      dup1\n      0xd1af0c7d\n      eq\n      tag_13\n      jumpi\n      dup1\n      0xdf136d65\n      eq\n      tag_14\n      jumpi\n      jump(tag_2)\n    tag_15:\n      dup1\n      0x8cc262\n      eq\n      tag_3\n      jumpi\n      dup1\n      0x0700037d\n      eq\n      tag_4\n      jumpi\n      dup1\n      0x2e1a7d4d\n      eq\n      tag_5\n      jumpi\n      dup1\n      0x3d18b912\n      eq\n      tag_6\n      jumpi\n      dup1\n      0x72f702f3\n      eq\n      tag_7\n      jumpi\n      dup1\n      0x7b0a47ee\n      eq\n      tag_8\n      jumpi\n    tag_2:\n      0x00\n      dup1\n      revert\n        /* \"staking/StakingAlg.sol\":1833:2058  function earned(address _account) public view returns(uint) {... */\n    tag_3:\n      tag_16\n      0x04\n      dup1\n      calldatasize\n      sub\n      dup2\n      add\n      swap1\n      tag_17\n      swap2\n      swap1\n      tag_18\n      jump\t// in\n    tag_17:\n      tag_19\n      jump\t// in\n    tag_16:\n      mload(0x40)\n      tag_20\n      swap2\n      swap1\n      tag_21\n      jump\t// in\n    tag_20:\n      mload(0x40)\n      dup1\n      swap2\n      sub\n      swap1\n      return\n        /* \"staking/StakingAlg.sol\":347:386  mapping(address => uint) public rewards */\n    tag_4:\n      tag_22\n      0x04\n      dup1\n      calldatasize\n      sub\n      dup2\n      add\n      swap1\n      tag_23\n      swap2\n      swap1\n      tag_18\n      jump\t// in\n    tag_23:\n      tag_24\n      jump\t// in\n    tag_22:\n      mload(0x40)\n      tag_25\n      swap2\n      swap1\n      tag_21\n      jump\t// in\n    tag_25:\n      mload(0x40)\n      dup1\n      swap2\n      sub\n      swap1\n      return\n        /* \"staking/StakingAlg.sol\":1117:1380  function withdraw(uint _amount) external updateReward(msg.sender){... */\n    tag_5:\n      tag_26\n      0x04\n      dup1\n      calldatasize\n      sub\n      dup2\n      add\n      swap1\n      tag_27\n      swap2\n      swap1\n      tag_28\n      jump\t// in\n    tag_27:\n      tag_29\n      jump\t// in\n    tag_26:\n      stop\n        /* \"staking/StakingAlg.sol\":1385:1573  function getReward() external updateReward(msg.sender) {... */\n    tag_6:\n      tag_30\n      tag_31\n      jump\t// in\n    tag_30:\n      stop\n        /* \"staking/StakingAlg.sol\":150:176  IERC20 public stakingToken */\n    tag_7:\n      tag_32\n      tag_33\n      jump\t// in\n    tag_32:\n      mload(0x40)\n      tag_34\n      swap2\n      swap1\n      tag_35\n      jump\t// in\n    tag_34:\n      mload(0x40)\n      dup1\n      swap2\n      sub\n      swap1\n      return\n        /* \"staking/StakingAlg.sol\":183:210  uint public rewardRate = 10 */\n    tag_8:\n      tag_36\n      tag_37\n      jump\t// in\n    tag_36:\n      mload(0x40)\n      tag_38\n      swap2\n      swap1\n      tag_21\n      jump\t// in\n    tag_38:\n      mload(0x40)\n      dup1\n      swap2\n      sub\n      swap1\n      return\n        /* \"staking/StakingAlg.sol\":287:341  mapping(address => uint) public userRewardPerTokenPaid */\n    tag_9:\n      tag_39\n      0x04\n      dup1\n      calldatasize\n      sub\n      dup2\n      add\n      swap1\n      tag_40\n      swap2\n      swap1\n      tag_18\n      jump\t// in\n    tag_40:\n      tag_41\n      jump\t// in\n    tag_39:\n      mload(0x40)\n      tag_42\n      swap2\n      swap1\n      tag_21\n      jump\t// in\n    tag_42:\n      mload(0x40)\n      dup1\n      swap2\n      sub\n      swap1\n      return\n        /* \"staking/StakingAlg.sol\":899:1112  function stake(uint _amount) external updateReward(msg.sender) {... */\n    tag_10:\n      tag_43\n      0x04\n      dup1\n      calldatasize\n      sub\n      dup2\n      add\n      swap1\n      tag_44\n      swap2\n      swap1\n      tag_28\n      jump\t// in\n    tag_44:\n      tag_45\n      jump\t// in\n    tag_43:\n      stop\n        /* \"staking/StakingAlg.sol\":216:242  uint public lastUpdateTime */\n    tag_11:\n      tag_46\n      tag_47\n      jump\t// in\n    tag_46:\n      mload(0x40)\n      tag_48\n      swap2\n      swap1\n      tag_21\n      jump\t// in\n    tag_48:\n      mload(0x40)\n      dup1\n      swap2\n      sub\n      swap1\n      return\n        /* \"staking/StakingAlg.sol\":1578:1828  function rewardPerToken() public view returns(uint) {... */\n    tag_12:\n      tag_49\n      tag_50\n      jump\t// in\n    tag_49:\n      mload(0x40)\n      tag_51\n      swap2\n      swap1\n      tag_21\n      jump\t// in\n    tag_51:\n      mload(0x40)\n      dup1\n      swap2\n      sub\n      swap1\n      return\n        /* \"staking/StakingAlg.sol\":118:144  IERC20 public rewardsToken */\n    tag_13:\n      tag_52\n      tag_53\n      jump\t// in\n    tag_52:\n      mload(0x40)\n      tag_54\n      swap2\n      swap1\n      tag_35\n      jump\t// in\n    tag_54:\n      mload(0x40)\n      dup1\n      swap2\n      sub\n      swap1\n      return\n        /* \"staking/StakingAlg.sol\":248:280  uint public rewardPerTokenStored */\n    tag_14:\n      tag_55\n      tag_56\n      jump\t// in\n    tag_55:\n      mload(0x40)\n      tag_57\n      swap2\n      swap1\n      tag_21\n      jump\t// in\n    tag_57:\n      mload(0x40)\n      dup1\n      swap2\n      sub\n      swap1\n      return\n        /* \"staking/StakingAlg.sol\":1833:2058  function earned(address _account) public view returns(uint) {... */\n    tag_19:\n        /* \"staking/StakingAlg.sol\":1887:1891  uint */\n      0x00\n        /* \"staking/StakingAlg.sol\":2034:2041  rewards */\n      0x06\n        /* \"staking/StakingAlg.sol\":2034:2051  rewards[_account] */\n      0x00\n        /* \"staking/StakingAlg.sol\":2042:2050  _account */\n      dup4\n        /* \"staking/StakingAlg.sol\":2034:2051  rewards[_account] */\n      0xffffffffffffffffffffffffffffffffffffffff\n      and\n      0xffffffffffffffffffffffffffffffffffffffff\n      and\n      dup2\n      mstore\n      0x20\n      add\n      swap1\n      dup2\n      mstore\n      0x20\n      add\n      0x00\n      keccak256\n      sload\n        /* \"staking/StakingAlg.sol\":2014:2018  1e18 */\n      0x0de0b6b3a7640000\n        /* \"staking/StakingAlg.sol\":1965:1987  userRewardPerTokenPaid */\n      0x05\n        /* \"staking/StakingAlg.sol\":1965:1997  userRewardPerTokenPaid[_account] */\n      0x00\n        /* \"staking/StakingAlg.sol\":1988:1996  _account */\n      dup6\n        /* \"staking/StakingAlg.sol\":1965:1997  userRewardPerTokenPaid[_account] */\n      0xffffffffffffffffffffffffffffffffffffffff\n      and\n      0xffffffffffffffffffffffffffffffffffffffff\n      and\n      dup2\n      mstore\n      0x20\n      add\n      swap1\n      dup2\n      mstore\n      0x20\n      add\n      0x00\n      keccak256\n      sload\n        /* \"staking/StakingAlg.sol\":1946:1962  rewardPerToken() */\n      tag_59\n        /* \"staking/StakingAlg.sol\":1946:1960  rewardPerToken */\n      tag_50\n        /* \"staking/StakingAlg.sol\":1946:1962  rewardPerToken() */\n      jump\t// in\n    tag_59:\n        /* \"staking/StakingAlg.sol\":1946:1997  rewardPerToken() - userRewardPerTokenPaid[_account] */\n      tag_60\n      swap2\n      swap1\n      tag_61\n      jump\t// in\n    tag_60:\n        /* \"staking/StakingAlg.sol\":1911:1919  balances */\n      0x07\n        /* \"staking/StakingAlg.sol\":1911:1929  balances[_account] */\n      0x00\n        /* \"staking/StakingAlg.sol\":1920:1928  _account */\n      dup7\n        /* \"staking/StakingAlg.sol\":1911:1929  balances[_account] */\n      0xffffffffffffffffffffffffffffffffffffffff\n      and\n      0xffffffffffffffffffffffffffffffffffffffff\n      and\n      dup2\n      mstore\n      0x20\n      add\n      swap1\n      dup2\n      mstore\n      0x20\n      add\n      0x00\n      keccak256\n      sload\n        /* \"staking/StakingAlg.sol\":1911:2011  balances[_account] * (... */\n      tag_62\n      swap2\n      swap1\n      tag_63\n      jump\t// in\n    tag_62:\n        /* \"staking/StakingAlg.sol\":1911:2018  balances[_account] * (... */\n      tag_64\n      swap2\n      swap1\n      tag_65\n      jump\t// in\n    tag_64:\n        /* \"staking/StakingAlg.sol\":1910:2051  (balances[_account] * (... */\n      tag_66\n      swap2\n      swap1\n      tag_67\n      jump\t// in\n    tag_66:\n        /* \"staking/StakingAlg.sol\":1903:2051  return (balances[_account] * (... */\n      swap1\n      pop\n        /* \"staking/StakingAlg.sol\":1833:2058  function earned(address _account) public view returns(uint) {... */\n      swap2\n      swap1\n      pop\n      jump\t// out\n        /* \"staking/StakingAlg.sol\":347:386  mapping(address => uint) public rewards */\n    tag_24:\n      mstore(0x20, 0x06)\n      dup1\n      0x00\n      mstore\n      keccak256(0x00, 0x40)\n      0x00\n      swap2\n      pop\n      swap1\n      pop\n      sload\n      dup2\n      jump\t// out\n        /* \"staking/StakingAlg.sol\":1117:1380  function withdraw(uint _amount) external updateReward(msg.sender){... */\n    tag_29:\n        /* \"staking/StakingAlg.sol\":1171:1181  msg.sender */\n      caller\n        /* \"staking/StakingAlg.sol\":706:722  rewardPerToken() */\n      tag_69\n        /* \"staking/StakingAlg.sol\":706:720  rewardPerToken */\n      tag_50\n        /* \"staking/StakingAlg.sol\":706:722  rewardPerToken() */\n      jump\t// in\n    tag_69:\n        /* \"staking/StakingAlg.sol\":683:703  rewardPerTokenStored */\n      0x04\n        /* \"staking/StakingAlg.sol\":683:722  rewardPerTokenStored = rewardPerToken() */\n      dup2\n      swap1\n      sstore\n      pop\n        /* \"staking/StakingAlg.sol\":749:764  block.timestamp */\n      timestamp\n        /* \"staking/StakingAlg.sol\":732:746  lastUpdateTime */\n      0x03\n        /* \"staking/StakingAlg.sol\":732:764  lastUpdateTime = block.timestamp */\n      dup2\n      swap1\n      sstore\n      pop\n        /* \"staking/StakingAlg.sol\":794:810  earned(_account) */\n      tag_70\n        /* \"staking/StakingAlg.sol\":801:809  _account */\n      dup2\n        /* \"staking/StakingAlg.sol\":794:800  earned */\n      tag_19\n        /* \"staking/StakingAlg.sol\":794:810  earned(_account) */\n      jump\t// in\n    tag_70:\n        /* \"staking/StakingAlg.sol\":774:781  rewards */\n      0x06\n        /* \"staking/StakingAlg.sol\":774:791  rewards[_account] */\n      0x00\n        /* \"staking/StakingAlg.sol\":782:790  _account */\n      dup4\n        /* \"staking/StakingAlg.sol\":774:791  rewards[_account] */\n      0xffffffffffffffffffffffffffffffffffffffff\n      and\n      0xffffffffffffffffffffffffffffffffffffffff\n      and\n      dup2\n      mstore\n      0x20\n      add\n      swap1\n      dup2\n      mstore\n      0x20\n      add\n      0x00\n      keccak256\n        /* \"staking/StakingAlg.sol\":774:810  rewards[_account] = earned(_account) */\n      dup2\n      swap1\n      sstore\n      pop\n        /* \"staking/StakingAlg.sol\":855:875  rewardPerTokenStored */\n      sload(0x04)\n        /* \"staking/StakingAlg.sol\":820:842  userRewardPerTokenPaid */\n      0x05\n        /* \"staking/StakingAlg.sol\":820:852  userRewardPerTokenPaid[_account] */\n      0x00\n        /* \"staking/StakingAlg.sol\":843:851  _account */\n      dup4\n        /* \"staking/StakingAlg.sol\":820:852  userRewardPerTokenPaid[_account] */\n      0xffffffffffffffffffffffffffffffffffffffff\n      and\n      0xffffffffffffffffffffffffffffffffffffffff\n      and\n      dup2\n      mstore\n      0x20\n      add\n      swap1\n      dup2\n      mstore\n      0x20\n      add\n      0x00\n      keccak256\n        /* \"staking/StakingAlg.sol\":820:875  userRewardPerTokenPaid[_account] = rewardPerTokenStored */\n      dup2\n      swap1\n      sstore\n      pop\n        /* \"staking/StakingAlg.sol\":1224:1231  _amount */\n      dup2\n        /* \"staking/StakingAlg.sol\":1200:1208  balances */\n      0x07\n        /* \"staking/StakingAlg.sol\":1200:1220  balances[msg.sender] */\n      0x00\n        /* \"staking/StakingAlg.sol\":1209:1219  msg.sender */\n      caller\n        /* \"staking/StakingAlg.sol\":1200:1220  balances[msg.sender] */\n      0xffffffffffffffffffffffffffffffffffffffff\n      and\n      0xffffffffffffffffffffffffffffffffffffffff\n      and\n      dup2\n      mstore\n      0x20\n      add\n      swap1\n      dup2\n      mstore\n      0x20\n      add\n      0x00\n      keccak256\n      sload\n        /* \"staking/StakingAlg.sol\":1200:1231  balances[msg.sender] >= _amount */\n      lt\n      iszero\n        /* \"staking/StakingAlg.sol\":1192:1248  require(balances[msg.sender] >= _amount,\"wrong amount!\") */\n      tag_72\n      jumpi\n      mload(0x40)\n      0x08c379a000000000000000000000000000000000000000000000000000000000\n      dup2\n      mstore\n      0x04\n      add\n      tag_73\n      swap1\n      tag_74\n      jump\t// in\n    tag_73:\n      mload(0x40)\n      dup1\n      swap2\n      sub\n      swap1\n      revert\n    tag_72:\n        /* \"staking/StakingAlg.sol\":1274:1281  _amount */\n      dup2\n        /* \"staking/StakingAlg.sol\":1258:1270  _totalSupply */\n      0x08\n      0x00\n        /* \"staking/StakingAlg.sol\":1258:1281  _totalSupply -= _amount */\n      dup3\n      dup3\n      sload\n      tag_75\n      swap2\n      swap1\n      tag_61\n      jump\t// in\n    tag_75:\n      swap3\n      pop\n      pop\n      dup2\n      swap1\n      sstore\n      pop\n        /* \"staking/StakingAlg.sol\":1315:1322  _amount */\n      dup2\n        /* \"staking/StakingAlg.sol\":1291:1299  balances */\n      0x07\n        /* \"staking/StakingAlg.sol\":1291:1311  balances[msg.sender] */\n      0x00\n        /* \"staking/StakingAlg.sol\":1300:1310  msg.sender */\n      caller\n        /* \"staking/StakingAlg.sol\":1291:1311  balances[msg.sender] */\n      0xffffffffffffffffffffffffffffffffffffffff\n      and\n      0xffffffffffffffffffffffffffffffffffffffff\n      and\n      dup2\n      mstore\n      0x20\n      add\n      swap1\n      dup2\n      mstore\n      0x20\n      add\n      0x00\n      keccak256\n      0x00\n        /* \"staking/StakingAlg.sol\":1291:1322  balances[msg.sender] -= _amount */\n      dup3\n      dup3\n      sload\n      tag_76\n      swap2\n      swap1\n      tag_61\n      jump\t// in\n    tag_76:\n      swap3\n      pop\n      pop\n      dup2\n      swap1\n      sstore\n      pop\n        /* \"staking/StakingAlg.sol\":1332:1344  stakingToken */\n      0x01\n      0x00\n      swap1\n      sload\n      swap1\n      0x0100\n      exp\n      swap1\n      div\n      0xffffffffffffffffffffffffffffffffffffffff\n      and\n        /* \"staking/StakingAlg.sol\":1332:1353  stakingToken.transfer */\n      0xffffffffffffffffffffffffffffffffffffffff\n      and\n      0xa9059cbb\n        /* \"staking/StakingAlg.sol\":1354:1364  msg.sender */\n      caller\n        /* \"staking/StakingAlg.sol\":1365:1372  _amount */\n      dup5\n        /* \"staking/StakingAlg.sol\":1332:1373  stakingToken.transfer(msg.sender,_amount) */\n      mload(0x40)\n      dup4\n      0xffffffff\n      and\n      0xe0\n      shl\n      dup2\n      mstore\n      0x04\n      add\n      tag_77\n      swap3\n      swap2\n      swap1\n      tag_78\n      jump\t// in\n    tag_77:\n      0x00\n      mload(0x40)\n      dup1\n      dup4\n      sub\n      dup2\n      0x00\n      dup8\n      dup1\n      extcodesize\n      iszero\n      dup1\n      iszero\n      tag_79\n      jumpi\n      0x00\n      dup1\n      revert\n    tag_79:\n      pop\n      gas\n      call\n      iszero\n      dup1\n      iszero\n      tag_81\n      jumpi\n      returndatasize\n      0x00\n      dup1\n      returndatacopy\n      revert(0x00, returndatasize)\n    tag_81:\n      pop\n      pop\n      pop\n      pop\n        /* \"staking/StakingAlg.sol\":1117:1380  function withdraw(uint _amount) external updateReward(msg.sender){... */\n      pop\n      pop\n      jump\t// out\n        /* \"staking/StakingAlg.sol\":1385:1573  function getReward() external updateReward(msg.sender) {... */\n    tag_31:\n        /* \"staking/StakingAlg.sol\":1428:1438  msg.sender */\n      caller\n        /* \"staking/StakingAlg.sol\":706:722  rewardPerToken() */\n      tag_83\n        /* \"staking/StakingAlg.sol\":706:720  rewardPerToken */\n      tag_50\n        /* \"staking/StakingAlg.sol\":706:722  rewardPerToken() */\n      jump\t// in\n    tag_83:\n        /* \"staking/StakingAlg.sol\":683:703  rewardPerTokenStored */\n      0x04\n        /* \"staking/StakingAlg.sol\":683:722  rewardPerTokenStored = rewardPerToken() */\n      dup2\n      swap1\n      sstore\n      pop\n        /* \"staking/StakingAlg.sol\":749:764  block.timestamp */\n      timestamp\n        /* \"staking/StakingAlg.sol\":732:746  lastUpdateTime */\n      0x03\n        /* \"staking/StakingAlg.sol\":732:764  lastUpdateTime = block.timestamp */\n      dup2\n      swap1\n      sstore\n      pop\n        /* \"staking/StakingAlg.sol\":794:810  earned(_account) */\n      tag_84\n        /* \"staking/StakingAlg.sol\":801:809  _account */\n      dup2\n        /* \"staking/StakingAlg.sol\":794:800  earned */\n      tag_19\n        /* \"staking/StakingAlg.sol\":794:810  earned(_account) */\n      jump\t// in\n    tag_84:\n        /* \"staking/StakingAlg.sol\":774:781  rewards */\n      0x06\n        /* \"staking/StakingAlg.sol\":774:791  rewards[_account] */\n      0x00\n        /* \"staking/StakingAlg.sol\":782:790  _account */\n      dup4\n        /* \"staking/StakingAlg.sol\":774:791  rewards[_account] */\n      0xffffffffffffffffffffffffffffffffffffffff\n      and\n      0xffffffffffffffffffffffffffffffffffffffff\n      and\n      dup2\n      mstore\n      0x20\n      add\n      swap1\n      dup2\n      mstore\n      0x20\n      add\n      0x00\n      keccak256\n        /* \"staking/StakingAlg.sol\":774:810  rewards[_account] = earned(_account) */\n      dup2\n      swap1\n      sstore\n      pop\n        /* \"staking/StakingAlg.sol\":855:875  rewardPerTokenStored */\n      sload(0x04)\n        /* \"staking/StakingAlg.sol\":820:842  userRewardPerTokenPaid */\n      0x05\n        /* \"staking/StakingAlg.sol\":820:852  userRewardPerTokenPaid[_account] */\n      0x00\n        /* \"staking/StakingAlg.sol\":843:851  _account */\n      dup4\n        /* \"staking/StakingAlg.sol\":820:852  userRewardPerTokenPaid[_account] */\n      0xffffffffffffffffffffffffffffffffffffffff\n      and\n      0xffffffffffffffffffffffffffffffffffffffff\n      and\n      dup2\n      mstore\n      0x20\n      add\n      swap1\n      dup2\n      mstore\n      0x20\n      add\n      0x00\n      keccak256\n        /* \"staking/StakingAlg.sol\":820:875  userRewardPerTokenPaid[_account] = rewardPerTokenStored */\n      dup2\n      swap1\n      sstore\n      pop\n        /* \"staking/StakingAlg.sol\":1450:1461  uint reward */\n      0x00\n        /* \"staking/StakingAlg.sol\":1464:1471  rewards */\n      0x06\n        /* \"staking/StakingAlg.sol\":1464:1483  rewards[msg.sender] */\n      0x00\n        /* \"staking/StakingAlg.sol\":1472:1482  msg.sender */\n      caller\n        /* \"staking/StakingAlg.sol\":1464:1483  rewards[msg.sender] */\n      0xffffffffffffffffffffffffffffffffffffffff\n      and\n      0xffffffffffffffffffffffffffffffffffffffff\n      and\n      dup2\n      mstore\n      0x20\n      add\n      swap1\n      dup2\n      mstore\n      0x20\n      add\n      0x00\n      keccak256\n      sload\n        /* \"staking/StakingAlg.sol\":1450:1483  uint reward = rewards[msg.sender] */\n      swap1\n      pop\n        /* \"staking/StakingAlg.sol\":1515:1516  0 */\n      0x00\n        /* \"staking/StakingAlg.sol\":1493:1500  rewards */\n      0x06\n        /* \"staking/StakingAlg.sol\":1493:1512  rewards[msg.sender] */\n      0x00\n        /* \"staking/StakingAlg.sol\":1501:1511  msg.sender */\n      caller\n        /* \"staking/StakingAlg.sol\":1493:1512  rewards[msg.sender] */\n      0xffffffffffffffffffffffffffffffffffffffff\n      and\n      0xffffffffffffffffffffffffffffffffffffffff\n      and\n      dup2\n      mstore\n      0x20\n      add\n      swap1\n      dup2\n      mstore\n      0x20\n      add\n      0x00\n      keccak256\n        /* \"staking/StakingAlg.sol\":1493:1516  rewards[msg.sender] = 0 */\n      dup2\n      swap1\n      sstore\n      pop\n        /* \"staking/StakingAlg.sol\":1526:1538  rewardsToken */\n      0x00\n      dup1\n      sload\n      swap1\n      0x0100\n      exp\n      swap1\n      div\n      0xffffffffffffffffffffffffffffffffffffffff\n      and\n        /* \"staking/StakingAlg.sol\":1526:1547  rewardsToken.transfer */\n      0xffffffffffffffffffffffffffffffffffffffff\n      and\n      0xa9059cbb\n        /* \"staking/StakingAlg.sol\":1548:1558  msg.sender */\n      caller\n        /* \"staking/StakingAlg.sol\":1559:1565  reward */\n      dup4\n        /* \"staking/StakingAlg.sol\":1526:1566  rewardsToken.transfer(msg.sender,reward) */\n      mload(0x40)\n      dup4\n      0xffffffff\n      and\n      0xe0\n      shl\n      dup2\n      mstore\n      0x04\n      add\n      tag_86\n      swap3\n      swap2\n      swap1\n      tag_78\n      jump\t// in\n    tag_86:\n      0x00\n      mload(0x40)\n      dup1\n      dup4\n      sub\n      dup2\n      0x00\n      dup8\n      dup1\n      extcodesize\n      iszero\n      dup1\n      iszero\n      tag_87\n      jumpi\n      0x00\n      dup1\n      revert\n    tag_87:\n      pop\n      gas\n      call\n      iszero\n      dup1\n      iszero\n      tag_89\n      jumpi\n      returndatasize\n      0x00\n      dup1\n      returndatacopy\n      revert(0x00, returndatasize)\n    tag_89:\n      pop\n      pop\n      pop\n      pop\n        /* \"staking/StakingAlg.sol\":1440:1573  {... */\n      pop\n        /* \"staking/StakingAlg.sol\":1385:1573  function getReward() external updateReward(msg.sender) {... */\n      pop\n      jump\t// out\n        /* \"staking/StakingAlg.sol\":150:176  IERC20 public stakingToken */\n    tag_33:\n      0x01\n      0x00\n      swap1\n      sload\n      swap1\n      0x0100\n      exp\n      swap1\n      div\n      0xffffffffffffffffffffffffffffffffffffffff\n      and\n      dup2\n      jump\t// out\n        /* \"staking/StakingAlg.sol\":183:210  uint public rewardRate = 10 */\n    tag_37:\n      sload(0x02)\n      dup2\n      jump\t// out\n        /* \"staking/StakingAlg.sol\":287:341  mapping(address => uint) public userRewardPerTokenPaid */\n    tag_41:\n      mstore(0x20, 0x05)\n      dup1\n      0x00\n      mstore\n      keccak256(0x00, 0x40)\n      0x00\n      swap2\n      pop\n      swap1\n      pop\n      sload\n      dup2\n      jump\t// out\n        /* \"staking/StakingAlg.sol\":899:1112  function stake(uint _amount) external updateReward(msg.sender) {... */\n    tag_45:\n        /* \"staking/StakingAlg.sol\":950:960  msg.sender */\n      caller\n        /* \"staking/StakingAlg.sol\":706:722  rewardPerToken() */\n      tag_91\n        /* \"staking/StakingAlg.sol\":706:720  rewardPerToken */\n      tag_50\n        /* \"staking/StakingAlg.sol\":706:722  rewardPerToken() */\n      jump\t// in\n    tag_91:\n        /* \"staking/StakingAlg.sol\":683:703  rewardPerTokenStored */\n      0x04\n        /* \"staking/StakingAlg.sol\":683:722  rewardPerTokenStored = rewardPerToken() */\n      dup2\n      swap1\n      sstore\n      pop\n        /* \"staking/StakingAlg.sol\":749:764  block.timestamp */\n      timestamp\n        /* \"staking/StakingAlg.sol\":732:746  lastUpdateTime */\n      0x03\n        /* \"staking/StakingAlg.sol\":732:764  lastUpdateTime = block.timestamp */\n      dup2\n      swap1\n      sstore\n      pop\n        /* \"staking/StakingAlg.sol\":794:810  earned(_account) */\n      tag_92\n        /* \"staking/StakingAlg.sol\":801:809  _account */\n      dup2\n        /* \"staking/StakingAlg.sol\":794:800  earned */\n      tag_19\n        /* \"staking/StakingAlg.sol\":794:810  earned(_account) */\n      jump\t// in\n    tag_92:\n        /* \"staking/StakingAlg.sol\":774:781  rewards */\n      0x06\n        /* \"staking/StakingAlg.sol\":774:791  rewards[_account] */\n      0x00\n        /* \"staking/StakingAlg.sol\":782:790  _account */\n      dup4\n        /* \"staking/StakingAlg.sol\":774:791  rewards[_account] */\n      0xffffffffffffffffffffffffffffffffffffffff\n      and\n      0xffffffffffffffffffffffffffffffffffffffff\n      and\n      dup2\n      mstore\n      0x20\n      add\n      swap1\n      dup2\n      mstore\n      0x20\n      add\n      0x00\n      keccak256\n        /* \"staking/StakingAlg.sol\":774:810  rewards[_account] = earned(_account) */\n      dup2\n      swap1\n      sstore\n      pop\n        /* \"staking/StakingAlg.sol\":855:875  rewardPerTokenStored */\n      sload(0x04)\n        /* \"staking/StakingAlg.sol\":820:842  userRewardPerTokenPaid */\n      0x05\n        /* \"staking/StakingAlg.sol\":820:852  userRewardPerTokenPaid[_account] */\n      0x00\n        /* \"staking/StakingAlg.sol\":843:851  _account */\n      dup4\n        /* \"staking/StakingAlg.sol\":820:852  userRewardPerTokenPaid[_account] */\n      0xffffffffffffffffffffffffffffffffffffffff\n      and\n      0xffffffffffffffffffffffffffffffffffffffff\n      and\n      dup2\n      mstore\n      0x20\n      add\n      swap1\n      dup2\n      mstore\n      0x20\n      add\n      0x00\n      keccak256\n        /* \"staking/StakingAlg.sol\":820:875  userRewardPerTokenPaid[_account] = rewardPerTokenStored */\n      dup2\n      swap1\n      sstore\n      pop\n        /* \"staking/StakingAlg.sol\":988:995  _amount */\n      dup2\n        /* \"staking/StakingAlg.sol\":972:984  _totalSupply */\n      0x08\n      0x00\n        /* \"staking/StakingAlg.sol\":972:995  _totalSupply += _amount */\n      dup3\n      dup3\n      sload\n      tag_94\n      swap2\n      swap1\n      tag_67\n      jump\t// in\n    tag_94:\n      swap3\n      pop\n      pop\n      dup2\n      swap1\n      sstore\n      pop\n        /* \"staking/StakingAlg.sol\":1029:1036  _amount */\n      dup2\n        /* \"staking/StakingAlg.sol\":1005:1013  balances */\n      0x07\n        /* \"staking/StakingAlg.sol\":1005:1025  balances[msg.sender] */\n      0x00\n        /* \"staking/StakingAlg.sol\":1014:1024  msg.sender */\n      caller\n        /* \"staking/StakingAlg.sol\":1005:1025  balances[msg.sender] */\n      0xffffffffffffffffffffffffffffffffffffffff\n      and\n      0xffffffffffffffffffffffffffffffffffffffff\n      and\n      dup2\n      mstore\n      0x20\n      add\n      swap1\n      dup2\n      mstore\n      0x20\n      add\n      0x00\n      keccak256\n      0x00\n        /* \"staking/StakingAlg.sol\":1005:1036  balances[msg.sender] += _amount */\n      dup3\n      dup3\n      sload\n      tag_95\n      swap2\n      swap1\n      tag_67\n      jump\t// in\n    tag_95:\n      swap3\n      pop\n      pop\n      dup2\n      swap1\n      sstore\n      pop\n        /* \"staking/StakingAlg.sol\":1046:1058  stakingToken */\n      0x01\n      0x00\n      swap1\n      sload\n      swap1\n      0x0100\n      exp\n      swap1\n      div\n      0xffffffffffffffffffffffffffffffffffffffff\n      and\n        /* \"staking/StakingAlg.sol\":1046:1071  stakingToken.transferFrom */\n      0xffffffffffffffffffffffffffffffffffffffff\n      and\n      0x23b872dd\n        /* \"staking/StakingAlg.sol\":1072:1082  msg.sender */\n      caller\n        /* \"staking/StakingAlg.sol\":1091:1095  this */\n      address\n        /* \"staking/StakingAlg.sol\":1097:1104  _amount */\n      dup6\n        /* \"staking/StakingAlg.sol\":1046:1105  stakingToken.transferFrom(msg.sender,address(this),_amount) */\n      mload(0x40)\n      dup5\n      0xffffffff\n      and\n      0xe0\n      shl\n      dup2\n      mstore\n      0x04\n      add\n      tag_96\n      swap4\n      swap3\n      swap2\n      swap1\n      tag_97\n      jump\t// in\n    tag_96:\n      0x00\n      mload(0x40)\n      dup1\n      dup4\n      sub\n      dup2\n      0x00\n      dup8\n      dup1\n      extcodesize\n      iszero\n      dup1\n      iszero\n      tag_98\n      jumpi\n      0x00\n      dup1\n      revert\n    tag_98:\n      pop\n      gas\n      call\n      iszero\n      dup1\n      iszero\n      tag_100\n      jumpi\n      returndatasize\n      0x00\n      dup1\n      returndatacopy\n      revert(0x00, returndatasize)\n    tag_100:\n      pop\n      pop\n      pop\n      pop\n        /* \"staking/StakingAlg.sol\":899:1112  function stake(uint _amount) external updateReward(msg.sender) {... */\n      pop\n      pop\n      jump\t// out\n        /* \"staking/StakingAlg.sol\":216:242  uint public lastUpdateTime */\n    tag_47:\n      sload(0x03)\n      dup2\n      jump\t// out\n        /* \"staking/StakingAlg.sol\":1578:1828  function rewardPerToken() public view returns(uint) {... */\n    tag_50:\n        /* \"staking/StakingAlg.sol\":1624:1628  uint */\n      0x00\n        /* \"staking/StakingAlg.sol\":1660:1661  0 */\n      dup1\n        /* \"staking/StakingAlg.sol\":1644:1656  _totalSupply */\n      sload(0x08)\n        /* \"staking/StakingAlg.sol\":1644:1661  _totalSupply == 0 */\n      sub\n        /* \"staking/StakingAlg.sol\":1640:1696  if (_totalSupply == 0) {... */\n      tag_102\n      jumpi\n        /* \"staking/StakingAlg.sol\":1684:1685  0 */\n      0x00\n        /* \"staking/StakingAlg.sol\":1677:1685  return 0 */\n      swap1\n      pop\n      jump(tag_101)\n        /* \"staking/StakingAlg.sol\":1640:1696  if (_totalSupply == 0) {... */\n    tag_102:\n        /* \"staking/StakingAlg.sol\":1809:1821  _totalSupply */\n      sload(0x08)\n        /* \"staking/StakingAlg.sol\":1802:1806  1e18 */\n      0x0de0b6b3a7640000\n        /* \"staking/StakingAlg.sol\":1775:1789  lastUpdateTime */\n      sload(0x03)\n        /* \"staking/StakingAlg.sol\":1757:1772  block.timestamp */\n      timestamp\n        /* \"staking/StakingAlg.sol\":1757:1789  block.timestamp - lastUpdateTime */\n      tag_103\n      swap2\n      swap1\n      tag_61\n      jump\t// in\n    tag_103:\n        /* \"staking/StakingAlg.sol\":1743:1753  rewardRate */\n      sload(0x02)\n        /* \"staking/StakingAlg.sol\":1743:1790  rewardRate * (block.timestamp - lastUpdateTime) */\n      tag_104\n      swap2\n      swap1\n      tag_63\n      jump\t// in\n    tag_104:\n        /* \"staking/StakingAlg.sol\":1742:1806  (rewardRate * (block.timestamp - lastUpdateTime)) ... */\n      tag_105\n      swap2\n      swap1\n      tag_63\n      jump\t// in\n    tag_105:\n        /* \"staking/StakingAlg.sol\":1742:1821  (rewardRate * (block.timestamp - lastUpdateTime)) ... */\n      tag_106\n      swap2\n      swap1\n      tag_65\n      jump\t// in\n    tag_106:\n        /* \"staking/StakingAlg.sol\":1712:1732  rewardPerTokenStored */\n      sload(0x04)\n        /* \"staking/StakingAlg.sol\":1712:1821  rewardPerTokenStored +... */\n      tag_107\n      swap2\n      swap1\n      tag_67\n      jump\t// in\n    tag_107:\n        /* \"staking/StakingAlg.sol\":1704:1821  return  rewardPerTokenStored +... */\n      swap1\n      pop\n        /* \"staking/StakingAlg.sol\":1578:1828  function rewardPerToken() public view returns(uint) {... */\n    tag_101:\n      swap1\n      jump\t// out\n        /* \"staking/StakingAlg.sol\":118:144  IERC20 public rewardsToken */\n    tag_53:\n      0x00\n      dup1\n      sload\n      swap1\n      0x0100\n      exp\n      swap1\n      div\n      0xffffffffffffffffffffffffffffffffffffffff\n      and\n      dup2\n      jump\t// out\n        /* \"staking/StakingAlg.sol\":248:280  uint public rewardPerTokenStored */\n    tag_56:\n      sload(0x04)\n      dup2\n      jump\t// out\n        /* \"#utility.yul\":88:205   */\n    tag_109:\n        /* \"#utility.yul\":197:198   */\n      0x00\n        /* \"#utility.yul\":194:195   */\n      dup1\n        /* \"#utility.yul\":187:199   */\n      revert\n        /* \"#utility.yul\":334:460   */\n    tag_111:\n        /* \"#utility.yul\":371:378   */\n      0x00\n        /* \"#utility.yul\":411:453   */\n      0xffffffffffffffffffffffffffffffffffffffff\n        /* \"#utility.yul\":404:409   */\n      dup3\n        /* \"#utility.yul\":400:454   */\n      and\n        /* \"#utility.yul\":389:454   */\n      swap1\n      pop\n        /* \"#utility.yul\":334:460   */\n      swap2\n      swap1\n      pop\n      jump\t// out\n        /* \"#utility.yul\":466:562   */\n    tag_112:\n        /* \"#utility.yul\":503:510   */\n      0x00\n        /* \"#utility.yul\":532:556   */\n      tag_136\n        /* \"#utility.yul\":550:555   */\n      dup3\n        /* \"#utility.yul\":532:556   */\n      tag_111\n      jump\t// in\n    tag_136:\n        /* \"#utility.yul\":521:556   */\n      swap1\n      pop\n        /* \"#utility.yul\":466:562   */\n      swap2\n      swap1\n      pop\n      jump\t// out\n        /* \"#utility.yul\":568:690   */\n    tag_113:\n        /* \"#utility.yul\":641:665   */\n      tag_138\n        /* \"#utility.yul\":659:664   */\n      dup2\n        /* \"#utility.yul\":641:665   */\n      tag_112\n      jump\t// in\n    tag_138:\n        /* \"#utility.yul\":634:639   */\n      dup2\n        /* \"#utility.yul\":631:666   */\n      eq\n        /* \"#utility.yul\":621:684   */\n      tag_139\n      jumpi\n        /* \"#utility.yul\":680:681   */\n      0x00\n        /* \"#utility.yul\":677:678   */\n      dup1\n        /* \"#utility.yul\":670:682   */\n      revert\n        /* \"#utility.yul\":621:684   */\n    tag_139:\n        /* \"#utility.yul\":568:690   */\n      pop\n      jump\t// out\n        /* \"#utility.yul\":696:835   */\n    tag_114:\n        /* \"#utility.yul\":742:747   */\n      0x00\n        /* \"#utility.yul\":780:786   */\n      dup2\n        /* \"#utility.yul\":767:787   */\n      calldataload\n        /* \"#utility.yul\":758:787   */\n      swap1\n      pop\n        /* \"#utility.yul\":796:829   */\n      tag_141\n        /* \"#utility.yul\":823:828   */\n      dup2\n        /* \"#utility.yul\":796:829   */\n      tag_113\n      jump\t// in\n    tag_141:\n        /* \"#utility.yul\":696:835   */\n      swap3\n      swap2\n      pop\n      pop\n      jump\t// out\n        /* \"#utility.yul\":841:1170   */\n    tag_18:\n        /* \"#utility.yul\":900:906   */\n      0x00\n        /* \"#utility.yul\":949:951   */\n      0x20\n        /* \"#utility.yul\":937:946   */\n      dup3\n        /* \"#utility.yul\":928:935   */\n      dup5\n        /* \"#utility.yul\":924:947   */\n      sub\n        /* \"#utility.yul\":920:952   */\n      slt\n        /* \"#utility.yul\":917:1036   */\n      iszero\n      tag_143\n      jumpi\n        /* \"#utility.yul\":955:1034   */\n      tag_144\n      tag_109\n      jump\t// in\n    tag_144:\n        /* \"#utility.yul\":917:1036   */\n    tag_143:\n        /* \"#utility.yul\":1075:1076   */\n      0x00\n        /* \"#utility.yul\":1100:1153   */\n      tag_145\n        /* \"#utility.yul\":1145:1152   */\n      dup5\n        /* \"#utility.yul\":1136:1142   */\n      dup3\n        /* \"#utility.yul\":1125:1134   */\n      dup6\n        /* \"#utility.yul\":1121:1143   */\n      add\n        /* \"#utility.yul\":1100:1153   */\n      tag_114\n      jump\t// in\n    tag_145:\n        /* \"#utility.yul\":1090:1153   */\n      swap2\n      pop\n        /* \"#utility.yul\":1046:1163   */\n      pop\n        /* \"#utility.yul\":841:1170   */\n      swap3\n      swap2\n      pop\n      pop\n      jump\t// out\n        /* \"#utility.yul\":1176:1253   */\n    tag_115:\n        /* \"#utility.yul\":1213:1220   */\n      0x00\n        /* \"#utility.yul\":1242:1247   */\n      dup2\n        /* \"#utility.yul\":1231:1247   */\n      swap1\n      pop\n        /* \"#utility.yul\":1176:1253   */\n      swap2\n      swap1\n      pop\n      jump\t// out\n        /* \"#utility.yul\":1259:1377   */\n    tag_116:\n        /* \"#utility.yul\":1346:1370   */\n      tag_148\n        /* \"#utility.yul\":1364:1369   */\n      dup2\n        /* \"#utility.yul\":1346:1370   */\n      tag_115\n      jump\t// in\n    tag_148:\n        /* \"#utility.yul\":1341:1344   */\n      dup3\n        /* \"#utility.yul\":1334:1371   */\n      mstore\n        /* \"#utility.yul\":1259:1377   */\n      pop\n      pop\n      jump\t// out\n        /* \"#utility.yul\":1383:1605   */\n    tag_21:\n        /* \"#utility.yul\":1476:1480   */\n      0x00\n        /* \"#utility.yul\":1514:1516   */\n      0x20\n        /* \"#utility.yul\":1503:1512   */\n      dup3\n        /* \"#utility.yul\":1499:1517   */\n      add\n        /* \"#utility.yul\":1491:1517   */\n      swap1\n      pop\n        /* \"#utility.yul\":1527:1598   */\n      tag_150\n        /* \"#utility.yul\":1595:1596   */\n      0x00\n        /* \"#utility.yul\":1584:1593   */\n      dup4\n        /* \"#utility.yul\":1580:1597   */\n      add\n        /* \"#utility.yul\":1571:1577   */\n      dup5\n        /* \"#utility.yul\":1527:1598   */\n      tag_116\n      jump\t// in\n    tag_150:\n        /* \"#utility.yul\":1383:1605   */\n      swap3\n      swap2\n      pop\n      pop\n      jump\t// out\n        /* \"#utility.yul\":1611:1733   */\n    tag_117:\n        /* \"#utility.yul\":1684:1708   */\n      tag_152\n        /* \"#utility.yul\":1702:1707   */\n      dup2\n        /* \"#utility.yul\":1684:1708   */\n      tag_115\n      jump\t// in\n    tag_152:\n        /* \"#utility.yul\":1677:1682   */\n      dup2\n        /* \"#utility.yul\":1674:1709   */\n      eq\n        /* \"#utility.yul\":1664:1727   */\n      tag_153\n      jumpi\n        /* \"#utility.yul\":1723:1724   */\n      0x00\n        /* \"#utility.yul\":1720:1721   */\n      dup1\n        /* \"#utility.yul\":1713:1725   */\n      revert\n        /* \"#utility.yul\":1664:1727   */\n    tag_153:\n        /* \"#utility.yul\":1611:1733   */\n      pop\n      jump\t// out\n        /* \"#utility.yul\":1739:1878   */\n    tag_118:\n        /* \"#utility.yul\":1785:1790   */\n      0x00\n        /* \"#utility.yul\":1823:1829   */\n      dup2\n        /* \"#utility.yul\":1810:1830   */\n      calldataload\n        /* \"#utility.yul\":1801:1830   */\n      swap1\n      pop\n        /* \"#utility.yul\":1839:1872   */\n      tag_155\n        /* \"#utility.yul\":1866:1871   */\n      dup2\n        /* \"#utility.yul\":1839:1872   */\n      tag_117\n      jump\t// in\n    tag_155:\n        /* \"#utility.yul\":1739:1878   */\n      swap3\n      swap2\n      pop\n      pop\n      jump\t// out\n        /* \"#utility.yul\":1884:2213   */\n    tag_28:\n        /* \"#utility.yul\":1943:1949   */\n      0x00\n        /* \"#utility.yul\":1992:1994   */\n      0x20\n        /* \"#utility.yul\":1980:1989   */\n      dup3\n        /* \"#utility.yul\":1971:1978   */\n      dup5\n        /* \"#utility.yul\":1967:1990   */\n      sub\n        /* \"#utility.yul\":1963:1995   */\n      slt\n        /* \"#utility.yul\":1960:2079   */\n      iszero\n      tag_157\n      jumpi\n        /* \"#utility.yul\":1998:2077   */\n      tag_158\n      tag_109\n      jump\t// in\n    tag_158:\n        /* \"#utility.yul\":1960:2079   */\n    tag_157:\n        /* \"#utility.yul\":2118:2119   */\n      0x00\n        /* \"#utility.yul\":2143:2196   */\n      tag_159\n        /* \"#utility.yul\":2188:2195   */\n      dup5\n        /* \"#utility.yul\":2179:2185   */\n      dup3\n        /* \"#utility.yul\":2168:2177   */\n      dup6\n        /* \"#utility.yul\":2164:2186   */\n      add\n        /* \"#utility.yul\":2143:2196   */\n      tag_118\n      jump\t// in\n    tag_159:\n        /* \"#utility.yul\":2133:2196   */\n      swap2\n      pop\n        /* \"#utility.yul\":2089:2206   */\n      pop\n        /* \"#utility.yul\":1884:2213   */\n      swap3\n      swap2\n      pop\n      pop\n      jump\t// out\n        /* \"#utility.yul\":2219:2279   */\n    tag_119:\n        /* \"#utility.yul\":2247:2250   */\n      0x00\n        /* \"#utility.yul\":2268:2273   */\n      dup2\n        /* \"#utility.yul\":2261:2273   */\n      swap1\n      pop\n        /* \"#utility.yul\":2219:2279   */\n      swap2\n      swap1\n      pop\n      jump\t// out\n        /* \"#utility.yul\":2285:2427   */\n    tag_120:\n        /* \"#utility.yul\":2335:2344   */\n      0x00\n        /* \"#utility.yul\":2368:2421   */\n      tag_162\n        /* \"#utility.yul\":2386:2420   */\n      tag_163\n        /* \"#utility.yul\":2395:2419   */\n      tag_164\n        /* \"#utility.yul\":2413:2418   */\n      dup5\n        /* \"#utility.yul\":2395:2419   */\n      tag_111\n      jump\t// in\n    tag_164:\n        /* \"#utility.yul\":2386:2420   */\n      tag_119\n      jump\t// in\n    tag_163:\n        /* \"#utility.yul\":2368:2421   */\n      tag_111\n      jump\t// in\n    tag_162:\n        /* \"#utility.yul\":2355:2421   */\n      swap1\n      pop\n        /* \"#utility.yul\":2285:2427   */\n      swap2\n      swap1\n      pop\n      jump\t// out\n        /* \"#utility.yul\":2433:2559   */\n    tag_121:\n        /* \"#utility.yul\":2483:2492   */\n      0x00\n        /* \"#utility.yul\":2516:2553   */\n      tag_166\n        /* \"#utility.yul\":2547:2552   */\n      dup3\n        /* \"#utility.yul\":2516:2553   */\n      tag_120\n      jump\t// in\n    tag_166:\n        /* \"#utility.yul\":2503:2553   */\n      swap1\n      pop\n        /* \"#utility.yul\":2433:2559   */\n      swap2\n      swap1\n      pop\n      jump\t// out\n        /* \"#utility.yul\":2565:2704   */\n    tag_122:\n        /* \"#utility.yul\":2628:2637   */\n      0x00\n        /* \"#utility.yul\":2661:2698   */\n      tag_168\n        /* \"#utility.yul\":2692:2697   */\n      dup3\n        /* \"#utility.yul\":2661:2698   */\n      tag_121\n      jump\t// in\n    tag_168:\n        /* \"#utility.yul\":2648:2698   */\n      swap1\n      pop\n        /* \"#utility.yul\":2565:2704   */\n      swap2\n      swap1\n      pop\n      jump\t// out\n        /* \"#utility.yul\":2710:2867   */\n    tag_123:\n        /* \"#utility.yul\":2810:2860   */\n      tag_170\n        /* \"#utility.yul\":2854:2859   */\n      dup2\n        /* \"#utility.yul\":2810:2860   */\n      tag_122\n      jump\t// in\n    tag_170:\n        /* \"#utility.yul\":2805:2808   */\n      dup3\n        /* \"#utility.yul\":2798:2861   */\n      mstore\n        /* \"#utility.yul\":2710:2867   */\n      pop\n      pop\n      jump\t// out\n        /* \"#utility.yul\":2873:3121   */\n    tag_35:\n        /* \"#utility.yul\":2979:2983   */\n      0x00\n        /* \"#utility.yul\":3017:3019   */\n      0x20\n        /* \"#utility.yul\":3006:3015   */\n      dup3\n        /* \"#utility.yul\":3002:3020   */\n      add\n        /* \"#utility.yul\":2994:3020   */\n      swap1\n      pop\n        /* \"#utility.yul\":3030:3114   */\n      tag_172\n        /* \"#utility.yul\":3111:3112   */\n      0x00\n        /* \"#utility.yul\":3100:3109   */\n      dup4\n        /* \"#utility.yul\":3096:3113   */\n      add\n        /* \"#utility.yul\":3087:3093   */\n      dup5\n        /* \"#utility.yul\":3030:3114   */\n      tag_123\n      jump\t// in\n    tag_172:\n        /* \"#utility.yul\":2873:3121   */\n      swap3\n      swap2\n      pop\n      pop\n      jump\t// out\n        /* \"#utility.yul\":3127:3307   */\n    tag_124:\n        /* \"#utility.yul\":3175:3252   */\n      0x4e487b7100000000000000000000000000000000000000000000000000000000\n        /* \"#utility.yul\":3172:3173   */\n      0x00\n        /* \"#utility.yul\":3165:3253   */\n      mstore\n        /* \"#utility.yul\":3272:3276   */\n      0x11\n        /* \"#utility.yul\":3269:3270   */\n      0x04\n        /* \"#utility.yul\":3262:3277   */\n      mstore\n        /* \"#utility.yul\":3296:3300   */\n      0x24\n        /* \"#utility.yul\":3293:3294   */\n      0x00\n        /* \"#utility.yul\":3286:3301   */\n      revert\n        /* \"#utility.yul\":3313:3507   */\n    tag_61:\n        /* \"#utility.yul\":3353:3357   */\n      0x00\n        /* \"#utility.yul\":3373:3393   */\n      tag_175\n        /* \"#utility.yul\":3391:3392   */\n      dup3\n        /* \"#utility.yul\":3373:3393   */\n      tag_115\n      jump\t// in\n    tag_175:\n        /* \"#utility.yul\":3368:3393   */\n      swap2\n      pop\n        /* \"#utility.yul\":3407:3427   */\n      tag_176\n        /* \"#utility.yul\":3425:3426   */\n      dup4\n        /* \"#utility.yul\":3407:3427   */\n      tag_115\n      jump\t// in\n    tag_176:\n        /* \"#utility.yul\":3402:3427   */\n      swap3\n      pop\n        /* \"#utility.yul\":3451:3452   */\n      dup3\n        /* \"#utility.yul\":3448:3449   */\n      dup3\n        /* \"#utility.yul\":3444:3453   */\n      sub\n        /* \"#utility.yul\":3436:3453   */\n      swap1\n      pop\n        /* \"#utility.yul\":3475:3476   */\n      dup2\n        /* \"#utility.yul\":3469:3473   */\n      dup2\n        /* \"#utility.yul\":3466:3477   */\n      gt\n        /* \"#utility.yul\":3463:3500   */\n      iszero\n      tag_177\n      jumpi\n        /* \"#utility.yul\":3480:3498   */\n      tag_178\n      tag_124\n      jump\t// in\n    tag_178:\n        /* \"#utility.yul\":3463:3500   */\n    tag_177:\n        /* \"#utility.yul\":3313:3507   */\n      swap3\n      swap2\n      pop\n      pop\n      jump\t// out\n        /* \"#utility.yul\":3513:3923   */\n    tag_63:\n        /* \"#utility.yul\":3553:3560   */\n      0x00\n        /* \"#utility.yul\":3576:3596   */\n      tag_180\n        /* \"#utility.yul\":3594:3595   */\n      dup3\n        /* \"#utility.yul\":3576:3596   */\n      tag_115\n      jump\t// in\n    tag_180:\n        /* \"#utility.yul\":3571:3596   */\n      swap2\n      pop\n        /* \"#utility.yul\":3610:3630   */\n      tag_181\n        /* \"#utility.yul\":3628:3629   */\n      dup4\n        /* \"#utility.yul\":3610:3630   */\n      tag_115\n      jump\t// in\n    tag_181:\n        /* \"#utility.yul\":3605:3630   */\n      swap3\n      pop\n        /* \"#utility.yul\":3665:3666   */\n      dup3\n        /* \"#utility.yul\":3662:3663   */\n      dup3\n        /* \"#utility.yul\":3658:3667   */\n      mul\n        /* \"#utility.yul\":3687:3717   */\n      tag_182\n        /* \"#utility.yul\":3705:3716   */\n      dup2\n        /* \"#utility.yul\":3687:3717   */\n      tag_115\n      jump\t// in\n    tag_182:\n        /* \"#utility.yul\":3676:3717   */\n      swap2\n      pop\n        /* \"#utility.yul\":3866:3867   */\n      dup3\n        /* \"#utility.yul\":3857:3864   */\n      dup3\n        /* \"#utility.yul\":3853:3868   */\n      div\n        /* \"#utility.yul\":3850:3851   */\n      dup5\n        /* \"#utility.yul\":3847:3869   */\n      eq\n        /* \"#utility.yul\":3827:3828   */\n      dup4\n        /* \"#utility.yul\":3820:3829   */\n      iszero\n        /* \"#utility.yul\":3800:3883   */\n      or\n        /* \"#utility.yul\":3777:3916   */\n      tag_183\n      jumpi\n        /* \"#utility.yul\":3896:3914   */\n      tag_184\n      tag_124\n      jump\t// in\n    tag_184:\n        /* \"#utility.yul\":3777:3916   */\n    tag_183:\n        /* \"#utility.yul\":3561:3923   */\n      pop\n        /* \"#utility.yul\":3513:3923   */\n      swap3\n      swap2\n      pop\n      pop\n      jump\t// out\n        /* \"#utility.yul\":3929:4109   */\n    tag_125:\n        /* \"#utility.yul\":3977:4054   */\n      0x4e487b7100000000000000000000000000000000000000000000000000000000\n        /* \"#utility.yul\":3974:3975   */\n      0x00\n        /* \"#utility.yul\":3967:4055   */\n      mstore\n        /* \"#utility.yul\":4074:4078   */\n      0x12\n        /* \"#utility.yul\":4071:4072   */\n      0x04\n        /* \"#utility.yul\":4064:4079   */\n      mstore\n        /* \"#utility.yul\":4098:4102   */\n      0x24\n        /* \"#utility.yul\":4095:4096   */\n      0x00\n        /* \"#utility.yul\":4088:4103   */\n      revert\n        /* \"#utility.yul\":4115:4300   */\n    tag_65:\n        /* \"#utility.yul\":4155:4156   */\n      0x00\n        /* \"#utility.yul\":4172:4192   */\n      tag_187\n        /* \"#utility.yul\":4190:4191   */\n      dup3\n        /* \"#utility.yul\":4172:4192   */\n      tag_115\n      jump\t// in\n    tag_187:\n        /* \"#utility.yul\":4167:4192   */\n      swap2\n      pop\n        /* \"#utility.yul\":4206:4226   */\n      tag_188\n        /* \"#utility.yul\":4224:4225   */\n      dup4\n        /* \"#utility.yul\":4206:4226   */\n      tag_115\n      jump\t// in\n    tag_188:\n        /* \"#utility.yul\":4201:4226   */\n      swap3\n      pop\n        /* \"#utility.yul\":4245:4246   */\n      dup3\n        /* \"#utility.yul\":4235:4270   */\n      tag_189\n      jumpi\n        /* \"#utility.yul\":4250:4268   */\n      tag_190\n      tag_125\n      jump\t// in\n    tag_190:\n        /* \"#utility.yul\":4235:4270   */\n    tag_189:\n        /* \"#utility.yul\":4292:4293   */\n      dup3\n        /* \"#utility.yul\":4289:4290   */\n      dup3\n        /* \"#utility.yul\":4285:4294   */\n      div\n        /* \"#utility.yul\":4280:4294   */\n      swap1\n      pop\n        /* \"#utility.yul\":4115:4300   */\n      swap3\n      swap2\n      pop\n      pop\n      jump\t// out\n        /* \"#utility.yul\":4306:4497   */\n    tag_67:\n        /* \"#utility.yul\":4346:4349   */\n      0x00\n        /* \"#utility.yul\":4365:4385   */\n      tag_192\n        /* \"#utility.yul\":4383:4384   */\n      dup3\n        /* \"#utility.yul\":4365:4385   */\n      tag_115\n      jump\t// in\n    tag_192:\n        /* \"#utility.yul\":4360:4385   */\n      swap2\n      pop\n        /* \"#utility.yul\":4399:4419   */\n      tag_193\n        /* \"#utility.yul\":4417:4418   */\n      dup4\n        /* \"#utility.yul\":4399:4419   */\n      tag_115\n      jump\t// in\n    tag_193:\n        /* \"#utility.yul\":4394:4419   */\n      swap3\n      pop\n        /* \"#utility.yul\":4442:4443   */\n      dup3\n        /* \"#utility.yul\":4439:4440   */\n      dup3\n        /* \"#utility.yul\":4435:4444   */\n      add\n        /* \"#utility.yul\":4428:4444   */\n      swap1\n      pop\n        /* \"#utility.yul\":4463:4466   */\n      dup1\n        /* \"#utility.yul\":4460:4461   */\n      dup3\n        /* \"#utility.yul\":4457:4467   */\n      gt\n        /* \"#utility.yul\":4454:4490   */\n      iszero\n      tag_194\n      jumpi\n        /* \"#utility.yul\":4470:4488   */\n      tag_195\n      tag_124\n      jump\t// in\n    tag_195:\n        /* \"#utility.yul\":4454:4490   */\n    tag_194:\n        /* \"#utility.yul\":4306:4497   */\n      swap3\n      swap2\n      pop\n      pop\n      jump\t// out\n        /* \"#utility.yul\":4503:4672   */\n    tag_126:\n        /* \"#utility.yul\":4587:4598   */\n      0x00\n        /* \"#utility.yul\":4621:4627   */\n      dup3\n        /* \"#utility.yul\":4616:4619   */\n      dup3\n        /* \"#utility.yul\":4609:4628   */\n      mstore\n        /* \"#utility.yul\":4661:4665   */\n      0x20\n        /* \"#utility.yul\":4656:4659   */\n      dup3\n        /* \"#utility.yul\":4652:4666   */\n      add\n        /* \"#utility.yul\":4637:4666   */\n      swap1\n      pop\n        /* \"#utility.yul\":4503:4672   */\n      swap3\n      swap2\n      pop\n      pop\n      jump\t// out\n        /* \"#utility.yul\":4678:4841   */\n    tag_127:\n        /* \"#utility.yul\":4818:4833   */\n      0x77726f6e6720616d6f756e742100000000000000000000000000000000000000\n        /* \"#utility.yul\":4814:4815   */\n      0x00\n        /* \"#utility.yul\":4806:4812   */\n      dup3\n        /* \"#utility.yul\":4802:4816   */\n      add\n        /* \"#utility.yul\":4795:4834   */\n      mstore\n        /* \"#utility.yul\":4678:4841   */\n      pop\n      jump\t// out\n        /* \"#utility.yul\":4847:5213   */\n    tag_128:\n        /* \"#utility.yul\":4989:4992   */\n      0x00\n        /* \"#utility.yul\":5010:5077   */\n      tag_199\n        /* \"#utility.yul\":5074:5076   */\n      0x0d\n        /* \"#utility.yul\":5069:5072   */\n      dup4\n        /* \"#utility.yul\":5010:5077   */\n      tag_126\n      jump\t// in\n    tag_199:\n        /* \"#utility.yul\":5003:5077   */\n      swap2\n      pop\n        /* \"#utility.yul\":5086:5179   */\n      tag_200\n        /* \"#utility.yul\":5175:5178   */\n      dup3\n        /* \"#utility.yul\":5086:5179   */\n      tag_127\n      jump\t// in\n    tag_200:\n        /* \"#utility.yul\":5204:5206   */\n      0x20\n        /* \"#utility.yul\":5199:5202   */\n      dup3\n        /* \"#utility.yul\":5195:5207   */\n      add\n        /* \"#utility.yul\":5188:5207   */\n      swap1\n      pop\n        /* \"#utility.yul\":4847:5213   */\n      swap2\n      swap1\n      pop\n      jump\t// out\n        /* \"#utility.yul\":5219:5638   */\n    tag_74:\n        /* \"#utility.yul\":5385:5389   */\n      0x00\n        /* \"#utility.yul\":5423:5425   */\n      0x20\n        /* \"#utility.yul\":5412:5421   */\n      dup3\n        /* \"#utility.yul\":5408:5426   */\n      add\n        /* \"#utility.yul\":5400:5426   */\n      swap1\n      pop\n        /* \"#utility.yul\":5472:5481   */\n      dup2\n        /* \"#utility.yul\":5466:5470   */\n      dup2\n        /* \"#utility.yul\":5462:5482   */\n      sub\n        /* \"#utility.yul\":5458:5459   */\n      0x00\n        /* \"#utility.yul\":5447:5456   */\n      dup4\n        /* \"#utility.yul\":5443:5460   */\n      add\n        /* \"#utility.yul\":5436:5483   */\n      mstore\n        /* \"#utility.yul\":5500:5631   */\n      tag_202\n        /* \"#utility.yul\":5626:5630   */\n      dup2\n        /* \"#utility.yul\":5500:5631   */\n      tag_128\n      jump\t// in\n    tag_202:\n        /* \"#utility.yul\":5492:5631   */\n      swap1\n      pop\n        /* \"#utility.yul\":5219:5638   */\n      swap2\n      swap1\n      pop\n      jump\t// out\n        /* \"#utility.yul\":5644:5762   */\n    tag_129:\n        /* \"#utility.yul\":5731:5755   */\n      tag_204\n        /* \"#utility.yul\":5749:5754   */\n      dup2\n        /* \"#utility.yul\":5731:5755   */\n      tag_112\n      jump\t// in\n    tag_204:\n        /* \"#utility.yul\":5726:5729   */\n      dup3\n        /* \"#utility.yul\":5719:5756   */\n      mstore\n        /* \"#utility.yul\":5644:5762   */\n      pop\n      pop\n      jump\t// out\n        /* \"#utility.yul\":5768:6100   */\n    tag_78:\n        /* \"#utility.yul\":5889:5893   */\n      0x00\n        /* \"#utility.yul\":5927:5929   */\n      0x40\n        /* \"#utility.yul\":5916:5925   */\n      dup3\n        /* \"#utility.yul\":5912:5930   */\n      add\n        /* \"#utility.yul\":5904:5930   */\n      swap1\n      pop\n        /* \"#utility.yul\":5940:6011   */\n      tag_206\n        /* \"#utility.yul\":6008:6009   */\n      0x00\n        /* \"#utility.yul\":5997:6006   */\n      dup4\n        /* \"#utility.yul\":5993:6010   */\n      add\n        /* \"#utility.yul\":5984:5990   */\n      dup6\n        /* \"#utility.yul\":5940:6011   */\n      tag_129\n      jump\t// in\n    tag_206:\n        /* \"#utility.yul\":6021:6093   */\n      tag_207\n        /* \"#utility.yul\":6089:6091   */\n      0x20\n        /* \"#utility.yul\":6078:6087   */\n      dup4\n        /* \"#utility.yul\":6074:6092   */\n      add\n        /* \"#utility.yul\":6065:6071   */\n      dup5\n        /* \"#utility.yul\":6021:6093   */\n      tag_116\n      jump\t// in\n    tag_207:\n        /* \"#utility.yul\":5768:6100   */\n      swap4\n      swap3\n      pop\n      pop\n      pop\n      jump\t// out\n        /* \"#utility.yul\":6106:6548   */\n    tag_97:\n        /* \"#utility.yul\":6255:6259   */\n      0x00\n        /* \"#utility.yul\":6293:6295   */\n      0x60\n        /* \"#utility.yul\":6282:6291   */\n      dup3\n        /* \"#utility.yul\":6278:6296   */\n      add\n        /* \"#utility.yul\":6270:6296   */\n      swap1\n      pop\n        /* \"#utility.yul\":6306:6377   */\n      tag_209\n        /* \"#utility.yul\":6374:6375   */\n      0x00\n        /* \"#utility.yul\":6363:6372   */\n      dup4\n        /* \"#utility.yul\":6359:6376   */\n      add\n        /* \"#utility.yul\":6350:6356   */\n      dup7\n        /* \"#utility.yul\":6306:6377   */\n      tag_129\n      jump\t// in\n    tag_209:\n        /* \"#utility.yul\":6387:6459   */\n      tag_210\n        /* \"#utility.yul\":6455:6457   */\n      0x20\n        /* \"#utility.yul\":6444:6453   */\n      dup4\n        /* \"#utility.yul\":6440:6458   */\n      add\n        /* \"#utility.yul\":6431:6437   */\n      dup6\n        /* \"#utility.yul\":6387:6459   */\n      tag_129\n      jump\t// in\n    tag_210:\n        /* \"#utility.yul\":6469:6541   */\n      tag_211\n        /* \"#utility.yul\":6537:6539   */\n      0x40\n        /* \"#utility.yul\":6526:6535   */\n      dup4\n        /* \"#utility.yul\":6522:6540   */\n      add\n        /* \"#utility.yul\":6513:6519   */\n      dup5\n        /* \"#utility.yul\":6469:6541   */\n      tag_116\n      jump\t// in\n    tag_211:\n        /* \"#utility.yul\":6106:6548   */\n      swap5\n      swap4\n      pop\n      pop\n      pop\n      pop\n      jump\t// out\n\n    auxdata: 0xa26469706673582212209e5a5bffd32ddbe95f4f00e2cae75a5f6bbe166b5da7cb2cd4f2f7fd7ba84eb164736f6c63430008110033\n}\n",
				"bytecode": {
					"linkReferences": {},
					"object": "6080604052600a6002553480156200001657600080fd5b5060405162000f4038038062000f4083398181016040528101906200003c91906200012f565b81600160006101000a81548173ffffffffffffffffffffffffffffffffffffffff021916908373ffffffffffffffffffffffffffffffffffffffff160217905550806000806101000a81548173ffffffffffffffffffffffffffffffffffffffff021916908373ffffffffffffffffffffffffffffffffffffffff160217905550505062000176565b600080fd5b600073ffffffffffffffffffffffffffffffffffffffff82169050919050565b6000620000f782620000ca565b9050919050565b6200010981620000ea565b81146200011557600080fd5b50565b6000815190506200012981620000fe565b92915050565b60008060408385031215620001495762000148620000c5565b5b6000620001598582860162000118565b92505060206200016c8582860162000118565b9150509250929050565b610dba80620001866000396000f3fe608060405234801561001057600080fd5b50600436106100b35760003560e01c80638b876347116100715780638b8763471461017a578063a694fc3a146101aa578063c8f33c91146101c6578063cd3daf9d146101e4578063d1af0c7d14610202578063df136d6514610220576100b3565b80628cc262146100b85780630700037d146100e85780632e1a7d4d146101185780633d18b9121461013457806372f702f31461013e5780637b0a47ee1461015c575b600080fd5b6100d260048036038101906100cd9190610a2b565b61023e565b6040516100df9190610a71565b60405180910390f35b61010260048036038101906100fd9190610a2b565b610340565b60405161010f9190610a71565b60405180910390f35b610132600480360381019061012d9190610ab8565b610358565b005b61013c610584565b005b610146610746565b6040516101539190610b44565b60405180910390f35b61016461076c565b6040516101719190610a71565b60405180910390f35b610194600480360381019061018f9190610a2b565b610772565b6040516101a19190610a71565b60405180910390f35b6101c460048036038101906101bf9190610ab8565b61078a565b005b6101ce610936565b6040516101db9190610a71565b60405180910390f35b6101ec61093c565b6040516101f99190610a71565b60405180910390f35b61020a61099e565b6040516102179190610b44565b60405180910390f35b6102286109c2565b6040516102359190610a71565b60405180910390f35b6000600660008373ffffffffffffffffffffffffffffffffffffffff1673ffffffffffffffffffffffffffffffffffffffff16815260200190815260200160002054670de0b6b3a7640000600560008573ffffffffffffffffffffffffffffffffffffffff1673ffffffffffffffffffffffffffffffffffffffff168152602001908152602001600020546102d161093c565b6102db9190610b8e565b600760008673ffffffffffffffffffffffffffffffffffffffff1673ffffffffffffffffffffffffffffffffffffffff168152602001908152602001600020546103259190610bc2565b61032f9190610c33565b6103399190610c64565b9050919050565b60066020528060005260406000206000915090505481565b3361036161093c565b600481905550426003819055506103778161023e565b600660008373ffffffffffffffffffffffffffffffffffffffff1673ffffffffffffffffffffffffffffffffffffffff16815260200190815260200160002081905550600454600560008373ffffffffffffffffffffffffffffffffffffffff1673ffffffffffffffffffffffffffffffffffffffff1681526020019081526020016000208190555081600760003373ffffffffffffffffffffffffffffffffffffffff1673ffffffffffffffffffffffffffffffffffffffff168152602001908152602001600020541015610482576040517f08c379a000000000000000000000000000000000000000000000000000000000815260040161047990610cf5565b60405180910390fd5b81600860008282546104949190610b8e565b9250508190555081600760003373ffffffffffffffffffffffffffffffffffffffff1673ffffffffffffffffffffffffffffffffffffffff16815260200190815260200160002060008282546104ea9190610b8e565b92505081905550600160009054906101000a900473ffffffffffffffffffffffffffffffffffffffff1673ffffffffffffffffffffffffffffffffffffffff1663a9059cbb33846040518363ffffffff1660e01b815260040161054e929190610d24565b600060405180830381600087803b15801561056857600080fd5b505af115801561057c573d6000803e3d6000fd5b505050505050565b3361058d61093c565b600481905550426003819055506105a38161023e565b600660008373ffffffffffffffffffffffffffffffffffffffff1673ffffffffffffffffffffffffffffffffffffffff16815260200190815260200160002081905550600454600560008373ffffffffffffffffffffffffffffffffffffffff1673ffffffffffffffffffffffffffffffffffffffff168152602001908152602001600020819055506000600660003373ffffffffffffffffffffffffffffffffffffffff1673ffffffffffffffffffffffffffffffffffffffff1681526020019081526020016000205490506000600660003373ffffffffffffffffffffffffffffffffffffffff1673ffffffffffffffffffffffffffffffffffffffff1681526020019081526020016000208190555060008054906101000a900473ffffffffffffffffffffffffffffffffffffffff1673ffffffffffffffffffffffffffffffffffffffff1663a9059cbb33836040518363ffffffff1660e01b8152600401610710929190610d24565b600060405180830381600087803b15801561072a57600080fd5b505af115801561073e573d6000803e3d6000fd5b505050505050565b600160009054906101000a900473ffffffffffffffffffffffffffffffffffffffff1681565b60025481565b60056020528060005260406000206000915090505481565b3361079361093c565b600481905550426003819055506107a98161023e565b600660008373ffffffffffffffffffffffffffffffffffffffff1673ffffffffffffffffffffffffffffffffffffffff16815260200190815260200160002081905550600454600560008373ffffffffffffffffffffffffffffffffffffffff1673ffffffffffffffffffffffffffffffffffffffff1681526020019081526020016000208190555081600860008282546108449190610c64565b9250508190555081600760003373ffffffffffffffffffffffffffffffffffffffff1673ffffffffffffffffffffffffffffffffffffffff168152602001908152602001600020600082825461089a9190610c64565b92505081905550600160009054906101000a900473ffffffffffffffffffffffffffffffffffffffff1673ffffffffffffffffffffffffffffffffffffffff166323b872dd3330856040518463ffffffff1660e01b815260040161090093929190610d4d565b600060405180830381600087803b15801561091a57600080fd5b505af115801561092e573d6000803e3d6000fd5b505050505050565b60035481565b60008060085403610950576000905061099b565b600854670de0b6b3a76400006003544261096a9190610b8e565b6002546109779190610bc2565b6109819190610bc2565b61098b9190610c33565b6004546109989190610c64565b90505b90565b60008054906101000a900473ffffffffffffffffffffffffffffffffffffffff1681565b60045481565b600080fd5b600073ffffffffffffffffffffffffffffffffffffffff82169050919050565b60006109f8826109cd565b9050919050565b610a08816109ed565b8114610a1357600080fd5b50565b600081359050610a25816109ff565b92915050565b600060208284031215610a4157610a406109c8565b5b6000610a4f84828501610a16565b91505092915050565b6000819050919050565b610a6b81610a58565b82525050565b6000602082019050610a866000830184610a62565b92915050565b610a9581610a58565b8114610aa057600080fd5b50565b600081359050610ab281610a8c565b92915050565b600060208284031215610ace57610acd6109c8565b5b6000610adc84828501610aa3565b91505092915050565b6000819050919050565b6000610b0a610b05610b00846109cd565b610ae5565b6109cd565b9050919050565b6000610b1c82610aef565b9050919050565b6000610b2e82610b11565b9050919050565b610b3e81610b23565b82525050565b6000602082019050610b596000830184610b35565b92915050565b7f4e487b7100000000000000000000000000000000000000000000000000000000600052601160045260246000fd5b6000610b9982610a58565b9150610ba483610a58565b9250828203905081811115610bbc57610bbb610b5f565b5b92915050565b6000610bcd82610a58565b9150610bd883610a58565b9250828202610be681610a58565b91508282048414831517610bfd57610bfc610b5f565b5b5092915050565b7f4e487b7100000000000000000000000000000000000000000000000000000000600052601260045260246000fd5b6000610c3e82610a58565b9150610c4983610a58565b925082610c5957610c58610c04565b5b828204905092915050565b6000610c6f82610a58565b9150610c7a83610a58565b9250828201905080821115610c9257610c91610b5f565b5b92915050565b600082825260208201905092915050565b7f77726f6e6720616d6f756e742100000000000000000000000000000000000000600082015250565b6000610cdf600d83610c98565b9150610cea82610ca9565b602082019050919050565b60006020820190508181036000830152610d0e81610cd2565b9050919050565b610d1e816109ed565b82525050565b6000604082019050610d396000830185610d15565b610d466020830184610a62565b9392505050565b6000606082019050610d626000830186610d15565b610d6f6020830185610d15565b610d7c6040830184610a62565b94935050505056fea26469706673582212209e5a5bffd32ddbe95f4f00e2cae75a5f6bbe166b5da7cb2cd4f2f7fd7ba84eb164736f6c63430008110033",
					"opcodes": "PUSH1 0x80 PUSH1 0x40 MSTORE PUSH1 0xA PUSH1 0x2 SSTORE CALLVALUE DUP1 ISZERO PUSH3 0x16 JUMPI PUSH1 0x0 DUP1 REVERT JUMPDEST POP PUSH1 0x40 MLOAD PUSH3 0xF40 CODESIZE SUB DUP1 PUSH3 0xF40 DUP4 CODECOPY DUP2 DUP2 ADD PUSH1 0x40 MSTORE DUP2 ADD SWAP1 PUSH3 0x3C SWAP2 SWAP1 PUSH3 0x12F JUMP JUMPDEST DUP2 PUSH1 0x1 PUSH1 0x0 PUSH2 0x100 EXP DUP2 SLOAD DUP2 PUSH20 0xFFFFFFFFFFFFFFFFFFFFFFFFFFFFFFFFFFFFFFFF MUL NOT AND SWAP1 DUP4 PUSH20 0xFFFFFFFFFFFFFFFFFFFFFFFFFFFFFFFFFFFFFFFF AND MUL OR SWAP1 SSTORE POP DUP1 PUSH1 0x0 DUP1 PUSH2 0x100 EXP DUP2 SLOAD DUP2 PUSH20 0xFFFFFFFFFFFFFFFFFFFFFFFFFFFFFFFFFFFFFFFF MUL NOT AND SWAP1 DUP4 PUSH20 0xFFFFFFFFFFFFFFFFFFFFFFFFFFFFFFFFFFFFFFFF AND MUL OR SWAP1 SSTORE POP POP POP PUSH3 0x176 JUMP JUMPDEST PUSH1 0x0 DUP1 REVERT JUMPDEST PUSH1 0x0 PUSH20 0xFFFFFFFFFFFFFFFFFFFFFFFFFFFFFFFFFFFFFFFF DUP3 AND SWAP1 POP SWAP2 SWAP1 POP JUMP JUMPDEST PUSH1 0x0 PUSH3 0xF7 DUP3 PUSH3 0xCA JUMP JUMPDEST SWAP1 POP SWAP2 SWAP1 POP JUMP JUMPDEST PUSH3 0x109 DUP2 PUSH3 0xEA JUMP JUMPDEST DUP2 EQ PUSH3 0x115 JUMPI PUSH1 0x0 DUP1 REVERT JUMPDEST POP JUMP JUMPDEST PUSH1 0x0 DUP2 MLOAD SWAP1 POP PUSH3 0x129 DUP2 PUSH3 0xFE JUMP JUMPDEST SWAP3 SWAP2 POP POP JUMP JUMPDEST PUSH1 0x0 DUP1 PUSH1 0x40 DUP4 DUP6 SUB SLT ISZERO PUSH3 0x149 JUMPI PUSH3 0x148 PUSH3 0xC5 JUMP JUMPDEST JUMPDEST PUSH1 0x0 PUSH3 0x159 DUP6 DUP3 DUP7 ADD PUSH3 0x118 JUMP JUMPDEST SWAP3 POP POP PUSH1 0x20 PUSH3 0x16C DUP6 DUP3 DUP7 ADD PUSH3 0x118 JUMP JUMPDEST SWAP2 POP POP SWAP3 POP SWAP3 SWAP1 POP JUMP JUMPDEST PUSH2 0xDBA DUP1 PUSH3 0x186 PUSH1 0x0 CODECOPY PUSH1 0x0 RETURN INVALID PUSH1 0x80 PUSH1 0x40 MSTORE CALLVALUE DUP1 ISZERO PUSH2 0x10 JUMPI PUSH1 0x0 DUP1 REVERT JUMPDEST POP PUSH1 0x4 CALLDATASIZE LT PUSH2 0xB3 JUMPI PUSH1 0x0 CALLDATALOAD PUSH1 0xE0 SHR DUP1 PUSH4 0x8B876347 GT PUSH2 0x71 JUMPI DUP1 PUSH4 0x8B876347 EQ PUSH2 0x17A JUMPI DUP1 PUSH4 0xA694FC3A EQ PUSH2 0x1AA JUMPI DUP1 PUSH4 0xC8F33C91 EQ PUSH2 0x1C6 JUMPI DUP1 PUSH4 0xCD3DAF9D EQ PUSH2 0x1E4 JUMPI DUP1 PUSH4 0xD1AF0C7D EQ PUSH2 0x202 JUMPI DUP1 PUSH4 0xDF136D65 EQ PUSH2 0x220 JUMPI PUSH2 0xB3 JUMP JUMPDEST DUP1 PUSH3 0x8CC262 EQ PUSH2 0xB8 JUMPI DUP1 PUSH4 0x700037D EQ PUSH2 0xE8 JUMPI DUP1 PUSH4 0x2E1A7D4D EQ PUSH2 0x118 JUMPI DUP1 PUSH4 0x3D18B912 EQ PUSH2 0x134 JUMPI DUP1 PUSH4 0x72F702F3 EQ PUSH2 0x13E JUMPI DUP1 PUSH4 0x7B0A47EE EQ PUSH2 0x15C JUMPI JUMPDEST PUSH1 0x0 DUP1 REVERT JUMPDEST PUSH2 0xD2 PUSH1 0x4 DUP1 CALLDATASIZE SUB DUP2 ADD SWAP1 PUSH2 0xCD SWAP2 SWAP1 PUSH2 0xA2B JUMP JUMPDEST PUSH2 0x23E JUMP JUMPDEST PUSH1 0x40 MLOAD PUSH2 0xDF SWAP2 SWAP1 PUSH2 0xA71 JUMP JUMPDEST PUSH1 0x40 MLOAD DUP1 SWAP2 SUB SWAP1 RETURN JUMPDEST PUSH2 0x102 PUSH1 0x4 DUP1 CALLDATASIZE SUB DUP2 ADD SWAP1 PUSH2 0xFD SWAP2 SWAP1 PUSH2 0xA2B JUMP JUMPDEST PUSH2 0x340 JUMP JUMPDEST PUSH1 0x40 MLOAD PUSH2 0x10F SWAP2 SWAP1 PUSH2 0xA71 JUMP JUMPDEST PUSH1 0x40 MLOAD DUP1 SWAP2 SUB SWAP1 RETURN JUMPDEST PUSH2 0x132 PUSH1 0x4 DUP1 CALLDATASIZE SUB DUP2 ADD SWAP1 PUSH2 0x12D SWAP2 SWAP1 PUSH2 0xAB8 JUMP JUMPDEST PUSH2 0x358 JUMP JUMPDEST STOP JUMPDEST PUSH2 0x13C PUSH2 0x584 JUMP JUMPDEST STOP JUMPDEST PUSH2 0x146 PUSH2 0x746 JUMP JUMPDEST PUSH1 0x40 MLOAD PUSH2 0x153 SWAP2 SWAP1 PUSH2 0xB44 JUMP JUMPDEST PUSH1 0x40 MLOAD DUP1 SWAP2 SUB SWAP1 RETURN JUMPDEST PUSH2 0x164 PUSH2 0x76C JUMP JUMPDEST PUSH1 0x40 MLOAD PUSH2 0x171 SWAP2 SWAP1 PUSH2 0xA71 JUMP JUMPDEST PUSH1 0x40 MLOAD DUP1 SWAP2 SUB SWAP1 RETURN JUMPDEST PUSH2 0x194 PUSH1 0x4 DUP1 CALLDATASIZE SUB DUP2 ADD SWAP1 PUSH2 0x18F SWAP2 SWAP1 PUSH2 0xA2B JUMP JUMPDEST PUSH2 0x772 JUMP JUMPDEST PUSH1 0x40 MLOAD PUSH2 0x1A1 SWAP2 SWAP1 PUSH2 0xA71 JUMP JUMPDEST PUSH1 0x40 MLOAD DUP1 SWAP2 SUB SWAP1 RETURN JUMPDEST PUSH2 0x1C4 PUSH1 0x4 DUP1 CALLDATASIZE SUB DUP2 ADD SWAP1 PUSH2 0x1BF SWAP2 SWAP1 PUSH2 0xAB8 JUMP JUMPDEST PUSH2 0x78A JUMP JUMPDEST STOP JUMPDEST PUSH2 0x1CE PUSH2 0x936 JUMP JUMPDEST PUSH1 0x40 MLOAD PUSH2 0x1DB SWAP2 SWAP1 PUSH2 0xA71 JUMP JUMPDEST PUSH1 0x40 MLOAD DUP1 SWAP2 SUB SWAP1 RETURN JUMPDEST PUSH2 0x1EC PUSH2 0x93C JUMP JUMPDEST PUSH1 0x40 MLOAD PUSH2 0x1F9 SWAP2 SWAP1 PUSH2 0xA71 JUMP JUMPDEST PUSH1 0x40 MLOAD DUP1 SWAP2 SUB SWAP1 RETURN JUMPDEST PUSH2 0x20A PUSH2 0x99E JUMP JUMPDEST PUSH1 0x40 MLOAD PUSH2 0x217 SWAP2 SWAP1 PUSH2 0xB44 JUMP JUMPDEST PUSH1 0x40 MLOAD DUP1 SWAP2 SUB SWAP1 RETURN JUMPDEST PUSH2 0x228 PUSH2 0x9C2 JUMP JUMPDEST PUSH1 0x40 MLOAD PUSH2 0x235 SWAP2 SWAP1 PUSH2 0xA71 JUMP JUMPDEST PUSH1 0x40 MLOAD DUP1 SWAP2 SUB SWAP1 RETURN JUMPDEST PUSH1 0x0 PUSH1 0x6 PUSH1 0x0 DUP4 PUSH20 0xFFFFFFFFFFFFFFFFFFFFFFFFFFFFFFFFFFFFFFFF AND PUSH20 0xFFFFFFFFFFFFFFFFFFFFFFFFFFFFFFFFFFFFFFFF AND DUP2 MSTORE PUSH1 0x20 ADD SWAP1 DUP2 MSTORE PUSH1 0x20 ADD PUSH1 0x0 KECCAK256 SLOAD PUSH8 0xDE0B6B3A7640000 PUSH1 0x5 PUSH1 0x0 DUP6 PUSH20 0xFFFFFFFFFFFFFFFFFFFFFFFFFFFFFFFFFFFFFFFF AND PUSH20 0xFFFFFFFFFFFFFFFFFFFFFFFFFFFFFFFFFFFFFFFF AND DUP2 MSTORE PUSH1 0x20 ADD SWAP1 DUP2 MSTORE PUSH1 0x20 ADD PUSH1 0x0 KECCAK256 SLOAD PUSH2 0x2D1 PUSH2 0x93C JUMP JUMPDEST PUSH2 0x2DB SWAP2 SWAP1 PUSH2 0xB8E JUMP JUMPDEST PUSH1 0x7 PUSH1 0x0 DUP7 PUSH20 0xFFFFFFFFFFFFFFFFFFFFFFFFFFFFFFFFFFFFFFFF AND PUSH20 0xFFFFFFFFFFFFFFFFFFFFFFFFFFFFFFFFFFFFFFFF AND DUP2 MSTORE PUSH1 0x20 ADD SWAP1 DUP2 MSTORE PUSH1 0x20 ADD PUSH1 0x0 KECCAK256 SLOAD PUSH2 0x325 SWAP2 SWAP1 PUSH2 0xBC2 JUMP JUMPDEST PUSH2 0x32F SWAP2 SWAP1 PUSH2 0xC33 JUMP JUMPDEST PUSH2 0x339 SWAP2 SWAP1 PUSH2 0xC64 JUMP JUMPDEST SWAP1 POP SWAP2 SWAP1 POP JUMP JUMPDEST PUSH1 0x6 PUSH1 0x20 MSTORE DUP1 PUSH1 0x0 MSTORE PUSH1 0x40 PUSH1 0x0 KECCAK256 PUSH1 0x0 SWAP2 POP SWAP1 POP SLOAD DUP2 JUMP JUMPDEST CALLER PUSH2 0x361 PUSH2 0x93C JUMP JUMPDEST PUSH1 0x4 DUP2 SWAP1 SSTORE POP TIMESTAMP PUSH1 0x3 DUP2 SWAP1 SSTORE POP PUSH2 0x377 DUP2 PUSH2 0x23E JUMP JUMPDEST PUSH1 0x6 PUSH1 0x0 DUP4 PUSH20 0xFFFFFFFFFFFFFFFFFFFFFFFFFFFFFFFFFFFFFFFF AND PUSH20 0xFFFFFFFFFFFFFFFFFFFFFFFFFFFFFFFFFFFFFFFF AND DUP2 MSTORE PUSH1 0x20 ADD SWAP1 DUP2 MSTORE PUSH1 0x20 ADD PUSH1 0x0 KECCAK256 DUP2 SWAP1 SSTORE POP PUSH1 0x4 SLOAD PUSH1 0x5 PUSH1 0x0 DUP4 PUSH20 0xFFFFFFFFFFFFFFFFFFFFFFFFFFFFFFFFFFFFFFFF AND PUSH20 0xFFFFFFFFFFFFFFFFFFFFFFFFFFFFFFFFFFFFFFFF AND DUP2 MSTORE PUSH1 0x20 ADD SWAP1 DUP2 MSTORE PUSH1 0x20 ADD PUSH1 0x0 KECCAK256 DUP2 SWAP1 SSTORE POP DUP2 PUSH1 0x7 PUSH1 0x0 CALLER PUSH20 0xFFFFFFFFFFFFFFFFFFFFFFFFFFFFFFFFFFFFFFFF AND PUSH20 0xFFFFFFFFFFFFFFFFFFFFFFFFFFFFFFFFFFFFFFFF AND DUP2 MSTORE PUSH1 0x20 ADD SWAP1 DUP2 MSTORE PUSH1 0x20 ADD PUSH1 0x0 KECCAK256 SLOAD LT ISZERO PUSH2 0x482 JUMPI PUSH1 0x40 MLOAD PUSH32 0x8C379A000000000000000000000000000000000000000000000000000000000 DUP2 MSTORE PUSH1 0x4 ADD PUSH2 0x479 SWAP1 PUSH2 0xCF5 JUMP JUMPDEST PUSH1 0x40 MLOAD DUP1 SWAP2 SUB SWAP1 REVERT JUMPDEST DUP2 PUSH1 0x8 PUSH1 0x0 DUP3 DUP3 SLOAD PUSH2 0x494 SWAP2 SWAP1 PUSH2 0xB8E JUMP JUMPDEST SWAP3 POP POP DUP2 SWAP1 SSTORE POP DUP2 PUSH1 0x7 PUSH1 0x0 CALLER PUSH20 0xFFFFFFFFFFFFFFFFFFFFFFFFFFFFFFFFFFFFFFFF AND PUSH20 0xFFFFFFFFFFFFFFFFFFFFFFFFFFFFFFFFFFFFFFFF AND DUP2 MSTORE PUSH1 0x20 ADD SWAP1 DUP2 MSTORE PUSH1 0x20 ADD PUSH1 0x0 KECCAK256 PUSH1 0x0 DUP3 DUP3 SLOAD PUSH2 0x4EA SWAP2 SWAP1 PUSH2 0xB8E JUMP JUMPDEST SWAP3 POP POP DUP2 SWAP1 SSTORE POP PUSH1 0x1 PUSH1 0x0 SWAP1 SLOAD SWAP1 PUSH2 0x100 EXP SWAP1 DIV PUSH20 0xFFFFFFFFFFFFFFFFFFFFFFFFFFFFFFFFFFFFFFFF AND PUSH20 0xFFFFFFFFFFFFFFFFFFFFFFFFFFFFFFFFFFFFFFFF AND PUSH4 0xA9059CBB CALLER DUP5 PUSH1 0x40 MLOAD DUP4 PUSH4 0xFFFFFFFF AND PUSH1 0xE0 SHL DUP2 MSTORE PUSH1 0x4 ADD PUSH2 0x54E SWAP3 SWAP2 SWAP1 PUSH2 0xD24 JUMP JUMPDEST PUSH1 0x0 PUSH1 0x40 MLOAD DUP1 DUP4 SUB DUP2 PUSH1 0x0 DUP8 DUP1 EXTCODESIZE ISZERO DUP1 ISZERO PUSH2 0x568 JUMPI PUSH1 0x0 DUP1 REVERT JUMPDEST POP GAS CALL ISZERO DUP1 ISZERO PUSH2 0x57C JUMPI RETURNDATASIZE PUSH1 0x0 DUP1 RETURNDATACOPY RETURNDATASIZE PUSH1 0x0 REVERT JUMPDEST POP POP POP POP POP POP JUMP JUMPDEST CALLER PUSH2 0x58D PUSH2 0x93C JUMP JUMPDEST PUSH1 0x4 DUP2 SWAP1 SSTORE POP TIMESTAMP PUSH1 0x3 DUP2 SWAP1 SSTORE POP PUSH2 0x5A3 DUP2 PUSH2 0x23E JUMP JUMPDEST PUSH1 0x6 PUSH1 0x0 DUP4 PUSH20 0xFFFFFFFFFFFFFFFFFFFFFFFFFFFFFFFFFFFFFFFF AND PUSH20 0xFFFFFFFFFFFFFFFFFFFFFFFFFFFFFFFFFFFFFFFF AND DUP2 MSTORE PUSH1 0x20 ADD SWAP1 DUP2 MSTORE PUSH1 0x20 ADD PUSH1 0x0 KECCAK256 DUP2 SWAP1 SSTORE POP PUSH1 0x4 SLOAD PUSH1 0x5 PUSH1 0x0 DUP4 PUSH20 0xFFFFFFFFFFFFFFFFFFFFFFFFFFFFFFFFFFFFFFFF AND PUSH20 0xFFFFFFFFFFFFFFFFFFFFFFFFFFFFFFFFFFFFFFFF AND DUP2 MSTORE PUSH1 0x20 ADD SWAP1 DUP2 MSTORE PUSH1 0x20 ADD PUSH1 0x0 KECCAK256 DUP2 SWAP1 SSTORE POP PUSH1 0x0 PUSH1 0x6 PUSH1 0x0 CALLER PUSH20 0xFFFFFFFFFFFFFFFFFFFFFFFFFFFFFFFFFFFFFFFF AND PUSH20 0xFFFFFFFFFFFFFFFFFFFFFFFFFFFFFFFFFFFFFFFF AND DUP2 MSTORE PUSH1 0x20 ADD SWAP1 DUP2 MSTORE PUSH1 0x20 ADD PUSH1 0x0 KECCAK256 SLOAD SWAP1 POP PUSH1 0x0 PUSH1 0x6 PUSH1 0x0 CALLER PUSH20 0xFFFFFFFFFFFFFFFFFFFFFFFFFFFFFFFFFFFFFFFF AND PUSH20 0xFFFFFFFFFFFFFFFFFFFFFFFFFFFFFFFFFFFFFFFF AND DUP2 MSTORE PUSH1 0x20 ADD SWAP1 DUP2 MSTORE PUSH1 0x20 ADD PUSH1 0x0 KECCAK256 DUP2 SWAP1 SSTORE POP PUSH1 0x0 DUP1 SLOAD SWAP1 PUSH2 0x100 EXP SWAP1 DIV PUSH20 0xFFFFFFFFFFFFFFFFFFFFFFFFFFFFFFFFFFFFFFFF AND PUSH20 0xFFFFFFFFFFFFFFFFFFFFFFFFFFFFFFFFFFFFFFFF AND PUSH4 0xA9059CBB CALLER DUP4 PUSH1 0x40 MLOAD DUP4 PUSH4 0xFFFFFFFF AND PUSH1 0xE0 SHL DUP2 MSTORE PUSH1 0x4 ADD PUSH2 0x710 SWAP3 SWAP2 SWAP1 PUSH2 0xD24 JUMP JUMPDEST PUSH1 0x0 PUSH1 0x40 MLOAD DUP1 DUP4 SUB DUP2 PUSH1 0x0 DUP8 DUP1 EXTCODESIZE ISZERO DUP1 ISZERO PUSH2 0x72A JUMPI PUSH1 0x0 DUP1 REVERT JUMPDEST POP GAS CALL ISZERO DUP1 ISZERO PUSH2 0x73E JUMPI RETURNDATASIZE PUSH1 0x0 DUP1 RETURNDATACOPY RETURNDATASIZE PUSH1 0x0 REVERT JUMPDEST POP POP POP POP POP POP JUMP JUMPDEST PUSH1 0x1 PUSH1 0x0 SWAP1 SLOAD SWAP1 PUSH2 0x100 EXP SWAP1 DIV PUSH20 0xFFFFFFFFFFFFFFFFFFFFFFFFFFFFFFFFFFFFFFFF AND DUP2 JUMP JUMPDEST PUSH1 0x2 SLOAD DUP2 JUMP JUMPDEST PUSH1 0x5 PUSH1 0x20 MSTORE DUP1 PUSH1 0x0 MSTORE PUSH1 0x40 PUSH1 0x0 KECCAK256 PUSH1 0x0 SWAP2 POP SWAP1 POP SLOAD DUP2 JUMP JUMPDEST CALLER PUSH2 0x793 PUSH2 0x93C JUMP JUMPDEST PUSH1 0x4 DUP2 SWAP1 SSTORE POP TIMESTAMP PUSH1 0x3 DUP2 SWAP1 SSTORE POP PUSH2 0x7A9 DUP2 PUSH2 0x23E JUMP JUMPDEST PUSH1 0x6 PUSH1 0x0 DUP4 PUSH20 0xFFFFFFFFFFFFFFFFFFFFFFFFFFFFFFFFFFFFFFFF AND PUSH20 0xFFFFFFFFFFFFFFFFFFFFFFFFFFFFFFFFFFFFFFFF AND DUP2 MSTORE PUSH1 0x20 ADD SWAP1 DUP2 MSTORE PUSH1 0x20 ADD PUSH1 0x0 KECCAK256 DUP2 SWAP1 SSTORE POP PUSH1 0x4 SLOAD PUSH1 0x5 PUSH1 0x0 DUP4 PUSH20 0xFFFFFFFFFFFFFFFFFFFFFFFFFFFFFFFFFFFFFFFF AND PUSH20 0xFFFFFFFFFFFFFFFFFFFFFFFFFFFFFFFFFFFFFFFF AND DUP2 MSTORE PUSH1 0x20 ADD SWAP1 DUP2 MSTORE PUSH1 0x20 ADD PUSH1 0x0 KECCAK256 DUP2 SWAP1 SSTORE POP DUP2 PUSH1 0x8 PUSH1 0x0 DUP3 DUP3 SLOAD PUSH2 0x844 SWAP2 SWAP1 PUSH2 0xC64 JUMP JUMPDEST SWAP3 POP POP DUP2 SWAP1 SSTORE POP DUP2 PUSH1 0x7 PUSH1 0x0 CALLER PUSH20 0xFFFFFFFFFFFFFFFFFFFFFFFFFFFFFFFFFFFFFFFF AND PUSH20 0xFFFFFFFFFFFFFFFFFFFFFFFFFFFFFFFFFFFFFFFF AND DUP2 MSTORE PUSH1 0x20 ADD SWAP1 DUP2 MSTORE PUSH1 0x20 ADD PUSH1 0x0 KECCAK256 PUSH1 0x0 DUP3 DUP3 SLOAD PUSH2 0x89A SWAP2 SWAP1 PUSH2 0xC64 JUMP JUMPDEST SWAP3 POP POP DUP2 SWAP1 SSTORE POP PUSH1 0x1 PUSH1 0x0 SWAP1 SLOAD SWAP1 PUSH2 0x100 EXP SWAP1 DIV PUSH20 0xFFFFFFFFFFFFFFFFFFFFFFFFFFFFFFFFFFFFFFFF AND PUSH20 0xFFFFFFFFFFFFFFFFFFFFFFFFFFFFFFFFFFFFFFFF AND PUSH4 0x23B872DD CALLER ADDRESS DUP6 PUSH1 0x40 MLOAD DUP5 PUSH4 0xFFFFFFFF AND PUSH1 0xE0 SHL DUP2 MSTORE PUSH1 0x4 ADD PUSH2 0x900 SWAP4 SWAP3 SWAP2 SWAP1 PUSH2 0xD4D JUMP JUMPDEST PUSH1 0x0 PUSH1 0x40 MLOAD DUP1 DUP4 SUB DUP2 PUSH1 0x0 DUP8 DUP1 EXTCODESIZE ISZERO DUP1 ISZERO PUSH2 0x91A JUMPI PUSH1 0x0 DUP1 REVERT JUMPDEST POP GAS CALL ISZERO DUP1 ISZERO PUSH2 0x92E JUMPI RETURNDATASIZE PUSH1 0x0 DUP1 RETURNDATACOPY RETURNDATASIZE PUSH1 0x0 REVERT JUMPDEST POP POP POP POP POP POP JUMP JUMPDEST PUSH1 0x3 SLOAD DUP2 JUMP JUMPDEST PUSH1 0x0 DUP1 PUSH1 0x8 SLOAD SUB PUSH2 0x950 JUMPI PUSH1 0x0 SWAP1 POP PUSH2 0x99B JUMP JUMPDEST PUSH1 0x8 SLOAD PUSH8 0xDE0B6B3A7640000 PUSH1 0x3 SLOAD TIMESTAMP PUSH2 0x96A SWAP2 SWAP1 PUSH2 0xB8E JUMP JUMPDEST PUSH1 0x2 SLOAD PUSH2 0x977 SWAP2 SWAP1 PUSH2 0xBC2 JUMP JUMPDEST PUSH2 0x981 SWAP2 SWAP1 PUSH2 0xBC2 JUMP JUMPDEST PUSH2 0x98B SWAP2 SWAP1 PUSH2 0xC33 JUMP JUMPDEST PUSH1 0x4 SLOAD PUSH2 0x998 SWAP2 SWAP1 PUSH2 0xC64 JUMP JUMPDEST SWAP1 POP JUMPDEST SWAP1 JUMP JUMPDEST PUSH1 0x0 DUP1 SLOAD SWAP1 PUSH2 0x100 EXP SWAP1 DIV PUSH20 0xFFFFFFFFFFFFFFFFFFFFFFFFFFFFFFFFFFFFFFFF AND DUP2 JUMP JUMPDEST PUSH1 0x4 SLOAD DUP2 JUMP JUMPDEST PUSH1 0x0 DUP1 REVERT JUMPDEST PUSH1 0x0 PUSH20 0xFFFFFFFFFFFFFFFFFFFFFFFFFFFFFFFFFFFFFFFF DUP3 AND SWAP1 POP SWAP2 SWAP1 POP JUMP JUMPDEST PUSH1 0x0 PUSH2 0x9F8 DUP3 PUSH2 0x9CD JUMP JUMPDEST SWAP1 POP SWAP2 SWAP1 POP JUMP JUMPDEST PUSH2 0xA08 DUP2 PUSH2 0x9ED JUMP JUMPDEST DUP2 EQ PUSH2 0xA13 JUMPI PUSH1 0x0 DUP1 REVERT JUMPDEST POP JUMP JUMPDEST PUSH1 0x0 DUP2 CALLDATALOAD SWAP1 POP PUSH2 0xA25 DUP2 PUSH2 0x9FF JUMP JUMPDEST SWAP3 SWAP2 POP POP JUMP JUMPDEST PUSH1 0x0 PUSH1 0x20 DUP3 DUP5 SUB SLT ISZERO PUSH2 0xA41 JUMPI PUSH2 0xA40 PUSH2 0x9C8 JUMP JUMPDEST JUMPDEST PUSH1 0x0 PUSH2 0xA4F DUP5 DUP3 DUP6 ADD PUSH2 0xA16 JUMP JUMPDEST SWAP2 POP POP SWAP3 SWAP2 POP POP JUMP JUMPDEST PUSH1 0x0 DUP2 SWAP1 POP SWAP2 SWAP1 POP JUMP JUMPDEST PUSH2 0xA6B DUP2 PUSH2 0xA58 JUMP JUMPDEST DUP3 MSTORE POP POP JUMP JUMPDEST PUSH1 0x0 PUSH1 0x20 DUP3 ADD SWAP1 POP PUSH2 0xA86 PUSH1 0x0 DUP4 ADD DUP5 PUSH2 0xA62 JUMP JUMPDEST SWAP3 SWAP2 POP POP JUMP JUMPDEST PUSH2 0xA95 DUP2 PUSH2 0xA58 JUMP JUMPDEST DUP2 EQ PUSH2 0xAA0 JUMPI PUSH1 0x0 DUP1 REVERT JUMPDEST POP JUMP JUMPDEST PUSH1 0x0 DUP2 CALLDATALOAD SWAP1 POP PUSH2 0xAB2 DUP2 PUSH2 0xA8C JUMP JUMPDEST SWAP3 SWAP2 POP POP JUMP JUMPDEST PUSH1 0x0 PUSH1 0x20 DUP3 DUP5 SUB SLT ISZERO PUSH2 0xACE JUMPI PUSH2 0xACD PUSH2 0x9C8 JUMP JUMPDEST JUMPDEST PUSH1 0x0 PUSH2 0xADC DUP5 DUP3 DUP6 ADD PUSH2 0xAA3 JUMP JUMPDEST SWAP2 POP POP SWAP3 SWAP2 POP POP JUMP JUMPDEST PUSH1 0x0 DUP2 SWAP1 POP SWAP2 SWAP1 POP JUMP JUMPDEST PUSH1 0x0 PUSH2 0xB0A PUSH2 0xB05 PUSH2 0xB00 DUP5 PUSH2 0x9CD JUMP JUMPDEST PUSH2 0xAE5 JUMP JUMPDEST PUSH2 0x9CD JUMP JUMPDEST SWAP1 POP SWAP2 SWAP1 POP JUMP JUMPDEST PUSH1 0x0 PUSH2 0xB1C DUP3 PUSH2 0xAEF JUMP JUMPDEST SWAP1 POP SWAP2 SWAP1 POP JUMP JUMPDEST PUSH1 0x0 PUSH2 0xB2E DUP3 PUSH2 0xB11 JUMP JUMPDEST SWAP1 POP SWAP2 SWAP1 POP JUMP JUMPDEST PUSH2 0xB3E DUP2 PUSH2 0xB23 JUMP JUMPDEST DUP3 MSTORE POP POP JUMP JUMPDEST PUSH1 0x0 PUSH1 0x20 DUP3 ADD SWAP1 POP PUSH2 0xB59 PUSH1 0x0 DUP4 ADD DUP5 PUSH2 0xB35 JUMP JUMPDEST SWAP3 SWAP2 POP POP JUMP JUMPDEST PUSH32 0x4E487B7100000000000000000000000000000000000000000000000000000000 PUSH1 0x0 MSTORE PUSH1 0x11 PUSH1 0x4 MSTORE PUSH1 0x24 PUSH1 0x0 REVERT JUMPDEST PUSH1 0x0 PUSH2 0xB99 DUP3 PUSH2 0xA58 JUMP JUMPDEST SWAP2 POP PUSH2 0xBA4 DUP4 PUSH2 0xA58 JUMP JUMPDEST SWAP3 POP DUP3 DUP3 SUB SWAP1 POP DUP2 DUP2 GT ISZERO PUSH2 0xBBC JUMPI PUSH2 0xBBB PUSH2 0xB5F JUMP JUMPDEST JUMPDEST SWAP3 SWAP2 POP POP JUMP JUMPDEST PUSH1 0x0 PUSH2 0xBCD DUP3 PUSH2 0xA58 JUMP JUMPDEST SWAP2 POP PUSH2 0xBD8 DUP4 PUSH2 0xA58 JUMP JUMPDEST SWAP3 POP DUP3 DUP3 MUL PUSH2 0xBE6 DUP2 PUSH2 0xA58 JUMP JUMPDEST SWAP2 POP DUP3 DUP3 DIV DUP5 EQ DUP4 ISZERO OR PUSH2 0xBFD JUMPI PUSH2 0xBFC PUSH2 0xB5F JUMP JUMPDEST JUMPDEST POP SWAP3 SWAP2 POP POP JUMP JUMPDEST PUSH32 0x4E487B7100000000000000000000000000000000000000000000000000000000 PUSH1 0x0 MSTORE PUSH1 0x12 PUSH1 0x4 MSTORE PUSH1 0x24 PUSH1 0x0 REVERT JUMPDEST PUSH1 0x0 PUSH2 0xC3E DUP3 PUSH2 0xA58 JUMP JUMPDEST SWAP2 POP PUSH2 0xC49 DUP4 PUSH2 0xA58 JUMP JUMPDEST SWAP3 POP DUP3 PUSH2 0xC59 JUMPI PUSH2 0xC58 PUSH2 0xC04 JUMP JUMPDEST JUMPDEST DUP3 DUP3 DIV SWAP1 POP SWAP3 SWAP2 POP POP JUMP JUMPDEST PUSH1 0x0 PUSH2 0xC6F DUP3 PUSH2 0xA58 JUMP JUMPDEST SWAP2 POP PUSH2 0xC7A DUP4 PUSH2 0xA58 JUMP JUMPDEST SWAP3 POP DUP3 DUP3 ADD SWAP1 POP DUP1 DUP3 GT ISZERO PUSH2 0xC92 JUMPI PUSH2 0xC91 PUSH2 0xB5F JUMP JUMPDEST JUMPDEST SWAP3 SWAP2 POP POP JUMP JUMPDEST PUSH1 0x0 DUP3 DUP3 MSTORE PUSH1 0x20 DUP3 ADD SWAP1 POP SWAP3 SWAP2 POP POP JUMP JUMPDEST PUSH32 0x77726F6E6720616D6F756E742100000000000000000000000000000000000000 PUSH1 0x0 DUP3 ADD MSTORE POP JUMP JUMPDEST PUSH1 0x0 PUSH2 0xCDF PUSH1 0xD DUP4 PUSH2 0xC98 JUMP JUMPDEST SWAP2 POP PUSH2 0xCEA DUP3 PUSH2 0xCA9 JUMP JUMPDEST PUSH1 0x20 DUP3 ADD SWAP1 POP SWAP2 SWAP1 POP JUMP JUMPDEST PUSH1 0x0 PUSH1 0x20 DUP3 ADD SWAP1 POP DUP2 DUP2 SUB PUSH1 0x0 DUP4 ADD MSTORE PUSH2 0xD0E DUP2 PUSH2 0xCD2 JUMP JUMPDEST SWAP1 POP SWAP2 SWAP1 POP JUMP JUMPDEST PUSH2 0xD1E DUP2 PUSH2 0x9ED JUMP JUMPDEST DUP3 MSTORE POP POP JUMP JUMPDEST PUSH1 0x0 PUSH1 0x40 DUP3 ADD SWAP1 POP PUSH2 0xD39 PUSH1 0x0 DUP4 ADD DUP6 PUSH2 0xD15 JUMP JUMPDEST PUSH2 0xD46 PUSH1 0x20 DUP4 ADD DUP5 PUSH2 0xA62 JUMP JUMPDEST SWAP4 SWAP3 POP POP POP JUMP JUMPDEST PUSH1 0x0 PUSH1 0x60 DUP3 ADD SWAP1 POP PUSH2 0xD62 PUSH1 0x0 DUP4 ADD DUP7 PUSH2 0xD15 JUMP JUMPDEST PUSH2 0xD6F PUSH1 0x20 DUP4 ADD DUP6 PUSH2 0xD15 JUMP JUMPDEST PUSH2 0xD7C PUSH1 0x40 DUP4 ADD DUP5 PUSH2 0xA62 JUMP JUMPDEST SWAP5 SWAP4 POP POP POP POP JUMP INVALID LOG2 PUSH5 0x6970667358 0x22 SLT KECCAK256 SWAP15 GAS JUMPDEST SELFDESTRUCT 0xD3 0x2D 0xDB 0xE9 0x5F 0x4F STOP 0xE2 0xCA 0xE7 GAS 0x5F PUSH12 0xBE166B5DA7CB2CD4F2F7FD7B 0xA8 0x4E 0xB1 PUSH5 0x736F6C6343 STOP ADDMOD GT STOP CALLER "
				},
				"gasEstimates": {
					"creation": {
						"codeDepositCost": "702800",
						"executionCost": "infinite",
						"totalCost": "infinite"
					},
					"external": {
						"earned(address)": "infinite",
						"getReward()": "infinite",
						"lastUpdateTime()": "2473",
						"rewardPerToken()": "infinite",
						"rewardPerTokenStored()": "2539",
						"rewardRate()": "2540",
						"rewards(address)": "2837",
						"rewardsToken()": "infinite",
						"stake(uint256)": "infinite",
						"stakingToken()": "infinite",
						"userRewardPerTokenPaid(address)": "2814",
						"withdraw(uint256)": "infinite"
					}
				},
				"methodIdentifiers": {
					"earned(address)": "008cc262",
					"getReward()": "3d18b912",
					"lastUpdateTime()": "c8f33c91",
					"rewardPerToken()": "cd3daf9d",
					"rewardPerTokenStored()": "df136d65",
					"rewardRate()": "7b0a47ee",
					"rewards(address)": "0700037d",
					"rewardsToken()": "d1af0c7d",
					"stake(uint256)": "a694fc3a",
					"stakingToken()": "72f702f3",
					"userRewardPerTokenPaid(address)": "8b876347",
					"withdraw(uint256)": "2e1a7d4d"
				}
			},
			"storageLayout": {
				"storage": [
					{
						"astId": 73,
						"contract": "staking/StakingAlg.sol:stakingAlg",
						"label": "rewardsToken",
						"offset": 0,
						"slot": "0",
						"type": "t_contract(IERC20)67"
					},
					{
						"astId": 76,
						"contract": "staking/StakingAlg.sol:stakingAlg",
						"label": "stakingToken",
						"offset": 0,
						"slot": "1",
						"type": "t_contract(IERC20)67"
					},
					{
						"astId": 79,
						"contract": "staking/StakingAlg.sol:stakingAlg",
						"label": "rewardRate",
						"offset": 0,
						"slot": "2",
						"type": "t_uint256"
					},
					{
						"astId": 81,
						"contract": "staking/StakingAlg.sol:stakingAlg",
						"label": "lastUpdateTime",
						"offset": 0,
						"slot": "3",
						"type": "t_uint256"
					},
					{
						"astId": 83,
						"contract": "staking/StakingAlg.sol:stakingAlg",
						"label": "rewardPerTokenStored",
						"offset": 0,
						"slot": "4",
						"type": "t_uint256"
					},
					{
						"astId": 87,
						"contract": "staking/StakingAlg.sol:stakingAlg",
						"label": "userRewardPerTokenPaid",
						"offset": 0,
						"slot": "5",
						"type": "t_mapping(t_address,t_uint256)"
					},
					{
						"astId": 91,
						"contract": "staking/StakingAlg.sol:stakingAlg",
						"label": "rewards",
						"offset": 0,
						"slot": "6",
						"type": "t_mapping(t_address,t_uint256)"
					},
					{
						"astId": 95,
						"contract": "staking/StakingAlg.sol:stakingAlg",
						"label": "balances",
						"offset": 0,
						"slot": "7",
						"type": "t_mapping(t_address,t_uint256)"
					},
					{
						"astId": 97,
						"contract": "staking/StakingAlg.sol:stakingAlg",
						"label": "_totalSupply",
						"offset": 0,
						"slot": "8",
						"type": "t_uint256"
					}
				],
				"types": {
					"t_address": {
						"encoding": "inplace",
						"label": "address",
						"numberOfBytes": "20"
					},
					"t_contract(IERC20)67": {
						"encoding": "inplace",
						"label": "contract IERC20",
						"numberOfBytes": "20"
					},
					"t_mapping(t_address,t_uint256)": {
						"encoding": "mapping",
						"key": "t_address",
						"label": "mapping(address => uint256)",
						"numberOfBytes": "32",
						"value": "t_uint256"
					},
					"t_uint256": {
						"encoding": "inplace",
						"label": "uint256",
						"numberOfBytes": "32"
					}
				}
			},
			"userdoc": {
				"kind": "user",
				"methods": {},
				"version": 1
			}
		}
	}
}